:020000040800F2
:1000000008160120A1020008EBAD0008F38C0008DF
:10001000A3AD0008910C0008812501080000000034
:10002000000000000000000000000000E5E90008FA
:100030003D11000800000000550B0008B5EA00085B
:10004000DB020008DB020008DB02000865E50008AF
:10005000DB020008DB020008DB020008DB0200080C
:10006000DB020008DB020008DB020008DB020008FC
:10007000DB020008DB020008DB020008DB020008EC
:10008000DB020008DB020008DB020008DB020008DC
:10009000DB020008DB020008DB020008DB020008CC
:1000A000DB020008DB020008DB020008DB020008BC
:1000B000DB020008C5120108DB020008DB020008B1
:1000C000DB020008DB020008DB020008DB0200089C
:1000D000DB0200080D250108DB020008DB02000836
:1000E000DB02000859E50008DB020008DB0200081B
:1000F000DB020008DB020008DB020008DB0200086C
:10010000DB020008DB020008DB020008DB0200085B
:10011000DB020008DB020008DB020008DB0200084B
:10012000DB020008DB020008DB020008DB0200083B
:10013000DB020008DB020008DB020008DB0200082B
:10014000DB020008DB020008DB020008DB0200081B
:10015000DB020008DB020008DB020008DB0200080B
:10016000DB020008DB020008DB020008DB020008FB
:10017000DB020008DB020008DB02000800000000D0
:10018000DB020008DB020008DB020008DB020008DB
:10019000DB020008DB020008DB020008DB020008CB
:1001A000DB020008DB020008DB02000800F002F8B6
:1001B00000F067F80AA090E8000C82448344AAF19A
:1001C0000107DA4501D100F05CF8AFF2090EBAE898
:1001D0000F0013F0010F18BFFB1A43F0010318477B
:1001E00024470200444702000A444FF0000C10F874
:1001F000013B13F0070408BF10F8014B1D1108BFA5
:1002000010F8015B641E05D010F8016B641E01F844
:10021000016BF9D113F0080F1EBF10F8014BAD1C94
:100220000C1B09D16D1E58BF01F801CBFAD505E0B2
:1002300014F8016B01F8016B6D1EF9D59142D6D30C
:10024000704700000023002400250026103A28BF34
:1002500078C1FBD8520728BF30C148BF0B60704738
:10026000642900F0D780782900F01081732900F00C
:100270004B83002070471FB51BF00BFE1FBD10B550
:1002800010BD00F0DBFB1146FFF7F5FF1AF08AFF07
:1002900000F0F9FB03B4FFF7F2FF03BC1AF0E4FE31
:1002A00011488047DFF84400016841F470010160A3
:1002B000BFF34F8FDFF83800016821F04041016043
:1002C000BFF36F8F0B480047FEE7FEE7FEE7FEE750
:1002D000FEE7FEE7FEE7FEE7FEE7FEE70648074922
:1002E000074A084B70470000D9EA000888ED00E093
:1002F00034EF00E0AD010008080A012008160120D3
:10030000080C0120080C012072B6704762B67047D5
:10031000EFF3108072B6704780F31088704730BFDB
:10032000704720BF7047B0FA80F0704790FAA0F095
:10033000B0FA80F0704790FAA0F070477047000064
:100340000FB4044910B503AA029800F0E1FA10BCFA
:100350005DF814FB240000202DE9F0410E46044610
:10036000002020622046E168884730B3252805D068
:10037000D4E901219047206A401CF2E7E168204659
:1003800000278847050018D0A5F14100192802D898
:1003900020354FF400673246294620462760FFF794
:1003A0005FFF40B1012804D0F61D26F0070608368D
:1003B000D8E7361DD6E72846DAE7206ABDE8F0819F
:1003C00070B50C460546012A05D02878800600D570
:1003D000EA69002302E0012305E05B1C934202D29C
:1003E000E05C0028F9D1A869E618C01AA861286A5B
:1003F000184428622846AFF3008004E0D5E90121C3
:1004000014F8010B9047B442F8D32846AFF30080AC
:1004100070BD00002DE9F0410646002410687529E2
:10042000314616A510D0AFF30080002802DA404212
:1004300013A507E031688A0701D512A502E0490734
:1004400004D511A5012401E0AFF3008000210A22A8
:1004500006F1240709E0B0FBF2FCB0FBF2F302FB6B
:100460001C00303078541846491C0028F3D123462C
:100470002A463046BDE8F04100F0DBB9000000003C
:100480002D0000002B0000002000000070B5044685
:100490000D4621461068AFF300802188090502D57A
:1004A0000F4A7A4402E00E4A7A440E32002104F1E7
:1004B000240305E000F00F060009965D5E54491C18
:1004C0000028F7D120780023000704D5702D02D032
:1004D00009B1022311322046BDE8704000F0A9B9ED
:1004E0009643020040EA010310B59B070FD1042A8E
:1004F0000DD310C808C9121F9C42F8D020BA19BAEF
:10050000884201D9012010BD4FF0FF3010BD1AB153
:10051000D30703D0521C07E0002010BD10F8013BA8
:1005200011F8014B1B1B07D110F8013B11F8014BCF
:100530001B1B01D1921EF1D1184610BD40EA0103E8
:10054000024630B59B0710D14FF0013400E008C2DD
:1005500008C91D1B9D4315EAC41FF8D013F0FF0105
:1005600002F8011B0DD01B0AF8E711F8013B002B24
:1005700002F8013B05D011F8013B002B02F8013BCA
:10058000F3D130BD10B5431C02E010F8011B71B16E
:100590008107FAD14FF0013202C88C1A8C4314EA59
:1005A000C211F9D0C01A0A0603D0C01E10BDC01A6D
:1005B00010BD0A0401D0801E10BD0902FCD0401EEF
:1005C00010BD032A40F2308010F0030C00F01580BB
:1005D00011F8013BBCF1020F624498BF11F801CB46
:1005E00000F8013B38BF11F8013BA2F1040298BFAB
:1005F00000F801CB38BF00F8013B11F0030300F015
:100600006780083AC0F0088051F8043B083A51F876
:1006100004CBA0E80810F5E7121D5CBF51F8043BBD
:1006200040F8043BAFF30080D20724BF11F8013B30
:1006300011F801CB48BF11F8012B24BF00F8013B92
:1006400000F801CB48BF00F8012B7047431A28BFC0
:100650009A427FF6B6AF032A1044114440F2268036
:1006600010F0030F1EBF11F8013D521E00F8013DAE
:1006700010F0030F7FF4F6AF11F0030300F06D816B
:10068000083AC0F00B8051F8043D083A51F804CD07
:1006900040F8043D40F804CDFFF7F3BF121D5CBFE6
:1006A00051F8043D40F8043DAFF30080D20724BF69
:1006B00011F8013D11F801CD48BF11F8012C24BFFC
:1006C00000F8013D00F801CD48BF00F8012C70474B
:1006D00010B5203AC0F00B80B1E81850203AA0E8DD
:1006E0001850B1E81850A0E81850BFF4F5AF5FEA11
:1006F000027C24BFB1E81850A0E8185044BF18C9C4
:1007000018C0BDE810405FEA827C24BF51F8043B6A
:1007100040F8043B08BF7047D20728BF31F8023BBE
:1007200048BF11F8012B28BF20F8023B48BF00F852
:10073000012B704702F0FF0343EA032242EA024220
:1007400000F037B94FF0000200B5134694469646C4
:10075000203922BFA0E80C50A0E80C50B1F12001D4
:10076000BFF4F7AF090728BFA0E80C5048BF0CC082
:100770005DF804EB890028BF40F8042B08BF7047E0
:1007800048BF20F8022B11F0804F18BF00F8012B52
:10079000704700004FF0013C50F8042B51F8043B27
:1007A0009A4221D1A2EB0C03934313EACC1317D145
:1007B00050F8042B51F8043B9A4215D1A2EB0C03DC
:1007C000934313EACC130BD150F8042B51F8043B9C
:1007D0009A4209D1A2EB0C03934313EACC13DBD06A
:1007E0004FF00000704700BFD01A01BAB1FA81F192
:1007F00001F0180122FA01F0CB40C1F12001DBB277
:10080000C0B2C01A2CFA01F3D11A914311EAC311F4
:10081000E6D17047704770477047704710B500F0D9
:10082000E9F8006810BD10B5044600F0E3F8046074
:1008300010BD2DE9F0470D4699469246044600F159
:1008400024080168880604D5E06921F010012160C0
:1008500000E00120A84201DD471B00E00027A1695C
:100860007A1902EB0900081AA0612078C00602D4A8
:100870002046AFF30080002608E0D4E901211AF8F1
:1008800006009047206A401C761C20624E45F4DB2F
:100890002078C0060AD52046AFF3008006E0D4E9F0
:1008A000012130209047206A401C2062381EA7F1A9
:1008B0000107F4DC07E0D4E9012118F805009047AE
:1008C000206A401C2062281EA5F10105F3DC2046A9
:1008D000AFF300802078000602D50220BDE8F08743
:1008E0000120FBE710B5436913B1AFF3008001E0CD
:1008F000FFF766FD012010BD127800F124010A7097
:1009000000224A700122EDE711684FF0FF32E9E75B
:10091000074B70B50D467B4400F075F80446284639
:1009200000F084F810B14FF0FF3070BD204670BD6C
:1009300043A80100431A28BF9A427FF6C9AE10446B
:1009400010F0030F11441EBF11F8013D521E00F8B4
:10095000013D10F0030F7FF4F6AF103AC0F00A80AB
:1009600010B531E91850103A20E91850BFF4F9AF2A
:10097000BDE81040530724BF31E9081020E90810F2
:1009800044BF51F8043D40F8043D12F0030F08BF86
:100990007047D20728BF31F8023D48BF11F8012C3B
:1009A00028BF20F8023D48BF00F8012C70474FF0E7
:1009B00000020429C0F0128010F0030C3FF4C4AE12
:1009C000CCF1040CBCF1020F18BF00F8012BA8BF3A
:1009D00020F8022BA1EB0C01FFF7B6BE5FEAC17C49
:1009E00024BF00F8012B00F8012B48BF00F8012BB1
:1009F0007047000000487047A409012001694A1CA3
:100A000002610878704700B58FB0CDE9013100214F
:100A1000059105497944CDE9031011466846FFF771
:100A20009BFC0FB000BD0000E5FFFFFF007B00F066
:100A30008000704700487047A40901207546FFF701
:100A4000F9FFAE4605006946534620F0070085468B
:100A500018B020B5FFF742FCBDE820404FF000067B
:100A60004FF000074FF000084FF0000B21F0070196
:100A7000AC46ACE8C009ACE8C009ACE8C009ACE8D9
:100A8000C0098D46704710B50446AFF3008020467C
:100A9000BDE81040FFF7FEBBEFF3098141B1F1EE75
:100AA000101A40F8041D20ED200A3E490A68106023
:100AB0007047B0EC200A02C8E1EE101A3A490A6801
:100AC0001060704772B64EF62250CEF2000040F22F
:100AD000FF01C0F2000101704FF0000080F30988AF
:100AE0000BF0E2FA40F2A810C2F20000016881F3B4
:100AF000088840F23210C2F2000040F23311C2F214
:100B000000010A78027040F2A015C2F2000540F21E
:100B1000A411C2F200010A682A60106880F30988F3
:100B2000EFF3148040F0020080F31488BFF36F8F5E
:100B3000BDE8F00F0FBCBDE8005006BC62B6084728
:100B40001A484FF080510160704718484FF08051AB
:100B50000160704772B6EFF3098020E9F00F40F2B0
:100B6000A015C2F200052E68306074460BF09CFAA6
:100B700040F23210C2F2000040F23311C2F2000122
:100B80000A78027040F2A411C2F200010A682A60D9
:100B900044F0F40E1068B0E8F00F80F3098862B6F4
:100BA00070470000A0010020A401002004ED00E037
:100BB00008F0C0B82DE9F0410D460146002004467A
:100BC0004E1908E00702301B401E80B200F007F803
:100BD000641C3844E4B2AC42F4D3BDE8F08110B5F3
:100BE000044608F04FF9200AA02101EB4000C0B2F2
:100BF00008F018F908F088F9E0B208F013F908F0E5
:100C000083F908F03FF9A12008F00CF908F07CF90D
:100C1000002008F0D3F8044608F054F9204610BD2F
:100C20002DE9F04116460D460746002409E0E00094
:100C300025FA00F0C1B2381980B200F006F8641C41
:100C4000E4B2B442F3D3BDE8F08170B50D4604467A
:100C500008F018F9200AA02101EB4000C0B208F00A
:100C6000E1F808F051F9E0B208F0DCF808F04CF9CE
:100C7000284608F0D7F808F047F908F023F9BDE84E
:100C800070400A201AF018BA002800DC4042704771
:100C9000FEE70000054910B50020486000F0A6F806
:100CA00000F006F8BDE8104000F086B8B80000205B
:100CB0002DE9F041104F002635463E807E80BE6013
:100CC000FE607E61BE613E61FFF722FB804600242C
:100CD0007E6100F049F800F057F87869641C24043C
:100CE0000544240CF4D0C7E904564046BE61BDE873
:100CF000F041FFF711BB0000B8000020034909696B
:100D0000884201D9401A704700207047B80000207F
:100D100010B5FFF7FDFA04494C69FFF7FDFA2046CC
:100D2000BDE81040FFF7EABFB800002010B5FFF79C
:100D3000EFFF0446FFF7ECFA034A00215161FFF789
:100D4000EBFA204610BD0000B800002010B5FFF7F8
:100D5000DFFA04498C69FFF7DFFA2046BDE810404E
:100D6000FFF7CCBFB800002010B5064C2088401C0F
:100D70002080608810B900F051F8A0606088401CA5
:100D8000608010BDB800002010B50A4C6088401E7D
:100D90000004000C60800CD100F040F8E060A16815
:100DA000401A6169814200D26061A169814200D22A
:100DB000A06110BDB800002010B5FFF7A9FA0446E5
:100DC000FFF7D2FF1021054809F0ECFFFFF7DCFF29
:100DD0002046BDE81040FFF79FBA0000A0ED0020BC
:100DE0000149486070470000B800002010B507F0C6
:100DF000E7F808490A6842F080720A600649002252
:100E00004A600A6842F001020A60BDE81040FFF73C
:100E1000E7BF0000FCED00E0001000E00148406882
:100E200070470000001000E070B50E4C0025C4F8BB
:100E300098520D48016821F0C0010160016841F03D
:100E4000400101600948C0F88C52022004F5267464
:100E50001AF05AF90120206002201AF055F9256095
:100E600070BD000000804342002002400000444268
:100E7000154810B5016886B041F080010160016835
:100E800001F080010591016841F480710160006802
:100E9000012400F4807005904020CDE90004032077
:100EA000CDE902406946094806F006FB082000909B
:100EB0006946074806F000FB0648C0F88C42064821
:100EC000C0F8984206B010BD30380240001C024005
:100ED00000200240000044420080434270B50E4CA6
:100EE0000026C4F898620D48016821F0C001016035
:100EF000016841F04001016009480125C0F88C52A9
:100F0000022004F526741AF0FFF8256002201AF07A
:100F1000FBF8266070BD00000080434200200240C4
:100F2000000044422DE9F047824619480024016838
:100F300021F0C0010160016801601E201AF0E4F890
:100F40000025144EDFF850902F464FF00108C6F8E8
:100F5000987202201AF0D8F8C6F898826006040E3B
:100F6000D9F80C0208B1641CE4B202201AF0CCF8E3
:100F70006D1CEDB2082DEAD3BAF1000F04D0FFF7D3
:100F800053FF2046BDE8F087FFF7A8FFF9E7000010
:100F90000020024000804342000044422DE9F04717
:100FA00005461648016821F0C0010160016841F062
:100FB00040010160124E0027C6F8987202201AF014
:100FC000A3F8DFF8408000244FF00109E909C8F8D0
:100FD0008C126806050E02201AF096F8C6F8989250
:100FE00002201AF091F8C6F8987202201AF08CF8D4
:100FF000641CE4B2082CE9D3BDE8F087002002406D
:10100000008043420000444270B50F48016821F05F
:10101000C0010160016841F0400101600B4E0120F8
:10102000C6F88C020A4DC5F898021E2005F52675F3
:1010300006F523761AF068F80024346002201AF0CE
:1010400063F82C6070BD00000020024000004442A4
:101050000080434270B50F48016821F0C001016073
:10106000016841F0400101600B4E0020C6F8980273
:101070000A4DC5F88C021E2005F5237506F5267667
:101080001AF042F80124346002201AF03DF82C6076
:1010900070BD000000200240008043420000444236
:1010A00070B511480024016821F0C0010160016899
:1010B00001600E4D0120C5F88C020D4EC6F8980255
:1010C00007E0641CE4B2FA2C03D9FFF7C3FF012048
:1010D00070BD02201AF018F8D5F80C020028F0D1E3
:1010E000C6F8980270BD0000002002400000444293
:1010F000008043427CB50D4C00257F20A580E08018
:10110000FF2020814FF49670608111F057FE08494E
:1011100012F099FB11F052FE03460095054A0E218C
:101120000548019503F032F820607CBDDC06012003
:1011300081AD0108A1AD01086808020870470000F0
:101140002DE9F0411A4CA08804F001FD40F253262D
:101150004FF40C77872332466421384603F0AEFC07
:10116000E088000204F0F3FCC8233246A52138468B
:1011700003F0A4FC2089000404F0E9FC40F2091506
:101180002B463246E621384603F098FCE088218958
:10119000000240EA0140A188084304F0D8FC642121
:1011A0002B46701DBDE8F04140F2FD2203F086BCE5
:1011B000DC0601202DE9FC470E465FEA00097FD0DE
:1011C00003F02AFE484602F0C7FD009090F85470E4
:1011D000D0F85880456BC46C684602F027FEB8F121
:1011E000000F04D0314648464246904761E0122E37
:1011F00018D006DC082E43D0102E3CD0112E06D17C
:1012000012E0132E21D01D2E43D01E2E3DD0202EB5
:101210004FDB17B1484613F0D2FEB1B2484617F083
:1012200059FA60B3611C27E04DB3284602F094FDE3
:1012300005462146019004F0DBFF4419204604F0E6
:1012400085FF01462346012210E0C5B1284602F081
:1012500083FD05462146019004F0CAFF441920464B
:1012600004F074FF014623464FF0FF32484613F066
:101270008DFC01A81BE0611E484600F03FFA18E013
:10128000BCB1611E484600F039FA484613F097FE9B
:101290000FE0484602F060FD0090012F12D00121BE
:1012A00080F854102146484600F028FA684602F0BB
:1012B000BDFD484612F0D6F800E001E005F0AAF8BE
:1012C000BDE8FC87002180F85410EFE7FEB54468C4
:1012D0000546204612F01AFF06462946204611F020
:1012E00069F9002837D028680F2830D004DC0B2893
:1012F00032D00E2853D13AE0A0F58070133804D0D4
:10130000A0F580702D384AD110E0204612F04AFA3C
:101310002046002117F0A2FC204602F01DFD01909E
:10132000C06F002112F015FA01A81DE0E86860B155
:10133000017A29B10168204600F0AEF8012100E0F1
:101340000221204612F04EF929E00321F9E701219C
:10135000204617F083FCFEBD204602F0FDFC009005
:10136000343002F05DFC684602F060FD17E0B6B173
:10137000E8684168002912DD01681B290FD006DCEE
:1013800009290CD00A290AD00D2904D107E0212906
:1013900005D0222903D02046FFF70CFFFEBD2846CA
:1013A00011F0BEFBFEBDF0B587B004460DF1080C90
:1013B000D4E90567B0F90850408A8CE8E1000020C4
:1013C000CDE90010B4F90C00B4F91060C118B4F9FB
:1013D0000A00B4F90E50104433462A4600F008F8CB
:1013E000050002D0618A00F05CF907B02846F0BD24
:1013F0002DE9F04F85B01F46DDE91254DDE90E6A94
:1014000090468946834603F007FD0DF1040C4AF42B
:1014100080501F49583400968CE813003B464246E2
:101420004946584611F0C4FA04002AD002F094FC50
:1014300010220490119911F04BFA04981C221549BE
:101440006030FFF745F9049A012082F85500681CC6
:1014500000D0012082F88000002D00DC08252DB28C
:10146000158700205087506304A86D1C02F0DEFC35
:101470002946204616F0F1FF18B9204611F088FBE6
:10148000002404F0C7FF05B02046BDE8F08F00003F
:10149000CD120008640200202DE9F04186B00C4610
:1014A000060055D003F0B8FC304602F055FC009021
:1014B000406B98B302F050FC03900098806E04F0EB
:1014C00063FB8046304611F019FD0746039803F090
:1014D00001FC0546009890F8601001F00301012915
:1014E00016D002290DD0416EC06A00680844241A43
:1014F000641E039805F06AFD0146002C0FDA0021F6
:1015000015E0781B401C00EBD070A4EB6004F0E702
:10151000406E791B081A241A641CEAE713E0AC42F7
:1015200005DC02462146039805F0FAFC01463046E8
:1015300000F0E4F803A802F079FC404604F024FB34
:10154000304611F08FFF684602F070FC04F062FF35
:1015500006B0BDE8F08100002DE9F8431D46DDE945
:10156000084916460F46804603F056FC5FEA08001D
:1015700040D002F0F1FB2149009081652049C1650E
:101580000021C0E91271E0E90F650121047280F8C1
:101590001A90017690F84470684602F047FC87B1D3
:1015A000284616F0D4FC0546304616F0D0FC0CB1A7
:1015B000401C6D1C854200DD28460146404600F077
:1015C00037F8404618F054FE404602F0C5FB009044
:1015D00000F07FF80B490978884205D10098C16C6A
:1015E0004046491C00F08AF8684602F01FFC40465D
:1015F00011F038FF04F00EFFBDE8F883A54701089D
:1016000071A20108D001002038B50D4604000ED0AB
:1016100003F002FC204602F09FFB00908566204606
:1016200011F020FF684602F001FC04F0F3FE38BD23
:101630007CB50C46060033D003F0EEFB304602F0DA
:101640008BFB0090B0F93810458FA14223D012DDFA
:10165000406B80B102F080FB019005F0B7FCA04226
:1016600006DD2146019804F0C3FD019A00211154C2
:1016700001A802F0DBFB684602F0D8FB611B304694
:10168000491C16F0EAFE304602F066FB0090048723
:10169000304611F0E7FE684602F0C8FB04F0BAFEDF
:1016A0007CBD38B50C4605000FD003F0B5FB2846CD
:1016B00002F052FB009018B10466284611F0D2FEE9
:1016C000684602F0B3FB04F0A5FE38BD002218F016
:1016D000FCBA38B50546406B002468B102F03CFB0B
:1016E00000900446E96C04F083FD204404F02EFDD4
:1016F0000446684602F09AFB204638BD1CB50C46ED
:1017000002F02AFB0090406BF0B102F025FB019043
:1017100005F05CFC009991F8542002B10122002CE4
:1017200000DA0024844200DD0446B1F93800801A52
:10173000A04200DA0446C86CA04200D0CC6400206D
:10174000086501A802F072FB684602F06FFB1CBD41
:1017500070B5B3F5804F05D06FF0704140F822109E
:10176000002070BD50F82230084C2340D1E90045DC
:1017700044EA05148D688E892D0245EA064589697B
:101780002C430C431C4340F82240E9E70000F0CF13
:10179000F0B50C6850F82450194A1540D1E90123DE
:1017A000D1E903671A433E4332434E6932438E699F
:1017B0003243CE6932430E6A32434E6A32438E6AF6
:1017C0003243CE6A3243CE6B32430E6B32434E6BA2
:1017D00032432A43082B01D142F0400240F8242032
:1017E0004A6BB2F5801F08D10A6832B14FF480729B
:1017F0000A6104490268114301600020F0BD000045
:101800008000E0FF00011000F0B500EB8202536899
:101810008E8903F04044D1E9003543EA05138D6811
:101820002D0245EA06452B430E8A0D4D05EB065663
:1018300033430E7D6F0107EB066633438E693343F6
:10184000234353600268D20207D54268098A22F412
:10185000700205EB0151114341600020F0BD000012
:101860000000F0FF30B5D1E901231A43D1E9033478
:1018700023431A434B690D681A438B691A43D1E914
:101880000734012D496A05686FF30E0505D01A4328
:1018900022430A432A43026008E0234329430B43BF
:1018A000416803606FF30E010A434260002030BDBF
:1018B000426942EA4101416100207047F8B514468F
:1018C0000546D1E9000210438A686FF01F03C9681A
:1018D00003EB421242EA412108430090286105F0DF
:1018E000E3FE064609E0601C07D024B105F0DCFEEB
:1018F000801BA04201D90320F8BDA8698006F2D45C
:101900000020F8BDF0B56FF00F05D1E9003405EB0C
:1019100004145B1E2E0123438C682F0306EB042462
:101920004FEA054C23430D8A8E8ACC68097E4FF01E
:101930007F4E07EB05450CEB06560EEB0161012AC5
:101940000CD082683F1107EB043423432B4333430D
:1019500002F070420B43134383600FE0C2682B43D5
:101960000B4302F070428168134301F0704221037F
:10197000A1F5805131431143C36081600020F0BD67
:101980002DE9F047044640688EB00027804602F0FB
:10199000E3F90090B0F87CA0D0F86890D0F88060AF
:1019A000D0F88850C06D00B10768684602F03EFA72
:1019B00005E0696820468847002843D12D68002D3E
:1019C000F7D12068172853D00CDC0F283DD004DC59
:1019D0000B2877D00D2825D18BE0112810D01428A2
:1019E00020D13BE0262846D004DC1E2851D02028F8
:1019F00018D18AE02A2816D0B0F5107F12D128E03D
:101A00004046E56802F0A8F90290697A39B9297A66
:101A1000012904D130F87C1F41F48071018002A8B3
:101A200002F004FA75E0404602F096F90090E16891
:101A300011B1C0F8841002E0D0F88400E06068467C
:101A400002F0F4F90EB0BDE8F087D7B34046B847CE
:101A50005FE02146404617F05DF8F3E705A94046F0
:101A600000F075FBE0680699016007994160E9E7BD
:101A7000C4F80C90E6E7E0680228E3D1CDF83080A6
:101A8000E0680D9027200A900AA9A06812F038FD9E
:101A9000D8E7E068012804D00021404600F0BBFAF6
:101AA000D0E7304611F047FD68B1304611F068FFCD
:101AB000304611F01DFC98B10121304610F00EFEA9
:101AC0000EE026E02FE0484611F0AEFF0646404605
:101AD00002F042F90090C0F88060684602F0A6F972
:101AE0000121404600F097FA002EABD10020E060C3
:101AF000A8E75FEA0A700CD4E068C06848B1007AD1
:101B000038B1404611F03CFF03E02146404616F054
:101B100053FF2146404610F04DFD002892D020464C
:101B200010F0FEFF8EE7404602F016F9009070308C
:101B300002F076F8684673E7F0B587B0B0F9084070
:101B40000DF10C0C0C9E876945688CE8F000448A06
:101B50000025CDE900150294B0F90C10B0F9105031
:101B6000B0F90E40B0F90A00194410442B46224641
:101B700000F002F807B0F0BD2DE9F04F8BB09846A9
:101B8000DDE9155691468A468346149F1A9C03F058
:101B900043F93348603445F48055CDE90204CDE97A
:101BA000007543464A465146584610F001FF04006E
:101BB0004FD002F0D1F830220490179910F088FE2F
:101BC0000498282227493430FEF782FD0498199999
:101BD000244F4166A0F87C600026C0F88060C6668D
:101BE000083FC0F888607968C16504A802F01EF952
:101BF00005A9204600F0ABFA1B4841F2827103961A
:101C00000094CDE90110BDF91E00BDF91A10BDF90F
:101C10001C20431ABDF918005B1C121A521C10F04C
:101C2000C7FE06467868416820468847204602F08D
:101C300093F80490866604A802F0F8F842F20400D3
:101C4000054202D1204611F01BF82046189900F0F9
:101C500027FA04F0DFFB0BB02046BDE8F08F000050
:101C60008119000888020020552400082DE9F04160
:101C7000044694B0006800F0B7F908B1D94D01E00E
:101C8000D84D2C35606815281ED00CDC0B281FD0D1
:101C900004DC00287ED005287DD12FE10E287BD0E2
:101CA0001228F9D141E1162806D0172808D01828A3
:101CB00008D01C28F0D109E0E86914B0BDE8F08133
:101CC000286AFAE7686AF8E7A86AF6E76869F4E755
:101CD00020680B901C200C90206802F03DF80390C7
:101CE000016D0BA88847064603A802F09FF8022E54
:101CF0000FDB95E807008DE80700D4E904023346BE
:101D0000A16904F0DBFF20698719A069A0EB060830
:101D10002CE0286803F01BFF2169E8690A18521EAD
:101D2000606902F0CBFDA269E869111A491C60697B
:101D300002F0C4FDD4E904077F1C394602F00EFE10
:101D40003946A06902F00AFE686803F000FF2069C6
:101D50003946401C02F002FEA0693946401E02F0DE
:101D6000FDFDA0692769A0F10208BF1C286803F0E7
:101D7000EEFE42463946606902F0A0FD686803F055
:101D8000E6FE606942463946401C02F097FD686AEB
:101D9000022802E015E1B0E000E10BDDA86803F0E5
:101DA000D6FE61696A6A881C8B180146424638462D
:101DB0005B1E27E0296AB14226DD6069022E0746D4
:101DC00000F1020801DB374401E007F10207206956
:101DD00001DB304401E000F1020022693B460A4485
:101DE0004146A2F1010202F069FE022E02DBA06967
:101DF000821B01E0A269921EA069E9693B46401A74
:101E00004146401C02F05AFE022E02DB6069064485
:101E100001E06669B61CE76928687F1E03F097FE3B
:101E20003A463146206902F0FFFD3A463146A06944
:101E300002F0FAFDE7696868BF1E03F088FE2069BA
:101E40003A463146401C02F0EFFDA0693A46314661
:101E5000401E02F0E9FDE869022802DC286A022837
:101E600023DDA86A022802DDE1690F1A01E0E769B3
:101E7000BF1EA86803F06BFEE969022909DD20692D
:101E80003B46421800F1020C31466046521E02F0F9
:101E900015FE286A022808DDA269E8693B46101A87
:101EA0003146401C921E02F009FE286803F04FFEE6
:101EB000D4E90620216902F001FD686803F047FEBD
:101EC000D4E906202169401E491C521E02F0F6FC8E
:101ED000A86A022811DDA1692669E469A1F1020856
:101EE000271AA41EB61C7F1CA86803F030FE2346E8
:101EF00042463946304602F0E1FD71E0208A00B2E8
:101F0000ADF81400A18A09B2ADF81610228B12B2F6
:101F1000ADF81820A38B1BB2ADF81A302C69ED6810
:101F2000CDE9005402F08EFC5AE0208A298B084447
:101F3000ADF81400A08AADF81600208B298B401A4A
:101F4000ADF81800A08BADF81A00206801F004FF6E
:101F50000390006FF0B1022003F0A0FE039890F808
:101F60007C10C1F3C00100EB8100006C03F0EFFDB9
:101F70000398406B03F008FE0398006F01F0ECFE3D
:101F800003990990B1F95A2005A902F0E3FA09A8CA
:101F900001F04CFF03A801F049FF21E0208AADF8D1
:101FA0001400A08AADF81600208BADF81800A08BA5
:101FB000ADF81A00A86803F0CAFD05A802F0AAFD52
:101FC0000EE0206801F0C8FE039030F85A1F41F07F
:101FD0000C01018003A801F029FF206811F056FDD3
:101FE00000206AE6F803002038B505004FF0000431
:101FF0000FD002F011FF284601F0AEFE009090F8DD
:102000007C00000700D50124684601F00FFF04F0B2
:1020100001FA204638BD70B50D46040009D002F023
:10202000FBFE2946204617F0EDF9BDE8704004F0AC
:10203000F1B970BD2DE9FC410D46804602F0ECFE81
:102040005FEA080028D001F087FE0190C16D8C681E
:1020500000F0E4F807460198456301A801F0E6FEA8
:1020600022680121404690470646226803214046E7
:102070009047054622680021404690470446404666
:1020800000F0B1F92B46324639464046009400F044
:102090003AF9404611F0E6F904F0BCF9BDE8FC81DC
:1020A0007CB50D4604001DD002F0B6FE204601F0BE
:1020B00053FE0090006F0190684601F0B7FE29467C
:1020C00001A805F0D9F858B1204601F045FE00906E
:1020D00001990167684601F0A9FE204611F0C2F996
:1020E00004F098F97CBD38B50C46050013D002F019
:1020F00093FE284601F030FE0090B0F95A10A1423C
:1021000004D0A0F85A40284611F0ACF9684601F016
:102110008DFE04F07FF938BD38B50C46050015D0AA
:1021200002F07AFE284601F017FE0022CDF80000EA
:1021300000EB8201521C0C64022AF9D3684601F0BC
:1021400075FE284611F08EF904F064F938BD2DE9CA
:10215000F34F85B000270C46B846059801F0FCFD0A
:102160000090C06D0121856805982A6890478246D5
:102170002A6803210598904704902A68022105984F
:10218000904703902A6800210598904706460098DA
:1021900011F03AFE8346009811F03DFE814600980A
:1021A00090F83210890601D5B0F9588000F036F861
:1021B00005460098C06E10B110F0B7FE07462580A6
:1021C0006780A4F804A0049AABEB020006EB0802B7
:1021D000401E2A4420813A44E280039BA9EB03027B
:1021E000521E6281A4F80CA020827019E681401E64
:1021F0006082684601F01AFEB4F90C000190B4F94F
:102200001000029002AA01A9059800F039F801987F
:10221000A0810298208207B0BDE8F08F10B501467A
:10222000002091F83220920607D5B1F95400002819
:1022300003D1486B02F078FD801C10BD70B58AB0E8
:102240000C46054601F088FD0990C06D866809A816
:1022500001F0ECFD009534B1012C06D0022C0BD01E
:10226000032C04D10AE0182000E0162001907168C8
:10227000684688470AB070BD1520F7E71720F5E7D4
:102280002DE9FC4117468846044601F065FD0090A3
:10229000C16D056868468E6801F0C8FD326800218E
:1022A000204690470646204610F0AFFD27E000BFCD
:1022B00001F052FD0190B0F900102AB2B0F90430DB
:1022C000891A9A1AB0F90230A3EB2543B34210D110
:1022D00090F82800000605D53868884209DB491EB9
:1022E000396006E0D8F80000904202DC521CC8F8C1
:1022F000002001A801F09AFD204610F0C1FD040065
:10230000D6D1BDE8FC812DE9FF4F83B00E460746CC
:10231000DDF8409001F020FD0190C16D8D68FFF760
:102320007DFF044601A801F081FD2A68012138469D
:10233000904783462A6803213846904782462A6898
:102340000021384690470546B44207D105998B4590
:1023500004D106998A4501D14D4541D0A41B0026E0
:10236000B046384610F051FD38E001F0F5FC009021
:10237000806A010601D5800502E0810528D50006A6
:10238000002825DB24B122461146384611F067F9B2
:10239000009890F8280000060AD50698A5EB0902D7
:1023A000A0EB0A0004FB16013846761C11F00BF96D
:1023B0000098008D80050BD50599A5EB0902ABEBC4
:1023C000010004FB080108F10108384611F0FBF890
:1023D000684601F02BFD384610F052FD0700C4D1CD
:1023E00007B0BDE8F08F70B586B0064601F0B4FCCA
:1023F0000590D0E91A4505A801F018FD54EA05003A
:1024000026D069463046FFF7A2FEACB1BDF90620E2
:10241000BDF90410204611F0A9F8BDF90A00BDF974
:102420000610421ABDF90800BDF90410521C411AE9
:102430002046491C11F04EFB002D09D0BDF90600C5
:10244000BDF90210421ABDF90410284611F08EF8A9
:1024500006B070BD2DE9F0430446406889B00546DA
:1024600010F01BFD814601F077FC0290D0F8488007
:10247000D0F88070466E02A801F0D8FC20681728BA
:1024800053D008DC0E283AD00F2811D014284CD095
:1024900015283DD149E01E281ED01F282AD0222809
:1024A00040D0312834D10020E06009B0BDE8F0838D
:1024B0006FF070414046884503D007F029FD01F0D8
:1024C00019FE002EF1D0D4E902122068CDE90405EE
:1024D000CDE9061204A81FE0E0680028E5D02FB17E
:1024E000AF4203D0384611F04BFADEE7284611F030
:1024F0009BFADAE72146484610F05CF8D5E7E06839
:102500004168002904DD00680928EFD00A2805D0B9
:102510005EB12046C4F80490B047C6E7284611F0E3
:1025200092FAC2E7C4F80C80BFE7204610F0F8FA30
:10253000BBE7000070B54A4888B00024016841F04C
:1025400080010160016801F080010791016841F498
:1025500080710160006802A900F4807007908020FB
:10256000012581E83100032005903E4804F0A4FFD6
:102570002802CDE9020502A93B4804F09DFFFEF7C1
:1025800077FC3A4EC6F8A042142006F5287618F0DB
:1025900093FD3560322018F08FFD8DF80040022247
:1025A0006946A12000F072F89DF80000302803D1A0
:1025B0009DF80110032931D09DF8011001292DD07B
:1025C00002292BD00422694648F2401000F0AAFDEF
:1025D0008DF80440694626A0FDF7B2FE2748009911
:1025E00048F24005C0F8021002208DF800000122D8
:1025F0006946284600F0EAFE01226946E81D00F01F
:1026000091FD0A2018F058FD8DF80040012269461E
:10261000284600F0DBFE08B0002070BDC9B201EB17
:10262000002117A0FDF78CFE01226946002000F072
:1026300079F901226946A42000F074F916208DF87A
:10264000000001226946802000F06CF90C208DF812
:10265000000001226946882000F064F9DBE70000F1
:1026600030380240001C024000200240000044427A
:102670004354502049443A25730D0A003800002085
:102680004354502049443A25780D0A002DE9F04181
:1026900015460F460446FEF7B7FC7020FEF77EFC99
:1026A000FEF7FEFCE0B2FEF779FCFEF7F9FCFEF760
:1026B000ABFC7120FEF772FCFEF7F2FC00246E1EEC
:1026C00009E0B44201D0012000E00020FEF72AFC1E
:1026D0003855641CE4B2AC42F3D3BDE8F041FEF7D8
:1026E000B9BC00002DE9F14783B00027884D8DF873
:1026F00004704FF00A0A6878864C401CC0B2B0FBE8
:10270000FAF20AFB1201B846687009B10A286FD2C2
:102710007F4881A1801CFEF73DF84FF0010203A91C
:1027200008B30220FFF7B2FF9DF80C0001075FD04D
:1027300000F00F01287881425AD8FF228A40D1B296
:10274000C943B4F8349041F0C001A18604EB4000C5
:10275000A1894181218CC183042018F0ADFC8DF842
:1027600004706E4E84E048F24E16304600F0DAFCFB
:102770009DF80C000106D7D5297800F00F0088429B
:10278000D2D88DF80470012201A9304600F01EFE57
:10279000CAE7A18E01228240114264D05C485EA14A
:1027A000801CFDF7F7FF20B35D489DF8041004225C
:1027B00030F811006946FFF769FF94F844009DF86E
:1027C0000010C0079DF8010001F00F0139D000EBA7
:1027D00001219DF8040004EB400001849DF80220D3
:1027E0009DF8031002F00F0201EB022181813AE013
:1027F00058E04B489DF804100A30042230F81100CC
:10280000694600F08FFC94F844009DF80110C00761
:102810009DF8000000EB01219DF8040004EB40004E
:1028200005D081819DF802109DF8032018E00184F5
:102830009DF802109DF8032001EB02213288511A05
:10284000D4E700EB01203188091A9DF8040004EB5D
:10285000400081819DF802209DF8031002F00F02D4
:1028600001EB022101849DF80400401C8DF8040056
:102870009DF80400297888428BD3A08931884FF0D5
:102880000108884203D8208C7188884209D99DF8B4
:102890000C0000F00F00012812D9E089A081608CA3
:1028A00020846F701A481CA1801CFDF773FF00285C
:1028B0009DF80C004FF6FF710FD0C00623D019E031
:1028C000287804EB40004189A181C08B20848020BE
:1028D0008DF80C00A4F83490E4E700F08F00802815
:1028E00011D007E020F0800003E0A181218400F0F6
:1028F000E000A0866878F02801D985F801A004B02E
:102900004046BDE8F087A08E0206EED5EAE700005B
:10291000380000204800002039313100C81700205D
:10292000EC0502082DE9F04115460E460446002745
:10293000FEF76AFB7020FEF731FBFEF7B1FBE0B259
:10294000FEF72CFBFEF7ACFB002408E0305DFEF741
:1029500025FBFEF7A5FB070003D1641CE4B2AC42E3
:10296000F4D3FEF777FB3846BDE8F0812DE9F0435C
:102970000446C56887B090468946002003F0F8F801
:10298000064625B1287910B146F0020001E026F094
:10299000020003F0EDF82069012558B1D4E90212D4
:1029A0008DE82600039563882288046841464846DE
:1029B000A0471EE0124F134B214638681B68427C2B
:1029C000E068984730B9E088012801D0002001E094
:1029D0003868806BA288E388A1680095CDE904106F
:1029E000CDE902320195638822884146484606F0C7
:1029F000AFFB07B03046BDE8F04303F0B9B80000C4
:102A0000DC010020D40100201CB50024019401AC9D
:102A1000009400F0E7F81CBD2DE9FF4F83B081461C
:102A200006988A46A0EB0A08109E00200090A2EBB0
:102A300009043568934654EA080018D02046FEF78A
:102A400023F907464046FEF71FF987420BDA204676
:102A5000444680464846D14682465846DDF818B07E
:102A6000069001200090002C07DD204606E007B00C
:102A70004846BDE8F04F00F03BB96042A0420AD0A2
:102A80004846D9466442C8F1000883464FF0FF37F4
:102A9000DDF818A000E001275148B8F1000F11D06F
:102AA00004EBD4714FEA610B01DACBF1000B4C4817
:102AB0000068807E88B3002F02DA306820443060DE
:102AC00000257BE000990029016821D0897E11B1A1
:102AD0000027804615E007B05A4649465046BDE8F3
:102AE000F04F06F0FBBC28466D1C16F067FD38B9A8
:102AF000D8F8000009EB0701406E42685046904745
:102B00007F1CA742EFDD6D1E356007B0BDE8F08F7A
:102B10008A7E1AB10027804617E019E0486E5A46AF
:102B20005146036807B04846BDE8F04F18472846AD
:102B30006D1C16F043FD38B9D8F8001009EB0700FA
:102B4000496E4A68514690477F1CA742EFDDDAE79D
:102B500000250FE008FB05B090FBF4F101EB0A0043
:102B6000009951B11E4A09EB05011268526E526874
:102B700090476D1CA542EDDDC7E7194909EB050338
:102B80000968496E4A6801461846F1E708FB05B036
:102B900090FBF4F101EB0A0001903068384430609A
:102BA00016F00CFD48B9009890B10D4809EB0501ED
:102BB0000068406E4268019890476D1CA542E5DDB3
:102BC0003068002F01DA20443060C01B30609CE781
:102BD000034909EB05000968496E4A680199EBE76A
:102BE000DC0100202DE9FF470F464049164680468C
:102BF00009680C981D460A7E012A1CD0A8EB060025
:102C0000791B50EA01031CD0A2F1010918F04EF81B
:102C100000F58060824604F01EFC00FB09F450467B
:102C200004F01EFC00FB09F1002C0CDAC4F5007066
:102C3000801240420AE00090324639464046FFF793
:102C4000EBFEBDE8FF8704F50074A012002904DA4A
:102C5000C1F5007189124C4202E001F500718C123D
:102C6000002804DD411C01EBD171491003E000EBA9
:102C7000D0714910401E00EBD0704210002C04DDD2
:102C8000601C00EBD070401003E004EBD4704010E7
:102C9000641E04EBD47308EB0104ADF800403C184B
:102CA000ADF80240A8EB02045B10B21AADF8044084
:102CB000ADF808203144FC1AEA1AADF80C1028448B
:102CC000ADF80A20ADF80E000023ADF806401A4614
:102CD0000421684600F07AF83946404613F0E6FED3
:102CE0002946304613F0E2FEABE70000DC0100208D
:102CF000064A13681A7E012A05D0521E02EBD272D0
:102D0000521000F005B85A6E52681047DC010020DE
:102D10002DE9F05F0646884640F2C32002FB00F131
:102D20004FF47A7091FBF0F702FB02F102EBD270E4
:102D300001EB600B1446B118234A301B7F1C12684C
:102D4000526E13680A4641469847012538E000BF95
:102D500005FB05F004FB040159451CDDBC4219DDEF
:102D6000194B06EB050AA6EB05091B68AAF101023F
:102D700008EB04015B6E09F101001B689847124BD8
:102D8000AAF10102A8EB04011B6809F101005B6EC6
:102D90001B689847641E0C4B3219301B1B68924607
:102DA00008EB05015B6E81461B689847064B52464F
:102DB000A8EB05011B6848465B6E1B6898476D1CB5
:102DC000BD42C5DDBDE8F09FDC0100202DE9FF4FCD
:102DD00043F6FF740F46664283B09B46814600214E
:102DE0000BE000BF09EB8100B0F90200A04200DA5D
:102DF0000446B04200DD0646491CB942F2DB674892
:102E00000068406900280DD0B0F906101A46A1EB01
:102E10000B01B14200DA0E46B0F90200801AA0425E
:102E200000DD0446B4E0DFF878A100200546CAF8CA
:102E3000000088E0781E854201DA6B1C00E0002368
:102E400009EB850C09EB8302BCF90200B2F9021010
:102E5000A04244D1A14215D139F92330059A39F95C
:102E6000251003EB020C4D4A05981268084404EB48
:102E70000B01526E6045136801DA62462AE0024691
:102E8000604627E02846A4464FF000087A1E0BE073
:102E900008B1401E00E0781E09EB8003B3F9023050
:102EA000634504D108F101089045F1DB2346A342B4
:102EB00048D01A1B39F92500A1EB040C059B92EAB6
:102EC0000C0F09D4354A184404EB0B011268526EFA
:102ED00013680246984735E011F000FC32E0A14249
:102EE00030D001DBA04203DDA0422BDBA14229DC74
:102EF000E04688420ADC0346A04223DC0846A142A1
:102F000020DBB8F900C0B2F9001008E00B46A1427E
:102F100018DCA04216DBB2F900C0B8F90010E21AC2
:102F2000A1EB0C0151430029A0EB030202DD01EBF0
:102F3000620102E0A1EB6201491CC01A91FBF0F0B2
:102F40006044C9E76D1CBD42FFF674AF0598009060
:102F500004EB0B00019000208046054613E0114968
:102F6000B8F1000F31F915A009D0009901EB0A0260
:102F700008440A490968496E0B680199984788F026
:102F8000010850466D1C064909688D42E7DB641C48
:102F9000B4427FF748AF07B0BDE8F08FDC010020F6
:102FA000380500208009012010B5002002F0C4FD82
:102FB0006FF07F4002F0CBFD012002F051FE0020B7
:102FC00002F05CFE002002F069FE002002F0D0FD5D
:102FD0000448006802F0D8FDBDE81040002002F06F
:102FE00011BE0000D80100202DE9F0433E4889B011
:102FF0000024016841F080010160016801F0800156
:103000000791016841F4807101600068802600F436
:103010008070079001AA012503270096DFF8CC9065
:1030200082E8B0006946484604F046FA2802CDE935
:10303000000569462E4804F03FFAFDF719FFDFF856
:10304000B480C8F8A0420A2018F036F8C8F8A05298
:103050000A2018F031F8CDE90064CDE9024769464D
:10306000484604F029FA642018F026F8042205A93D
:1030700048F2401000F056F88DF8184005A91EA03F
:10308000FDF75EF91FA105A8FDF784FB40BB0220F8
:103090008DF8140048F24005012205A9284600F0E9
:1030A00095F9012205A9E81D00F03CF89DF81410DF
:1030B00060290BD215A0FDF743F919488088A0F5C7
:1030C000AA41103902D1012000F05AF90A2017F064
:1030D000F3FF8DF81440012205A9284600F076F987
:1030E00009B00020BDE8F08330380240001C0240E7
:1030F00000200240000044424354502049443A25F5
:10310000730D0A00393134370000000044656661F0
:10311000756C74205665723A25640D0A0000000033
:10312000C81700202DE9F04115460F460446FDF76B
:103130006BFF2820FDF732FFFDF7B2FF200AFDF7F5
:103140002DFFFDF7ADFFE0B2FDF728FFFDF7A8FF6B
:10315000FDF75AFF2920FDF721FFFDF7A1FF00240D
:103160006E1E09E0B44201D0012000E00020FDF70E
:10317000D9FE3855641CE4B2AC42F3D3BDE8F0414B
:10318000FDF768BF2DE9F14F794E00244FF00A0B8F
:10319000307882B0401CC0B2B0FBFBF20BFB1201D6
:1031A000744DA146307009B10A2877D248F24E1703
:1031B000012202A93846FFF7B5FF9DF808004FF03D
:1031C000000801060AD500F00F00062806D28DF887
:1031D0000480012201A9384600F0F8F89DF80800A3
:1031E00001075BD000F00F00062857D2FF21814075
:1031F000C8B28DF80400C04395F834A040F0C00078
:10320000A886A889A882288C5B4F28854FF00109E1
:10321000A98E09FA04F0014268D058480422694690
:1032200030F81400FFF77EFFB888A0F5AA411039E6
:1032300008D0A0F5864142391AD0A0F586418439DC
:103240002DD053E095F84400C0072CD09DF8000025
:103250009DF8011000EB012105EB440001849DF86D
:1032600002109DF8032001EB0221C1F548713CE0FA
:1032700095F84400C00716D19DF800009DF8011094
:1032800000EB012105EB440001849DF802109DF83C
:10329000032001EB0221C1F5887126E041E095F899
:1032A0004400C00710D09DF800009DF8011000EB0D
:1032B000012105EB440081819DF802109DF8032057
:1032C00001EB0221018411E09DF800009DF801103E
:1032D00000EB012105EB440001849DF802109DF8EC
:1032E000032001EB0221C1F5F0718181641CE4B27D
:1032F000052C8DD3A9893A884FF0010928469142BF
:1033000003D8018C7A88914209D99DF8081001F000
:103310000F0101290CD9C1898181418C298486F84A
:1033200000809DF8080000F08F0080280AD016E089
:10333000818A8181018D018480218DF80810A5F892
:1033400034A0EEE7A88E010602D520F0800005E04B
:103350004FF6FF71A981298400F0E000A88630783B
:10336000F02801D986F800B04846BDE8FE8F00007D
:103370003F00002048000020C8170020B8060208BF
:1033800008B500218DF800108DF801000E489DF859
:103390000020435C491C1A44C9B28DF80020B829AA
:1033A000F5D3D0B2C043401C8DF80000B8220649C6
:1033B00048F2470000F00AF80222694648F2FF008E
:1033C00000F004F8002008BD000602082DE9F041D5
:1033D00015460E4604460027FDF716FE2820FDF789
:1033E000DDFDFDF75DFE200AFDF7D8FDFDF758FE77
:1033F000E0B2FDF7D3FDFDF753FE002408E0305D99
:10340000FDF7CCFDFDF74CFE070003D1641CE4B2D0
:10341000AC42F4D3FDF71EFE3846BDE8F081000053
:103420002DE9F0433F4889B00024016841F0800154
:103430000160016801F080010791016841F4807129
:1034400001600068802500F48070079001AA0126C1
:1034500003270095DFF8D09082E8D00069464846FF
:1034600004F02AF84FF48078CDE900862F4E6946A3
:10347000304604F021F8FDF7FBFC002241463046BF
:1034800004F00DF90A2017F017FE012241463046DC
:1034900004F005F90A2017F00FFECDE90054CDE93C
:1034A00002476946484604F007F8642017F004FE16
:1034B000042205A948F2401000F050F88DF8184099
:1034C00005A91BA0FCF73CFF1DA105A8FDF762F9AB
:1034D00018B1012009B0BDE8F08302208DF8140076
:1034E00048F24005012205A92846FFF76FFF012297
:1034F00005A9E81DFFF716FE9DF81410412905D215
:1035000011A0FCF71DFF012000F030F90A2017F090
:10351000D3FD8DF81440012205A92846FFF756FF78
:103520000020D7E730380240001C02400020024053
:103530004354502049443A25730D0A0D0A000000F7
:10354000393237310000000044656661756C7420C3
:103550005665723A25640D0A000000002DE9F0411D
:1035600015460F460446FDF74FFD2820FDF716FDD2
:10357000FDF796FD200AFDF711FDFDF791FDE0B284
:10358000FDF70CFDFDF78CFDFDF73EFD2920FDF755
:1035900005FDFDF785FD00246E1E09E0B44201D053
:1035A000012000E00020FDF7BDFC3855641CE4B2AA
:1035B000AC42F3D3BDE8F041FDF74CBD2DE9F14736
:1035C00083B000268DF80060644C4FF00A0A644D09
:1035D00020783746401CC0B2B0FBFAF20AFB120159
:1035E00020704FF6FF7909B10A287DD248F24E18B3
:1035F000012203A94046FFF7B1FF9DF80C00010628
:103600000AD500F00F000B2806D28DF800600122C9
:103610006946404600F0D0F89DF80C00010775D0CF
:1036200000F00F000B2871D209FA00F1C843B5F879
:10363000348040F0C000A886A889E883288C68867A
:103640008DF8006047E0A88E9DF800200121914090
:1036500008423BD043499DF80000062231F8100093
:1036600001A9FFF77BFF95F84400C00716D09DF82D
:1036700006109DF8070001EB00209DF8001005EBF7
:10368000410108849DF804009DF8051000EB01201D
:103690009DF8001005EB4101888117E09DF80600B8
:1036A0009DF8071000EB01209DF80010C0F5487050
:1036B00005EB410188819DF804009DF8051000EBA1
:1036C00001209DF8001005EB410108849DF80000E1
:1036D000401C8DF800009DF800000A28B3D3224852
:1036E0000127A989028800E010E0914203D8298CC3
:1036F0004088814209D99DF80C0000F00F00012894
:103700000BD9E889A881688C288426709DF80C0064
:1037100000F08F0080280AD016E0E88BA881688E20
:10372000288480208DF80C00A5F83480EEE7A88E60
:10373000010602D520F0800005E0A5F80C90A5F860
:10374000209000F46040A8862078F02801D984F801
:1037500000A004B03846BDE8F087000090000020CB
:10376000480000208A070208C817002008B5002179
:103770008DF800108DF801000E489DF80020435C84
:10378000491C1A44C9B28DF80020B829F5D3D0B22B
:10379000C043401C8DF80000BA22064948F2470099
:1037A00000F00AF80222694648F2FF0000F004F82F
:1037B000002008BDD00602082DE9F04115460E464E
:1037C00004460027FDF720FC2820FDF7E7FBFDF766
:1037D00067FC200AFDF7E2FBFDF762FCE0B2FDF7B3
:1037E000DDFBFDF75DFC002408E0305DFDF7D6FB56
:1037F000FDF756FC070003D1641CE4B2AC42F4D3DD
:10380000FDF728FC3846BDE8F08100002DE9F04FB7
:10381000DFF828B191B04FF0FF35DBF80030B3F995
:1038200022100691DE69B3F92490F469A1898142DE
:1038300006D8E289824203D3471AD4F8008012E006
:10384000D4E9018100296FD00A8882426CD84D8862
:10385000854269D3801A82B2486800EB8200B0F9D1
:103860000070B0F90250781C5ED0307EA17C10FB55
:1038700001FA217CCDE90701B3F92A60304606F050
:103880001BFCC0B20E90DBF8000007FB0A81A37C92
:10389000826B0127CDE90412CDE90273C069089A51
:1038A000C17E807ECDE90001DDE90603494605F0D1
:1038B0004FFC681C18D046F0020006F0FDFBDBF858
:1038C0000000A37C05FB0A81826BCDE90273CDE980
:1038D0000412C069089AC17E807ECDE90001DDE94D
:1038E0000603494605F034FCDBF800005D46C0697C
:1038F000417E007E814214D9022E12D086F004004F
:1039000006F0DAFB2868C069027EC37E12FB0391D1
:10391000437E857E089A06984B4412FB050205F00B
:1039200011FF0E9806F0C8FBDBF80000627C418CAA
:103930001144418411B0BDE8F08F0000DC0100208B
:1039400004480068C069C06909B1027C0A60407C13
:1039500070470000DC010020022008807047C06929
:1039600082898A4202D8C2898A4210D2806880B194
:1039700002888A420DD843888B420AD3406800EB04
:103980008100A0EB8200B0F90000002801DB0120DB
:1039900070470020704700002DE9F043304C03468B
:1039A00087B020681946B0F92A60C069C06900F084
:1039B00086F8002850D041680088181A01EBC0052D
:1039C0003046AF7806F078FB814620686A680123AC
:1039D000816BCDE90237CDE90421C169CB7E8A7EB6
:1039E000CDE900230B7EB0F924102A78B0F922002B
:1039F00005F0AEFB2068C069417E027E91421FD96E
:103A0000C07E11FB00F812FB00F7022E18D001F067
:103A10001CF9064601F0E2F802F099F821682A78CC
:103A2000CB69B1F92200DB7E12FB0302B1F924104D
:103A300001EB0803394405F085FE304602F087F8B3
:103A4000484606F039FB20686A78C369B0F922104D
:103A50009B7E12FB0311418407B0BDE8F083000098
:103A6000DC01002030B50F4C05460B462068294686
:103A7000C069C06900F023F8002812D041680088AE
:103A800024682A1A0120E46900EBC200085CA47EC5
:103A900010FB04F0002B04D011F8321011FB04F1DC
:103AA000196030BDDC01002001200880704700B59E
:103AB000C06900F004F8002800D0012000BD06E035
:103AC00002888A4202D842888A4202D2806800284C
:103AD000F6D1704770B50025124C19E020691249E3
:103AE000C5EB051600EBC60070220968001DFCF747
:103AF000EFFD2069002140F8361000EBC60000F110
:103B00000C018161011D0A1DC0E90F126D1C416489
:103B1000A0688542E2DB01F07FF9BDE8704002F069
:103B200079BC000098030020DC01002070B50F492B
:103B30000D480860084603F097FB0C4C143CA06845
:103B4000C0EB0010C500284600F078F82A46002196
:103B5000206103F002FC4FF0FF30206002F0C0FC57
:103B6000BDE8704014F0D4BBC58A0108AC03002046
:103B700010B5040009D001F04FF9204610F0CCFE3A
:103B8000044602F047FC204610BD002010BD38B5A9
:103B9000054601F041F92846FFF7EAFF040009D085
:103BA00000F0DAF82A460021009003F0D6FB6846C0
:103BB00000F03CF902F02EFC204638BD024A1060AD
:103BC00021F0030050607047A807012010B50400E1
:103BD00016D001F021F90B48406B10F8341059B1A0
:103BE000022909D2042101EBC4014158486810F0B0
:103BF00091FD204615F00CFBBDE8104002F00ABC18
:103C000010BD0000E8060120002805D0034AD16B52
:103C1000016001B14860D06370470000E8060120F0
:103C200010B5044601F0F8F82068FFF7CFFF002038
:103C30002060BDE8104002F0EDBB00002DE9F0412E
:103C4000044614F0F3FC2848E41C24F00305016C3E
:103C50002D1DA94200D90D46C46B13E054F8042C65
:103C6000AA420ED184B1216809B162684A606168D4
:103C700009B122680A60C26BA24231D12168C163D6
:103C80002EE02468002CE9D18046816BC0680F18B3
:103C900057F8040C3E1A306838B1002015F022FBAA
:103CA00057F8040C3E1A3068D0B97068A84217DB88
:103CB0003044441B3046241D15F0CCFAD8F80C10C3
:103CC000491BC8F80C10D8F814102944C8F814106F
:103CD0007068401B02D0314610F01CFD44F8045CB3
:103CE0002046BDE8F0810000E806012010B5002460
:103CF00014F09CFC0C490F2001EBC002526C1AB16D
:103D000001EBC000406C08E0401EF5D508E04168BA
:103D1000A14200D90C46806810B180680028F6D115
:103D2000A4F10C0010BD0000E8060120002138B10C
:103D30000449042202EBC000496B085841680C3961
:103D400008467047E806012002488169491C8161E4
:103D500070470000E80601200549CA69521CCA6183
:103D6000496B01EBC0010A78521C0A7000F076B86A
:103D7000E80601207CB506460C460846FFF7F8FE2B
:103D8000050020D0FEB13046FFF7D0FFA04200DA98
:103D9000044601F041F82846FFF7DEFF0090304668
:103DA000FFF7DAFF0146019022460098FCF709FC74
:103DB000684600F03BF801A800F038F83046FFF7FD
:103DC00005FF02F027FB28467CBD000010B501F07E
:103DD00023F8FFF78BFF64220849B0F5800F04D960
:103DE00090FBF2F4086A444303E0096A4143B1FBE3
:103DF000F2F402F00FFB204610BD0000E80601209F
:103E00000549102805D94A68B0EB520F02D3500873
:103E100000E0102088607047A807012002488169EF
:103E2000491E816170470000E80601200A490268C6
:103E30004B6B52F8082C03EBC2021378022B03D30E
:103E4000CB690BB15B1ECB611178491E117000214B
:103E50000160084670470000E8060120002806D0EF
:103E60000349042202EBC000496B08580830704730
:103E7000E8060120F0B52D271C68B0F1004F08D0EE
:103E8000002600280DDA651C1D60277040420124C1
:103E900008E0651C01261D606FF000402770491E78
:103EA00001E00024091BC9B22AB3491EC9B222E0AD
:103EB0000C46491EC9B2944205D1124C27781C68A1
:103EC000651C1D602770104C54F8215090FBF5F4D0
:103ED000E4B20A2C11D804FB150011B90EB1641C10
:103EE000E4B20A2C02D10124491CC9B21D686F1C1E
:103EF00030341F602C700029DAD119680020087056
:103F0000F0BD0000D0010020B834020810B5002830
:103F100007DD0A682B24531C0B601470096800220B
:103F20000A7010BD2DE9FC5F8946044600F074FF5D
:103F3000484600F097FE2C4E09EB8907824656F85A
:103F40002700019029484FF00108016841B927492D
:103F5000C0F80080091D26480860084603F084F96F
:103F6000214A09EB89015FEA0A0002EB81051BD0B7
:103F700001F0C6FD83464FF07F4001F0DDFD00F00B
:103F8000B9F800221146206800F09EFB20684288A4
:103F90000188504601F018FE46F8274085F8058054
:103FA000584601F0ADFD17E046F8274085F805803A
:103FB0002869464618B101F0D3FC0020286174B18D
:103FC0000096E868A1684B46421AA8686168411AE1
:103FD000206801F01FFD2861484615F0ABFE02F095
:103FE00019FA0198BDE8FC9F240801202002002056
:103FF000798A010870B514460D46064600F00CFF9C
:10400000204600F02FFE0300174804EB840109D07E
:1040100050F8210041688068711A2A1A184601F088
:10402000C3FD1CE000EB8104A268B24201D0012272
:1040300000E00022E368AB4201D0012300E000234E
:104040001A430CD0236943B150F8210081684068BD
:104050006A1A311A184601F0A8FCC4E90265BDE8E5
:10406000704002F0D7B9000024080120024800681F
:10407000407C00F003B80000DC01002010B50446CD
:1040800000F0CAFE0A4804EB840100EB8103012220
:104090005A7150F8210030B1204615F04BFEBDE8B2
:1040A000104002F0B7B921460248FFF73BFFF6E7A0
:1040B00024080120F434020810B5C2B2CBB2D21ADF
:1040C00000D5524293B25B43C0F30722C1F30724E9
:1040D000121B00D55242000C92B2A0EB114002FB21
:1040E000023200B2002801DA404200B280B200FB86
:1040F000002010BD10B50021084600F02BFE43F64D
:10410000FF725042BDE8104013460146AFF30080F5
:104110002DE9FC411C4615460E46074600F07CFE84
:10412000042005F0C9FF80461248C068C16C006DCC
:104130000F4406440D440444ADF80070ADF804503B
:10414000ADF80260ADF8064068460FF06BFE07E080
:1041500023462A463146384605F0F4FA0FF016FE9B
:104160000028F5D1404605F0A7FF02F053F9BDE85D
:10417000FC810000D0010020B0F90630B0F9042025
:10418000B0F90210B0F90000FFF7C2BF2DE9F84303
:104190001C00DDE9089816460F46054602D10EF0D0
:1041A0000DFE044600962E6843464A4621462846A0
:1041B000B047060039D00EF0F6FD8146698A3046D8
:1041C0000EF08CFA30460FF0B9FC48460FF0B6FC02
:1041D0004FF000080CE000BFCDF8008055F81CCF70
:1041E00000231A4649462846E04700B30FF0A6FCD4
:1041F0007F1E002FF0DC1D2148460FF004FB601CE1
:1042000012D000F009FE0EF00DFE30B1FFF726FED1
:104210008469B44201D02000F8D1B44202D03046C3
:104220000FF002FC02F0F6F83046BDE8F8833046A5
:104230000EF0AEFC0020F8E72DE9F0411C461646D2
:104240000D460746022B02DB0020BDE8F0811C2052
:10425000FFF7F4FC0028F8D00DB105610AE0094A27
:1042600052F8241009B905E011460A68002AFBD16A
:104270000969016184618682002101604160C0E9B1
:104280000217E2E7F401002070B51D46FFF7D4FFE6
:10429000040009D000F00EF8E068006820B9034877
:1042A000006800EB85008465204670BDDC010020BD
:1042B000FFF7AABC70B590B38269022A30DA1E4CAF
:1042C00054F8221019B944F8220032E019464B681C
:1042D000002BFBD106E0CB68C5681B682D68AB429C
:1042E00003DD09680029F6D11AE0C1B1CB68C668C0
:1042F0001B683668B3420CD1838A012B05D008E0D5
:104300001946DB681B68AB4203DB0B68002BF7D157
:1043100029B14B6833B118604A68426004E0FFE796
:10432000012070BD44F822004860884200D100217D
:104330000160002070BD0000F401002010B503E012
:104340000468FFF7B7FF20460028F9D110BD15F02B
:1043500077BF00002DE9F0410026DFF834800D4FD3
:10436000354600BF58F8254009E0E0680068385C31
:1043700020B1204615F064FF266026462468002CF4
:10438000F3D16D1C022DEDDB3046BDE8F08100005D
:10439000F4010020F8090208022801DB0020704720
:1043A000054951F8200004E0C16809680029F6D0E9
:1043B00000680028F8D17047F40100202DE9F04191
:1043C000044602F077F806191EE000BF00F054FB27
:1043D000052F00DD052700F01FFD11480568FFF7D8
:1043E000B3FC2C0017D000BF02F014F8641EFBD100
:1043F000384602F043F81DB100F00EFD6D1EFBD1F2
:10440000FFF70CFD02F006F802F054F8371A002FFF
:10441000DCDCBDE8F081384602F030F8F0E700005F
:10442000A40300202DE9FC4706005FD000F0F4FC57
:1044300000F022FC3C4C81462068B0F9228000F05C
:1044400055FC216807468A8CD01B888441E000BF58
:1044500047F6FF71304602F09DFD82460146304628
:1044600002F06EFD2168054691F82C0000F0030073
:10447000012841D002283BD000204A8C101A4884E1
:10448000ADF800006A1E1044ADF80400888CADF849
:104490000200A9F101010844ADF806006A46514640
:1044A000304602F029FA2168BDF80200888451469E
:1044B000304601F09DFE064430780A281ED00D28B3
:1044C0001CD0BDF80000216828444884307818B119
:1044D000761C30780028BBD12068818C39448184D7
:1044E000818D21F00301818501F094FFBDE8FC87F7
:1044F00005EBD5704010C0E72846BEE7206890F86D
:104500002C1001F0030101290BD0022909D0018CE4
:10451000418431780A29D9D1828C02EB0901818446
:10452000D4E7A0F82280F4E7DC01002070B514463F
:104530000D46064600F070FC0548006845848484FA
:104540003046FFF76FFFBDE8704001F063BF000029
:10455000DC01002047F6FF73AFF300802DE9FC413A
:104560001F4690460D4606004FF000041AD000F09A
:1045700053FC65B128460FF0D1FA040007D002467B
:104580002946684602F073FD68460FF0C7FA3B46BD
:1045900042462946304602F007FA20460FF0BEFA9E
:1045A00001F038FFBDE8FC812DE9FF4F87B0904650
:1045B000894607007DD000F02FFCD9F80040D9F8DB
:1045C000045021B228B2401A401C029000F054FB63
:1045D000064618F00C0F1ED038460A9A029901F0D0
:1045E00023FF08F00C01042904D0082902D00C296B
:1045F00011D104E0291400FB1610401C09E021141D
:10460000C1EB254200FB1620401C00EBD07001EBF3
:10461000600060F31F4448460FF080FA5FEA000B29
:1046200009D00246494604A8CDE9044502F01FFD21
:1046300004A80FF073FAA6F1010A38460A9A029903
:1046400002F05AFE03900AEB244060F31F45CDE9C7
:1046500000453846039902F073FC18F003010ED0B0
:1046600001292CD002290ED1B9F90420B9F9001082
:10467000521A101A00EBD07001EB600001E0B9F89B
:104680000000ADF800006A463846039902F034F99C
:1046900038460A9A029902F025FE074406EB2440A8
:1046A00060F31F4438780028C7D158460FF036FA17
:1046B00000E001E001F0AEFE0BB0BDE8F08FB9F80C
:1046C0000410081A401CDCE77CB514460D4606466B
:1046D00000F0A2FB11480068C16C006D0D44044459
:1046E0003188681E0844ADF80400ADF800507188A8
:1046F000601E0844ADF80600ADF8024068460FF0B1
:1047000091FB06E0224629463046FEF72FF90FF0CE
:104710003DFB0028F6D101F07DFE7CBDDC010020D0
:104720001CB50A460146684602F090FD00F074FB95
:104730002548BDF80010006830F84C2F1144ADF842
:104740000010BDF8021082881144ADF80210BDF8C7
:10475000041002881144ADF80410BDF806108088DA
:104760000844ADF8060068460FF05CFB27E000BF88
:10477000BDF900400BE000BFBDF90210204604F077
:1047800061FEBDF90610204604F05CFEA41CBDF9D4
:104790000400A042F0DABDF902400AE0BDF90000D1
:1047A000214604F04FFEBDF90400214604F04AFE04
:1047B000A41CBDF90600A042F0DA0FF0E7FA0028C9
:1047C000D6D101F027FE1CBDDC0100202DE9F04F01
:1047D00087B09B46DDE9109892460C46054600F0EE
:1047E0001BFB16480168C86C096D47190E1900EBD0
:1047F0000A0501EB0B04ADF81070ADF81450ADF8DC
:104800001260ADF8164004A80FF00CFB88B1DFF879
:1048100030B04FF0000ACDE90098CDE902BA2B463E
:1048200022463946304611F08FFF0FF0AFFA0028CC
:10483000F1D101F0EFFD07B0BDE8F08FDC01002001
:10484000DD9400082DE9F04F87B09B46DDE9109814
:1048500092460C46054600F0DFFA16480168C86C1F
:10486000096D47190E1900EB0A0501EB0B04ADF8B1
:104870001070ADF81450ADF81260ADF8164004A8F1
:104880000FF0D0FA88B1DFF830B04FF0010ACDE96F
:104890000098CDE902BA23462A463146384611F03F
:1048A00053FF0FF073FA0028F1D101F0B3FD07B008
:1048B000BDE8F08FDC010020559300082DE9FC4194
:1048C00014460D46064600F0A7FA114F3968C86C29
:1048D000096D054404440E44ADF80050ADF80440A1
:1048E000ADF80260ADF8066068460FF09BFA08E08C
:1048F000386822463146406E0368284698470FF0D4
:1049000045FA0028F4D101F085FDBDE8FC810000E6
:10491000DC0100202DE9F0411C4615460E460746F5
:1049200000F07AFA0C480168C86C096D0744054428
:104930000E440C4400200FF075FA07E023462A4687
:1049400031463846FEF760F80FF020FA0028F5D11E
:10495000BDE8F04101F05EBDDC0100207CB50C46F5
:10496000064600F059FA0F4D2868C16C006D0E44E0
:104970000444ADF80460ADF80060ADF80640ADF851
:10498000024068460FF04EFA07E028682146406E64
:104990004268304690470FF0F9F90028F5D101F050
:1049A00039FD7CBDDC0100202DE9FC411C4616468A
:1049B0000D46074600F030FA1A480168087ECA6CB6
:1049C000096D17440D440C44401E391A1644ADF8C5
:1049D00000103118ADF80410291A2044ADF8060073
:1049E000ADF8021068460FF01DFA15E03246294670
:1049F000384604F0AFFC32462146384604F0AAFCA3
:104A0000621E691C384604F069FD621E691C30464E
:104A100004F064FD0FF0BAF90028E7D101F0FAFCC8
:104A2000BDE8FC81DC0100207CB514460D4606463D
:104A300000F0F2F90F480068C16C006D0E440544A7
:104A40000444ADF80060ADF80460ADF80250ADF874
:104A5000064068460FF0E6F906E022462946304651
:104A600004F03CFD0FF092F90028F6D101F0D2FCE1
:104A70007CBD0000DC01002010B5002400E0012412
:104A800000F004F80028FAD1204610BD094810B5FE
:104A90000068002410B1804700B101240EF002F933
:104AA00000B101240448006810B1804700B101241E
:104AB000204610BD00020020FC0100202DE9FC4131
:104AC0001C4615460E46074600F0A6F91048006839
:104AD000C16C006D0F4406440D440444ADF80070F1
:104AE000ADF80450ADF80260ADF8064068460FF02E
:104AF00099F907E023462A463146384604F022FE5B
:104B00000FF044F90028F5D101F084FCBDE8FC81E8
:104B1000DC010020B0F90630B0F90420B0F9021031
:104B2000B0F90000FFF7CABF08B50B46002805D052
:104B3000009281888268C08800F001F808BD10B535
:104B40000828029C30D008DC04FB01F401280AD0BC
:104B5000022813D0042804D11CE0102828D02028D3
:104B60002CD0002010BD04EBD30003F00701105C33
:104B7000C1F10701C84000F0010010BD04EB930033
:104B80000621105C01EA4301C1F10601C84000F0B2
:104B9000030010BD04EB5300D907105C02D000F0F5
:104BA0000F0010BD000910BD04FB0130105C10BDEA
:104BB000481004FB003032F8100010BD881004FBD0
:104BC000003052F8200010BD034951F82000C168A0
:104BD0008A6A082110470000F401002010B500F097
:104BE0001BF904F0DFFD04F077FE044601F012FC2F
:104BF000204610BD10B5044600F00EF9054800210E
:104C00000068C069426820469047044601F002FCF3
:104C1000204610BDDC01002070B50C46054600F0B2
:104C2000FBF8064821460068C0694268284690475C
:104C3000044601F0EFFB204670BD0000DC010020BF
:104C4000002801D00EF08CB8704710B500F0E4F8E1
:104C500004F0B0FD04F040FE044601F0DBFB20460A
:104C600010BD00000021022802D2024951F8201094
:104C7000084670479003002010B500F0CDF80448B6
:104C80000068C069447E01F0C5FB204610BD0000ED
:104C9000DC01002070B514460D46064600F0BCF855
:104CA00022462946304604F0B9FD10B100202860A4
:104CB0002060BDE8704001F0ADBB70B50C46054604
:104CC00000F0AAF82146284602F08EF9BDE87040AF
:104CD00001F0A0BB10B5044602F078F90146204669
:104CE000BDE8104002F02CB901F0E4BB10B500247F
:104CF00000F092F80B48006890F82C1001F00C01BD
:104D0000042904D0082906D00C2907D103E0C06982
:104D1000047E641E02E0C069007E440801F07AFB54
:104D2000204610BDDC010020017EC07E11FB00F09A
:104D300070470000024951F8200000690068704780
:104D4000F4010020024951F82000006940687047D2
:104D5000F401002070B50D46044600F05DF82046D1
:104D600013F050FB0446284613F054FB044301F0B3
:104D700051FB204670BD000010B501F0EDFC0A4962
:104D80002E20087001F09CFB084813F001FC04F091
:104D9000C9FD04460021084600F042FF0EF0B8FAB3
:104DA000FEF798FE204610BDD0010020B407012078
:104DB0002DE9FC411C4615460E46074600F02CF82E
:104DC000012000F0D5FE804612480068C16C006DDD
:104DD0000F4406440D440444ADF80070ADF804508F
:104DE000ADF80260ADF8064068460FF01BF807E02A
:104DF00023462A463146384604F0A4FC0EF0C6FF8E
:104E00000028F5D1404600F0B3FE01F003FBBDE8F9
:104E1000FC810000DC01002070B5184CE06820B176
:104E200001F040FB6168884204D001F077FB01F09B
:104E300039FB6060E068401CE06001281CD113F081
:104E400067FA05462068854216D0002813DBFFF775
:104E500081FA01462068C0EB0012206900EBC20213
:104E60005167C5EB0511064A00EBC100011D116039
:104E7000406FFFF763FA256070BD000098030020C3
:104E8000DC0100201CB5040004D10E480068046E4B
:104E9000002C16D0FFF7C0FF2046FEF75DFF009004
:104EA00044696846FEF7C2FF4CB12046FEF754FF46
:104EB000019081688968884701A8FEF7B7FF01F073
:104EC000A9FA1CBDDC01002001490A4600F002B825
:104ED00001F0FFFF2DE9F04387B015460C465FEA6D
:104EE000000846D0FFF798FF002000F041FE814601
:104EF00021480068066E4046FEF72EFF00900068CD
:104F0000806900F0FDFD074640F6FF70C44204D101
:104F10000098B0F90440B0F906500098611E02896B
:104F2000ADF804401144ADF808104189681E0844EA
:104F3000ADF80650ADF80A000DF0E2FC6846FEF749
:104F400075FF01A80EF06EFF06E02A462146404696
:104F500000F082FB0EF01AFF0028F6D1384600F070
:104F6000CFFD304600F08AF9484600F001FE01F01E
:104F700051FA07B0BDE8F083DC0100202DE9FE4FB7
:104F8000984691468A46834600270C9EFFF744FFC9
:104F9000184819490068407C51F82040E1680968C8
:104FA000042903D02468002CF8D100E01CB9FFF7D5
:104FB000F3F904001BD0E0680121C26A2046904743
:104FC000050011D02469A0688047401C02D10B4C19
:104FD00046F001060096CDE9015443464A46514643
:104FE000584600F0DFF9074601F014FA3846BDE8EC
:104FF000FE8F0000DC010020F40100207C3F02084D
:1050000038B504001CD0FFF707FF0E480068006E9B
:10501000A04201D100F066FD2046FEF79DFE009003
:10502000406908B101F0DFF900980068FFF740F926
:105030006846FEF7FBFE2046FEF7C8FD01F0EAF9E0
:1050400038BD0000DC0100202DE9FF4FDFF838916A
:10505000074683B0D9F800009A468B46447C4B48FB
:1050600000570128204606DD04F000FC05462046D6
:1050700004F008FC05E004F0E7FB0546204604F0D8
:10508000E9FB04461FB302A901A8FFF716FEB7F912
:105090000000002800DA0020B7F902608046002EE8
:1050A00000DA002601984119B7F90400491E13F0EF
:1050B0003EFC054602980119B7F90600491E13F097
:1050C00036FCA5EB0802841B521C641C03E04FF065
:1050D000000846462A46BAF1000F01D1C4F1000A81
:1050E000002A4FDD002C4DDD1098009053463146CC
:1050F0004046FFF743FF5FEA000A10D000F078F85F
:105100000746A04206D0D9F80000806C10B13221C9
:105110000FF022FA504600F0B1F8002521E0594680
:1051200005988847012007B0BDE8F08F611BB942A0
:1051300002DA504600F086F83DB1721941465046F9
:1051400000F0C4F85046FFF79DFE59460598884781
:105150000F48016809B1002088475046FFF7B4FEA8
:105160003D44A542E2DB5046FFF74AFF002000F035
:1051700085F8A74206D0D9F80000806C10B1332121
:105180000FF0EAF90020CEE7DC0100201402002035
:10519000DC03002038B505004FF0000411D0FFF704
:1051A0003BFE2846FEF7D8FD009000680069806845
:1051B000804705F09DFA04466846FEF737FE01F089
:1051C00029F9204638BD38B504000ED0FFF724FE7B
:1051D0002046FEF7C1FD00F1180400906846FEF776
:1051E00025FE01F017F9204638BD002038BD00002B
:1051F00038B504460025FFF70FFE1CB908480068C3
:10520000046E44B12046FEF7A7FD0090B0F90A50A5
:105210006846FEF70BFE01F0FDF8284638BD000099
:10522000DC01002070B50546002428460FF00AFE78
:10523000641C18B1BDE8704000F07AB8052CF4DBAE
:1052400070BD000038B50C46050004D10A4800685E
:10525000056E002D0FD0FFF7DFFD2846FEF77CFD21
:105260000090B0F90A10A14200DD44816846FEF7C3
:10527000DDFD01F0CFF838BDDC010020F8B50546B2
:10528000FFF7CAFD104E3068046ECDB10CB100F0CE
:1052900029FC0DF035FC2846FEF75EFD00903168D4
:1052A0000D660068FFF706F86846FEF7BFFD05F0DB
:1052B00049F804F057FE00BF01F0ACF82046F8BDF5
:1052C00000F010FCF8E70000DC0100207CB515467A
:1052D0000E46040004D115480068046E002C24D04A
:1052E000FFF79AFD2046FEF737FD2DB20090C580EE
:1052F00034B2848004F036FE0098406980B1FEF735
:105300002BFD009A0190B2F908108180B2F90A20B1
:10531000C28011B10AB10480458001A8FEF786FD64
:105320006846FEF783FD01F075F87CBDDC010020C6
:1053300001490A4600F002B801F0FFFF7FB51546AB
:105340000C4606002DD0FFF767FD3046FEF704FD42
:1053500040F6FF710190CC4203D1B0F90440B0F99E
:1053600006500289611E1144ADF80840ADF80C10DA
:105370004189681E0844ADF80E00ADF80A5001A836
:10538000FEF754FD02A80EF04DFD06E02A46214628
:10539000304600F049F90EF0F9FC0028F6D101F092
:1053A00039F87FBD2DE9FF4FDFF8E8B083B01C4628
:1053B000DBF80010DDE9106092464FF000084B7CEE
:1053C00042461299FEF738FF050060D028698068D0
:1053D000804705F08DF981460AFB09F1C91DCF0808
:1053E000FEF7F4FCF10705D1C11700EB91708010B6
:1053F00000EB4000002C09DC1FB11838B0FBF7F0BF
:1054000000E000206442A04200DC0446F00707D11F
:105410000090DDE903012346524600F069FF804613
:10542000002C03DC2846FEF743FF30E004FB07F0C6
:105430001830F10702D0FEF79BFB01E0FEF7A7FB57
:1054400006001CD0FEF788FC01900560039981805E
:105450000499C180A0F808A04481C0F81480C0E974
:10546000037901A8FEF7E2FC1298AE602861DBF830
:105470000000407CA861304607B0BDE8F08F2846A8
:10548000FEF716FF5FEA080001D0FEF79FFB002041
:10549000F2E70000DC0100202DE9F74F8EB0144642
:1054A00089460E98FEF758FC0990B0F908B0B0F99B
:1054B0000A600068006940680C9009A8FEF7B6FC15
:1054C000564D574F2868407C57F82000C1688A6ABB
:1054D000082190470790182801D3202007902868BA
:1054E000407C57F820000069069003C80B904D4897
:1054F000814201D0012000E000200A90002001F04C
:1055000025F800287DD1286809EB0B01B0F90C20A3
:10551000891A491E002902DDABEB010500E05D465A
:10552000B0F90810494505DDA1EB090189446D1A60
:10553000089101E000210891002D6BDDB0F90E20EB
:10554000A119891A491E002902DDA6EB010800E015
:10555000B046B0F90A00A04204DD061B3444A8EBB3
:10556000060800E00026B8F1000F53DD089801900E
:105570000DA95F46DDF830A00E980091FFF723FEDD
:10558000774300EB870101982B4601EB80020099DD
:105590004846CDE900A1214601F0A8FA0090002874
:1055A00038D00A98E8B1DDE906322946009801F0C2
:1055B000CDF8B0B90698009FDA46D0F810C0BCF11B
:1055C000000F05D004235A4639463846E04708E024
:1055D0000B993868884701C7AAF101005FEA000A01
:1055E000F6D100990020079ACDE90301059001202A
:1055F0000090CDE9010221460346641C2A46484634
:1056000000E007E003F0A4FDA8F10100761C5FEACA
:105610000008ABD111B0BDE8F08F0000DC01002024
:10562000F4010020F7980008F8B515460E46074625
:10563000FEF792FB009000681621C068426A0020C5
:10564000904704466846FEF7F1FB002C03D02A463B
:1056500031463846A047F8BDF8B516460F46050056
:1056600012D0FEF779FB009044696846FEF7DEFB36
:105670002846FFF78FFD0346082800DD2CB132468F
:105680003946284614F07EFEF8BD32463946284693
:1056900015F018F8F8BD000002480068407C00F0E2
:1056A00003B80000DC010020F8B51D49096809B104
:1056B000002200E002461B498D56012D2EDD1849BF
:1056C000143151F822305B1C41F82230012B25D1D6
:1056D000A1F108030026103953F8224051F8221096
:1056E00053F822707F1C43F82270AF4201D143F877
:1056F000226053F822708F42F2D03D46FEF74CFEF6
:10570000009000280AD0C0682121426A684690476C
:10571000030003D02A46214600989847F8BD0000B0
:105720005C0300201402002002480068407C00F066
:1057300003B80000DC01002038B51449096809B13C
:10574000002200E002461249895601291CDD0F495A
:10575000143151F822305B1E41F8223014D108393F
:1057600051F82240103141F82240FEF715FE00901A
:10577000002809D0C0682221426A6846904702008A
:1057800002D021460098904738BD00005C030020FD
:105790001402002010B5002821D009B30AB3B1F9D2
:1057A0000040B2F900309C4200DA23460380B1F990
:1057B0000240B2F902309C4200DA23464380B1F93C
:1057C0000440B2F904309C4200DD23468380B1F9E5
:1057D0000610B2F90620914200DC1146C18010BDCE
:1057E00011460A6802604968416010BD00280BD06C
:1057F00003880B44038083881944818041881144C5
:105800004180C1881144C1807047000070B50E4DC1
:105810000446D5E90001884209D10C49884201D1EA
:105820003C3000E00C3807C884E8070006E090E848
:105830000E0084E80E0012F003FE2860207A002893
:1058400000D0012070BD00000805002014090120CF
:105850000448D0E90010814201D1012070470020A6
:105860007047000008050020054A10B50349116083
:1058700014F072FBBDE8104000F020BA592F010867
:105880000402002070B50025FFF7C6FA094CD4E9E0
:10589000002082420AD0D2E90056104612F0DAFD0A
:1058A0002060314628460DF0A5FE012500F0B2FD2E
:1058B000284670BD800300202DE9FC41154DDDE92F
:1058C00008742D68B5F90860864200DD3046B5F9E8
:1058D0000C60964200DA3246824219DBB5F90A6062
:1058E0008E4200DD3146B5F90E509D4200DA2B465E
:1058F0008B420DDB00E02C46E5682D6825B1042DB8
:1059000002D02568002DF6D1CDE9007404F00CF921
:10591000BDE8FC81DC010020B0F90220B1F90630BD
:105920009A4213DCB1F90220B0F906309A420DDC3C
:10593000B0F90020B1F904309A4207DCB1F9001047
:10594000B0F90400814201DC01207047002070475B
:105950000146024870220068FAF7BABEDC01002056
:1059600038B5040020D0FFF757FA204614F0BEFBEC
:10597000204614F031FC2046FEF7EEF90090006856
:10598000FEF742F90098C068FEF720F90098C06958
:10599000FEF71CF96846FEF749FA2046FEF716F9AD
:1059A000BDE8384000F036BD38BD70B515460E462E
:1059B00004000AD0FFF730FA2A463146204613F099
:1059C0001BFFBDE8704000F025BD70BD38B5040078
:1059D0001ED0FFF721FA2046FEF7BEF90090007CAA
:1059E000800710D4204612F036FF6846FEF71EFAF4
:1059F000204614F0BBF92046FEF7AEF90090018A6C
:105A000041F0020101826846FEF710FA00F002FD43
:105A100038BD00002DE9F84304460088089F9146F0
:105A20008846E8B36088D8B3E06818B18068002879
:105A30003BD002E0E088202836D107F001020021A7
:105A40002348FEF7F9FB05002ED0208886006088E9
:105A50004643FFF7E1F906F12000FEF798F806004B
:105A600025D03046AE60FEF777F90090078244619A
:105A7000A0F80480A0F80690238808EB0301491ED3
:105A8000018161884944491E418105606846FEF7ED
:105A9000CDF9E06878B1214630460FF00BFB00E00D
:105AA00002E040B100F0B6FC0020BDE8F8832846D3
:105AB000FEF7FEFBF6E7B80705D5304612F0CBFE41
:105AC000304614F053F900F0A5FC3046EDE7000035
:105AD00008350208024970220968FAF7F9BD00008A
