:020000040800F2
:10000000B00A0020AD020008BB020008BD020008D3
:10001000BF020008C1020008C3020008000000007F
:10002000000000000000000000000000C502000801
:10003000C702000800000000C9020008CB02000847
:10004000CD020008CD020008CD020008CD02000854
:10005000CD020008CD020008CD020008CD02000844
:10006000CD020008CD020008CD020008CD02000834
:10007000CD020008CD020008CD020008CD02000824
:10008000CD020008CD020008CD020008CD02000814
:10009000CD020008CD020008CD020008CD02000804
:1000A000CD020008CD020008CD020008CD020008F4
:1000B000CD020008CD020008014D0008CD02000865
:1000C000CD020008CD020008CD020008CD020008D4
:1000D000CD0200088D4D0008CD020008CD020008B9
:1000E000CD020008CD020008CD020008CD020008B4
:1000F000CD020008CD020008CD020008CD020008A4
:10010000CD020008CD020008CD020008CD02000893
:10011000CD020008CD020008CD020008CD02000883
:10012000CD020008CD020008CD020008CD02000873
:10013000CD020008CD020008CD020008CD02000863
:10014000CD020008CD020008CD020008CD02000853
:10015000CD020008CD020008CD020008CD02000843
:10016000CD020008CD020008CD020008CD02000833
:10017000CD020008CD020008CD02000800000000FA
:10018000CD020008CD020008CD020008CD02000813
:10019000CD020008CD020008CD020008CD02000803
:1001A000CD020008CD020008CD02000800F002F8E0
:1001B00000F06DF80AA090E8000C82448344AAF194
:1001C0000107DA4501D100F062F8AFF2090EBAE892
:1001D0000F0013F0010F18BFFB1A43F0010318477B
:1001E000BCAD0000DCAD00000A444FF0000C10F87C
:1001F000013B13F0070408BF10F8014B1D1108BFA5
:1002000010F8015B641E05D010F8016B641E01F844
:10021000016BF9D113F0080F1EBF10F8014BAD1C94
:100220000C1B09D16D1E58BF01F801CBFAD505E0B2
:1002300014F8016B01F8016B6D1EF9D59142D6D30C
:10024000704700000023002400250026103A28BF34
:1002500078C1FBD8520728BF30C148BF0B60704738
:10026000642900F0A380752900F0A080782900F0AF
:10027000D980632900F02D82732900F0328200209A
:1002800070471FB506F06CFA1FBD10B510BD00F029
:100290005BFA1146FFF7F5FF04F044FE00F079FA2F
:1002A00003B4FFF7F2FF03BC04F0B7FD0B4801688D
:1002B00041F4700101600A480047FEE7FEE7FEE7EF
:1002C000FEE7FEE7FEE7FEE7FEE7FEE7FEE70000EB
:1002D00004480549034A054B7047000088ED00E0DB
:1002E000AD010008B0020020B00A0020B0020020DA
:1002F000704700000FB4044910B503AA029800F03B
:10030000F5F910BC5DF814FB0400002070B504463C
:1003100085690068C10601D5302600E02026C007A7
:1003200007D070BDD4E9012130469047206A401CB7
:1003300020626D1EF6D570BD70B5044685690078E3
:10034000C00707D170BDD4E9012120209047206A61
:10035000401C20626D1EF6D570BD70B50C4605467A
:10036000012A05D02878800600D5EA69002302E03A
:10037000012305E05B1C934202D2E05C0028F9D126
:10038000A869E618C01AA861286A18442862284695
:10039000FFF7BCFF04E0D5E9012114F8010B9047F9
:1003A000B442F8D32846FFF7C7FF70BD2DE9F041EE
:1003B0000646002410687529314616A510D0AFF303
:1003C0000080002802DA404213A507E031688A075E
:1003D00001D512A502E0490704D511A5012401E0C9
:1003E000AFF3008000210A2206F1240709E0B0FBE8
:1003F000F2FCB0FBF2F302FB1C00303078541846DC
:10040000491C0028F3D123462A463046BDE8F04176
:1004100000F0FCB8000000002D0000002B000000E0
:100420002000000070B504460D4621461068AFF369
:1004300000802188090502D50F4A7A4402E00E4A5D
:100440007A440E32002104F1240305E000F00F0687
:100450000009965D5E54491C0028F7D120780023DE
:10046000000704D5702D02D009B1022311322046B5
:10047000BDE8704000F0CAB86CAA00002DE9F05F3A
:10048000894604464FF0000ADFF874B1FB44C0F817
:1004900020A02046E1688847002874D0252806D08F
:1004A000D4E901219047206A401C2062F1E7002630
:1004B0005F462046E16888472028054607DB312D46
:1004C00005D2781910F8200C08B10643F1E7B007FF
:1004D00001D526F00406C4F81CA00027C4F818A013
:1004E0002A2D09D0284604F091FC38B304EB870884
:1004F000303DC8F8185019E059F8041B204604EBA9
:1005000087029161E1688847012F054618D1E069AB
:10051000002820DA26F020061DE0D8F8180000EBAD
:10052000800005EB40003038C8F818002046E1682C
:100530008847054604F06AFC0028EED1012F0AD056
:100540002E2D08D12046E16888477F1C0546022FE2
:1005500046F02006C4DBA069002803DA404246F0DA
:100560000106A061F00701D026F010066C2D0BD01B
:10057000682D09D04C2D39D06A2D35D0742D35D049
:100580007A2D33D016E038E0E1682F4620468847C0
:10059000B842054609D16C2F26D04FF48060E1683F
:1005A000064320468847054604E06C2F1AD04FF4D6
:1005B000807006430DB3A5F14100192802D82035FB
:1005C00046F400664A462946204626604E46FFF716
:1005D00047FE80B101280BD0F61D26F0070000F180
:1005E000080956E74020E4E78020D8E70020D6E756
:1005F00006F104094DE7284652E7206ABDE8F09F5E
:1006000042AA000070477047704770472DE9F047D5
:100610000D4699469246044600F124080168880672
:1006200004D5E06921F01001216000E00120A8421A
:1006300001DD471B00E00027A1697A1902EB0900E0
:10064000081AA0612078C00602D42046FFF75EFE9B
:10065000002608E0D4E901211AF806009047206A34
:10066000401C761C20624E45F4DB2078C0060AD57B
:100670002046FFF74BFE06E0D4E9012130209047E9
:10068000206A401C2062381EA7F10107F4DC07E055
:10069000D4E9012118F805009047206A401C206227
:1006A000281EA5F10105F3DC2046FFF745FE207862
:1006B000000602D50220BDE8F0870120FBE710B557
:1006C000436913B1AFF3008001E0FFF746FE01205C
:1006D00010BD127800F124010A7000224A70012234
:1006E000EDE711684FF0FF32E9E70000074B70B506
:1006F0000D467B4400F011F80446284600F020F82F
:1007000010B14FF0FF3070BD204670BD134800009F
:1007100001694A1C02610878704700B58FB0CDE9C5
:1007200001310021059105497944CDE903101146B5
:100730006846FFF7A3FE0FB000BD0000E5FFFFFF16
:10074000007B00F080007047754600F02BF8AE4645
:1007500005006946534620F00700854618B020B5CD
:10076000FFF7B6FDBDE820404FF000064FF0000750
:100770004FF000084FF0000B21F00701AC46ACE849
:10078000C009ACE8C009ACE8C009ACE8C0098D46B6
:10079000704710B50446AFF300802046BDE8104016
:1007A000FFF77EBD00487047500200202DE9FC474E
:1007B00004460D4617461E46DDF828904FF0000807
:1007C00014B10DB107B116B90120BDE8FC87601E58
:1007D000C4B2681EC5B2781EC7B2701E86B25F482A
:1007E000006840F001005D490860012002210023FB
:1007F0000A46CDE900104FF4C051594800F060FAA4
:1008000009220B21564800F03BFA09220C215448DA
:1008100000F036FA51481030006840F000704F493F
:100820001031086000204F4908600846006840F019
:100830000100086008E008F101001FFA80F8B8F133
:10084000640F01DD0220C0E74648001D006800F08B
:1008500001000028EFD0434800684249086008467C
:10086000006808600846006808600846006840F0B4
:1008700010000860084600680860084600680860C4
:10088000002038491C3108600846006840EA897039
:1008900008600846006840EA04600860084600688E
:1008A00040EA055008600846006840EA07400860D2
:1008B00008460068304308602A48006820F00100BC
:1008C0002849086009E008F101001FFA80F84FF696
:1008D000F070804501DD032077E72248001D0068A5
:1008E00000F001000028EED11F48006840F0010030
:1008F0001D4908601C481C30006820F001001A499E
:100900001C31086018480C30006840F0010016499E
:100910000C3108601448001D00681349091D086067
:1009200011481430006810491431086000200E4945
:100930004031086000210C48443001600A481C30F6
:10094000006840F0010008491C3108600648006852
:1009500000200549086000BF37E70000303802403A
:10096000000002400064004000660040014621B9DA
:100970000748006800F003007047012905D10448CA
:10098000001D006800F00300F6E70020F4E7000017
:100990000C64004010B586B004460020FFF7E6FF67
:1009A00010B9002006B010BD02A803AB04AA05A927
:1009B000CDE90004002000F00FF80598122805D1B9
:1009C0009DF8100010B99DF80C0008B100200290AD
:1009D0009DF80800E6E70000F0B5DDE90554324E69
:1009E00006EB0016366806F004061670167836B95F
:1009F0002D4E06EB00163668760D0E6005E02A4E89
:100A000006EB00163668F6080E60274E06EB001659
:100A1000366806F002061E70234E06EB0016766856
:100A200006F00F062E70204E06EB0016B6682670F4
:100A30001D4E06EB0016B668360A66701A4E06EBB7
:100A40000016B668360CA670174E06EB0016B66890
:100A5000360EE670144E06EB0016F6682671124E3E
:100A600006EB0016F668360A66710F4E06EB0016A6
:100A7000F668360CA6710C4E06EB0016F668360EBC
:100A8000E67130B9094E366846F02006074F3E60E1
:100A900009E0012807D1054E361D366846F02006CC
:100AA000024F3F1D3E60F0BDB06500400C64004049
:100AB000F8B505460E4600243346002211461220A2
:100AC000009500F015F8074601E0601C84B2384636
:100AD00000F094F8072803D040F6FF708442F4DB5E
:100AE00040F6FF70844201DB0120F8BD0020FCE7E6
:100AF000F0B505460E46059C3E48006800F0806053
:100B000008B100210FE03B48006800F0006008B128
:100B1000012108E03748006800F0805008B1022148
:100B200001E0FF20F0BD0027334800EB0110076013
:100B30001EB9C5F30A056D0502E025F06045ED001C
:100B40002D4800EB0110006828432B4F07EB0117DD
:100B50003860294800EB0110006840EA8607264803
:100B600000EB01100760244800EB0110006840EA28
:100B70004207214800EB0110076003F00F031E48F5
:100B800000EB0110406820F00F071B4800EB01103C
:100B90004760194800EB011040681843164F07EBF7
:100BA00001177860E0790006A77940EA0740677985
:100BB00040EA0727207907430F4800EB0110C76080
:100BC000E0780006A77840EA0740677840EA072007
:100BD00027783843084F07EB0117B860064800EB49
:100BE0000110006840F00107034800EB01100760A6
:100BF000084697E7086400408065004001460020F1
:100C000021B1012913D0022933D121E01B4A1268F6
:100C100002F001021043194A126802F00202104366
:100C2000164A126802F0806240EA126023E0134A1A
:100C3000126802F001021043104A126802F0020228
:100C400010430E4A126802F0006240EA526012E05D
:100C50000A4A126802F001021043084A126802F0C0
:100C600002021043054A126802F0805240EA926084
:100C700001E0052000BF00BF70470000086400408D
:100C800030B5CC1000F1200353F824304C07E50EAA
:100C90000F24AC40A343CD1000F1200444F82530CC
:100CA000CC1000F1200353F824304C07E40E02FA74
:100CB00004F42343CD1000F1200444F8253030BD66
:100CC0002DE9F0470C46DDE90867002100258C4638
:100CD00000BF60E04FF0010808FA01F504EA050CD6
:100CE000AC4557D1D0F800804FEA410A4FF00309D4
:100CF00009FA0AF928EA0908C0F80080D0F800804B
:100D00004FEA410902FA09F948EA0908C0F80080E7
:100D1000012A01D0022A27D1D0F808804FEA410ADF
:100D20004FF0030909FA0AF928EA0908C0F808800F
:100D3000D0F808804FEA410906FA09F948EA09089B
:100D4000C0F80880D0F804904FF0010808FA01F8C4
:100D500029EA0809C0F80490D0F8048003FA01F9E0
:100D600048EA0908C0F80480D0F80C804FEA410A2C
:100D70004FF0030909FA0AF928EA0908C0F80C80BB
:100D8000D0F80C804FEA410907FA09F948EA090846
:100D9000C0F80C80491C10299CD3BDE8F0870000E6
:100DA0001CB51748006840F0010015490860084666
:100DB000006840F0040008600846006840F08000C9
:100DC0000860022000210B460A46CDE900100121EF
:100DD0000C48FFF775FF012000210B460A46CDE9BC
:100DE000001041030848FFF76BFF012000210B466C
:100DF0000A46CDE900100C210448FFF761FF1CBD35
:100E0000303802400000024000080240001C02404E
:100E100010B5044614B1012021490870204800781B
:100E200048B32048006850B11E48001F006830B128
:100E30001D48006818B11D48006801281BD10A2010
:100E400004F00AF80020164908701648006808B92E
:100E5000012010BD1348001F006808B90220F8E700
:100E60001148006808B90320F3E71048006801281A
:100E700014D10420EDE70B48006801280ED1094881
:100E8000001F0068012809D107480068012805D122
:100E90000648006810B90120014908700020D8E711
:100EA0001C0000200C8243423402414200024042B6
:100EB00070B5044600260D4805880D48006818B135
:100EC000204603F001F80FE0084840884543002120
:100ED000084602F0E3FD02F0C5FF002602E00549E6
:100EE0000C80761CAE42FAD370BD000020020020B8
:100EF000300200200000086010B504465C48847190
:100F00005C48006850B1204603F03CF85948C08A5C
:100F1000574908805748008B488010BD002C51D19C
:100F2000F020534908804FF4A0704880084680881C
:100F300049F24131884205D04D48808845F2103150
:100F4000884214D12C204A4908812A2048812B202C
:100F500088810846808845F21031884206D14FF4D6
:100F6000A070434908804FF4F07048807BE040480F
:100F7000808845F21051884210D14FF430503C49DE
:100F800008814FF4285048814FF42C5088814FF449
:100F9000F07008804FF44870488064E034488088DE
:100FA00041F6631188425ED12C20314908812B2003
:100FB00048812A2088814FF4F07008804FF44870EF
:100FC000488050E04FF4A07029490880F020488004
:100FD0000846808849F24131884205D024488088FB
:100FE00045F21031884207D12C20214908812A205E
:100FF00048812B20888129E01D48808845F21051C6
:10100000884210D14FF43050194908814FF42850CC
:1010100048814FF42C5088814FF4487008804FF479
:10102000F070488012E01248808841F663118842CF
:101030000CD12C200E4908812A2048812B20888140
:101040004FF4487008804FF4F0704880084880885A
:1010500045F21031884206D14FF4F07004490880FF
:101060004FF4A0704880002002F0DEFB00BF54E780
:10107000200200203002002070B504460D461646BE
:101080004348006828B132462946204602F090FFC6
:1010900070BD4048808849F24131884205D03D48C2
:1010A000808845F21031884214D13A49488902F0CB
:1010B000CDFE201202F0BEFEE0B202F0BBFE3549CA
:1010C000888902F0C3FE281202F0B4FEE8B202F0F2
:1010D000B1FE54E02F48808845F21051884220D15B
:1010E0002C49488902F0B2FE201202F0A3FE2949E1
:1010F0004989491C88B202F0A9FEE0B202F09AFECA
:101100002449888902F0A2FE281202F093FE2149A8
:101110008989491C88B202F099FEE8B202F08AFE81
:101120002DE01C48808841F66311884227D1194878
:10113000807920B917480088401E001B84B21549E9
:10114000488902F083FE201202F074FEE0B202F041
:1011500071FE201202F06EFEE0B202F06BFE0D494D
:10116000888902F073FE281202F064FEE8B202F0F1
:1011700061FE281202F05EFEE8B202F05BFE054856
:10118000008905490880891C0E8000BF80E70000A7
:101190003002002020020020FEFF07602DE9F84FFA
:1011A00005460E4617469846DDF828904FF0000B8E
:1011B0001448006840B143463A4631462846CDF8C7
:1011C000009002F01DFF1BE0781B401C1FFA80FB03
:1011D000344613E02146284602F060FC02F042FE4D
:1011E0004FF0000A06E00849A1F800900AF101005A
:1011F0001FFA80FADA45F6DB601C84B24445E9DD6B
:10120000BDE8F88F30020020000008601CB503F034
:1012100071FAFE4988800846808818B102F094FF70
:1012200002F076BAFA48006840F00200F849086017
:101230000846006840F018000860F548083000686B
:1012400040F00100F249083108600120022100232A
:101250000246CDE900102021EE48FFF731FD0120C4
:10126000032100230222CDE900104EF2B371EA48B7
:10127000FFF726FD0120032100230222CDE9001003
:101280004FF68071E548FFF71BFD0C220021E24874
:10129000FFF7F6FC0C220121DF48FFF7F1FC0C22DE
:1012A0000421DD48FFF7ECFC0C220521DA48FFF7AA
:1012B000E7FC0C220721D848FFF7E2FC0C220821AA
:1012C000D548FFF7DDFC0C220921D348FFF7D8FCF5
:1012D0000C220A21D048FFF7D3FC0C220D21CE4866
:1012E000FFF7CEFC0C220E21CB48FFF7C9FC0C22E5
:1012F0000F21C948FFF7C4FC0C220721C748FFF79C
:10130000BFFC0C220821C548FFF7BAFC0C220921BA
:10131000C248FFF7B5FC0C220A21C048FFF7B0FC19
:101320000C220B21BD48FFF7ABFC0C221146BB4839
:10133000FFF7A6FC0C220D21B848FFF7A1FC0C22F8
:101340000E21B648FFF79CFC0C220F21B348FFF793
:1013500097FC00204FF0204108604860B0490860C9
:101360004FF02040006840F480504FF0204108606A
:101370000846006840F4804008600846006840F075
:10138000100008600846406848600846406840F021
:101390000F0048600846406840F48C404860A04810
:1013A0000068C1F804010846D0F8040140F00F00BD
:1013B000C1F804010846D0F8040140F47060C1F897
:1013C00004010846006840F001000860322003F084
:1013D00043FDD32002F03AFD02F0ECF98B498880FE
:1013E00002F0E8F98949888002F0E4F987498880A9
:1013F000084680884FF6FF7101EA00208349888003
:1014000002F0D8F9814989880843804988800846D4
:10141000808849F24131884278D0D42002F016FD0C
:1014200002F0C8F97949888002F0C4F977498880C8
:1014300002F0C0F975498880084680884FF6FF7130
:1014400001EA00207149888002F0B4F96F49898867
:1014500008436E4988800846808845F210318842EA
:1014600054D04FF45A4002F0F1FC02F0A3F967495E
:1014700088804FF45B4002F0E9FC02F09BF963497D
:101480008880084680884FF6FF7101EA00205F4996
:1014900088804FF45C4002F0D9FC02F08BF95B4984
:1014A000898808435949888008468088B0F5004FEC
:1014B00002D145F2105088805448808845F210517E
:1014C000884223D0A12002F0C1FC02F073F94F49F9
:1014D000888002F06FF94D498880084680884FF671
:1014E000FF7101EA00204949888002F063F9474909
:1014F00089880843454988800846808845F261719B
:10150000884203D141F66310404988803F48818872
:1015100044A0FEF7EFFE3D48808849F24131884201
:1015200072D1CF2002F092FC002002F083FCC12097
:1015300002F080FC302002F07DFCED2002F086FC01
:10154000642002F077FC032002F074FC122002F009
:1015500071FC812002F06EFCE82002F077FC85200F
:1015600002F068FC102002F065FC7A2002F062FCB8
:10157000CB2002F06BFC392002F05CFC2C2002F046
:1015800059FC002002F056FC342002F053FC0220EB
:1015900002F050FCF72002F059FC202002F04AFC37
:1015A000EA2002F053FC002002F044FC002002F08C
:1015B00041FCC02002F04AFC1B2002F03BFCC12091
:1015C00002F044FC012002F035FCC52002F03EFC94
:1015D000302002F02FFC302002F02CFCC72002F05B
:1015E00035FCB72002F026FC362002F02FFC482004
:1015F00002F020FC3A2002F029FC552002F01AFCEF
:10160000B12002F023FC15E0B7E00000200200202A
:101610003038024000040240000C0240001002403A
:10162000040100A0204C43442049443A25780D0A87
:1016300000000000002002F0FDFB1A2002F0FAFB7F
:10164000B62002F003FC0A2002F0F4FBA22002F014
:10165000F1FBF22002F0FAFB002002F0EBFB262067
:1016600002F0F4FB012002F0E5FBE02002F0EEFBCB
:101670000F2002F0DFFB2A2002F0DCFB282002F022
:10168000D9FB082002F0D6FB0E2002F0D3FB082085
:1016900002F0D0FB542002F0CDFBA92002F0CAFBDF
:1016A000432002F0C7FB0A2002F0C4FB0F2002F027
:1016B000C1FB002002F0BEFB002002F0BBFB0020BB
:1016C00002F0B8FB002002F0B5FBE12002F0BEFB07
:1016D000002002F0AFFB152002F0ACFB172002F057
:1016E000A9FB072002F0A6FB112002F0A3FB0620B5
:1016F00002F0A0FB2B2002F09DFB562002F09AFB8B
:101700003C2002F097FB052002F094FB102002F031
:1017100091FB0F2002F08EFB3F2002F08BFB3F205D
:1017200002F088FB0F2002F085FB2B2002F08EFBDD
:10173000002002F07FFB002002F07CFB012002F081
:1017400079FB3F2002F076FB2A2002F07FFB00208D
:1017500002F070FB002002F06DFB002002F06AFB3B
:10176000EF2002F067FB112002F070FB782003F0FD
:1017700073FB292002F06AFB52E5FE48808845F29F
:101780001031884240F07C87ED2002F05FFB0120A1
:1017900002F050FBFE2002F04DFBEE2002F056FB63
:1017A000DE2002F047FB212002F044FBF12002F092
:1017B0004DFB012002F03EFBDF2002F047FB102032
:1017C00002F038FBC42002F041FB8F2002F032FB14
:1017D000C62002F03BFB002002F02CFBE22002F0CE
:1017E00029FBE22002F026FBE22002F023FBBF20CF
:1017F00002F02CFBAA2002F01DFBB02002F026FB19
:101800000D2002F017FB002002F014FB0D2002F067
:1018100011FB002002F00EFB112002F00BFB002058
:1018200002F008FB192002F005FB002002F002FB89
:10183000212002F0FFFA002002F0FCFA2D2002F035
:10184000F9FA002002F0F6FA3D2002F0F3FA002047
:1018500002F0F0FA5D2002F0EDFA002002F0EAFA60
:101860005D2002F0E7FA002002F0E4FAB12002F075
:10187000EDFA802002F0DEFA002002F0DBFA8B2085
:1018800002F0D8FA002002F0D5FA962002F0D2FA3F
:10189000002002F0CFFAB22002F0D8FA002002F0C5
:1018A000C9FA002002F0C6FA022002F0C3FA0020B2
:1018B00002F0C0FA032002F0BDFA002002F0BAFAEA
:1018C000B32002F0C3FA002002F0B4FA002002F0C4
:1018D000B1FA002002F0AEFA002002F0ABFA0020CC
:1018E00002F0A8FA002002F0A5FA002002F0A2FA05
:1018F000002002F09FFA002002F09CFA002002F083
:1019000099FA002002F096FA002002F093FA0020E3
:1019100002F090FA002002F08DFA002002F08AFA1C
:10192000002002F087FA002002F084FA002002F082
:1019300081FA002002F07EFA002002F07BFA0020FB
:1019400002F078FA002002F075FA002002F072FA34
:10195000002002F06FFAB42002F078FA8B2002F037
:1019600069FA002002F066FA962002F063FA00207D
:1019700002F060FAA12002F05DFA002002F05AFAAB
:10198000B52002F063FA022002F054FA002002F0BF
:1019900051FA032002F04EFA002002F04BFA042024
:1019A00002F048FA002002F045FAB62002F04EFAA2
:1019B000002002F03FFA002002F03CFAB72002F0CB
:1019C00045FA002002F036FA002002F033FA3F20F8
:1019D00002F030FA002002F02DFA5E2002F02AFA1E
:1019E000002002F027FA642002F024FA002002F01E
:1019F00021FA8C2002F01EFA002002F01BFAAC2023
:101A000002F018FA002002F015FADC2002F012FAB7
:101A1000002002F00FFA702002F00CFA002002F011
:101A200009FA902002F006FA002002F003FAEB20F7
:101A300002F000FA002002F0FDF9DC2002F0FAF9D1
:101A4000002002F0F7F9B82002F000FA002002F0BE
:101A5000F1F9002002F0EEF9002002F0EBF900208D
:101A600002F0E8F9002002F0E5F9002002F0E2F9C6
:101A7000002002F0DFF9002002F0DCF9BA2002F0C9
:101A8000E5F9242002F0D6F9002002F0D3F9002075
:101A900002F0D0F9002002F0CDF9C12002F0D6F911
:101AA000202002F0C7F9002002F0C4F9542002F00F
:101AB000C1F9002002F0BEF9FF2002F0BBF90020BE
:101AC00002F0B8F9C22002F0C1F90A2002F0B2F91E
:101AD000002002F0AFF9042002F0ACF9002002F07F
:101AE000A9F9C32002F0B2F93C2002F0A3F90020CA
:101AF00002F0A0F93A2002F09DF9002002F09AF9D4
:101B0000392002F097F9002002F094F9372002F012
:101B100091F9002002F08EF93C2002F08BF90020B0
:101B200002F088F9362002F085F9002002F082F9EF
:101B3000322002F07FF9002002F07CF92F2002F021
:101B400079F9002002F076F92C2002F073F90020D8
:101B500002F070F9292002F06DF9002002F06AF914
:101B6000262002F067F9002002F064F9242002F038
:101B700061F901E020020020002002F05BF924203E
:101B800002F058F9002002F055F9232002F052F932
:101B9000002002F04FF93C2002F04CF9002002F046
:101BA00049F9362002F046F9002002F043F93220CC
:101BB00002F040F9002002F03DF92F2002F03AF93E
:101BC000002002F037F92C2002F034F9002002F056
:101BD00031F9292002F02EF9002002F02BF92620FD
:101BE00002F028F9002002F025F9242002F022F961
:101BF000002002F01FF9242002F01CF9002002F05E
:101C000019F9232002F016F9002002F013F9C4207C
:101C100002F01CF9622002F00DF9002002F00AF92E
:101C2000052002F007F9002002F004F9842002F0F8
:101C300001F9002002F0FEF8F02002F0FBF800208D
:101C400002F0F8F8182002F0F5F8002002F0F2F89F
:101C5000A42002F0EFF8002002F0ECF8182002F0C7
:101C6000E9F8002002F0E6F8502002F0E3F8002046
:101C700002F0E0F80C2002F0DDF8002002F0DAF8C3
:101C8000172002F0D7F8002002F0D4F8952002F0D7
:101C9000D1F8002002F0CEF8F32002F0CBF80020BB
:101CA00002F0C8F8E62002F0C5F8002002F0C2F801
:101CB000C52002F0CBF8322002F0BCF8002002F080
:101CC000B9F8442002F0B6F8002002F0B3F865201D
:101CD00002F0B0F8002002F0ADF8762002F0AAF889
:101CE000002002F0A7F8882002F0A4F8002002F0FB
:101CF000A1F8C62002F0AAF8202002F09BF80020EC
:101D000002F098F8172002F095F8002002F092F8FF
:101D1000012002F08FF8002002F08CF8C72002F0BA
:101D200095F8002002F086F8002002F083F80020E9
:101D300002F080F8002002F07DF8C82002F086F85A
:101D4000002002F077F8002002F074F8002002F082
:101D500071F8002002F06EF8C92002F077F8002038
:101D600002F068F8002002F065F8002002F062F846
:101D7000002002F05FF8002002F05CF8002002F082
:101D800059F8002002F056F8002002F053F8002025
:101D900002F050F8002002F04DF8002002F04AF85E
:101DA000002002F047F8002002F044F8002002F082
:101DB00041F8002002F03EF8002002F03BF8E0205D
:101DC00002F044F8162002F035F8002002F032F854
:101DD0001C2002F02FF8002002F02CF8212002F045
:101DE00029F8002002F026F8362002F023F800201F
:101DF00002F020F8462002F01DF8002002F01AF848
:101E0000522002F017F8002002F014F8642002F0CB
:101E100011F8002002F00EF87A2002F00BF80020F2
:101E200002F008F88B2002F005F8002002F002F81A
:101E3000992001F0FFFF002001F0FCFFA82001F035
:101E4000F9FF002001F0F6FFB92001F0F3FF0020B8
:101E500001F0F0FFC42001F0EDFF002001F0EAFFE7
:101E6000CA2001F0E7FF002001F0E4FFD22001F0DA
:101E7000E1FF002001F0DEFFD92001F0DBFF0020B0
:101E800001F0D8FFE02001F0D5FF002001F0D2FFE3
:101E9000F32001F0CFFF002001F0CCFFE12001F0A2
:101EA000D5FF162001F0C6FF002001F0C3FF1C2063
:101EB00001F0C0FF002001F0BDFF222001F0BAFFB9
:101EC000002001F0B7FF362001F0B4FF002001F040
:101ED000B1FF452001F0AEFF002001F0ABFF522022
:101EE00001F0A8FF002001F0A5FF642001F0A2FF8F
:101EF000002001F09FFF7A2001F09CFF002001F0FC
:101F000099FF8B2001F096FF002001F093FF9920AC
:101F100001F090FF002001F08DFFA82001F08AFF62
:101F2000002001F087FFB92001F084FF002001F0BC
:101F300081FFC42001F07EFF002001F07BFFCA205A
:101F400001F078FF002001F075FFD22001F072FF50
:101F5000002001F06FFFD82001F06CFF002001F09D
:101F600069FFE02001F066FF002001F063FFF3202D
:101F700001F060FF002001F05DFFE22001F066FF4C
:101F8000052001F057FF002001F054FF0B2001F065
:101F900051FF002001F04EFF1B2001F04BFF0020FD
:101FA00001F048FF342001F045FF002001F042FF1E
:101FB000442001F03FFF002001F03CFF4F2001F0E2
:101FC00039FF002001F036FF612001F033FF0020CF
:101FD00001F030FF792001F02DFF002001F02AFFF1
:101FE000882001F027FF002001F024FF972001F056
:101FF00021FF002001F01EFFA62001F01BFF0020A2
:1020000001F018FFB72001F015FF002001F012FFCA
:10201000C22001F00FFF002001F00CFFC72001F0EB
:1020200009FF002001F006FFD12001F003FF00208E
:1020300001F000FFD62001F0FDFE002001F0FAFEC5
:10204000DD2001F0F7FE002001F0F4FEF32001F0A6
:10205000F1FE002001F0EEFEE32001F0F7FE052086
:1020600001F0E8FE002001F0E5FE0A2001F0E2FEAA
:10207000002001F0DFFE1C2001F0DCFE002001F05A
:10208000D9FE332001F0D6FE002001F0D3FE44201B
:1020900001F0D0FE002001F0CDFE502001F0CAFE7C
:1020A000002001F0C7FE622001F0C4FE002001F014
:1020B000C1FE782001F0BEFE002001F0BBFE8820AA
:1020C00001F0B8FE002001F0B5FE972001F0B2FE4D
:1020D000002001F0AFFEA62001F0ACFE002001F0D0
:1020E000A9FEB72001F0A6FE002001F0A3FEC22049
:1020F00001F0A0FE002001F09DFEC72001F09AFE35
:10210000002001F097FED12001F094FE002001F0A4
:1021100091FED52001F08EFE002001F08BFEDD2027
:1021200001F088FE002001F085FEF32001F082FE20
:10213000002001F07FFEE42001F088FE012001F084
:1021400079FE002001F076FE012001F073FE0020F0
:1021500001F070FE022001F06DFE002001F06AFE29
:102160002A2001F067FE002001F064FE3C2001F00F
:1021700061FE002001F05EFE4B2001F05BFE0020BE
:1021800001F058FE5D2001F055FE002001F052FEE6
:10219000742001F04FFE002001F04CFE842001F07D
:1021A00049FE002001F046FE932001F043FE00208E
:1021B00001F040FEA22001F03DFE002001F03AFEB9
:1021C000B32001F037FE002001F034FEBE2001F004
:1021D00031FE002001F02EFEC42001F02BFE002075
:1021E00001F028FECD2001F025FE002001F022FEA6
:1021F000D32001F01FFE002001F01CFEDD2001F0C5
:1022000019FE002001F016FEF32001F013FE00205D
:1022100001F010FEE52001F019FE002001F00AFE99
:10222000002001F007FE002001F004FE002001F074
:1022300001FE022001F0FEFD002001F0FBFD29203F
:1022400001F0F8FD002001F0F5FD3C2001F0F2FD69
:10225000002001F0EFFD4B2001F0ECFD002001F02B
:10226000E9FD5D2001F0E6FD002001F0E3FD7420B2
:1022700001F0E0FD002001F0DDFD842001F0DAFD39
:10228000002001F0D7FD932001F0D4FD002001F0E3
:10229000D1FDA22001F0CEFD002001F0CBFDB32046
:1022A00001F0C8FD002001F0C5FDBE2001F0C2FD17
:1022B000002001F0BFFDC42001F0BCFD002001F0B2
:1022C000B9FDCD2001F0B6FD002001F0B3FDD32013
:1022D00001F0B0FD002001F0ADFDDC2001F0AAFD11
:1022E000002001F0A7FDF32001F0A4FD002001F083
:1022F000A1FDE62001F0AAFD112001F09BFD0020C8
:1023000001F098FD342001F095FD002001F092FDD0
:10231000562001F08FFD002001F08CFD762001F0A9
:1023200089FD002001F086FD772001F083FD00206B
:1023300001F080FD662001F07DFD002001F07AFDB6
:10234000882001F077FD002001F074FD992001F054
:1023500071FD002001F06EFDBB2001F06BFD00203F
:1023600001F068FD992001F065FD002001F062FD9B
:10237000662001F05FFD002001F05CFD552001F0BA
:1023800059FD002001F056FD552001F053FD0020BD
:1023900001F050FD452001F04DFD002001F04AFD07
:1023A000432001F047FD002001F044FD442001F0EE
:1023B00041FD002001F03EFDE72001F047FD322005
:1023C00001F038FD002001F035FD552001F032FD0F
:1023D000002001F02FFD762001F02CFD002001F0FF
:1023E00029FD662001F026FD002001F023FD672075
:1023F00001F020FD002001F01DFD672001F01AFD15
:10240000002001F017FD872001F014FD002001F0ED
:1024100011FD992001F00EFD002001F00BFDBB2005
:1024200001F008FD002001F005FD992001F002FDFA
:10243000002001F0FFFC772001F0FCFC002001F0FF
:10244000F9FC442001F0F6FC002001F0F3FC5620DA
:1024500001F0F0FC002001F0EDFC232001F0EAFC8B
:10246000002001F0E7FC332001F0E4FC002001F043
:10247000E1FC452001F0DEFC002001F0DBFCE8205F
:1024800001F0E4FC002001F0D5FC002001F0D2FCBA
:10249000992001F0CFFC002001F0CCFC872001F056
:1024A000C9FC002001F0C6FC882001F0C3FC00201C
:1024B00001F0C0FC772001F0BDFC002001F0BAFC67
:1024C000662001F0B7FC002001F0B4FC882001F088
:1024D000B1FC002001F0AEFCAA2001F0ABFC002012
:1024E00001F0A8FCBB2001F0A5FC002001F0A2FC3B
:1024F000992001F09FFC002001F09CFC662001F077
:1025000099FC002001F096FC552001F093FC00207E
:1025100001F090FC552001F08DFC002001F08AFCB8
:10252000442001F087FC002001F084FC442001F0ED
:1025300081FC002001F07EFC552001F07BFC002096
:1025400001F078FCE92001F081FCAA2001F072FC86
:10255000002001F06FFC002001F06CFC002001F075
:1025600069FC002001F072FCAA2001F063FCCF207E
:1025700001F06CFC002001F05DFC002001F05AFC31
:10258000002001F057FC002001F054FC002001F075
:1025900051FC002001F04EFC002001F04BFC00201B
:1025A00001F048FC002001F045FC002001F042FC55
:1025B000002001F03FFC002001F03CFC002001F075
:1025C00039FC002001F036FC002001F033FC002033
:1025D00001F030FC002001F02DFCF02001F036FC71
:1025E000002001F027FC502001F024FC002001F025
:1025F00021FC002001F01EFC002001F01BFCF32058
:1026000001F024FC002001F015FCF92001F01EFC73
:10261000062001F00FFC102001F00CFC292001F035
:1026200009FC002001F006FC3A2001F00FFC5520C7
:1026300001F000FC112001F009FC642002F00CFC08
:10264000292001F003FC352001F000FC002001F0FE
:10265000F1FB512001F0FAFBFF2001F0EBFB5320CE
:1026600001F0F4FB2C2001F0E5FB552001F0EEFB1E
:10267000822001F0DFFB2C2001F0E8FB01F048B8DC
:10268000FE48808845F2105188427DD155214FF493
:10269000704001F0F1FBAA214FF2010001F0ECFBC8
:1026A00052214FF2020001F0E7FB08214FF2030034
:1026B00001F0E2FB01214FF2040001F0DDFB0D21EE
:1026C0004FF4304001F0D8FB0D214BF2010001F036
:1026D000D3FB0D214BF2020001F0CEFB34214FF46D
:1026E000364001F0C9FB34214BF2016001F0C4FB1C
:1026F00034214BF2026001F0BFFB0D214FF4314059
:1027000001F0BAFB0D214BF2011001F0B5FB0D21D8
:102710004BF2021001F0B0FB34214FF4374001F0CE
:10272000ABFB34214BF2017001F0A6FB34214BF2DC
:10273000027001F0A1FB00214FF4324001F09CFB3C
:1027400000214BF2012001F097FB00214BF2022007
:1027500001F092FB24214FF4384001F08DFB24213D
:102760004BF6010001F088FB24214BF6020001F03A
:1027700083FB01214FF43F4001F07EFB0F214FF41A
:10278000334001F079FB00E0FDE30F214BF2013013
:1027900001F072FB0F214BF2023001F06DFB34218E
:1027A0004FF4394001F068FB34214BF6011001F081
:1027B00063FB34214BF6021001F05EFB08214FF45D
:1027C000354001F059FB08214BF2015001F054FB58
:1027D00008214BF2025001F04FFB03214FF442401D
:1027E00001F04AFB24214FF43A4001F045FB24213B
:1027F0004BF6012001F040FB24214BF6022001F0B2
:102800003BFB00214FF43C4001F036FB78214BF6B6
:10281000014001F031FB00214BF6024001F02CFB9E
:1028200000214FF43D4001F027FB78214BF6015089
:1028300001F022FB00214BF6025001F01DFB0021AC
:102840004FF43E4001F018FB64214BF6016001F0AB
:1028500013FB00214FF4514001F00EFB33214DF2E8
:10286000011001F009FB00214DF2021001F004FB00
:1028700034214DF2031001F0FFFA00214DF2041053
:1028800001F0FAFA3A214DF2051001F0F5FA0021B3
:102890004DF2061001F0F0FA4A214DF2071001F056
:1028A000EBFA00214DF2081001F0E6FA5C214DF23E
:1028B000091001F0E1FA00214DF20A1001F0DCFAF2
:1028C00081214DF20B1001F0D7FA00214DF20C10CE
:1028D00001F0D2FAA6214DF20D1001F0CDFA00213F
:1028E0004DF20E1001F0C8FAE5214DF20F1001F083
:1028F000C3FA01214DF2101001F0BEFA13214DF27E
:10290000111001F0B9FA01214DF2121001F0B4FAE0
:1029100054214DF2131001F0AFFA01214DF21410C1
:1029200001F0AAFA82214DF2151001F0A5FA012159
:102930004DF2161001F0A0FACA214DF2171001F065
:102940009BFA02214DF2181001F096FA00214DF287
:10295000191001F091FA02214DF21A1001F08CFACF
:1029600001214DF21B1001F087FA02214DF21C10DB
:1029700001F082FA34214DF21D1001F07DFA02219E
:102980004DF21E1001F078FA67214DF21F1001F090
:1029900073FA02214DF2201001F06EFA84214DF2FB
:1029A000211001F069FA02214DF2221001F064FABF
:1029B000A4214DF2231001F05FFA02214DF2241000
:1029C00001F05AFAB7214DF2251001F055FA022113
:1029D0004DF2261001F050FACF214DF2271001F0F0
:1029E0004BFA02214DF2281001F046FADE214DF299
:1029F000291001F041FA02214DF22A1001F03CFAAF
:102A0000F2214DF22B1001F037FA02214DF22C1079
:102A100001F032FAFE214DF22D1001F02DFA0321C2
:102A20004DF22E1001F028FA10214DF22F1001F076
:102A300023FA03214DF2301001F01EFA33214DF23A
:102A4000311001F019FA03214DF2321001F014FA9D
:102A50006D214DF2331001F00FFA00214FF4524076
:102A600001F00AFA33214DF2012001F005FA0021AC
:102A70004DF2022001F000FA342101E02002002092
:102A80004DF2032001F0F8F900214DF2042001F08D
:102A9000F3F93A214DF2052001F0EEF900214DF253
:102AA000062001F0E9F94A214DF2072001F0E4F98E
:102AB00000214DF2082001F0DFF95C214DF20920E0
:102AC00001F0DAF900214DF20A2001F0D5F9812157
:102AD0004DF20B2001F0D0F900214DF20C2001F055
:102AE000CBF9A6214DF20D2001F0C6F900214DF2DF
:102AF0000E2001F0C1F9E5214DF20F2001F0BCF9E3
:102B000001214DF2102001F0B7F913214DF21120EF
:102B100001F0B2F901214DF2122001F0ADF954217A
:102B20004DF2132001F0A8F901214DF2142001F01B
:102B3000A3F982214DF2152001F09EF901214DF2F9
:102B4000162001F099F9CA214DF2172001F094F9ED
:102B500002214DF2182001F08FF900214DF21920C9
:102B600001F08AF902214DF21A2001F085F90121C4
:102B70004DF21B2001F080F902214DF21C2001F0E2
:102B80007BF934214DF21D2001F076F902214DF23E
:102B90001E2001F071F967214DF21F2001F06CF940
:102BA00002214DF2202001F067F984214DF221200D
:102BB00001F062F902214DF2222001F05DF9A42119
:102BC0004DF2232001F058F902214DF2242001F0AA
:102BD00053F9B7214DF2252001F04EF902214DF2B3
:102BE000262001F049F9CF214DF2272001F044F9C8
:102BF00002214DF2282001F03FF9DE214DF229207B
:102C000001F03AF902214DF22A2001F035F9F221C2
:102C10004DF22B2001F030F902214DF22C2001F071
:102C20002BF9FE214DF22D2001F026F903214DF262
:102C30002E2001F021F910214DF22F2001F01CF976
:102C400003214DF2302001F017F933214DF23120EC
:102C500001F012F903214DF2322001F00DF96D213E
:102C60004DF2332001F008F900214FF4534001F0F8
:102C700003F933214DF2013001F0FEF800214DF24D
:102C8000023001F0F9F834214DF2033001F0F4F88C
:102C900000214DF2043001F0EFF83A214DF20530F9
:102CA00001F0EAF800214DF2063001F0E5F84A2182
:102CB0004DF2073001F0E0F800214DF2083001F04C
:102CC000DBF85C214DF2093001F0D6F800214DF21D
:102CD0000A3001F0D1F881214DF20B3001F0CCF82F
:102CE00000214DF20C3001F0C7F8A6214DF20D3055
:102CF00001F0C2F800214DF20E3001F0BDF8E521DF
:102D00004DF20F3001F0B8F801214DF2103001F012
:102D1000B3F813214DF2113001F0AEF801214DF25C
:102D2000123001F0A9F854214DF2133001F0A4F84B
:102D300001214DF2143001F09FF882214DF215303F
:102D400001F09AF801214DF2163001F095F8CA21F0
:102D50004DF2173001F090F802214DF2183001F0D9
:102D60008BF800214DF2193001F086F802214DF266
:102D70001A3001F081F801214DF21B3001F07CF88E
:102D800002214DF21C3001F077F834214DF21D3054
:102D900001F072F802214DF21E3001F06DF867214A
:102DA0004DF21F3001F068F802214DF2203001F0A1
:102DB00063F884214DF2213001F05EF802214DF2DA
:102DC000223001F059F8A4214DF2233001F054F8DB
:102DD00002214DF2243001F04FF8B7214DF2253099
:102DE00001F04AF802214DF2263001F045F8CF21DA
:102DF0004DF2273001F040F802214DF2283001F069
:102E00003BF8DE214DF2293001F036F802214DF277
:102E10002A3001F031F8F2214DF22B3001F02CF87C
:102E200002214DF22C3001F027F8FE214DF22D3019
:102E300001F022F803214DF22E3001F01DF810218F
:102E40004DF22F3001F018F803214DF2303001F02F
:102E500013F833214DF2313001F00EF803214DF219
:102E6000323001F009F86D214DF2333001F004F8F1
:102E700000214FF4544000F0FFFF33214DF2014098
:102E800000F0FAFF00214DF2024000F0F5FF34217E
:102E90004DF2034000F0F0FF00214DF2044000F03D
:102EA000EBFF3A214DF2054000F0E6FF00214DF224
:102EB000064000F0E1FF4A214DF2074000F0DCFF40
:102EC00000214DF2084000F0D7FF5C214DF209408F
:102ED00000F0D2FF00214DF20A4000F0CDFF812129
:102EE0004DF20B4000F0C8FF00214DF20C4000F005
:102EF000C3FFA6214DF20D4000F0BEFF00214DF2B0
:102F00000E4000F0B9FFE5214DF20F4000F0B4FF94
:102F100001214DF2104000F0AFFF13214DF211409E
:102F200000F0AAFF01214DF2124000F0A5FF54214C
:102F30004DF2134000F0A0FF01214DF2144000F0CB
:102F40009BFF82214DF2154000F096FF01214DF2CA
:102F5000164000F091FFCA214DF2174000F08CFF9F
:102F600002214DF2184000F087FF00214DF2194078
:102F700000F082FF02214DF21A4000F07DFF012196
:102F80004DF21B4000E005E300F076FF02214DF218
:102F90001C4000F071FF34214DF21D4000F06CFF29
:102FA00002214DF21E4000F067FF67214DF21F40E5
:102FB00000F062FF02214DF2204000F05DFF84210D
:102FC0004DF2214000F058FF02214DF2224000F066
:102FD00053FFA4214DF2234000F04EFF02214DF299
:102FE000244000F049FFB7214DF2254000F044FF96
:102FF00002214DF2264000F03FFFCF214DF2274045
:1030000000F03AFF02214DF2284000F035FFDE21AA
:103010004DF2294000F030FF02214DF22A4000F02D
:103020002BFFF2214DF22B4000F026FF02214DF242
:103030002C4000F021FFFE214DF22D4000F01CFF3E
:1030400003214DF22E4000F017FF10214DF22F40CA
:1030500000F012FF03214DF2304000F00DFF33214C
:103060004DF2314000F008FF03214DF2324000F0F4
:1030700003FF6D214DF2334000F0FEFE00214FF4BE
:10308000554000F0F9FE33214DF2015000F0F4FEFE
:1030900000214DF2025000F0EFFE34214DF20350BA
:1030A00000F0EAFE00214DF2045000F0E5FE3A2166
:1030B0004DF2055000F0E0FE00214DF2065000F008
:1030C000DBFE4A214DF2075000F0D6FE00214DF202
:1030D000085000F0D1FE5C214DF2095000F0CCFE0A
:1030E00000214DF20A5000F0C7FE81214DF20B5035
:1030F00000F0C2FE00214DF20C5000F0BDFEA621F2
:103100004DF20D5000F0B8FE00214DF20E5000F0CF
:10311000B3FEE5214DF20F5000F0AEFE01214DF25D
:10312000105000F0A9FE13214DF2115000F0A4FE42
:1031300001214DF2125000F09FFE54214DF2135028
:1031400000F09AFE01214DF2145000F095FE82210C
:103150004DF2155000F090FE01214DF2165000F096
:103160008BFECA214DF2175000F086FE02214DF26F
:10317000185000F081FE00214DF2195000F07CFE45
:1031800002214DF21A5000F077FE01214DF21B5042
:1031900000F072FE02214DF21C5000F06DFE342151
:1031A0004DF21D5000F068FE02214DF21E5000F05D
:1031B00063FE67214DF21F5000F05EFE02214DF2CA
:1031C000205000F059FE84214DF2215000F054FEB1
:1031D00002214DF2225000F04FFEA4214DF2235067
:1031E00000F04AFE02214DF2245000F045FEB721C6
:1031F0004DF2255000F040FE02214DF2265000F025
:103200003BFECF214DF2275000F036FE02214DF259
:10321000285000F031FEDE214DF2295000F02CFE46
:1032200002214DF22A5000F027FEF2214DF22B50E0
:1032300000F022FE02214DF22C5000F01DFEFE2176
:103240004DF22D5000F018FE03214DF22E5000F0EB
:1032500013FE10214DF22F5000F00EFE03214DF20F
:10326000305000F009FE33214DF2315000F004FEE1
:1032700003214DF2325000F0FFFD6D214DF233502D
:1032800000F0FAFD00214FF4564000F0F5FD332127
:103290004DF2016000F0F0FD00214DF2026000F0FF
:1032A000EBFD34214DF2036000F0E6FD00214DF20C
:1032B000046000F0E1FD3A214DF2056000F0DCFD14
:1032C00000214DF2066000F0D7FD4A214DF2076063
:1032D00000F0D2FD00214DF2086000F0CDFD5C2130
:1032E0004DF2096000F0C8FD00214DF20A6000F0C7
:1032F000C3FD81214DF20B6000F0BEFD00214DF2B7
:103300000C6000F0B9FDA6214DF20D6000F0B4FD97
:1033100000214DF20E6000F0AFFDE5214DF20F608F
:1033200000F0AAFD01214DF2106000F0A5FD13216F
:103330004DF2116000F0A0FD01214DF2126000F08D
:103340009BFD54214DF2136000F096FD01214DF2DA
:10335000146000F091FD82214DF2156000F08CFDAB
:1033600001214DF2166000F087FDCA214DF2176071
:1033700000F082FD02214DF2186000F07DFD002179
:103380004DF2196000F078FD02214DF21A6000F054
:1033900073FD01214DF21B6000F06EFD02214DF224
:1033A0001C6000F069FD34214DF21D6000F064FDE9
:1033B00002214DF21E6000F05FFD67214DF21F609B
:1033C00000F05AFD02214DF2206000F055FD8421ED
:1033D0004DF2216000F050FD02214DF2226000F01C
:1033E0004BFDA4214DF2236000F046FD02214DF279
:1033F000246000F041FDB7214DF2256000F03CFD56
:1034000002214DF2266000F037FDCF214DF22760FA
:1034100000F032FD02214DF2286000F02DFDDE218A
:103420004DF2296000F028FD02214DF22A6000F0E3
:1034300023FDF2214DF22B6000F01EFD02214DF222
:103440002C6000F019FDFE214DF22D6000F014FDFE
:1034500003214DF22E6000F00FFD10214DF22F6080
:1034600000F00AFD03214DF2306000F005FD33212C
:103470004DF2316000F000FD03214DF2326000F0AA
:10348000FBFC6D214DF2336000F0F6FC55214FF44A
:10349000704000F0F1FCAA214FF2010000F0ECFCBA
:1034A00052214FF2020000F0E7FC08214FF2030026
:1034B00000F0E2FC00214FF2040000F0DDFCCC2122
:1034C0004FF4314000F0D8FC00214BF2011000F025
:1034D000D3FC05214FF4364000F0CEFC70214FF4B0
:1034E000374000F0C9FC70214BF2017000F0C4FCC1
:1034F00001214FF4384000F0BFFC03214BF60100DE
:1035000000F0BAFC03214BF6020000F0B5FC0321E9
:103510004BF6030000F0B0FC02214FF43C4000F0F9
:10352000ABFC00214BF6014000F0A6FC00214BF65D
:10353000024000F0A1FCD0214FF4494000F09CFC77
:1035400002214CF6011000F097FC50214CF60210BD
:1035500000F092FC50214CF6031000F08DFC50213D
:103560004CF6041000F088FC00214FF4545000F099
:1035700083FC55214FF4685000F07EFC4FF48850D6
:1035800000F064FC782001F083FC4FF4245000F03C
:103590005DFCBDE07E48808841F663118842F8D129
:1035A000E22000F053FC1D2000F044FC022000F05B
:1035B00041FC042000F03EFC642001F069FCE020A6
:1035C00000F044FC012000F035FC0A2001F044FC2E
:1035D000E02000F03BFC032000F02CFC0C2001F06C
:1035E0003BFC012000F032FC0A2001F035FCE62013
:1035F00000F02CFC2F2000F01DFCFF2000F01AFC36
:10360000FF2000F017FCB02000F020FC202000F08C
:1036100011FC002000F00EFC032000F00BFC40F237
:103620001F3000F007FC012000F004FC40F2DF1026
:1036300000F000FC002000F0FDFBB42000F006FCD0
:10364000042000F0F7FB40F21F4000F0F3FB0020E5
:1036500000F0F0FB2E2000F0EDFB002000F0EAFB74
:10366000002000F0E7FB002000F0E4FB002000F069
:10367000E1FBB62000F0EAFB022000F0DBFB4FF498
:10368000037000F0D7FB002000F0D4FB172000F0FF
:10369000D1FB152000F0CEFB002000F0CBFB00207A
:1036A00000F0C8FBF02000F0D1FB032000F0C2FBCB
:1036B000292000F0CBFBD02000F0C8FB002000F058
:1036C000B9FBBE2000F0C2FB052000F0B3FBFE20DA
:1036D00000F0B0FB012000F0ADFB002000F0AAFBE1
:1036E000002000F0A7FB002000F0A4FBB82000F0B1
:1036F000ADFB032000F09EFB012000F09BFBBA20F5
:1037000000F0A4FB012000F095FB642000F05CF8C1
:103710001F48808849F24131884211D01C48808876
:1037200045F2103188420BD01948808845F210517B
:10373000884205D01648808841F6631188421CD122
:103740001448006820F00F004FF02041C1F8040138
:103750000846D0F8040120F47060C1F8040108465E
:10376000D0F8040140F00400C1F804010846D0F884
:10377000040140F48060C1F804010020FDF7BCFBA7
:103780000120054908604FF6FF70FDF791FB1CBD55
:1037900020020020040100A09482404210B502469D
:1037A000012000E050430B1EA1F10104E1B2F9D168
:1037B00010BD000008B5034800880090BDF8000067
:1037C00008BD00000000086070B52DED048B0446B4
:1037D000BE2000F03BFB052000F02CFB204602F051
:1037E000AEFE41EC190B9FED0E0B53EC102B02F0CB
:1037F000B9FE41EC180B02F075FE85B2284600F0C8
:1038000019FB012000F016FBFF2000F013FB002045
:1038100000F010FB002000F00DFBBDEC048B70BD30
:103820006666666666660440F0B5054600240027B5
:1038300099488079012805D19748808841F663111D
:10384000884208D194488079F0B99348808841F63D
:103850006311884218D1082D15D2DFE805F004065F
:10386000080A0C0E101206250DE007250BE00425B2
:1038700009E0052507E0012505E0002503E0032513
:1038800001E0022500BF00BF8348808849F2413132
:10389000884211D08048808845F2103188420BD090
:1038A0007D48808845F21051884205D07A4880884A
:1038B00041F6631188427DD1082D1CD2DFE805F066
:1038C0000406090C0F12151800BF14E044F0800420
:1038D00011E044F040040EE044F0C0040BE044F07A
:1038E000200408E044F0600405E044F0A00402E095
:1038F00044F0E00400BF00BF6748808845F21051E3
:10390000884202D14FF4585700E036276248808839
:1039100045F2103188420DD05F48808845F2105141
:10392000884207D05C48808841F66311884201D004
:1039300044F008042146384600F09EFA5648808834
:1039400041F6631188421DD004F0200068B152484E
:10395000008851494988884214DA4F4806884088CF
:103960004D490880084646800CE04B4800884A498B
:103970004988884206DD48480688408846490880CC
:10398000084646804448808845F21051884254D108
:103990004149488900F05AFA002000F04BFA3E49AC
:1039A0004989491C88B200F051FA002000F042FA1F
:1039B000394900E06FE04989891C88B200F046FA75
:1039C00035490988491EC1F30F2000F033FA324906
:1039D0004989C91C88B200F039FA2F490978491E73
:1039E000C8B200F027FA2C49888900F02FFA00208D
:1039F00000F020FA28498989491C88B200F026FA8B
:103A0000002000F017FA24498989891C88B200F047
:103A10001DFA21494988491EC1F30F2000F00AFA16
:103A20001D498989C91C88B200F010FA1A498978A1
:103A3000491EC8B200F0FEF92DE01749488900F090
:103A400005FA002000F0F6F9002000F0F3F9124921
:103A50000988491EC1F30F2000F0ECF90E490978DE
:103A6000491EC8B200F0E6F90B49888900F0EEF96A
:103A7000002000F0DFF9002000F0DCF90649498859
:103A8000491EC1F30F2000F0D5F903498978491E7A
:103A9000C8B200F0CFF9F0BD2002002010B50246F8
:103AA0000C464B48808849F24131884205D048484D
:103AB000808845F21031884214D14549488900F088
:103AC000C5F9101200F0B6F9D0B200F0B3F94049D0
:103AD000888900F0BBF9201200F0ACF9E0B200F0E8
:103AE000A9F973E03A48808841F66311884247D1CA
:103AF00037488079A8B936480088401E801A82B2BB
:103B00003349488900F0A2F9002000F093F9002021
:103B100000F090F9101200F08DF9D0B200F08AF99F
:103B200016E02B49488900F091F9101200F082F953
:103B3000D0B200F07FF926490988491EC1F30F2051
:103B400000F078F922490978491EC8B200F072F9EC
:103B50001F49888900F07AF9201200F06BF9E0B271
:103B600000F068F91A494988491EC1F30F2000F096
:103B700061F917498978491EC8B200F05BF925E060
:103B80001348808845F2105188421FD11049488956
:103B900000F05CF9101200F04DF90D494989491CFB
:103BA00088B200F053F9D0B200F044F9084988898E
:103BB00000F04CF9201200F03DF905498989491CB3
:103BC00088B200F043F9E0B200F034F910BD000013
:103BD000200200202DE9F84F80460F4616461C466D
:103BE000BB462046E31704EB5373DB1021464FEA34
:103BF000E47C04EB5C7C4FEAEC0CA4EBCC0CBCF159
:103C0000000F02D04FF0010C01E04FF0000C6344B4
:103C1000224604EBD27C4FEA6C0C03FB0CF3DBB2C4
:103C20000093A6F12000C6B200255EE00C2C07D15F
:103C300006EB46002F4901EB800010F805901BE0D1
:103C4000102C05D12C4800EB061010F8059013E05D
:103C5000182C07D106EBC600284901EB800010F8AC
:103C6000059009E0202C05D1254800EBC61010F87E
:103C7000059001E0BDE8F88F4FF0000A2FE009F051
:103C8000800030B11F48394602684046FDF7F4F91C
:103C900007E00A9828B91C48394602684046FDF7F3
:103CA000EBF94FEA49604FEA1069781C87B2174870
:103CB0004088B84200DCDDE7A7EB0B00A0420AD148
:103CC0005F4608F101001FFA80F81048008840455F
:103CD00000DCCFE706E00AF1010000F0FF0ABAF1CC
:103CE000080FCCDB00BF681CC5B2009885429DDB85
:103CF00000BFBFE76A670008DE6B0008CE710008EE
:103D00002A7F00080C000020100000202002002064
:103D10002DE9F84F04460D4690469946DDE90A67BD
:103D200004F0FF0A08EB04001FFA80F809EB050015
:103D30001FFA80F916E0444502DB5446A81985B203
:103D40004D4500DB14E0002000903A7833462946C8
:103D50002046FFF73FFF304606EBD07104EB6101D0
:103D60008CB27F1C38787E2802DC38782028E2DA92
:103D700000BFBDE8F88F2DE9FF4F83B0064692469D
:103D80001F46DDE910480020029000254DE0781B19
:103D9000401EC1B20A20FFF701FDBAFBF0F00A2174
:103DA000B0FBF1F201FB1209029850BB781EA84249
:103DB00027DDB9F1000F22D108F0800078B108F0BA
:103DC0000100A34604EBDB71491001FB0561009083
:103DD00088B2234630220499FFF7FCFE0EE008F07B
:103DE0000100A34604EBDB71491001FB0561009063
:103DF00088B2234620220499FFF7ECFE13E001204D
:103E0000029008F00100A34604EBDB71491001FBAE
:103E10000561009088B209F13001CAB223460499C5
:103E2000FFF7D8FE00BF681CC5B2BD42AFDB07B0CC
:103E3000BDE8F08F01B5BDF800000090BDF80000AE
:103E40000149088008BD00000000086001B5BDF808
:103E500000000090BDF800000149088008BD000086
:103E6000FEFF076002480089024908807047000091
:103E700020020020FEFF0760024A1080921C118081
:103E800070470000FEFF07601CB50B48006840F05B
:103E90000200094908600120032100230246CDE900
:103EA00000100648FCF70CFF012005490860054991
:103EB000C1F880021CBD00003038024000040240FE
:103EC000848240420080404218B50446064800946F
:103ED000008B401E83B20448C08A401E82B200217B
:103EE000084600F08DF818BD30020020F0B50346FA
:103EF0000C461546002100200022214E366826F08F
:103F000080561F4F3E6001E04E1CB1B21C4E366819
:103F100006F000561EB141F6FF76B142F4DB41F6E1
:103F2000FF76B14201D1012029E042EA831242EA40
:103F30000472134E88363260361D366826F44036D9
:103F40000F4F8C373E603E46366846EA05463E6077
:103F50000B4E366846F08056094F3E6001E04E1C1D
:103F6000B1B2074E366806F000561EB941F6FF762C
:103F7000B142F4DB41F6FF76B14200D10220F0BD40
:103F8000003802400949487530B98988074AD1820A
:103F900011460988118308E0012806D103490988E0
:103FA000024AD1821146898811837047300200206D
:103FB00070B5114B5B7D6BB10F4BDB690E4D2D68FE
:103FC00005FB01056B430C4D2D7D0C4E56F825501D
:103FD000EA520FE0084B1D685B681B1A5B1E05FB6D
:103FE0000313054DED696B43034D2D7D034E56F8CC
:103FF0002550EA5270BD000030020020140000205D
:104000002DE9F04F04460D4616464FF0000CDFF840
:10401000289199F81590B9F1000F04D0204629464F
:1040200032461F4611E02846DFF80C91D9F804907B
:10403000A9EB0609A9F101011A46DFF8FC90D9F8AD
:104040000490A9EB0409A9F10107DFF8EC90B9F895
:104050000090A2EB000A0AF1010AA9EB0A091FFA73
:1040600089F8DFF8D49099F81490DFF8D0A05AF8C6
:104070002990DFF8C4A0DAF81CA0DFF8BCB0DBF8A8
:1040800000B00BFB010B0AFB0B9EDFF8B490D9F8D4
:10409000009049F40009DFF8A8A0CAF80090DFF802
:1040A000A490D9F8009029F00109DFF898A0CAF887
:1040B00000904FF44039CAF800904FF00209CAF856
:1040C0003490D146C9F84080C9F83CE0A7EB01091B
:1040D00009F10109A2EB000A0AF1010A49EA0A49B9
:1040E000DFF860A0CAF84490DDF82490CAF8389050
:1040F000D146D9F8009049F00109CAF8009005E0CE
:104100000CF1010CBCF5001F00D308E0DFF834907F
:10411000D9F8049009F00209B9F1000FF0D000BFFE
:10412000DFF82090D9F8089049F00209DFF814A0D0
:10413000CAF80890BDE8F08F30020020140000207B
:104140003038024000B002407FB50024002500F066
:10415000D1FA0546D348006840F08060D149086034
:10416000D0481438006840F00200CE491439086085
:104170000846006840F4F070086001200221002326
:104180000246CDE900102021C748FCF799FD012027
:10419000032100230222CDE900108102C348FCF76D
:1041A0008FFD0120032100230222CDE900104FF4EE
:1041B0000C61BF48FCF784FD01200321002302228B
:1041C000CDE900104FF47E41BA48FCF779FD01209B
:1041D000032100230222CDE9001040F2F761B64826
:1041E000FCF76EFD0E220A21B048FCF749FD0E22B5
:1041F0000621AF48FCF744FD0E220721AC48FCF72E
:104200003FFD0E220B21AA48FCF73AFD0E220921A0
:10421000A848FCF735FD0E220A21A648FCF730FD20
:104220000E220B21A348FCF72BFD0E220C21A148E6
:10423000FCF726FD0E220D219E48FCF721FD0E22E3
:1042400011469C48FCF71CFD0E220F219948FCF7F3
:1042500017FD0E2200219848FCF712FD0E220121C5
:104260009548FCF70DFD0E2202219348FCF708FD4E
:104270000E2204219048FCF703FD0E2205218E48F2
:10428000FCF7FEFC0E2206218B48FCF7F9FC0E22FF
:1042900007218948FCF7F4FC0E2209218648FCF727
:1042A000EFFC0E220A218448FCF7EAFC44F242307B
:1042B000854218D14FF4F070804908604FF488703F
:1042C0004860012008814881282088810820C88111
:1042D0000520088208204882022204214FF49070B1
:1042E000FFF704FE50E047F28400854218D14FF4F6
:1042F0004870724908604FF4F070486001200881EE
:1043000048812E2088811720C881D220088216205B
:104310004882012203214FF4C670FFF7E7FD33E026
:1043200047F21600854219D14FF480606349086056
:104330004FF41670486014200881032048818C20B7
:1043400088811420C881A02008820C204882012284
:1043500002214FF4B470FFF7C9FD15E047F21800D1
:10436000854207D14FF4A060544908604FF448706B
:10437000486009E048F21600854205D140114F49D6
:1043800008604FF416704860002400BF00BF00BFF3
:104390004B48046049484089441E48480089401EF3
:1043A00044EA004446481038046044484089434980
:1043B000C9890844441E4148008940498989084404
:1043C000401E44EA00443E480C3804603B484089A3
:1043D0003A49C9890844394949680844441E37485C
:1043E0000089364989890844344909880844401EAF
:1043F00044EA0044324808380460304840892F4974
:10440000C98908442D49496808442C49498A084407
:10441000441E2A480089294989890844274909886E
:1044200008442649098A0844401E44EA00442448B6
:10443000001F04600020224914310860012000F0B0
:10444000AFF920482049086002201C49C8610020BB
:1044500007210622CDE90002CDE902101A48FF2308
:1044600002220168002000F035F81448808880B2EC
:1044700000901248008883B200221146104600F0D6
:104480009DF80E480088114908800C4880884880B3
:10449000002000F07FF901200D490860801EFFF721
:1044A00013FD7FBD44380240000402400014024066
:1044B00000180240001C0240002002403002002090
:1044C00018680140000000C01400002020020020F5
:1044D000948240422DE9F04106ACF0CCE0B9DFF81F
:1044E00078C0CCF80010DFF870C0ACF1180CCCF834
:1044F00000200CF1040CCCF8003047EA046CDFF823
:104500005880A8F11008C8F800C046EA052C08F148
:104510000408C8F800C01DE0DFF83CC00CF1800CB6
:10452000CCF80010DFF830C00CF1680CCCF800209B
:104530000CF1040CCCF8003047EA046CDFF818806A
:1045400008F17008C8F800C046EA052C08F1040814
:10455000C8F800C0BDE8F081AC680140012910D165
:1045600030B9154A126842F00102134B1A6019E083
:10457000114A8032126842F001020F4B80331A60F8
:1045800010E079B930B90C4A126822F001020A4BE6
:104590001A6007E0084A8032126822F00102064BD6
:1045A00080331A60044A603A126842F00102024BFA
:1045B000603B1A6070470000846801402DE9F047B5
:1045C00082460F4690461E46DDF820900025BAF13F
:1045D000000F43D1B81945490968C1F30B4108449C
:1045E000040442480068C0F30B403844401C204398
:1045F0003E497C31086008EB09003C490968C1F379
:104600000A010844040439480068C0F30A00404421
:10461000401C2043354980310860344888300068A8
:1046200000F007050DB904240AE0012D01D103248F
:1046300006E0052D01D0062D01D1012400E0022461
:1046400006FB04F0C01C06FB04F140EA01402749C8
:10465000A4310860081DC0F8009041E0B819234952
:104660000968C1F30B410844040420480068C0F302
:104670000B403844401C20431C49FC31086008EBC7
:1046800009001A490968C1F30A01084404041748DB
:104690000068C0F30A004044401C204314490860ED
:1046A00013480830006800F007050DB904240AE03B
:1046B000012D01D1032406E0052D01D0062D01D1E5
:1046C000012400E0022406FB04F0C01C06FB04F1F8
:1046D00040EA0140064924310860081DC0F80090F6
:1046E00001215046FFF73AFFBDE8F0870C68014012
:1046F0000C6901401CB500242048006840F4A070FB
:104700001E490860012000210B460A46CDE9001031
:1047100040211B48FCF7D4FA012000210B460A4631
:10472000CDE9001084211748FCF7CAFA1648006842
:10473000C4B21648D0F8080244EA4000C4B2144893
:10474000006844EA8000C4B214B944F242301CBD8F
:10475000012C02D147F28400F9E7022C02D147F282
:104760001600F4E7032C02D147F21800EFE7042CFF
:1047700002D148F21600EAE70020E8E730380240AC
:104780000018024000200240180243420000444248
:104790001C024442014908757047000030020020A5
:1047A000012806D10749096841F00101054A116055
:1047B00006E028B90349096821F00101014A1160A6
:1047C00070470000186801402DE9F041074688460F
:1047D00014461D46284600F033F8C5F1040007FAD8
:1047E00000F60F20284100EA0800064306F00F06F5
:1047F000E21704EBD2625211920002F1E022D2F8E9
:1048000000212146E31704EBD3635B11A4EB431CA7
:10481000012303FA0CF31A432046E31704EBD36396
:104820005B119B0003F1E023C3F800210348005D06
:1048300040EA061001490855BDE8F08100E400E0B7
:104840000146072323EA01021202054B18684FF6BE
:10485000FF031840034B18431043014B1860704787
:104860000CED00E00000FA054A0A52020243014B37
:104870001A60704708ED00E07CB500240025002692
:10488000A948006840F00100A7490860A648083818
:10489000006840F07C00A449083908600120032129
:1048A00000230222CDE900100D21A048FCF708FAF0
:1048B0000120032100230222CDE900104CF20371F4
:1048C0009B48FCF7FDF90120032100230222CDE9DA
:1048D00000104FF683719748FCF7F2F9012003218D
:1048E00000230222CDE900104FF63F019248FCF769
:1048F000E7F90120032100230222CDE9001048F24C
:1049000037118E48FCF7DCF90C2200218748FCF7B0
:10491000B7F90C2202218548FCF7B2F90C220321D9
:104920008248FCF7ADF90C2200218148FCF7A8F978
:104930000C2201217E48FCF7A3F90C2208217C48B7
:10494000FCF79EF90C2209217948FCF799F90C2211
:104950000A217748FCF794F90C220E217448FCF7E1
:104960008FF90C220F217248FCF78AF90C220021E2
:104970007048FCF785F90C2201216E48FCF780F99C
:104980000C2207216B48FCF77BF90C2208216948AF
:10499000FCF776F90C2209216648FCF771F90C2224
:1049A0000A216448FCF76CF90C220B216148FCF7E2
:1049B00067F90C2211465F48FCF762F90C220D21C1
:1049C0005C48FCF75DF90C220E215A48FCF758F9B7
:1049D0000C220F215748FCF753F90C2200215648AE
:1049E000FCF74EF90C2201215348FCF749F90C223F
:1049F00002215148FCF744F90C2203214E48FCF7F0
:104A00003FF90C2204214C48FCF73AF90C2205210D
:104A10004948FCF735F90C220B214748FCF730F9DF
:104A20000C2211464448FCF72BF90C220D21424878
:104A3000FCF726F90C220E213F48FCF721F90C2245
:104A40000F213D48FCF71CF90C2200213B48FCF7E4
:104A500017F90C2201213948FCF712F90C22022126
:104A60003648FCF70DF90C2204213448FCF708F90C
:104A70000C2205213148FCF703F90C2208212F48AC
:104A8000FCF7FEF80C220F212C48FCF7F9F844F053
:104A9000010444F0080444F0100444F0400444F4D9
:104AA000C07400BF44F4006444F4805400BF244840
:104AB000046045F0010545F0600545F4A06545F446
:104AC000A04545F4803545F4801545F08075C00556
:104AD000C0F8485100231A460121184600F032F868
:104AE0004FF4FA7000F0D4F900231A460221184658
:104AF00000F028F8002308220321184600F022F8CD
:104B000046F0030600BF46F0300600BF46F40076CC
:104B1000334600220421104600F014F840F2B4504D
:104B20000749143108607CBD383802400008024053
:104B3000000C024000100240001402400018024025
:104B4000400100A0F0B504460D460026002129438F
:104B5000C4F104070120B840014341EA421141EA8F
:104B600043210948016005E0761CB6F5001F01D31A
:104B70000120F0BD04480830006800F02000002843
:104B8000F2D100BFF5E70000500100A0F0B50446E7
:104B90000D4616461F461448006840F001001249B1
:104BA000086000201049083108600F4800680F496C
:104BB00008400D4908600E48091D0860081F00687C
:104BC00020F48020091F0860002007490C3108608C
:104BD0003B4632462946204600F00CF800210846A4
:104BE000FFF742FEF0BD000000380240FFFFF6FE76
:104BF00010300024F0B504460D46002100203D4E43
:104C0000366846F480363B4F3E6001E04E1CB1B240
:104C1000384E366806F400361EB941F6FF76B142CA
:104C2000F4DB41F6FF76B14201D1012060E0314E64
:104C30004036366846F080562E4F40373E602E4E46
:104C4000366846F440462C4F3E602A4E0836366899
:104C500046F41446274F08373E60264E366826F045
:104C60008076244F3E6045EA84160127C7EB520741
:104C700046EA074646EA036646F480061D4F3F1D96
:104C80003E603E1F366846F080763F1F3E6000BFA4
:104C9000184E366806F00076002EF9D0174E3668AA
:104CA00046F48076154F3E603E46366846F4007600
:104CB0003E603E46366846F480663E603E46366854
:104CC00046F005063E600B4E0836366826F00306B1
:104CD000084F08373E603E46366846F002063E60A2
:104CE00000BF044E0836366806F00C06082EF8D1D0
:104CF000F0BD00000038024000700040003C02405F
:104D000010B50C48006800F0010058B10A49086964
:104D1000804700200749143108604FF47A70054934
:104D20001C3108600348006820F001000149086058
:104D300010BD0000100800406400002070B505465A
:104D40000C461048006840F004000E4908600E4808
:104D50000560001F04600C482038006840F0010026
:104D600009492039086008482C38006840F00100E3
:104D700005492C39086002231E2203210846FFF74B
:104D800023FD70BD403802402C0800401C490968D2
:104D900001F0200109B31A494968C8B219490988C4
:104DA00001F40041C9B91749098801F4804161B192
:104DB0000A2803D00021134A118020E011490988F4
:104DC00041F400410F4A118019E00D2806D10D4928
:104DD000098841F480410B4A118010E00949098893
:104DE000C1F30D01084A505406490988491C054A77
:104DF000118011460988C72901DD00211180704703
:104E000000100140080000205801002030380A2816
:104E100001D2012070470020704700BF704700009A
:104E20004FF0E021096921F004014FF0E022116107
:104E3000C21700EB5272C2F3C702054B1A704FF44F
:104E40007A714143C1F3CF01024A118070470000DB
:104E5000000000200200002070B504464FF40770E7
:104E600094FBF0F0C6B24FF4077094FBF0F100FB36
:104E7000114085B205E04FF4077000F027F8701E6E
:104E8000C6B2002EF7D115B1284600F01FF870BD4C
:104E900001460D4A12784A434FF0E0235A6100223E
:104EA0009A6101221A6100BF4FF0E022106900F000
:104EB00001021AB100F48032002AF5D000224FF02E
:104EC000E0231A619A6170470000002001460D4AF4
:104ED00012884A434FF0E0235A6100229A6101226E
:104EE0001A6100BF4FF0E022106900F001021AB110
:104EF00000F48032002AF5D000224FF0E0231A613E
:104F00009A6170470200002000BF054A126802F053
:104F10004002002AF9D0C2B2014B5A60704700002B
:104F2000001001401FB50024A14600264FF00108E3
:104F30000823022219214FF4B470FFF727FEB42092
:104F4000FFF76EFF4FF4E1315A2000F0A5F9A348B6
:104F500041685A208847FEF797FFFFF78DFCFCF762
:104F600055F9FBF71DFF01200623092205210090BA
:104F7000FBF71CFC4FF478409949086099A0102178
:104F80000B46C822CDE9001032211E20FEF7C0FEDC
:104F900099A010210B46C822CDE9001046211E2001
:104FA000FEF7B6FE97A010210B46C822CDE90010EF
:104FB0005A211E20FEF7ACFE96A010210B46C822F7
:104FC000CDE900106E211E20FEF7A2FE94A0102154
:104FD0000B46C822CDE9001082211E20FEF798FE64
:104FE00093A010210B46C822CDE9001096211E2067
:104FF000FEF78EFE1F207A49086093A010210B4611
:10500000C822CDE90010AA211E20FEF781FE90A043
:1050100010210B46C822CDE90010BE211E20FEF74C
:1050200077FE8EA010210B46C822CDE90010FA2190
:105030001E20FEF76DFED0E00020FBF7E9FE0546DE
:10504000012D43D1002423E0301902A90855042C76
:105050000DDA80201021CDE9001002A90A5D1E2181
:1050600001EB44100323D221FEF785FE0EE08020E1
:105070001021CDE9001002A90A5D211F1E2303EBB8
:10508000411188B20323E621FEF775FE601CC4B20D
:10509000082CD9DB082102A8FBF70AFD074657B107
:1050A00072A010210B46C822CDE90010BE216E204F
:1050B000FEF72EFE3AE06FA010210B46C822CDE984
:1050C0000010BE216E20FEF723FE2FE0042D2DD10F
:1050D000B8F1000F01D1012000E000208046062336
:1050E000092205210120CDF80080FBF75FFB4FF47A
:1050F00078403B490860B8F1000F0AD15FA0102149
:105100000B46C822CDE9001082211E20FEF700FECA
:1051100009E043A010210B46C822CDE900108221EE
:105120001E20FEF7F5FD1F202D49086002A8FBF7A1
:1051300031FC05468DB34FF6FF704FF49B73A022F0
:105140004FF4877100901E20FCF728F8002422E01D
:10515000042C0EDA80201021CDE9001002A90A5D8E
:105160001E2101EB441003234FF48771FEF703FE69
:105170000FE080201021CDE9001002A90A5D211F57
:105180001E2303EB411188B203234FF49171FEF704
:10519000F2FD601CC4B2AC42DADB09F1010000F0A0
:1051A000FF090A20FFF758FEB9F1140F15D137484F
:1051B000006808B9012000E00020344908604FF081
:1051C0000009701CC6B28020102103233246CDE9AD
:1051D0000010AA214E20FEF7CEFD2DE7640000202E
:1051E0000C00002041706F6C6C6F2053544D3332B3
:1051F00046342F463700000043414E205445535457
:105200000000000041544F4D40414C49454E54452B
:105210004B000000323031352F31322F3238000050
:105220004C6F6F704261636B204D6F6465000000CE
:105230004B4559303A53656E6420574B5F55503A91
:105240004D6F646500000000436F756E743A000096
:1052500053656E6420446174613A00005265636571
:1052600069766520446174613A0000004661696CAA
:10527000656400004F4B2020202000004E6E6F72AE
:105280006D616C204D6F6465200000008482404297
:105290000146086870470000F0B52DED028B83B021
:1052A00005460E46384905FB01F000EE100AF8EEFF
:1052B000400A300100EE100AB8EE400A80EE801A73
:1052C000B0EE418ABCEEC80A10EE100A84B200EEBD
:1052D000104AB8EE400A38EE400AF3EE000A20EE1B
:1052E000200ABCEEC00A10EE107A4FF6FF7000EAFA
:1052F0000414E01984B22548006840F001002349F5
:10530000086022481430006840F010001F49143132
:1053100008600120022100230A46CDE900104FF465
:10532000C0611B48FBF7CCFC072209211848FBF79A
:10533000A7FC07220A211648FBF7A2FC1548846047
:10534000C06820F400401349C8600846C06840F0B7
:105350000800C8600846C06840F00400C8600846FD
:10536000C06840F02000C8600223252203210846BF
:10537000FFF72AFA0748C06840F400500549C860A2
:1053800003B0BDEC028BF0BD40420F00303802404C
:10539000000002400010014030B595B0054613AB47
:1053A00012AA09A9284600F03FFA044614B1204683
:1053B00015B030BD0020149026E0224909689DF800
:1053C000502001EBC20113AB11AA486801A900F0FB
:1053D0002BFA04460CB12046EAE709A901A800F01F
:1053E000DDFC60B99DF844009DF84810884201DD5D
:1053F0000220DDE79DF85000124988750AE09DF80B
:105400005000401CC0B214900E48007D9DF8501012
:105410008842D2DC00BF0B48007D9DF850108842C6
:1054200001D10420C4E714A9284600F0DDFA04469F
:105430000CB12046BCE79DF8500002494875002099
:10544000B6E70000640000202DE9F0419AB09C48C6
:10545000847D007DA04202DC1AB0BDE8F08198494D
:10546000096801EBC40106AB07AA486808A900F067
:10547000DBF908A993A0FAF73DFF002644E0904825
:10548000008B0121B1400840D8B122218FA0FAF74A
:1054900031FF304600F02EFB894924314718394648
:1054A0008BA0FAF727FF222188A0FAF723FF3046C6
:1054B00000F020FB82492431084410A941F826005D
:1054C00018E0304600F016FB7D492431085810A939
:1054D00041F826007A48C07D30B910A850F826104F
:1054E0007CA0FAF707FF05E010A850F826107AA074
:1054F000FAF700FF9DF81C00401EB04202D078A0D1
:10550000FAF7F8FE701CC6B29DF81C008642B6DBA6
:1055100074A0FAF7EFFE00F03DFB6948407D0B28D0
:105520000DD2DFE800F0060D151E27323F4E5F72E8
:1055300087006349096851F834008047054690E0C8
:105540005F4A126852F8341010988847054688E080
:105550005B4B1B6853F83420DDE91001904705468A
:105560007FE0574F3F6857F8343010A807C8984776
:10557000054676E0DFF848C1DCF800C05CF834701E
:1055800010A80FC8B84705466BE01498DFF830C183
:105590000090DCF800C05CF8347010A80FC8B84761
:1055A00005465EE0DDE91401DFF814C1CDE9000134
:1055B000DCF800C05CF8347010A80FC8B847054686
:1055C0004FE0DDE914121698DFF8F4C0CDE90012BF
:1055D0000290DCF800C05CF8347010A80FC8B8471F
:1055E00005463EE0DDE91423DDE91610DFF8D0C002
:1055F000CDE90023CDE90210DCF800C05CF834707E
:1056000010A80FC8B84705462BE0DDE91523DDE9F2
:105610001710CDE90123CDE903101498DFF8A0C0DD
:105620000090DCF800C05CF8347010A80FC8B847D0
:10563000054616E0DDE91623DDE91810CDE9022361
:10564000CDE90410DDE91401DFF874C0CDE90001F3
:10565000DCF800C05CF8347010A80FC8B8470546E5
:1056600000BF00BF00F056FA9DF8180001280CD1C9
:105670001348C07D20B929461BA0FAF73BFE07E07E
:1056800029461BA0FAF736FE02E018A0FAF732FE10
:105690000B4890F8EC0088B10948D0F8F0000A21D6
:1056A000B0FBF1F201FB12070548D0F8F000B0FBA7
:1056B000F1F83A46414611A0FAF71CFE00BFCBE6CE
:1056C000640000200D0A25732800000025630000F7
:1056D00025730000256C6400305825580000000038
:1056E0002C000000290000003D256C753B0D0A00D0
:1056F0003D305825583B0D0A0000000046756E638A
:1057000074696F6E2052756E2054696D653A256418
:105710002E2531646D730D0A00000000F0B50346BC
:10572000154600200022002600245BE01F782C2F65
:1057300001D104B901221F78292F01D01F780FB998
:1057400004B950E0002E3AD11F78302F02DB1F78C9
:10575000392F17DD1F782D2F14D01F782B2F11D044
:105760001F78612F02DB1F78662F0BDD1F78412F1A
:1057700002DB1F78462F05DD1F78582F02D01F78D7
:10578000782F0CD102B12EE01F78612F03DB1F7838
:10579000203F0F7001E01F780F70491C1FE01F7839
:1057A000222F04D102B11EE00126012417E01F7848
:1057B000202F14D01F782C2F11D0FF2613E01F7834
:1057C000222F00D1002402B10DE044B11F785C2FDC
:1057D00002D15B1C471CF8B21F780F70491C471C94
:1057E000F8B25B1CA2E700BF00270F702E70F0BD5F
:1057F00010B50446002010700BE020780870641C7F
:10580000491C1078401C10701078984201DB012070
:1058100010BD2078202802D020780028EDD100206B
:10582000087000BFF4E700002DE9FF4F85B0804607
:1058300089460027002004900390012002904FF039
:10584000000B002544461DE02078202816D005F0E6
:105850007F00052812DA0DB945F0800505F07F00BC
:10586000042803D120782A2800D00EE0207805F003
:105870007F010DF80100681CC5B202E0852D00D142
:1058800003E0641C20780028DED100BF8DB1002029
:1058900005F07F010DF8010051A1684600F07EFA85
:1058A00018B900210898017002E0012108980170E0
:1058B00000254FF0000A444614E0641C0AF1010080
:1058C00000F0FF0A2078202802D020782A2809D169
:1058D000204600F0D5F90646282E03D02A2E01D006
:1058E000CDF810A02078282802D020780028E4D114
:1058F0004446049810B10498401C04444FF0000A38
:10590000002654E0207810B94FF0010A50E02078CA
:10591000282803D116B9781CC7B213E020782928AB
:1059200008D13EB917B1781EC7B201E04FF0010AA5
:1059300047B93DE02078222804D10EB9012000E0CB
:105940000020064647B9207820282FD0207889F8F3
:10595000000009F1010929E020782C2804D1012058
:105960000290681CC5B214E02078202811D020785D
:1059700028280ED04DB9BBF1050F06DA20780DF8B6
:105980000B000BF1010000F0FF0B0298401CC0B2AD
:105990000290012F0AD10298022807D10298401CD8
:1059A000C0B202900398401CC0B20390641CA9E7E7
:1059B00000BF0398012809D100200DF80B0008A1B1
:1059C000684600F0EBF908B90020039007990398A6
:1059D0000870002089F80000504609B0BDE8F08F3B
:1059E000766F6964000000002DE9F043B5B005460C
:1059F0000F460024002604E000213D488155701C1C
:105A0000C6B20A2EF8DB06E06D1C287818B9012012
:105A100035B0BDE8F08328782828F5D16D1C61E009
:105A200034AA69462846FFF779FE064635449DF8B4
:105A3000D00020B1012827D0FF284CD149E09DF8A3
:105A4000000000B333A9684600F025F906460EB100
:105A50000220DDE7204600F04DF825490A31339A4F
:105A60000A50A1F12400008B0121A1408843204964
:105A70001A39088304211E480155601CC4B20A2C3F
:105A800001DD0320C4E726E0684600F0A3F9401CCE
:105A900000F0FF08204600F02DF815490A3100EB10
:105AA00001094946684600F08AF911481A38018B05
:105AB0000120A040014388B20D491A3908830C48DF
:105AC00000F80480601CC4B20A2C01DD03209FE7AB
:105AD00001E002209CE700BF2878292801D028781F
