:020000040800F2
:10000000F8DB0120BD020008E7730008FB3500089B
:10001000E3730008550B0008259600080000000057
:10002000000000000000000000000000858F0008B4
:10003000590B0008000000009B03000841900008D5
:10004000F7020008F7020008F7020008F7020008AC
:10005000F7020008F7020008F7020008F70200089C
:10006000F7020008F7020008F7020008F70200088C
:10007000F7020008F7020008F7020008F70200087C
:10008000F7020008F7020008F7020008F70200086C
:10009000F7020008F7020008F7020008F70200085C
:1000A000F7020008F7020008F7020008F70200084C
:1000B000F7020008C5900008D5900008F702000874
:1000C000F7020008F7020008F7020008F70200082C
:1000D000F7020008DD950008F7020008F7020008A3
:1000E000F7020008F7020008F7020008F70200080C
:1000F000F7020008F7020008F7020008F7020008FC
:10010000F7020008F7020008F7020008F7020008EB
:10011000F7020008F7020008F7020008F7020008DB
:10012000F7020008F7020008F7020008F7020008CB
:10013000F7020008E50B0008F7020008F7020008C4
:10014000F7020008F7020008F7020008F7020008AB
:10015000F7020008F7020008F7020008F70200089B
:10016000F7020008F7020008F7020008F70200088B
:10017000F7020008F7020008F7020008000000007C
:10018000F7020008F7020008F7020008F70200086B
:10019000F7020008F7020008F7020008F70200085B
:1001A000F7020008F7020008F702000800F002F862
:1001B00000F06DF80AA090E8000C82448344AAF194
:1001C0000107DA4501D100F062F8AFF2090EBAE892
:1001D0000F0013F0010F18BFFB1A43F0010318477B
:1001E000B4E30100D4E301000A444FF0000C10F81E
:1001F000013B13F0070408BF10F8014B1D1108BFA5
:1002000010F8015B641E05D010F8016B641E01F844
:10021000016BF9D113F0080F1EBF10F8014BAD1C94
:100220000C1B09D16D1E58BF01F801CBFAD505E0B2
:1002300014F8016B01F8016B6D1EF9D59142D6D30C
:10024000704700000023002400250026103A28BF34
:1002500078C1FBD8520728BF30C148BF0B60704738
:10026000642900F03F81752900F03C81782900F075
:100270007581632900F01184732900F01684002031
:1002800070471FB519F04EFB1FBD10B510BD00F033
:100290002BFC1146FFF7F5FF0FF048F800F049FC82
:1002A00003B4FFF7F2FF03BC09F0C5F930BF72B623
:1002B000704762B6704780F30888704711488047DE
:1002C000DFF84400016841F470010160BFF34F8F13
:1002D000DFF83800016821F040410160BFF36F8F03
:1002E0000B480047FEE7FEE7FEE7FEE7FEE7FEE716
:1002F000FEE7FEE7FEE7FEE706480749074A084B28
:10030000704700006190000888ED00E034EF00E0E5
:10031000AD010008F8D50120F8DB0120F8D7012055
:10032000F8D70120EFF3098141B1F1EE101A40F83E
:10033000041D20ED200A29490A6810607047B0ECBE
:10034000200A02C8E1EE101A25490A6810607047B9
:10035000EFF3108072B6704780F310887047214821
:100360004FF0FF010170002080F309881E480168EA
:1003700081F308881D48012101701D484FF080510C
:10038000016062B6FEE71A484FF080510160704785
:1003900017484FF080510160704772B6EFF3098043
:1003A00028B1203880E8F00F0C490968086000B5D2
:1003B000104880475DF804EB0F4810490A78027036
:1003C000064807490A680260106890E8F00F20307C
:1003D00080F309884EF0F40E62B67047C002002028
:1003E000C802002022ED00E0E0020020BA02002056
:1003F00004ED00E0E5830008AF020020B002002019
:10040000704700000FB4044910B503AA029800F029
:1004100051FB10BC5DF814FB200000200FB41CB58C
:10042000074B06AA7B4469460090059800F013FB31
:100430000020694600F022FB1CBC5DF814FB0000A4
:100440005506000070B5044685690068C10601D5EF
:10045000302600E02026C00707D070BDD4E9012176
:1004600030469047206A401C20626D1EF6D570BD54
:1004700070B5044685690078C00707D170BDD4E91E
:10048000012120209047206A401C20626D1EF6D575
:1004900070BD70B50C460546012A05D02878800647
:1004A00000D5EA69002302E0012305E05B1C9342CA
:1004B00002D2E05C0028F9D1A869E618C01AA86148
:1004C000286A184428622846FFF7BCFF04E0D5E9F3
:1004D000012114F8010B9047B442F8D32846FFF7E6
:1004E000C7FF70BD2DE9F04106460024106875294C
:1004F000314616A510D0AFF30080002802DA404242
:1005000013A507E031688A0701D512A502E0490763
:1005100004D511A5012401E0AFF3008000210A22D7
:1005200006F1240709E0B0FBF2FCB0FBF2F302FB9A
:100530001C00303078541846491C0028F3D123465B
:100540002A463046BDE8F04100F026BA000000001F
:100550002D0000002B0000002000000070B50446B4
:100560000D4621461068AFF300802188090502D5A9
:100570000F4A7A4402E00E4A7A440E32002104F116
:10058000240305E000F00F060009965D5E54491C47
:100590000028F7D120780023000704D5702D02D061
:1005A00009B1022311322046BDE8704000F0F4B9D1
:1005B000CEDC01002DE9F05F894604464FF0000AC9
:1005C000DFF874B1FB44C0F820A02046E1688847FA
:1005D000002874D0252806D0D4E901219047206A4C
:1005E000401C2062F1E700265F462046E16888470C
:1005F0002028054607DB312D05D2781910F8200C8C
:1006000008B10643F1E7B00701D526F00406C4F8A7
:100610001CA00027C4F818A02A2D09D0284609F0EC
:1006200003F838B304EB8708303DC8F8185019E0D8
:1006300059F8041B204604EB87029161E168884762
:10064000012F054618D1E069002820DA26F020069F
:100650001DE0D8F8180000EB800005EB40003038B2
:10066000C8F818002046E1688847054608F0DCFF16
:100670000028EED1012F0AD02E2D08D12046E168A6
:1006800088477F1C0546022F46F02006C4DBA06980
:10069000002803DA404246F00106A061F00701D0CD
:1006A00026F010066C2D0BD0682D09D04C2D39D0BA
:1006B0006A2D35D0742D35D07A2D33D016E038E040
:1006C000E1682F4620468847B842054609D16C2F7D
:1006D00026D04FF48060E1680643204688470546EF
:1006E00004E06C2F1AD04FF4807006430DB3A5F1CF
:1006F0004100192802D8203546F400664A462946AA
:10070000204626604E46FFF7ABFD80B101280BD096
:10071000F61D26F0070000F1080956E74020E4E73F
:100720008020D8E70020D6E706F104094DE72846E7
:1007300052E7206ABDE8F09FA4DC010040EA010313
:1007400010B59B070FD1042A0DD310C808C9121F7A
:100750009C42F8D020BA19BA884201D9012010BDB4
:100760004FF0FF3010BD1AB1D30703D0521C07E081
:10077000002010BD10F8013B11F8014B1B1B07D1E5
:1007800010F8013B11F8014B1B1B01D1921EF1D156
:10079000184610BD10B5431C02E010F8011B71B1E2
:1007A0008107FAD14FF0013202C88C1A8C4314EA47
:1007B000C211F9D0C01A0A0603D0C01E10BDC01A5B
:1007C00010BD0A0401D0801E10BD0902FCD0401EDD
:1007D00010BD032A40F2308010F0030C00F01580A9
:1007E00011F8013BBCF1020F624498BF11F801CB34
:1007F00000F8013B38BF11F8013BA2F1040298BF99
:1008000000F801CB38BF00F8013B11F0030300F002
:100810002580083AC0F0088051F8043B083A51F8A6
:1008200004CBA0E80810F5E7121D5CBF51F8043BAB
:1008300040F8043BAFF30080D20724BF11F8013B1E
:1008400011F801CB48BF11F8012B24BF00F8013B80
:1008500000F801CB48BF00F8012B704710B5203AD3
:10086000C0F00B80B1E81850203AA0E81850B1E869
:100870001850A0E81850BFF4F5AF5FEA027C24BF1F
:10088000B1E81850A0E8185044BF18C918C0BDE816
:1008900010405FEA827C24BF51F8043B40F8043BDF
:1008A00008BF7047D20728BF31F8023B48BF11F894
:1008B000012B28BF20F8023B48BF00F8012B7047EE
:1008C0004FF0000200B5134694469646203922BFE9
:1008D000A0E80C50A0E80C50B1F12001BFF4F7AF34
:1008E000090728BFA0E80C5048BF0CC05DF804EB16
:1008F000890028BF40F8042B08BF704748BF20F884
:10090000022B11F0804F18BF00F8012B7047000038
:100910004FF0013C50F8042B51F8043B9A4221D18E
:10092000A2EB0C03934313EACC1317D150F8042B1A
:1009300051F8043B9A4215D1A2EB0C03934313EAFE
:10094000CC130BD150F8042B51F8043B9A4209D137
:10095000A2EB0C03934313EACC13DBD04FF000005F
:10096000704700BFD01A01BAB1FA81F101F0180145
:1009700022FA01F0CB40C1F12001DBB2C0B2C01AB3
:100980002CFA01F3D11A914311EAC311E6D1704751
:1009900070477047704770472DE9F0470D469946FC
:1009A0009246044600F124080168880604D5E069EF
:1009B00021F01001216000E00120A84201DD471B69
:1009C00000E00027A1697A1902EB0900081AA0616A
:1009D0002078C00602D42046FFF734FD002608E048
:1009E000D4E901211AF806009047206A401C761CC1
:1009F00020624E45F4DB2078C0060AD52046FFF77A
:100A000021FD06E0D4E9012130209047206A401CF6
:100A10002062381EA7F10107F4DC07E0D4E90121C8
:100A200018F805009047206A401C2062281EA5F196
:100A30000105F3DC2046FFF71BFD2078000602D5F8
:100A40000220BDE8F0870120FBE7000001694A1C95
:100A500002610878704700B58FB0CDE901310021FF
:100A6000059105497944CDE9031011466846FFF721
:100A7000A1FD0FB000BD0000E5FFFFFF0A6802F80E
:100A8000010B0A60704710B5436913B1AFF30080E2
:100A900001E0FFF7FEFC012010BD127800F12401F7
:100AA0000A7000224A700122EDE711684FF0FF3210
:100AB000E9E70000074B70B50D467B44FFF7CBFF1D
:100AC0000446284600F00CF810B14FF0FF3070BD1E
:100AD000204670BDAFC900000048704794D5012082
:100AE000007B00F0800070477546FFF7F5FFAE46CB
:100AF00005006946534620F00700854618B020B52A
:100B0000FFF7FAFBBDE820404FF000064FF000076A
:100B10004FF000084FF0000B21F00701AC46ACE8A5
:100B2000C009ACE8C009ACE8C009ACE8C0098D4612
:100B3000704710B50446AFF300802046BDE8104072
:100B4000FFF7AEBB704770477047704770477047FC
:100B50007047704700BFFEE77047016801F580519C
:100B6000896941F00202016801F580518A6170478C
:100B7000016801F58051896941F40052016801F56D
:100B800080518A61704738B5044600200090206883
:100B900000F58050806940F48011206800F5805095
:100BA0008161206800F5805080690090012000F08C
:100BB0000EFB0099206800F58050816138BD014628
:100BC00000200A6802F0004252B90A6802F40042AA
:100BD00032B90A6802F4807212B10A68C2F30D4099
:100BE0007047000010B506F077FC01E00EF066FBE0
:100BF0000A49886AFFF7E3FF0028F7D14021074838
:100C0000006800F58050416189020448006800F5E1
:100C10008050416106F072FC10BD0000880C00207D
:100C200030B503461479557944EA0520084C0C4444
:100C30002064D4782406957844EA0544557844EA3B
:100C40000524157844EA0500014C0C44606430BD6D
:100C50000080024070B5AEB004460E46002526B1B5
:100C60004FF40061E160C900A16000201190129072
:100C70001390149015901690E06918B94FF48060A5
:100C8000179001E0002017904FF40070189000209A
:100C900019901A901B901C901D9040201E900020CF
:100CA0001F902090219022902390249025902690B0
:100CB000802027900020289029902A902B902C901B
:100CC0002D902068056871480540DDE91101084351
:100CD0001399084314990843A168084315990843D8
:100CE00016990843E168084317990843189908437F
:100CF000199908431A9908431B990843054320682A
:100D0000056020680568012000F061FA2068056030
:100D1000DDE91C0108431E9908431F9908432099E7
:100D200008432199084322990843239908432168DD
:100D3000486020684568012000F049FA2068456055
:100D400024982168886025982168C8602068856992
:100D50004FF641700540DDE9261040EA0140289930
:100D60000843299908432A9908432B9908430543C6
:100D70002068856120688569012000F028FA2068D4
:100D80008561DDE92C0108432168C8612068C569D7
:100D9000012000F01CFA2068C561002001904FF08E
:100DA00000700290002003904FF400100490002087
:100DB000059006900790089004200990C0050A90BD
:100DC00040120B9080010C9040120D9080200E90EC
:100DD00000200F901090206800F5805085692C4805
:100DE0000540DDE9010108430399084304990843DC
:100DF0000599084306990843079908430899084349
:100E0000099908430543206800F5805085612068F2
:100E100000F580508569012000F0D9F9206800F5BF
:100E200080508561DDE90A0108430C9908430D995A
:100E300008430E9908430F9940EA8100109908432E
:100E400040F40001206800F580500160206800F542
:100E500080500568012000F0BAF9206800F5805044
:100E60000560A069012809D1206800F58050C0699B
:100E700008490843216801F58051C86100212046D6
:100E80006269FFF7CDFE2EB070BD00000F8120FF1C
:100E9000233FDEF84000010038B5044600200090F2
:100EA0002068006840F0040021680860206800683D
:100EB0000090012000F08BF900982168086038BD8F
:100EC00038B50446002000902068006840F0080013
:100ED00021680860206800680090012000F077F920
:100EE00000982168086038BD10B54FF4A07100204B
:100EF0000FF064F80D490860A02100200FF05EF8A3
:100F00000B49086043F6883100200FF057F8094973
:100F1000086041F6C45100200FF050F806490860FF
:100F200000BF00BF00BF00BF002010BD3800002080
:100F30003C000020400000204400002070B5044622
:100F40001D460023B5F5804F13D154F822300C48CC
:100F50000340D1E9000640EA06108E6840EA062008
:100F60008E8940EA06408E693043034344F82230BC
:100F700003E06FF0704044F82200002070BD0000D4
:100F80000000F0CF10B502460023086852F8203068
:100F90001B480340D1E901042043CC6820430C697D
:100FA00020434C6920438C692043CC6920430C6A60
:100FB00020434C6A20438C6A2043CC6A2043CC6B8C
:100FC00020430C6B20434C6B204303438868082864
:100FD00001D143F04003086842F82030486BB0F577
:100FE000801F0AD1086840B14FF4807008614C6BD3
:100FF00008692043146820431060002010BD0000E1
:101000008000E0FF30B5034614460022601C53F810
:10101000202002F04042D1E9000540EA05108D6829
:1010200040EA05208D8940EA0545088A401E45EAC8
:101030000055087D801E45EA00608D692843024303
:10104000601C43F82020186800F4801038B15868FC
:1010500020F47002088A401E42EA00525A600020C2
:1010600030BD30B50246002300240868012816D0A0
:1010700013686FF30E03D1E901052843CD682843B7
:101080000D6928434D6928438D692843CD6928435C
:101090000D6A28434D6A28430343136019E013681F
:1010A0006FF30E03D1E9070528434D6A2843034334
:1010B00054686FF30E04D1E901052843CD68284335
:1010C0000D6928434D6928438D6928430443136003
:1010D0005460002030BD0246506940EA4100506132
:1010E00000207047F8B506460C46154600200090D3
:1010F0000027D4E900010843A168491E40EA4110D5
:10110000E16840EA412000900098306100F090FDD5
:10111000074609E0681C38B125B100F089FDC01B05
:10112000A84201D90320F8BDB06900F020000028D2
:10113000F0D100BFF7E770B5034615460022002442
:10114000012D1FD09A6802F070420868401E4E6858
:10115000761E40EA06168868401E46EA0026C868E1
:10116000401E46EA0036088A401E46EA0046888A43
:10117000401E46EA0056087E401E46EA00600243D2
:101180009A6022E0DA6802F070420868401E4E68F9
:10119000761E40EA06168868401E46EA0026088A3F
:1011A000401E46EA0046087E401E46EA00600243B2
:1011B0009C6804F07044C868401E0603888A401E7C
:1011C00046EA00500443DA609C60002070BD31B5EF
:1011D000002400F02DFD044600BF00F029FD001B97
:1011E00000998842F9D338BD70B504460D461646BD
:1011F000002200BF94F84500012801D1022070BDF3
:10120000012084F8450000BF022084F84400A56254
:1012100000221FE005EB42114FF00040086044F24D
:10122000F4504860C2EBC21000EB400006EB8000B7
:101230008860A069012803D1486820F00040486018
:10124000581E904204D905EB42102030C86000E0DF
:10125000CD60521C9A42DDD3206800F58050C560F5
:10126000012084F8440000BF002084F8450000BF3E
:1012700000BFC4E770B504460D461646002200BF05
:1012800094F84500012801D1022070BD012084F8A6
:10129000450000BF022084F84400E56200221BE004
:1012A00005EB42114FF480100860C2EBC21000EB56
:1012B000400006EB80008860E06918B9086840F4D7
:1012C00040000860581E904204D905EB42102030BF
:1012D000C86000E0CD60521C9A42E1D3206800F55E
:1012E00080500561012084F8440000BF002084F88C
:1012F000450000BF00BFC8E70146002200BF91F8CB
:101300004500012801D102207047012081F84500E5
:1013100000BF022081F84400886A006800F00040A5
:10132000002838D1886A006800F48070F0B1886BBA
:10133000401C8863886B012801D1886A08638B6A26
:101340004B63886A0068C0F30D40021FCA63086BD4
:1013500083680B64886AC0688862012081F8440051
:1013600000BF002081F8450000BFCDE7886A006813
:1013700000F4007048B1886A086300234B630123BE
:101380008B63886AC068886205E0886B401C88634C
:10139000886AC0688862012081F8440000BF00208C
:1013A00081F8450000BF0120AEE700002DE9FC41B7
:1013B0000446002500200190884E0027804614B97D
:1013C0000120BDE8FC8194F8440028B9002084F88D
:1013D0004500204600F010F900BF00200090804832
:1013E000006840F480407E4908600846006800F4C8
:1013F0008040009000BF00BF7A48006820F40000E1
:101400007849086008460068216A08437549086001
:10141000206800F58050006840F00101206800F568
:101420008050016000BF206800F58050006800F027
:1014300001000028F7D12068056925F01C0501F09E
:10144000D9F906466848864205D36848864202D2E2
:1014500045F008051AE06548864205D35F48864294
:1014600002D245F00C0511E05C48864203D3604887
:10147000864200D20AE05E48864205D35D48864235
:1014800002D245F0040501E045F010052068056131
:10149000606800287ED000F0CBFB074600BF01AAA1
:1014A0000121204600F04EF900F0C2FBC01BB0F550
:1014B000FA6F0FD94FF0010841462046FFF7CAFBEB
:1014C000012084F8440000BF002084F8450000BFDC
:1014D000032076E7019800F004000428DFD182029F
:1014E0000021204600F03FFA48B14FF00108414684
:1014F0002046FFF7AFFB012084F8440061E700F0CD
:1015000097FB074600BF01AA0121204600F01AF907
:1015100000F08EFBC01BB0F57A7F0FD94FF00108A9
:1015200041462046FFF796FB012084F8440000BFA7
:10153000002084F8450000BF032042E7019800F036
:1015400020002028DFD101AA1F21204600F0FAF850
:1015500048B14FF0010841462046FFF77BFB0120D0
:1015600084F844002DE7019800F0100020B14FF4FA
:101570000061E16002E00DE00021E160019800F00F
:101580000400042802D10021A1601DE04FF4804135
:10159000A16019E0E068C0F3CF00A168C1F34F017A
:1015A00040EA01020021204600F0DDF948B14FF089
:1015B000010841462046FFF74DFB012084F8440016
:1015C000FFE6FF20FFF703FE41462046FFF742FB00
:1015D000012084F844000020F3E600000087930314
:1015E0004438024004380140002D3101C00E16027B
:1015F00000E1F50580D1F00810B586B0044600BFC3
:1016000000BF002000904A48006840F00070484940
:1016100008600846006800F00070009000BF00BF3E
:1016200000BF002000900846006840F0806008601D
:101630000846006800F08060009000BF00BF00BF57
:10164000002000900846006840F0006008600846EE
:10165000006800F00060009000BF00BF00BF00BF46
:10166000002000900846006840F00100086008462D
:10167000006800F00100009000BF00BF00BF002024
:1016800000900846006840F00200086008460068C4
:1016900000F00200009000BF00BF00BF00200090DB
:1016A0000846006840F0040008600846006800F042
:1016B0000400009000BF00BF00BF0020009008465B
:1016C000006840F0400008600846006800F04000F4
:1016D000009000BF00BF86200190022002900020F1
:1016E0000390032004900B20059001A9114800F0FD
:1016F00083F94FF40060019001A90F4800F07CF9D4
:101700003220019001A90D4800F076F94FF4C04055
:10171000019001A90A4800F06FF9002211463D200E
:1017200000F0B8FC3D2000F0A8FC06B010BD0000A1
:10173000303802400000024000040240000802402D
:10174000001802402DE9F04104460E4617460025D8
:10175000A84694F84400822802D10220BDE8F08116
:10176000822084F844002068056905F01C05208A61
:101770004FF4784101EAC0200543481100EA861081
:10178000054325F0020545F001052068056100F0DC
:101790004FFA804612E000F04BFAA0EB0800B0F5DB
:1017A000803F09D3012084F8440000BF002084F862
:1017B000450000BF0320D1E72068056905F001005E
:1017C0000028E8D12068406980B23860012084F8A0
:1017D00044000020C2E710B5044600BF94F845005D
:1017E000012801D1022010BD012084F8450000BF6E
:1017F000022084F844002046FFF762FB2046FFF7F2
:101800004BFB2046FFF7BFF92046FFF7B1F9204612
:10181000FFF7A3F9012084F8440000BF002084F8FA
:10182000450000BF00BFDEE770B50246002300257B
:10183000002400BF92F84500012801D1022070BDAC
:10184000012082F8450000BF022082F8440049B917
:10185000012082F8440000BF002082F8450000BF4C
:101860000120ECE7D06A006800F0004048B1122087
:1018700082F8440000BF002082F8450000BF01202C
:10188000DDE740F2F450814208D9B1FBF0F3B1FB3F
:10189000F0F600FB161010B15B1C00E00123012BD9
:1018A00013D1D06A006840F04050D66A3060C1F36E
:1018B0000C00D66A7060D06A006840F00040D66ABA
:1018C0003060D06AC068D06232E000242EE0D06A76
:1018D000006820F04050D66A30602CB9D06A0068A9
:1018E00040F08050D66A306040F2F450D66A7060A2
:1018F000581EA04210D1D06A006840F00050D66A4D
:101900003060581EC0EBC01000EB4000A1EB80051A
:10191000C5F30C00D66A7060D06A006840F00040E1
:10192000D66A3060D06AC068D062641C9C42CED354
:10193000106800F58050406900F0040048B10426AA
:10194000106800F5805046610026106800F5805050
:101950004660012082F8440000BF002082F8450064
:1019600000BF00BF6BE72DE9F04104460E46174665
:101970000025A84694F84400422802D10220BDE880
:10198000F081422084F844002068056905F01C05B8
:10199000208A4FF4784101EAC0200543481100EA4B
:1019A0008610054345F0020545F00105B8B22168EF
:1019B00048612068056100F03BF9804612E000F0C4
:1019C00037F9A0EB0800B0F5803F09D3012084F877
:1019D000440000BF002084F8450000BF0320CEE78C
:1019E0002068056905F001000028E8D1012084F88D
:1019F00044000020C3E70000F8B502460B4600256E
:101A0000002400200021E6E0012606FA01F51E6808
:101A100006EA0504AC4273D15E68022E02D05E680D
:101A2000122E13D1CF0802F1200656F827004E07D8
:101A3000F70E0F26BE40B0434F07FF0E1E69BE4093
:101A40003043CF0802F1200646F8270010684F0007
:101A50000326BE40B0431E7906F003064F00BE4089
:101A6000304310605E68012E08D05E68022E05D0FB
:101A70005E68112E02D05E68122E13D190684F005E
:101A80000326BE40B0434F00DE68BE403043906046
:101A9000506801268E40B0431E79C6F300168E4072
:101AA00030435060D0684F000326BE40B0434F0023
:101AB0009E68BE403043D0605E6806F08056B6F146
:101AC000805FA8D100BF00260096454E366846F4D8
:101AD0008046434F3E603E46366806F48046009698
:101AE00000BF00BF3F4E8F0856F827008E07370F04
:101AF0000F26BE40B0433C4EB24202D100262EE03B
:101B000068E03A4EB24201D1012628E0384EB24296
:101B100001D1022623E0374EB24201D103261EE056
:101B2000354EB24201D1042619E0344EB24201D101
:101B3000052614E0324EB24201D106260FE0314EA6
:101B4000B24201D107260AE02F4EB24201D1082647
:101B500005E02E4EB24201D1092600E00A268F0789
:101B60003F0FBE4030431F4E8F0846F82700284ED7
:101B70003068A0435E6806F48036B6F5803F00D139
:101B80002043234E3060361D3068A0435E6806F463
:101B90000036B6F5003F00D120431D4E361D3060A3
:101BA000361D3068A0435E6806F48016B6F5801FC7
:101BB00000D12043164E08363060361D3068A043F1
:101BC0005E6806F40016B6F5001F00D12043104EE3
:101BD0000C363060491C1029FFF416AFF8BD000028
:101BE000443802400838014000000240000402402E
:101BF00000080240000C02400010024000140240A5
:101C000000180240001C0240002002400024024054
:101C1000003C0140024613690B400BB1012000E07B
:101C2000002070470AB1816101E00B0483617047B5
:101C30000148006870470000140000200248006856
:101C4000401C0149086070471400002010B50D4881
:101C5000006840F400700B4908600846006840F4D2
:101C6000806008600846006840F4807008600520C5
:101C700000F04EFA0F2000F007F800F0F9F900200C
:101C800010BD0000003C024070B5044600F0B2FDFB
:101C90004FF47A71B0FBF1F5284601F0CFF900223C
:101CA0002146501E00F0F6F9002070BD70B50446C4
:101CB0000E46154600BF94F8A000012801D102206D
:101CC00070BD012084F8A00000BF022084F8A100AC
:101CD00005EB850101EBC50204F1380101EB82003F
:101CE00034223146FEF7BAFD2A463146204605F039
:101CF0006FFA01202168486284F8A10000BF00202B
:101D000084F8A00000BF00BFDAE7000070B5044609
:101D1000002500260CB9012070BD94F8A10028B957
:101D2000002084F8A000204600F084F8022084F807
:101D3000A1002068806920F0704021688861D4E9A2
:101D400001010843E1680843216908432168896962
:101D50000843216888612068806835490840216807
:101D60008860A08A050420688068A1692943084327
:101D7000216888602068C0682D4908402168C860D3
:101D8000A08B05042068C068216A294308432168A4
:101D9000C860206800692649084021680861A08C55
:101DA000050420680069A16A294308432168086185
:101DB000206840691E49084021684861A08D0504DB
:101DC00020684069216B294308432168486194F8E1
:101DD0003500050294F8360006042068C06A00F059
:101DE0007F402168C86246EA050094F83410084331
:101DF0002168C96A08432168C8622068406B40F0C6
:101E00000400216848632068406B40F002002168AC
:101E100048632068806940F00100216888610020E3
:101E2000C4F8A400012084F8A100002074E7000099
:101E300000F800F010B586B0044600BF0020009006
:101E40004D48006840F080604B49086008460068D3
:101E500000F08060009000BF00BF00BF0020009035
:101E600045481438006840F40000434914390860BC
:101E70000846006800F40000009000BF00BF00BFEB
:101E8000002000900846006840F002000860084604
:101E9000006800F00200009000BF00BF00BF0020FB
:101EA00000900846006840F020000860084600687E
:101EB00000F02000009000BF00BF00BF0020009095
:101EC0000846006840F0400008600846006800F0DE
:101ED0004000009000BF00BF00BF002000900846F7
:101EE000006840F0800008600846006800F080004C
:101EF000009000BF00BF00BF0020009008460068AF
:101F000040F4807008600846006800F4807000901B
:101F100000BF00BF20200190012002900390032009
:101F2000049001A91548FFF767FD4FF48060019008
:101F30000220029000200390032004900E200590C0
:101F400001A90F48FFF758FD4FF40C60019001A95B
:101F50000C48FFF751FD4FF47E40019001A90A485B
:101F6000FFF74AFD40F2F760019001A90748FFF72B
:101F700043FD06B010BD000044380240000402409A
:101F80000014024000180240001C024000200240E1
:101F90002DE9F04104460E461746984600BF94F8D6
:101FA000A000012802D10220BDE8F081012084F8C0
:101FB000A00000BF022084F8A10008EB880000EB1D
:101FC000C80104F1380000EB81052E60A86A304496
:101FD0006860AF60E86A3844E860424629462046B7
:101FE00005F0F6F801202168486284F8A10000BFDE
:101FF000002084F8A00000BF00BFD5E72DE9F04124
:1020000005460E461746984600BF95F8A0000128E1
:1020100002D10220BDE8F081012085F8A00000BFB8
:10202000022085F8A10008EB880000EBC80105F14B
:10203000380000EB8104002020602068304460609C
:102040000020A060A0683844E060A662E7624246D3
:102050002146284605F0BCF801202968486285F829
:10206000A10000BF002085F8A00000BF00BFD1E79D
:1020700008B50020009000BF08BD00BF00F01F029F
:10208000012191404209920002F1E022C2F80011C0
:1020900000BF70472DE9F05F80460D4616460027C9
:1020A00005F0A2F9074639462A46334601F00700F3
:1020B000C0F1070ABAF1040F02D94FF0040A01E097
:1020C000C0F1070AD14600F1040ABAF1070F02D2A3
:1020D0004FF0000A01E0A0F1030AD4464FF0010AD4
:1020E0000AFA09FAAAF1010A0AEA020A0AFA0CFA39
:1020F0004FF0010B0BFA0CFBABF1010B0BEA030BDE
:102100004AEA0B042146404605F076F9BDE8F09F07
:1021100000BF00F00702064B19684FF6FF03194095
:10212000044B0B4343EA0221014B196000BF704787
:102130000CED00E00000FA0538B5002400BF0020D7
:1021400000902348006840F080502149086008460C
:10215000006800F08050009000BF00BF0120010423
:1021600091FAA1F1B1FA81F11A4A42F82100FFF780
:102170005FFD044607E0FFF75BFD001BB0F57A7FCB
:1021800001D9032038BD1448406800F48030B0F510
:10219000803FF0D10120410491FAA1F1B1FA81F11F
:1021A0000C4A42F82100FFF743FD044607E0FFF721
:1021B0003FFD001BB0F57A7F01D90320E2E7064816
:1021C000406800F40030B0F5003FF0D10020D9E7BE
:1021D0004038024000000E4200700040F8B504464E
:1021E00000250026207800F0010020B9207800F0BA
:1021F0000200022866D10020CC498866FFF718FD4E
:10220000054606E0FFF714FD401B642801D90320B2
:10221000F8BDC7480068C0F3C0600028F2D120783C
:1022200000F0010098B147F6C07191FAA1F1B1FA3E
:1022300081F1606888404FF0E04292FAA2F2B2FA6F
:1022400082F2A16891400843B9498431086020783E
:1022500000F00200022821D1B5488430006800F067
:10226000E0404FF0E04191FAA1F1B1FA81F120FA9A
:1022700001F660688101207B41EA006040EA067057
:10228000AB4984310860AA488C30006820F01F00F8
:10229000E169491E0843A6498C3108600120A34921
:1022A0008866FFF7C5FC054606E0FFF7C1FC401B4A
:1022B000642801D90320ABE79D480068C0F3C060E3
:1022C0000028F2D0207800F00400042804D0207800
:1022D00000F0080008287DD1002094490867FFF726
:1022E000A7FC054606E0FFF7A3FC401B642801D9C4
:1022F00003208DE78E480068C0F340700028F2D1BB
:10230000207800F00400042834D18948883000681F
:1023100000F0E0404FF0E04191FAA1F1B1FA81F113
:1023200020FA01F647F6C07191FAA1F1B1FA81F1F4
:10233000206988404FF0706292FAA2F2B2FA82F2FB
:102340006169914008434FF0E04191FAA1F1B1FA7F
:1023500081F106FA01F10843754988310860081DCA
:10236000006820F4F851206A401E41EA00207049BC
:102370008C310860207800F00800082834D16C48BF
:102380008830006800F070604FF0706191FAA1F140
:10239000B1FA81F120FA01F647F6C07191FAA1F184
:1023A000B1FA81F1206988404FF0706191FAA1F192
:1023B000B1FA81F106FA01F108434FF0E04292FAD6
:1023C000A2F2B2FA82F2A1699140084358498831D9
:1023D000086000E01CE0081D006820F44030616ADD
:1023E000084353498C310860012050490867FFF7C2
:1023F0001FFC054606E0FFF71BFC401B642801D9C3
:10240000032005E74A480068C0F340700028F2D076
:10241000207800F0200020287DD100BF002000900F
:1024200043484030006840F08050414940310860E6
:102430000846006800F08050009000BF00BF3D4893
:10244000006840F480703B490860FFF7F1FB0546E7
:1024500006E0FFF7EDFB401B642801D90320D7E617
:102460003448006800F480700028F2D030487030A2
:10247000006800F44070218D01F4407188424AD018
:102480002B487030006820F4407601202A4908600B
:102490000020086026487030066006F0020098B1FF
:1024A000FFF7C6FB054608E0FFF7C2FB401B41F201
:1024B0008831884201D90320AAE61D48703000689F
:1024C000C0F340000028EFD000BF208D00F4407022
:1024D000B0F5407F0CD116480830006820F4F810A1
:1024E000164AA16A1140084311490831086007E003
:1024F0000F480830006820F4F8100D4908310860D2
:102500000B4870300068218DC1F30B010843084966
:102510007031086000BF207800F01000102803D14F
:1025200094F82C0006490860002071E6000047423C
:102530000038024000700040400E4742FFFCFF0F91
:10254000E011474270B504460E460025A7480068D2
:1025500000F00F00B0426FD2A4490E700846006828
:1025600000F00F00B04201D0012070BD207800F0D3
:102570000200022807D19E48006820F0F000A16800
:1025800008439B490860207800F0010000283ED0F5
:102590006068012807D1964808380068C0F34040B9
:1025A000B8B90120E1E76068022802D0606803281A
:1025B00007D18F4808380068C0F3406048B901204F
:1025C000D3E78B4808380068C0F3400008B9012001
:1025D000CBE78748006820F003006168084384491E
:1025E0000860FFF725FB05466068012810D108E068
:1025F000FFF71EFB401B41F28831884201D90320BE
:10260000B3E77B48006800F00C000428F0D1CDE06F
:102610006068022811D108E0FFF70AFB401B41F275
:102620008831884201D903209FE77148006800F093
:102630000C000828F0D1B9E024E06068032810D12C
:1026400008E0FFF7F5FA401B41F28831884201D9D2
:1026500003208AE76648006800F00C000328F0D1E8
:10266000A4E008E0FFF7E4FA401B41F28831884219
:1026700001D9032079E75E48006800F00C000028CB
:10268000F0D193E0207800F00200022807D15848EA
:10269000006820F0F000A1680843554908602078E0
:1026A00000F00100002877D06068012807D1504869
:1026B00008380068C0F34040B8B9012055E76068A9
:1026C000022802D06068032807D14948083800680A
:1026D000C0F3406048B9012047E745480838006822
:1026E000C0F3400008B901203FE74148006820F0EE
:1026F0000300616808433E490860FFF799FA054600
:102700006068012810D108E0FFF792FA401B41F2FF
:102710008831884201D9032027E73548006800F056
:102720000C000428F0D137E06068022810D108E0DE
:10273000FFF77EFA401B41F28831884201D903201D
:1027400013E72B48006800F00C000828F0D123E0C4
:102750006068032810D108E0FFF76AFA401B41F2D5
:102760008831884201D90320FFE62148006800F043
:102770000C000328F0D10FE008E0FFF759FA401BE6
:1027800041F28831884201D90320EEE618480068FA
:1027900000F00C000028F0D114490E7008460068C3
:1027A00000F00F00B04201D00120DEE6207800F0FA
:1027B0000400042807D10E48006820F4E050E168C6
:1027C00008430B490860207800F00800082808D169
:1027D0000748006820F46040216940EAC1000449CC
:1027E00008600F20FFF750FA0020BEE6003C0240D0
:1027F0000838024010B500F045F80949096801F0B1
:10280000F001F02292FAA2F2B2FA82F2D140054A25
:10281000515CC840044908600846006810BD0000CB
:10282000083802402E9901080000002010B5FFF77B
:10283000E1FF0749096801F4E0514FF4E05292FAD0
:10284000A2F2B2FA82F2D140024A515CC84010BDF5
:10285000083802402E99010810B5FFF7CBFF074951
:10286000096801F460414FF4604292FAA2F2B2FAB0
:1028700082F2D140024A515CC84010BD0838024083
:102880002E99010870B50021002200230020274C5A
:10289000246804F00C0424B1042C04D0082C41D189
:1028A00003E0234840E023483EE0204C241F2468F6
:1028B00004F03F011D4C241F246804F4800484B1FB
:1028C0001C4CB4FBF1F5194C241F246847F6C07664
:1028D000344096FAA6F6B6FA86F6F44005FB04F202
:1028E0000FE0134CB4FBF1F5104C241F246847F69D
:1028F000C076344096FAA6F6B6FA86F6F44005FBA2
:1029000004F20A4C241F246804F440344FF4403588
:1029100095FAA5F5B5FA85F5EC40641C6300B2FBA9
:10292000F3F001E0024800BF00BF70BD083802406C
:102930000024F40040787D0138B504460025207855
:1029400000F00100002866D0F748006800F00C0095
:1029500004280DD0F448006800F00C00082813D1BA
:10296000F148001F006800F48000B0F5800F0BD123
:10297000ED4808380068C0F3404000284BD060683C
:10298000002848D1012038BD0020E749891F087080
:10299000FFF74EF9054608E0FFF74AF9401B41F200
:1029A0008831884201D90320EDE7DF480838006804
:1029B000C0F340400028EFD12079DB49891F08701F
:1029C0006068A0B1FFF734F9054608E0FFF730F979
:1029D000401B41F28831884201D90320D3E7D24815
:1029E00008380068C0F340400028EFD013E0FFF73C
:1029F0001FF9054608E0FFF71BF9401B41F288313B
:102A0000884201D90320BEE7C74808380068C0F3F0
:102A100040400028EFD1207800F00200022869D160
:102A2000C148006800F00C0058B1BF48006800F0D1
:102A30000C00082821D1BC48001F006800F4800069
:102A4000D8B9B94808380068C0F3400020B1E06840
:102A5000012801D0012096E7B3480838006820F02B
:102A6000F800F82292FAA2F2B2FA82F221699140B9
:102A70000843AD49083908603CE0E06828B301200C
:102A8000AA490860FFF7D4F8054606E0FFF7D0F83A
:102A9000401B642801D9032075E7A3480838006863
:102AA000C0F340000028F1D09F480838006820F0AB
:102AB000F800F82292FAA2F2B2FA82F22169914069
:102AC000084399490839086014E0002097490860D4
:102AD000FFF7AEF8054606E0FFF7AAF8401B6428AA
:102AE00001D903204FE7904808380068C0F3400040
:102AF0000028F1D1207800F0080008282CD1606966
:102B0000A8B101208A490860FFF792F8054606E05F
:102B1000FFF78EF8401B642801D9032033E7824871
:102B20006C300068C0F340000028F1D014E00020B1
:102B30007F490860FFF77CF8054606E0FFF778F864
:102B4000401B642801D903201DE777486C300068DA
:102B5000C0F340000028F1D1207800F004000428E0
:102B60006FD100BF002000906F483830006840F0FF
:102B700080506D49383108600846006800F0805088
:102B8000009000BF00BF6B48006840F48070694946
:102B90000860FFF74DF8054606E0FFF749F8401BCF
:102BA000642801D90320EEE66248006800F48070D2
:102BB0000028F2D000205C4968310870FFF738F82F
:102BC000054608E0FFF734F8401B41F2883188429F
:102BD00001D90320D7E6544868300068C0F34000AC
:102BE0000028EFD1207A504968310870A068A0B160
:102BF000FFF71EF8054608E0FFF71AF8401B41F200
:102C00008831884201D90320BDE647486830006812
:102C1000C0F340000028EFD013E0FFF709F80546A5
:102C200008E0FFF705F8401B41F28831884201D9DE
:102C30000320A8E63C4868300068C0F34000002844
:102C4000EFD1A069F0B33848006800F00C00082804
:102C500072D0A069022850D1002034490866FEF7DE
:102C6000E7FF054606E0FEF7E3FF401B642801D9B5
:102C7000032088E62C4808380068C0F3406000282C
:102C8000F1D1D4E90701084347F6C07292FAA2F2E3
:102C9000B2FA82F2616A914008430122A16AC2EB52
:102CA00051014FF4403292FAA2F2B2FA82F291400C
:102CB00008434FF0706292FAA2F2B2FA82F2E16A2D
:102CC000914000E03AE008431749091F08600120DD
:102CD00016490866FEF7ACFF054606E0FEF7A8FFBA
:102CE000401B642801D903204DE60F4808380068CE
:102CF000C0F340600028F1D020E000200B490866B6
:102D0000FEF796FF054606E0FEF792FF401B64289B
:102D100001D9032037E6044808380068C0F3406052
:102D20000028F1D10AE007E00838024000004742DD
:102D3000800E474200700040012024E6002022E679
:102D400070B504460D460CB9012070BD94F82C00F6
:102D500028B9002084F82D00204600F011F8022048
:102D600084F82C00211D2068FEF77BF92946D4E960
:102D70000002FEF7E0F9012084F82C000020E4E7CF
:102D800010B586B0044600BF00200090434800689C
:102D900040F00100414908600846006800F0010069
:102DA000009000BF00BF00BF002000903B480838E3
:102DB000006840F004003949083908600846006896
:102DC00000F00400009000BF00BF00BF0020009092
:102DD0000846006840F0080008600846006800F0F7
:102DE0000800009000BF00BF00BF00200090084610
:102DF000006840F0100008600846006800F010000D
:102E0000009000BF00BF00BF00200090084600688F
:102E100040F0200008600846006800F020000090A4
:102E200000BF00BF00BF002000900846006840F0CF
:102E3000400008600846006800F04000009000BFB5
:102E400000BF0D200190022002900120039003207A
:102E500004900C20059001A91148FEF7CDFD4CF21D
:102E60000370019001A90F48FEF7C6FD4FF683706D
:102E7000019001A90C48FEF7BFFD4FF63F000190FD
:102E800001A90A48FEF7B8FD48F23710019001A9E0
:102E90000748FEF7B1FD06B010BD0000383802400B
:102EA00000080240000C02400010024000140240E2
:102EB0000018024070B504460D4694F82C00022814
:102EC00000D170BD022084F82C0029462068FEF74E
:102ED00002F9012084F82C000020F2E770B50446C6
:102EE0000D46164694F82C00022800D170BD022031
:102EF00084F82C00324629462068FEF7F3F828684B
:102F0000022803D1052084F82C0002E0012084F877
:102F10002C000020EAE770B504460E4615460CB9B1
:102F2000012070BD94F8490028B9002084F84800B9
:102F3000204600F01DF804F108012068FEF722F891
:102F40003146A2682068FEF75DF82946236BD4E974
:102F50000102FDF7F3FFA168206850F8210040F05E
:102F60000100A268216841F822000020D9E7000092
:102F700010B586B0044600BF0020009022480068CB
:102F800040F00100204908600846006800F0010098
:102F9000009000BF00BF00BF002000901A48083812
:102FA000006840F0080018490839086008460068C1
:102FB00000F00800009000BF00BF00BF002000909C
:102FC0000846006840F0100008600846006800F0FD
:102FD0001000009000BF00BF4EF2B37001900220BD
:102FE000029001200390032004900C20059001A979
:102FF0000648FEF701FD4FF68070019001A90448D4
:10300000FEF7FAFC06B010BD38380240000C024052
:1030100000100240042808D14FF0E021096941F076
:1030200004014FF0E022116107E04FF0E02109694F
:1030300021F004014FF0E0221161704770B50446A1
:103040002546681EB0F1807F01D301200FE0681E85
:103050004FF0E02148610F214FF0FF3004F0CCF930
:1030600000204FF0E021886107200861002070BD3A
:103070007047704710B504460CB9012010BD94F894
:10308000390028B9002084F83800204600F00CF8F8
:10309000022084F83900211D206806F03DF8012047
:1030A00084F839000020E9E738B5044600BF002065
:1030B00000900B48006840F002000949086008468B
:1030C000006800F00200009000BF00BF012211461E
:1030D0001D20FEF7DFFF1D20FEF7CFFF38BD0000EB
:1030E0004038024001460868C06840F001000A68A4
:1030F000D0600868006840F001000A681060002095
:103100007047704710B5044620680069C0F340005E
:10311000D8B12068C068C0F34000B0B16FF00200C1
:1031200021680861012020762068806900F0030092
:1031300018B12046FFF7E5FF05E0204600F0ADF8A6
:10314000204600F0ABF80020207620680069C0F32C
:103150008000D8B12068C068C0F38000B0B16FF0C3
:10316000040021680861022020762068806900F44C
:10317000407018B12046FFF7C4FF05E0204600F07C
:103180008CF8204600F08AF800202076206800693C
:10319000C0F3C000D8B12068C068C0F3C000B0B1AF
:1031A0006FF0080021680861042020762068C0695B
:1031B00000F0030018B12046FFF7A3FF05E020460A
:1031C00000F06BF8204600F069F8002020762068B7
:1031D0000069C0F30010D8B12068C068C0F30010C7
:1031E000B0B16FF0100021680861082020762068D7
:1031F000C06900F4407018B12046FFF782FF05E077
:10320000204600F04AF8204600F048F800202076DA
:103210002068006900F0010058B12068C06800F023
:10322000010030B16FF0010021680861204600F014
:1032300036F820680069C0F3C01058B12068C06833
:10324000C0F3C01030B16FF08000216808612046E3
:10325000FFF70EFF20680069C0F3801058B12068A6
:10326000C068C0F3801030B16FF040002168086181
:10327000204600F015F820680069C0F3401058B1EE
:103280002068C068C0F3401030B16FF020002168A2
:1032900008612046FFF7EDFE10BD7047704770478C
:1032A00070477047014691F839007047F8B50446F9
:1032B000002500262068006800F001052068C0682D
:1032C00000F480767DB176B100BF002000902068C8
:1032D0000068009020684068009000BF00BFE06B6D
:1032E00040F00100E06320680068C0F340052068FA
:1032F000406900F001067DB176B100BF002000906A
:1033000020680068009020684068009000BF00BFFF
:10331000E06B40F00400E06320680068C0F38005C3
:103320002068406900F001067DB176B100BF002041
:10333000009020680068009020684068009000BFFE
:1033400000BFE06B40F00200E06320680068C0F35B
:10335000C0052068406900F001067DB176B100BF6C
:10336000002000902068006800902068406800906D
:1033700000BF00BFE06B40F00800E0632068006819
:10338000C0F340152068C06800F020061DB116B1DA
:10339000204605F07BFF20680068C0F3C015206858
:1033A000C06800F080061DB116B1204606F0DEF8B8
:1033B00020680068C0F380152068C06800F04006EF
:1033C0001DB116B1204605F049FFE06B28B1012080
:1033D00084F839002046FFF764FFF8BD10B50446B5
:1033E0000CB9012010BDA06900B100E000BF94F845
:1033F000390028B9002084F83800204600F026F86B
:10340000022084F839002068C06820F40050216848
:10341000C860204605F098FF2068006920F49040BD
:10342000216808612068406920F02A00216848610D
:103430002068C06840F400502168C8600020E06344
:10344000012084F839000020CCE7000010B586B0D8
:1034500004462249206888423ED100BF00200090E7
:103460001F48006840F001001D49086008460068D8
:1034700000F00100009000BF00BF00BF00200090DE
:1034800017481430006840F01000154914310860E6
:103490000846006800F01000009000BF00BF48150B
:1034A0000190022002900120039002200490072046
:1034B000059001A90B48FEF79FFA4FF48060019038
:1034C00001A90848FEF798FA2520FEF7D6FD032249
:1034D00011462520FEF7DEFD06B010BD00100140AC
:1034E000303802400000024030B50346002493F813
:1034F0003940012C01D0122C37D101B10AB9012079
:1035000030BD00BF93F83800012801D10220F7E751
:10351000012083F8380000BF99629A85DA8500207F
:10352000D86393F83900122803D1322083F8390088
:1035300002E0222083F839001868C06840F48070E7
:103540001D68E8601868406940F001001D68686106
:1035500000BF002083F8380000BF1868C06840F042
:1035600020001D68E8600020CAE70220C8E70000CC
:103570001D4A0168914236D11C49098801F4004175
:1035800089BB1A49098801F4804171B11849097849
:103590000A2903D00021154A118024E01349098823
:1035A00041F40041114A11801DE0114909780D29AB
:1035B00006D10E49098841F480410C4A118012E07D
:1035C0000B490978094A1288C2F30D02094B995434
:1035D00006490988491C054A118011460988C729EE
:1035E00001DD0021118070470010014024000020FF
:1035F00026000020E4090020704700BFFEE700001D
:1036000010B500200F4908600F48006820F44060A2
:103610000D4908600846006840F48060086000209A
:103620000A49C1F89402022006F0C8F801200549B1
:103630000860022006F0C2F800200449C1F8900298
:1036400010BD000090824342001C024000804342B3
:1036500000B587B000BF002001901048006840F01E
:1036600080000E4908600846006800F08000019064
:1036700000BF00BF30200290012003900490022080
:10368000059002A90648FEF7B7F901200549086030
:103690000549C1F8900207B000BD00003038024073
:1036A000001C0240948243420080434210B5002037
:1036B0000F4908600F48006820F440600D49086019
:1036C0000846006840F48060086001200A49C1F89B
:1036D0009402022006F072F80120054908600220D9
:1036E00006F06CF800200449C1F8900210BD0000FB
:1036F00090824342001C02400080434270B5054660
:1037000000241648006820F4406014490860084608
:1037100000680860002616E00020114908600220B9
:1037200006F04CF801200F49C1F890026006040E23
:103730000B487C38006808B1601CC4B2012006F058
:103740003DF8701CC6B2082EE6DB15B9FFF7AEFFD8
:1037500001E0FFF755FF204670BD0000001C02404D
:10376000908243420080434270B504461548006889
:1037700020F44060134908600846006840F4806007
:103780000860002010490860002517E0E0090E4994
:10379000091D08606006040E022006F00FF80120E3
:1037A0000A49C1F89002022006F008F800200649F4
:1037B0000860022006F002F8681CC5B2082DE5DB9F
:1037C00070BD0000001C02409082434200804342D2
:1037D00010B50F48006820F440600D4908600846A5
:1037E000006840F48060086001200A4908600A49C6
:1037F000C1F89002042005F0E1FF002005490860AF
:10380000042005F0DBFF00200349C1F8900210BD41
:10381000001C0240948243420080434210B50F488E
:10382000006820F440600D4908600846006840F4D4
:103830008060086000200A4908600A49C1F89402C3
:10384000042005F0BBFF0120054908600549C1F8C7
:103850009402042005F0B2FF10BD0000001C0240DD
:10386000908243420080434210B500241348006810
:1038700020F4406011490860084600680860012093
:103880000F49086005F09AFF01200E49C1F8900227
:1038900005F094FF07E0601CC4B2FA2C03DDFFF7CB
:1038A000BDFF012010BD0648803800680028F2D115
:1038B0000349091F086000BFF4E70000001C024034
:1038C000948243420080434200B587B000BF00208D
:1038D00001902648006840F001002449086008462D
:1038E000006800F00100019000BF00BF00BF002091
:1038F00001900846006840F004000860084600682F
:1039000000F00400019000BF00BF00BF0020019044
:103910000846006840F0800008600846006800F033
:103920008000019000BF00BF0120029000200390A2
:10393000022004900320059002A90D48FEF75CF8D0
:103940004FF40050029000200390012004900320C7
:10395000059002A90748FEF74FF80C20029002A933
:103960000548FEF749F807B000BD000030380240B6
:103970000000024000080240001C024010B504464E
:10398000012C01D1214908702048007848B3204813
:10399000006850B11E48001F006830B11D48006823
:1039A00018B11D48006801281BD10A2005F0D0FE7F
:1039B0000020164908701648006808B9012010BD9B
:1039C0001348001F006808B90220F8E71148006892
:1039D00008B90320F3E710480068012814D1042037
:1039E000EDE70B48006801280ED10948001F006868
:1039F000012809D107480068012805D10648006858
:103A000010B90120014908700020D8E727000020E4
:103A10000C82434234024142000240421CB5FCF792
:103A200046FC0121072005F00CFA642005F090FE09
:103A30000021072005F005FA642005F089FEFCF757
:103A400038FC1A4800788DF80000184840788DF846
:103A50000100164880788DF802001448C0788DF86F
:103A60000300124800798DF80400104840798DF861
:103A700005000F480F4908600120486081030D4888
:103A80008160C910C16000210182C0F814D00121F9
:103A900081610021C1614FF400010162FDF786FCE4
:103AA00008B900201CBD0120FCE7000060B6012021
:103AB00000800240880C002070B5044600260D48A6
:103AC00005880D48006818B1204603F053F80FE050
:103AD0000848408845430021084602F07FFE03F075
:103AE00009F8002602E005490C80761CAE42FAD3A4
:103AF00070BD00003C0B0020680C00200000086036
:103B000010B50446624884716248006850B120468E
:103B100003F056F85F48C08A5D4908805D48008B15
:103B2000488010BD002C57D1F020594908804FF42F
:103B3000A07048800846808849F2413188420BD005
:103B40005348808845F21031884205D0504880881B
:103B500047F28971884214D12C204D4908812A20CE
:103B600048812B2088810846808845F210318842A0
:103B700006D14FF4A070464908804FF4F070488099
:103B800081E04348808845F21051884210D14FF4BB
:103B900030503F4908814FF4285048814FF42C5051
:103BA00088814FF4F07008804FF4487048806AE0D4
:103BB0003748808841F66311884264D12C2034490B
:103BC00008812B2048812A2088814FF4F0700880DA
:103BD0004FF44870488056E04FF4A0702C4908809C
:103BE000F02048800846808849F2413188420BD055
:103BF0002748808845F21031884205D024488088C3
:103C000047F28971884207D12C20214908812A2056
:103C100048812B20888129E01D48808845F2105179
:103C2000884210D14FF43050194908814FF4285080
:103C300048814FF42C5088814FF4487008804FF42D
:103C4000F070488012E01248808841F66311884283
:103C50000CD12C200E4908812A2048812B208881F4
:103C60004FF4487008804FF4F0704880084880880E
:103C700045F21031884206D14FF4F07004490880B3
:103C80004FF4A0704880002002F068FC00BF48E7B5
:103C90003C0B0020680C002070B504460D4616460B
:103CA0004648006828B132462946204602F09EFF69
:103CB00070BD4348808849F2413188420BD040486A
:103CC000808845F21031884205D03D48808847F20F
:103CD0008971884214D13A49488902F0FFFE2012C6
:103CE00002F0F0FEE0B202F0EDFE3549888902F004
:103CF000F5FE281202F0E6FEE8B202F0E3FE54E020
:103D00002F48808845F21051884220D12C4948899B
:103D100002F0E4FE201202F0D5FE29494989491C2F
:103D200088B202F0DBFEE0B202F0CCFE24498889C2
:103D300002F0D4FE281202F0C5FE21498989491CEF
:103D400088B202F0CBFEE8B202F0BCFE2DE01C48C7
:103D5000808841F66311884227D11948807920B9BB
:103D600017480088401E001B84B21549488902F09C
:103D7000B5FE201202F0A6FEE0B202F0A3FE201271
:103D800002F0A0FEE0B202F09DFE0D49888902F02B
:103D9000A5FE281202F096FEE8B202F093FE281269
:103DA00002F090FEE8B202F08DFE05480089054958
:103DB0000880891C0E8000BF7AE70000680C002094
:103DC0003C0B0020FEFF07602DE9F84F05460E462C
:103DD00017469846DDF828904FF0000B144800680D
:103DE00040B143463A4631462846CDF8009002F0AD
:103DF00025FF1BE0781B401C1FFA80FB344613E0B4
:103E00002146284602F0EAFC02F074FE4FF0000A58
:103E100006E00849A1F800900AF101001FFA80FAB3
:103E2000DA45F6DB601C84B24445E9DDBDE8F88F75
:103E3000680C00200000086000B595B003F058F948
:103E4000FE4988800846808818B102F0A9FF02F078
:103E500010BB00BF00200190F948006840F002004C
:103E6000F74908600846006800F00200019000BFB2
:103E700000BF202010900120119012900320139079
:103E800010A9F048FDF7B8FD4FF02040EE4908605A
:103E9000EE484860002088600021EB48C160016165
:103EA0001021416100218161C16141624FF4805163
:103EB00081620021C1624FF48041016300214163AE
:103EC00081634FF48011C1630F20099000200A9094
:103ED00046200B9000200F900F20029000200390AE
:103EE0000F2004900020089002AA09A9D648FFF7E5
:103EF00012F8322005F02CFCD32002F0EFFD02F086
:103F0000F3FACE49888002F0EFFACC49888002F0BB
:103F1000EBFACA498880084680884FF6FF7101EAAB
:103F20000020C649888002F0DFFAC4498988084326
:103F3000C24988800846808849F2413188427DD054
:103F4000042002F0CBFD02F0CFFABC49888002F0D9
:103F5000CBFABA49888002F0C7FAB8498880084687
:103F600080884FF6FF7101EA0020B449888002F092
:103F7000BBFAB24989880843B049888008468088DE
:103F800048F25251884203D147F28970AB49888088
:103F9000AA48808847F289718842D0D0D42002F0A4
:103FA0009DFD02F0A1FAA549888002F09DFAA3497F
:103FB000888002F099FAA1498880084680884FF6E7
:103FC000FF7101EA00209D49888002F08DFA9B492B
:103FD00089880843994988800846808845F21031CD
:103FE00088426BD055214FF4704002F08DFDAA211C
:103FF0004FF2010002F088FD52214FF2020002F060
:1040000083FD08214FF2030002F07EFD01214FF2F3
:10401000040002F079FD4FF4454002F05FFD02F02C
:1040200063FA86498880084680884FF6FF7101EA66
:104030000020824988804CF2015000E03EE002F00E
:104040004DFD02F051FA7D49898808437B498880FB
:10405000052005F07DFB79488088B0F5004F03D13D
:1040600045F21050754988807448808845F2105197
:10407000884223D0A12002F031FD02F035FA6F49C9
:10408000888002F031FA6D498880084680884FF6B2
:10409000FF7101EA00206949888002F025FA67492A
:1040A00089880843654988800846808845F261719F
:1040B000884203D141F66310604988805F48818857
:1040C00063A0FCF79FF95D48808849F2413188423E
:1040D0007ED1CF2002F002FD002002F0F3FCC120CF
:1040E00002F0F0FC302002F0EDFCED2002F0F6FCD6
:1040F000642002F0E7FC032002F0E4FC122002F04E
:10410000E1FC812002F0DEFCE82002F0E7FC8520E3
:1041100002F0D8FC102002F0D5FC7A2002F0D2FC8C
:10412000CB2002F0DBFC392002F0CCFC2C2002F08A
:10413000C9FC002002F0C6FC342002F0C3FC0220BF
:1041400002F0C0FCF72002F0C9FC202002F0BAFC0B
:10415000EA2002F0C3FC002002F0B4FC002002F0D0
:10416000B1FCC02002F0BAFC1B2002F0ABFCC12065
:1041700002F0B4FC012002F0A5FCC52002F0AEFC68
:10418000302002F09FFC302002F09CFCC72002F09F
:10419000A5FCB72002F096FC362002F09FFC4820D8
:1041A00002F090FC3A2002F099FC552002F08AFCC3
:1041B000B12002F093FC002002F084FC1A2002F0EF
:1041C00081FCB62002F08AFC0A2002F07BFC00E0B1
:1041D000A9E0A22002F076FCF22002F07FFC002091
:1041E00002F070FC262002F079FC012002F06AFC4B
:1041F000E02002F073FC0F2002F064FC2A2002F0A1
:1042000061FC282002F05EFC082002F05BFC0E201E
:1042100002F058FC082002F055FC542002F052FC39
:10422000A92002F04FFC432002F04CFC0A2002F0CF
:1042300049FC0F2002F046FC002011E03C0B00205E
:104240003038024000040240EC0A0020040100A0C3
:10425000204C43442049443A25780D0A00000000D0
:1042600002F030FC002002F02DFC002002F02AFCBD
:10427000002002F027FCE12002F030FC002002F0D8
:1042800021FC152002F01EFC172002F01BFC072069
:1042900002F018FC112002F015FC062002F012FCBE
:1042A0002B2002F00FFC562002F00CFC3C2002F008
:1042B00009FC052002F006FC102002F003FC0F2090
:1042C00002F000FC3F2002F0FDFB3F2002F0FAFB71
:1042D0000F2002F0F7FB2B2002F000FC002002F080
:1042E000F1FB002002F0EEFB012002F0EBFB3F208F
:1042F00002F0E8FB2A2002F0F1FB002002F0E2FBD2
:10430000002002F0DFFB002002F0DCFBEF2002F0D7
:10431000D9FB112002F0E2FB782005F019FA2920E0
:1043200002F0DCFB93E5FE48808847F28971884201
:104330007ED1112002F0D2FB782005F009FA362058
:1043400002F0CCFB002002F0BDFB3A2002F0C6FBDD
:10435000052002F0B7FBB22002F0C0FB0C2002F0F7
:10436000B1FB0C2002F0AEFB002002F0ABFB3320CF
:1043700002F0A8FB332002F0A5FBB72002F0AEFB51
:10438000352002F09FFBBB2002F0A8FB322002F098
:1043900099FBC02002F0A2FB0C2002F093FBC2208C
:1043A00002F09CFB012002F08DFBC32002F096FB83
:1043B000102002F087FBC42002F090FB202002F0C6
:1043C00081FBC62002F08AFB0F2002F07BFBD0208D
:1043D00002F084FBA42002F075FBA12002F072FB26
:1043E000E02002F07BFBD02002F06CFB002002F00A
:1043F00069FB022002F066FB072002F063FB0A2043
:1044000002F060FB282002F05DFB322002F05AFB34
:10441000442002F057FB422002F054FB062002F039
:1044200051FB0E2002F04EFB122002F04BFB00E08D
:1044300054E0142002F046FB172002F043FBE12079
:1044400002F04CFBD02002F03DFB002002F03AFBD2
:10445000022002F037FB072002F034FB0A2002F0B2
:1044600031FB282002F02EFB312002F02BFB5420E0
:1044700002F028FB472002F025FB0E2002F022FB71
:104480001C2002F01FFB172002F01CFB1B2002F077
:1044900019FB1E2002F016FB2A2002F01FFB002051
:1044A00002F010FB002002F00DFB002002F00AFBDE
:1044B000EF2002F007FB2B2002F010FB002002F09F
:1044C00001FB002002F0FEFA012002F0FBFA3F207F
:1044D00002F0F8FA292002F001FBB8E49048808845
:1044E00045F21031884240F07C87ED2002F0F6FA68
:1044F000012002F0E7FAFE2002F0E4FAEE2002F0DA
:10450000EDFADE2002F0DEFA212002F0DBFAF120E3
:1045100002F0E4FA012002F0D5FADF2002F0DEFA20
:10452000102002F0CFFAC42002F0D8FA8F2002F057
:10453000C9FAC62002F0D2FA002002F0C3FAE22043
:1045400002F0C0FAE22002F0BDFAE22002F0BAFA6C
:10455000BF2002F0C3FAAA2002F0B4FAB02002F0A1
:10456000BDFA0D2002F0AEFA002002F0ABFA0D20E9
:1045700002F0A8FA002002F0A5FA112002F0A2FA37
:10458000002002F09FFA192002F09CFA002002F0AD
:1045900099FA212002F096FA002002F093FA2D20D9
:1045A00002F090FA002002F08DFA3D2002F08AFA23
:1045B000002002F087FA5D2002F084FA002002F069
:1045C00081FA5D2002F07EFA002002F07BFAB12031
:1045D00002F084FA802002F075FA002002F072FAEC
:1045E0008B2002F06FFA002002F06CFA962002F0A5
:1045F00069FA002002F066FAB22002F06FFA002099
:1046000002F060FA002002F05DFA022002F05AFA8D
:10461000002002F057FA032002F054FA002002F0C2
:1046200051FAB32002F05AFA002002F04BFA0020AF
:1046300002F048FA002002F045FA002002F042FAA7
:10464000002002F03FFA002002F03CFA002002F0C5
:1046500039FA002002F036FA002002F033FA002086
:1046600002F030FA002002F02DFA002002F02AFABF
:10467000002002F027FA002002F024FA002002F0C5
:1046800021FA002002F01EFA002002F01BFA00209E
:1046900002F018FA002002F015FA002002F012FAD7
:1046A000002002F00FFA002002F00CFA002002F0C5
:1046B00009FA002002F006FAB42002F00FFA8B206B
:1046C00002F000FA002002F0FDF9962002F0FAF95B
:1046D000002002F0F7F9A12002F0F4F9002002F026
:1046E000F1F9B52002F0FAF9022002F0EBF900200E
:1046F00002F0E8F9032002F0E5F9002002F0E2F907
:10470000042002F0DFF9002002F0DCF9B62002F00C
:10471000E5F9002002F0D6F9002002F0D3F901E01B
:104720003C0B0020B72002F0D9F9002002F0CAF9B2
:10473000002002F0C7F93F2002F0C4F9002002F087
:10474000C1F95E2002F0BEF9002002F0BBF964203E
:1047500002F0B8F9002002F0B5F98C2002F0B2F9AD
:10476000002002F0AFF9AC2002F0ACF9002002F01A
:10477000A9F9DC2002F0A6F9002002F0A3F97020CC
:1047800002F0A0F9002002F09DF9902002F09AF9C1
:10479000002002F097F9EB2002F094F9002002F0DB
:1047A00091F9DC2002F08EF9002002F08BF9B8209C
:1047B00002F094F9002002F085F9002002F082F95D
:1047C000002002F07FF9002002F07CF9002002F0C6
:1047D00079F9002002F076F9002002F073F9002048
:1047E00002F070F9BA2002F079F9242002F06AF997
:1047F000002002F067F9002002F064F9002002F0C6
:1048000061F9C12002F06AF9202002F05BF9002072
:1048100002F058F9542002F055F9002002F052F944
:10482000FF2002F04FF9002002F04CF9C22002F004
:1048300055F90A2002F046F9002002F043F904205D
:1048400002F040F9002002F03DF9C32002F046F9E1
:104850003C2002F037F9002002F034F93A2002F04F
:1048600031F9002002F02EF9392002F02BF9002056
:1048700002F028F9372002F025F9002002F022F991
:104880003C2002F01FF9002002F01CF9362002F053
:1048900019F9002002F016F9322002F013F9002075
:1048A00002F010F92F2002F00DF9002002F00AF9B1
:1048B0002C2002F007F9002002F004F9292002F070
:1048C00001F9002002F0FEF8262002F0FBF800209B
:1048D00002F0F8F8242002F0F5F8002002F0F2F8D7
:1048E000242002F0EFF8002002F0ECF8232002F080
:1048F000E9F8002002F0E6F83C2002F0E3F800209E
:1049000002F0E0F8362002F0DDF8002002F0DAF8DC
:10491000322002F0D7F8002002F0D4F82F2002F065
:10492000D1F8002002F0CEF82C2002F0CBF80020C5
:1049300002F0C8F8292002F0C5F8002002F0C2F801
:10494000262002F0BFF8002002F0BCF8242002F07C
:10495000B9F8002002F0B6F8242002F0B3F80020E5
:1049600002F0B0F8232002F0ADF8002002F0AAF81F
:10497000C42002F0B3F8622002F0A4F8002002F094
:10498000A1F8052002F09EF8002002F09BF8842098
:1049900002F098F8002002F095F8F02002F092F86A
:1049A000002002F08FF8182002F08CF8002002F0AE
:1049B00089F8A42002F086F8002002F083F818207D
:1049C00002F080F8002002F07DF8502002F07AF822
:1049D000002002F077F80C2002F074F8002002F0BA
:1049E00071F8172002F06EF8002002F06BF89520A5
:1049F00002F068F8002002F065F8F32002F062F897
:104A0000002002F05FF8E62002F05CF8002002F0DF
:104A100059F8C52002F062F8322002F053F8002065
:104A200002F050F8442002F04DF8002002F04AF85D
:104A3000652002F047F8002002F044F8762002F0EA
:104A400041F8002002F03EF8882002F03BF80020F8
:104A500002F038F8C62002F041F8202002F032F8C7
:104A6000002002F02FF8172002F02CF8002002F0AE
:104A700029F8012002F026F8002002F023F8C720D0
:104A800002F02CF8002002F01DF8002002F01AF8C5
:104A9000002002F017F8002002F014F8C82002F0FD
:104AA0001DF8002002F00EF8002002F00BF80020A4
:104AB00002F008F8002002F005F8C92002F00EF814
:104AC000002001F0FFFF002001F0FCFF002001F0BA
:104AD000F9FF002001F0F6FF002001F0F3FF0020B5
:104AE00001F0F0FF002001F0EDFF002001F0EAFFEF
:104AF000002001F0E7FF002001F0E4FF002001F0BA
:104B0000E1FF002001F0DEFF002001F0DBFF0020CC
:104B100001F0D8FF002001F0D5FF002001F0D2FF06
:104B2000E02001F0DBFF162001F0CCFF002001F0B7
:104B3000C9FF1C2001F0C6FF002001F0C3FF2120A7
:104B400001F0C0FF002001F0BDFF362001F0BAFFE8
:104B5000002001F0B7FF462001F0B4FF002001F073
:104B6000B1FF522001F0AEFF002001F0ABFF642046
:104B700001F0A8FF002001F0A5FF7A2001F0A2FFBC
:104B8000002001F09FFF8B2001F09CFF002001F02E
:104B900099FF992001F096FF002001F093FFA820D3
:104BA00001F090FF002001F08DFFB92001F08AFF95
:104BB000002001F087FFC42001F084FF002001F0F5
:104BC00081FFCA2001F07EFF002001F07BFFD22090
:104BD00001F078FF002001F075FFD92001F072FF8D
:104BE000002001F06FFFE02001F06CFF002001F0D9
:104BF00069FFF32001F066FF002001F063FFE12070
:104C000001F06CFF162001F05DFF002001F05AFF5B
:104C10001C2001F057FF002001F054FF222001F07A
:104C200051FF002001F04EFF362001F04BFF002025
:104C300001F048FF452001F045FF002001F042FF50
:104C4000522001F03FFF002001F03CFF642001F002
:104C500039FF002001F036FF7A2001F033FF0020F9
:104C600001F030FF8B2001F02DFF002001F02AFF22
:104C7000992001F027FF002001F024FFA82001F077
:104C800021FF002001F01EFFB92001F01BFF0020D2
:104C900001F018FFC42001F015FF002001F012FF01
:104CA000CA2001F00FFF002001F00CFFD22001F01C
:104CB00009FF002001F006FFD82001F003FF0020CB
:104CC00001F000FFE02001F0FDFE002001F0FAFEFF
:104CD000F32001F0F7FE002001F0F4FEE22001F0E5
:104CE000FDFE052001F0EEFE002001F0EBFE0B20A2
:104CF00001F0E8FE002001F0E5FE1B2001F0E2FEDD
:104D0000002001F0DFFE342001F0DCFE002001F085
:104D1000D9FE442001F0D6FE002001F0D3FE4F2042
:104D200001F0D0FE002001F0CDFE612001F0CAFEAE
:104D3000002001F0C7FE792001F0C4FE002001F040
:104D4000C1FE882001F0BEFE002001F0BBFE9720CE
:104D500001F0B8FE002001F0B5FEA62001F0B2FE81
:104D6000002001F0AFFEB72001F0ACFE002001F002
:104D7000A9FEC22001F0A6FE002001F0A3FEC7207C
:104D800001F0A0FE002001F09DFED12001F09AFE6E
:104D9000002001F097FED62001F094FE002001F0E3
:104DA00091FEDD2001F08EFE002001F08BFEF3204D
:104DB00001F088FE002001F085FEE32001F08EFE68
:104DC000052001F07FFE002001F07CFE0A2001F0AA
:104DD00079FE002001F076FE1C2001F073FE002019
:104DE00001F070FE332001F06DFE002001F06AFE3C
:104DF000442001F067FE002001F064FE502001F025
:104E000061FE002001F05EFE622001F05BFE0020EA
:104E100001F058FE782001F055FE002001F052FE0E
:104E2000882001F04FFE002001F04CFE972001F099
:104E300049FE002001F046FEA62001F043FE0020BE
:104E400001F040FEB72001F03DFE002001F03AFEE7
:104E5000C22001F037FE002001F034FEC72001F02F
:104E600031FE002001F02EFED12001F02BFE0020AB
:104E700001F028FED52001F025FE002001F022FEE1
:104E8000DD2001F01FFE002001F01CFEF32001F0E8
:104E900019FE002001F016FEE42001F01FFE0120A3
:104EA00001F010FE002001F00DFE012001F00AFECD
:104EB000002001F007FE022001F004FE002001F0B6
:104EC00001FE2A2001F0FEFD002001F0FBFD3C2048
:104ED00001F0F8FD002001F0F5FD4B2001F0F2FD9E
:104EE000002001F0EFFD5D2001F0ECFD002001F05D
:104EF000E9FD742001F0E6FD002001F0E3FD8420CF
:104F000001F0E0FD002001F0DDFD932001F0DAFD6D
:104F1000002001F0D7FDA22001F0D4FD002001F017
:104F2000D1FDB32001F0CEFD002001F0CBFDBE206D
:104F300001F0C8FD002001F0C5FDC42001F0C2FD54
:104F4000002001F0BFFDCD2001F0BCFD002001F0EC
:104F5000B9FDD32001F0B6FD002001F0B3FDDD2046
:104F600001F0B0FD002001F0ADFDF32001F0AAFD3D
:104F7000002001F0A7FDE52001F0B0FD002001F0C8
:104F8000A1FD002001F09EFD002001F09BFD00200E
:104F900001F098FD022001F095FD002001F092FD46
:104FA000292001F08FFD002001F08CFD3C2001F054
:104FB00089FD002001F086FD4B2001F083FD0020DB
:104FC00001F080FD5D2001F07DFD002001F07AFD03
:104FD000742001F077FD002001F074FD842001F0C1
:104FE00071FD002001F06EFD932001F06BFD0020AB
:104FF00001F068FDA22001F065FD002001F062FDD6
:10500000B32001F05FFD002001F05CFDBE2001F047
:1050100059FD002001F056FDC42001F053FD002091
:1050200001F050FDCD2001F04DFD002001F04AFDC2
:10503000D32001F047FD002001F044FDDC2001F009
:1050400041FD002001F03EFDF32001F03BFD00207A
:1050500001F038FDE62001F041FD112001F032FDA4
:10506000002001F02FFD342001F02CFD002001F084
:1050700029FD562001F026FD002001F023FD7620B9
:1050800001F020FD002001F01DFD772001F01AFD48
:10509000002001F017FD662001F014FD002001F052
:1050A00011FD882001F00EFD002001F00BFD99207C
:1050B00001F008FD002001F005FDBB2001F002FD1C
:1050C000002001F0FFFC992001F0FCFC002001F021
:1050D000F9FC662001F0F6FC002001F0F3FC5520FD
:1050E00001F0F0FC002001F0EDFC552001F0EAFC9D
:1050F000002001F0E7FC452001F0E4FC002001F075
:10510000E1FC432001F0DEFC002001F0DBFC442048
:1051100001F0D8FC002001F0D5FCE72001F0DEFC16
:10512000322001F0CFFC002001F0CCFC552001F032
:10513000C9FC002001F0C6FC762001F0C3FC002071
:1051400001F0C0FC662001F0BDFC002001F0BAFCBB
:10515000672001F0B7FC002001F0B4FC672001F0EB
:10516000B1FC002001F0AEFC872001F0ABFC002078
:1051700001F0A8FC992001F0A5FC002001F0A2FCA0
:10518000BB2001F09FFC002001F09CFC992001F065
:1051900099FC002001F096FC772001F093FC0020A0
:1051A00001F090FC442001F08DFC002001F08AFC0D
:1051B000562001F087FC002001F084FC232001F040
:1051C00081FC002001F07EFC332001F07BFC0020FC
:1051D00001F078FC452001F075FC002001F072FC24
:1051E000E82001F07BFC002001F06CFC002001F0C5
:1051F00069FC992001F066FC002001F063FC872027
:1052000001F060FC002001F05DFC882001F05AFCF8
:10521000002001F057FC772001F054FC002001F041
:1052200051FC662001F04EFC002001F04BFC882070
:1052300001F048FC002001F045FCAA2001F042FCEE
:10524000002001F03FFCBB2001F03CFC002001F0FD
:1052500039FC992001F036FC002001F033FC662077
:1052600001F030FC002001F02DFC552001F02AFC5B
:10527000002001F027FC552001F024FC002001F063
:1052800021FC442001F01EFC002001F01BFC442006
:1052900001F018FC002001F015FC552001F012FC73
:1052A000002001F00FFCE92001F018FCAA2001F019
:1052B00009FC002001F006FC002001F003FC0020A6
:1052C00001F000FC002001F009FCAA2001F0FAFB2B
:1052D000CF2001F003FC002001F0F4FB002001F0DE
:1052E000F1FB002001F0EEFB002001F0EBFB0020C1
:1052F00001F0E8FB002001F0E5FB002001F0E2FBFB
:10530000002001F0DFFB002001F0DCFB002001F0B9
:10531000D9FB002001F0D6FB002001F0D3FB0020D8
:1053200001F0D0FB002001F0CDFB002001F0CAFB12
:10533000002001F0C7FB002001F0C4FBF02001F0C9
:10534000CDFB002001F0BEFB502001F0BBFB002094
:1053500001F0B8FB002001F0B5FB002001F0B2FB2A
:10536000F32001F0BBFB002001F0ACFBF92001F0C1
:10537000B5FB062001F0A6FB102001F0A3FB2920BD
:1053800001F0A0FB002001F09DFB3A2001F0A6FBFC
:10539000552001F097FB112001F0A0FB642004F0E0
:1053A000D7F9292001F09AFB352001F097FB002066
:1053B00001F088FB512001F091FBFF2001F082FBFE
:1053C000532001F08BFB2C2001F07CFB552001F0D9
:1053D00085FB822001F076FB2C2001F07FFB01F0A1
:1053E00048B8FE48808845F2105188427ED1552148
:1053F0004FF4704001F088FBAA214FF2010001F048
:1054000083FB52214FF2020001F07EFB08214FF294
:10541000030001F079FB01214FF2040001F074FB5D
:105420000D214FF4304001F06FFB0D214BF20100D4
:1054300001F06AFB0D214BF2020001F065FB342103
:105440004FF4364001F060FB34214BF2016001F073
:105450005BFB34214BF2026001F056FB0D214FF44F
:10546000314001F051FB0D214BF2011001F04CFBDA
:105470000D214BF2021001F047FB34214FF437406D
:1054800001F042FB34214BF2017001F03DFB34216D
:105490004BF2027001F038FB00214FF4324001F072
:1054A00033FB00214BF2012001F02EFB00214BF2D7
:1054B000022001F029FB24214FF4384001F024FBA5
:1054C00024214BF6010001F01FFB24214BF60200C2
:1054D00001F01AFB01214FF43F4001F015FB0F21B1
:1054E0004FF4334001F010FB0F2100E0FEE34BF2DC
:1054F000013001F009FB0F214BF2023001F004FBF7
:1055000034214FF4394001F0FFFA34214BF60110F9
:1055100001F0FAFA34214BF6021001F0F5FA0821F5
:105520004FF4354001F0F0FA08214BF2015001F040
:10553000EBFA08214BF2025001F0E6FA03214FF496
:10554000424001F0E1FA24214FF43A4001F0DCFA44
:1055500024214BF6012001F0D7FA24214BF602203A
:1055600001F0D2FA00214FF43C4001F0CDFA78214D
:105570004BF6014001F0C8FA00214BF6024001F061
:10558000C3FA00214FF43D4001F0BEFA78214BF6FA
:10559000015001F0B9FA00214BF6025001F0B4FAC3
:1055A00000214FF43E4001F0AFFA64214BF6016058
:1055B00001F0AAFA00214FF4514001F0A5FA33217D
:1055C0004DF2011001F0A0FA00214DF2021001F09D
:1055D0009BFA34214DF2031001F096FA00214DF2AE
:1055E000041001F091FA3A214DF2051001F08CFA05
:1055F00000214DF2061001F087FA4A214DF2071002
:1056000001F082FA00214DF2081001F07DFA5C21D0
:105610004DF2091001F078FA00214DF20A1001F064
:1056200073FA81214DF20B1001F06EFA00214DF258
:105630000C1001F069FAA6214DF20D1001F064FA88
:1056400000214DF20E1001F05FFAE5214DF20F102E
:1056500001F05AFA01214DF2101001F055FA132110
:105660004DF2111001F050FA01214DF2121001F02B
:105670004BFA54214DF2131001F046FA01214DF27C
:10568000141001F041FA82214DF2151001F03CFA9C
:1056900001214DF2161001F037FACA214DF2171010
:1056A00001F032FA02214DF2181001F02DFA00211A
:1056B0004DF2191001F028FA02214DF21A1001F0F2
:1056C00023FA01214DF21B1001F01EFA02214DF2C6
:1056D0001C1001F019FA34214DF21D1001F014FADA
:1056E00002214DF21E1001F00FFA67214DF21F103A
:1056F00001F00AFA02214DF2201001F005FA84218E
:105700004DF2211001F000FA02214DF2221001F0B9
:10571000FBF9A4214DF2231001F0F6F902214DF21C
:10572000241001F0F1F9B7214DF2251001F0ECF948
:1057300002214DF2261001F0E7F9CF214DF227109A
:1057400001F0E2F902214DF2281001F0DDF9DE212D
:105750004DF2291001F0D8F902214DF22A1001F082
:10576000D3F9F2214DF22B1001F0CEF902214DF2C6
:105770002C1001F0C9F9FE214DF22D1001F0C4F9F1
:1057800003214DF22E1001F0BFF910214DF22F1020
:1057900001F0BAF903214DF2301001F0B5F93321CF
:1057A0004DF2311001F0B0F903214DF2321001F049
:1057B000ABF96D214DF2331001F0A6F900214FF441
:1057C000524001F0A1F933214DF2012001F09CF982
:1057D00000214DF2022001F097F901E03C0B00207E
:1057E00034214DF2032001F08FF900214DF2042005
:1057F00001F08AF93A214DF2052001F085F90021E6
:105800004DF2062001F080F94A214DF2072001F007
:105810007BF900214DF2082001F076F95C214DF270
:10582000092001F071F900214DF20A2001F06CF914
:1058300081214DF20B2001F067F900214DF20C207F
:1058400001F062F9A6214DF20D2001F05DF9002171
:105850004DF20E2001F058F9E5214DF20F2001F034
:1058600053F901214DF2102001F04EF913214DF2B0
:10587000112001F049F901214DF2122001F044F903
:1058800054214DF2132001F03FF901214DF2142073
:1058900001F03AF982214DF2152001F035F901218C
:1058A0004DF2162001F030F9CA214DF2172001F017
:1058B0002BF902214DF2182001F026F900214DF2BA
:1058C000192001F021F902214DF21A2001F01CF9F2
:1058D00001214DF21B2001F017F902214DF21C208D
:1058E00001F012F934214DF21D2001F00DF90221D1
:1058F0004DF21E2001F008F967214DF21F2001F042
:1059000003F902214DF2202001F0FEF884214DF22E
:10591000212001F0F9F802214DF2222001F0F4F8E3
:10592000A4214DF2232001F0EFF802214DF22420B2
:1059300001F0EAF8B7214DF2252001F0E5F8022147
:105940004DF2262001F0E0F8CF214DF2272001F0A2
:10595000DBF802214DF2282001F0D6F8DE214DF2CD
:10596000292001F0D1F802214DF22A2001F0CCF8D3
:10597000F2214DF22B2001F0C7F802214DF22C202C
:1059800001F0C2F8FE214DF22D2001F0BDF80321F7
:105990004DF22E2001F0B8F810214DF22F2001F029
:1059A000B3F803214DF2302001F0AEF833214DF26F
:1059B000312001F0A9F803214DF2322001F0A4F8C2
:1059C0006D214DF2332001F09FF800214FF4534038
:1059D00001F09AF833214DF2013001F095F80021E1
:1059E0004DF2023001F090F834214DF2033001F015
:1059F0008BF800214DF2043001F086F83A214DF287
:105A0000053001F081F800214DF2063001F07CF8FC
:105A10004A214DF2073001F077F800214DF20830AD
:105A200001F072F85C214DF2093001F06DF80021AF
:105A30004DF20A3001F068F881214DF20B3001F08F
:105A400063F800214DF20C3001F05EF8A6214DF212
:105A50000D3001F059F800214DF20E3001F054F8EC
:105A6000E5214DF20F3001F04FF801214DF21030D9
:105A700001F04AF813214DF2113001F045F80121EF
:105A80004DF2123001F040F854214DF2133001F084
:105A90003BF801214DF2143001F036F882214DF22D
:105AA000153001F031F801214DF2163001F02CF8DB
:105AB000CA214DF2173001F027F802214DF21830BB
:105AC00001F022F800214DF2193001F01DF80221F9
:105AD0004DF21A3001F018F801214DF21B3001F09F
