:020000040800F2
:10000000D8150120D9020008F39900086379000887
:10001000AB9900089F0C0008310D0108000000009A
:10002000000000000000000000000000A9D100084E
:100030000111000800000000750B000831D2000813
:100040001303000813030008130300081303000838
:100050001303000813030008130300081303000828
:100060001303000813030008130300081303000818
:100070001303000813030008130300081303000808
:1000800013030008130300081303000813030008F8
:1000900013030008130300081303000813030008E8
:1000A00013030008130300081303000813030008D8
:1000B0001303000879FD000885FD000813030008FC
:1000C00013030008130300081303000813030008B8
:1000D00013030008BD0C01081303000813030008F4
:1000E0001303000813030008130300081303000898
:1000F0001303000813030008130300081303000888
:100100001303000813030008130300081303000877
:100110001303000813030008130300081303000867
:100120001303000813030008130300081303000857
:100130001303000813030008130300081303000847
:100140001303000813030008130300081303000837
:100150001303000813030008130300081303000827
:100160001303000813030008130300081303000817
:100170001303000813030008130300080000000025
:1001800013030008130300081303000813030008F7
:1001900013030008130300081303000813030008E7
:1001A00013030008130300081303000800F002F80B
:1001B00000F069F80AA090E8000C82448344AAF198
:1001C0000107DA4501D100F05EF8AFF2090EBAE896
:1001D0000F0013F0010F18BFFB1A43F0010318477B
:1001E0002C7902004C7902000A444FF0000C10F800
:1001F000013B13F0070408BF10F8014B1D1108BFA5
:1002000010F8015B641E05D010F8016B641E01F844
:10021000016BF9D113F0080F1EBF10F8014BAD1C94
:100220000C1B09D16D1E58BF01F801CBFAD505E0B2
:1002300014F8016B01F8016B6D1EF9D59142D6D30C
:10024000704700000023002400250026103A28BF34
:1002500078C1FBD8520728BF30C148BF0B60704738
:10026000642900F00781782900F04081732900F0AB
:100270007283002070471FB51AF0F9FD00F077F97E
:100280001FBD10B510BD00F0E9FB1146FFF7F3FFED
:1002900019F0A4FD00F007FC03B4FFF7F2FF03BC64
:1002A00019F016FA0B49D1F800C04A685CF8043B13
:1002B0001068184442F8040B8C4528BFA1F1DC0CEF
:1002C0008A4228BFA1F1DC02C1F800C04A6020F0D8
:1002D000004070476C09012011488047DFF8440056
:1002E000016841F470010160BFF34F8FDFF83800FF
:1002F000016821F040410160BFF36F8F0B48004758
:10030000FEE7FEE7FEE7FEE7FEE7FEE7FEE7FEE7C5
:10031000FEE7FEE706480749074A084B704700001A
:1003200055D2000888ED00E034EF00E0AD01000890
:10033000D8090120D8150120D80B0120D80B0120A5
:1003400072B6704762B67047EFF3108072B67047AE
:1003500080F31088704730BF704720BF7047B0FAF5
:1003600080F0704790FAA0F0B0FA80F0704790FAF1
:10037000A0F07047704700000FB4044910B503AAFD
:10038000029800F0EDFA10BC5DF814FB2400002088
:100390000FB41CB5074B06AA7B446946009005982C
:1003A00000F0AFFA0020694600F0BEFA1CBC5DF810
:1003B00014FB00008D0500002DE9F0410E460446B7
:1003C000002020622046E168884730B3252805D008
:1003D000D4E901219047206A401CF2E7E1682046F9
:1003E00000278847050018D0A5F14100192802D838
:1003F00020354FF400673246294620462760FFF734
:100400002FFF40B1012804D0F61D26F0070608365C
:10041000D8E7361DD6E72846DAE7206ABDE8F0813E
:1004200070B50C460546012A05D02878800600D50F
:10043000EA69002302E0012305E05B1C934202D23B
:10044000E05C0028F9D1A869E618C01AA861286AFA
:10045000184428622846AFF3008004E0D5E9012162
:1004600014F8010B9047B442F8D32846AFF300804C
:1004700070BD00002DE9F041064600241068752982
:10048000314616A510D0AFF30080002802DA4042B2
:1004900013A507E031688A0701D512A502E04907D4
:1004A00004D511A5012401E0AFF3008000210A2248
:1004B00006F1240709E0B0FBF2FCB0FBF2F302FB0B
:1004C0001C00303078541846491C0028F3D12346CC
:1004D0002A463046BDE8F04100F0B5B90000000002
:1004E0002D0000002B0000002000000070B5044625
:1004F0000D4621461068AFF300802188090502D51A
:100500000F4A7A4402E00E4A7A440E32002104F186
:10051000240305E000F00F060009965D5E54491CB7
:100520000028F7D120780023000704D5702D02D0D1
:1005300009B1022311322046BDE8704000F083B9B2
:10054000427402000B4910B5A1F17C020A4CC2E9C9
:100550003712372106E000EB104342F82130074BF9
:1005600000FB03400B1EA1F10101F4DC10BD0120D2
:10057000E8E700000C090120E119D666CD0D010065
:1005800040EA010310B59B070FD1042A0DD310C810
:1005900008C9121F9C42F8D020BA19BA884201D962
:1005A000012010BD4FF0FF3010BD1AB1D30703D0AA
:1005B000521C07E0002010BD10F8013B11F8014B60
:1005C0001B1B07D110F8013B11F8014B1B1B01D17C
:1005D000921EF1D1184610BD032A40F2308010F06F
:1005E000030C00F0158011F8013BBCF1020F6244CE
:1005F00098BF11F801CB00F8013B38BF11F8013B5F
:10060000A2F1040298BF00F801CB38BF00F8013B0B
:1006100011F0030300F06780083AC0F0088051F839
:10062000043B083A51F804CBA0E80810F5E7121D86
:100630005CBF51F8043B40F8043BAFF30080D207A5
:1006400024BF11F8013B11F801CB48BF11F8012B71
:1006500024BF00F8013B00F801CB48BF00F8012B94
:100660007047431A28BF9A427FF6B6AF032A104458
:10067000114440F2268010F0030F1EBF11F8013D17
:10068000521E00F8013D10F0030F7FF4F6AF11F099
:10069000030300F08A81083AC0F00B8051F8043D52
:1006A000083A51F804CD40F8043D40F804CDFFF776
:1006B000F3BF121D5CBF51F8043D40F8043DAFF399
:1006C0000080D20724BF11F8013D11F801CD48BFC9
:1006D00011F8012C24BF00F8013D00F801CD48BFFE
:1006E00000F8012C704710B5203AC0F00B80B1E83B
:1006F0001850203AA0E81850B1E81850A0E8185057
:10070000BFF4F5AF5FEA027C24BFB1E81850A0E85F
:10071000185044BF18C918C0BDE810405FEA827C79
:1007200024BF51F8043B40F8043B08BF7047D20790
:1007300028BF31F8023B48BF11F8012B28BF20F831
:10074000023B48BF00F8012B704702F0FF0343EA69
:10075000032242EA024200F054B94FF0000200B511
:10076000134694469646203922BFA0E80C50A0E8D4
:100770000C50B1F12001BFF4F7AF090728BFA0E882
:100780000C5048BF0CC05DF804EB890028BF40F84E
:10079000042B08BF704748BF20F8022B11F0804F90
:1007A00018BF00F8012B70474FF0013C50F8042BA4
:1007B00051F8043B9A4221D1A2EB0C03934313EA74
:1007C000CC1317D150F8042B51F8043B9A4215D1A1
:1007D000A2EB0C03934313EACC130BD150F8042B78
:1007E00051F8043B9A4209D1A2EB0C03934313EA5C
:1007F000CC13DBD04FF00000704700BFD01A01BA15
:10080000B1FA81F101F0180122FA01F0CB40C1F1F7
:100810002001DBB2C0B2C01A2CFA01F3D11A914305
:1008200011EAC311E6D170477047704770477047AF
:1008300010B500F007F9006810BD10B5044600F0CF
:1008400001F9046010BD2DE9F0470D469946924626
:10085000044600F124080168880604D5E06921F007
:100860001001216000E00120A84201DD471B00E0EB
:100870000027A1697A1902EB0900081AA061207803
:10088000C00602D42046AFF30080002608E0D4E979
:1008900001211AF806009047206A401C761C20624D
:1008A0004E45F4DB2078C0060AD52046AFF3008021
:1008B00006E0D4E9012130209047206A401C2062E4
:1008C000381EA7F10107F4DC07E0D4E9012118F88C
:1008D00005009047206A401C2062281EA5F10105F2
:1008E000F3DC2046AFF300802078000602D502201A
:1008F000BDE8F0870120FBE701694A1C0261087826
:10090000704700B58FB0CDE901310021059105494F
:100910007944CDE9031011466846FFF74DFD0FB04D
:1009200000BD0000E5FFFFFF0A6802F8010B0A6046
:10093000704710B5436913B1AFF3008001E0FFF7D2
:100940006FFD012010BD127800F124010A70002211
:100950004A700122EDE711684FF0FF32E9E700002D
:10096000074B70B50D467B44FFF7CBFF0446284686
:1009700000F06CF810B14FF0FF3070BD204670BD34
:100980002B940100431A28BF9A427FF6ACAE104464
:1009900010F0030F11441EBF11F8013D521E00F864
:1009A000013D10F0030F7FF4F6AF103AC0F00A805B
:1009B00010B531E91850103A20E91850BFF4F9AFDA
:1009C000BDE81040530724BF31E9081020E90810A2
:1009D00044BF51F8043D40F8043D12F0030F08BF36
:1009E0007047D20728BF31F8023D48BF11F8012CEB
:1009F00028BF20F8023D48BF00F8012C70474FF097
:100A000000020429C0F0128010F0030C3FF4A7AEDE
:100A1000CCF1040CBCF1020F18BF00F8012BA8BFE9
:100A200020F8022BA1EB0C01FFF799BE5FEAC17C15
:100A300024BF00F8012B00F8012B48BF00F8012B60
:100A4000704700000048704774090120007B00F0E7
:100A50008000704700487047740901207546FFF711
:100A6000F9FFAE4605006946534620F0070085466B
:100A700018B020B5FFF74EFCBDE820404FF000064F
:100A80004FF000074FF000084FF0000B21F0070176
:100A9000AC46ACE8C009ACE8C009ACE8C009ACE8B9
:100AA000C0098D46704710B50446AFF3008020465C
:100AB000BDE81040FFF7F0BBEFF3098141B1F1EE63
:100AC000101A40F8041D20ED200A3E490A68106003
:100AD0007047B0EC200A02C8E1EE101A3A490A68E1
:100AE0001060704772B64EF62250CEF2000040F20F
:100AF000FF01C0F2000101704FF0000080F309888F
:100B00000AF0D6F840F2A810C2F20000016881F3A2
:100B1000088840F23210C2F2000040F23311C2F2F3
:100B200000010A78027040F2A015C2F2000540F2FE
:100B3000A411C2F200010A682A60106880F30988D3
:100B4000EFF3148040F0020080F31488BFF36F8F3E
:100B5000BDE8F00F0FBCBDE8005006BC62B6084708
:100B60001A484FF080510160704718484FF080518B
:100B70000160704772B6EFF3098020E9F00F40F290
:100B8000A015C2F200052E68306074460AF090F895
:100B900040F23210C2F2000040F23311C2F2000102
:100BA0000A78027040F2A411C2F200010A682A60B9
:100BB00044F0F40E1068B0E8F00F80F3098862B6D4
:100BC00070470000A0010020A401002004ED00E017
:100BD00006F0E8BE70B515460E46044608E020460D
:100BE000641CA4B200F007F86D1E06F8010BADB24C
:100BF000002DF4D170BD10B5044606F07BFF200A2D
:100C0000A02101EB4000C0B206F044FF06F0B4FFA3
:100C1000E0B206F03FFF06F0AFFF06F06BFFA12049
:100C200006F038FF06F0A8FF002006F0FFFE04469D
:100C300006F080FF204610BD70B514460D460646EE
:100C400006E02978304600F007F8761CB6B26D1C35
:100C5000641EA4B2F5D270BD70B50D46044606F010
:100C600049FF200AA02101EB4000C0B206F012FFAC
:100C700006F082FFE0B206F00DFF06F07DFF284689
:100C800006F008FF06F078FF06F054FFBDE870405C
:100C90000A2018F0B9BD002800DC40427047FEE78A
:100CA000054910B50020486000F0A6F800F006F8ED
:100CB000BDE8104000F086B8B80000202DE9F041F2
:100CC000104F002635463E807E80BE60FE607E610D
:100CD000BE613E61FFF738FB804600247E6100F074
:100CE00049F800F057F87869641C24040544240C82
:100CF000F4D0C7E904564046BE61BDE8F041FFF7B5
:100D000027BB0000B800002003490969884201D9C7
:100D1000401A704700207047B800002010B5FFF758
:100D200013FB04494C69FFF713FB2046BDE8104054
:100D3000FFF7EABFB800002010B5FFF7EFFF044649
:100D4000FFF702FB034A00215161FFF701FB204638
:100D500010BD0000B800002010B5FFF7F5FA0449F7
:100D60008C69FFF7F5FA2046BDE81040FFF7CCBFCD
:100D7000B800002010B5064C2088401C20806088F8
:100D800010B900F051F8A0606088401C608010BD70
:100D9000B800002010B50A4C6088401E0004000C0A
:100DA00060800CD100F040F8E060A168401A6169F1
:100DB000814200D26061A169814200D2A06110BD70
:100DC000B800002010B5FFF7BFFA0446FFF7D2FFC6
:100DD0001021054808F0EAFDFFF7DCFF2046BDE8DA
:100DE0001040FFF7B5BA000080EC002001494860D0
:100DF00070470000B800002010B506F055F808490B
:100E00000A6842F080720A60064900224A600A6855
:100E100042F001020A60BDE81040FFF7E7BF0000A2
:100E2000FCED00E0001000E0014840687047000061
:100E3000001000E070B50E4C0025C4F898520D4823
:100E4000016821F0C0010160016841F040010160CA
:100E50000948C0F88C52022004F5267418F0FCFCF6
:100E600001202060022018F0F7FC256070BD000012
:100E7000008043420020024000004442154810B563
:100E8000016886B041F080010160016801F08001D5
:100E90000591016841F4807101600068012400F44B
:100EA000807005904020CDE900040320CDE9024088
:100EB0006946094805F074FA082000906946074819
:100EC00005F06EFA0648C0F88C420648C0F8984211
:100ED00006B010BD30380240001C02400020024025
:100EE000000044420080434270B50E4C0026C4F816
:100EF00098620D48016821F0C0010160016841F06D
:100F00004001016009480125C0F88C52022004F517
:100F1000267418F0A1FC2560022018F09DFC2660C4
:100F200070BD0000008043420020024000004442A7
:100F30002DE9F047824619480024016821F0C001DC
:100F40000160016801601E2018F086FC0025144E27
:100F5000DFF850902F464FF00108C6F89872022033
:100F600018F07AFCC6F898826006040ED9F80C02D4
:100F700008B1641CE4B2022018F06EFC6D1CEDB2E6
:100F8000082DEAD3BAF1000F04D0FFF753FF204633
:100F9000BDE8F087FFF7A8FFF9E700000020024056
:100FA00000804342000044422DE9F04705461648C0
:100FB000016821F0C0010160016841F04001016059
:100FC000124E0027C6F89872022018F045FCDFF890
:100FD000408000244FF00109E909C8F88C12680626
:100FE000050E022018F038FCC6F89892022018F07E
:100FF00033FCC6F89872022018F02EFC641CE4B290
:10100000082CE9D3BDE8F08700200240008043426D
:101010000000444270B50F48016821F0C001016032
:10102000016841F0400101600B4E0120C6F88C02BE
:101030000A4DC5F898021E2005F5267506F523769B
:1010400018F00AFC00243460022018F005FC2C6023
:1010500070BD000000200240000044420080434276
:1010600070B50F48016821F0C0010160016841F0CE
:10107000400101600B4E0020C6F898020A4DC5F8E9
:101080008C021E2005F5237506F5267618F0E4FB84
:1010900001243460022018F0DFFB2C6070BD0000DA
:1010A00000200240008043420000444270B51148D5
:1010B0000024016821F0C0010160016801600E4D4B
:1010C0000120C5F88C020D4EC6F8980207E0641C9A
:1010D000E4B2FA2C03D9FFF7C3FF012070BD022050
:1010E00018F0BAFBD5F80C020028F0D1C6F8980227
:1010F00070BD0000002002400000444200804342D6
:10110000704700002DE9FC5F15460746DFF8908028
:1011100028440190D8F800201C460E46526E214407
:10112000894652689047D8F80020781B4946526E8D
:10113000824652689047711938190090D8F80020FB
:101140008946526E52689047D8F80020711B8B4632
:10115000526E009852689047002C1ED0D8F80010AC
:10116000361B4546496E01984A68314690472A68C1
:1011700031465046526E5268904728683C1B49469B
:10118000406E4268204690472A6859462046526E73
:10119000526802B0BDE8F05F1047BDE8FC9F000058
:1011A000DC01002070B5B3F5804F05D06FF07041C1
:1011B00040F82210002070BD50F82230084C234027
:1011C000D1E9004544EA05148D688E892D0245EA6F
:1011D000064589692C430C431C4340F82240E9E74B
:1011E0000000F0CFF0B50C6850F82450194A1540B3
:1011F000D1E90123D1E903671A433E4332434E69E3
:1012000032438E693243CE6932430E6A32434E6AAC
:1012100032438E6A3243CE6A3243CE6B32430E6B18
:1012200032434E6B32432A43082B01D142F0400235
:1012300040F824204A6BB2F5801F08D10A6832B109
:101240004FF480720A610449026811430160002072
:10125000F0BD00008000E0FF00011000F0B500EBE1
:10126000820253688E8903F04044D1E9003543EA95
:1012700005138D682D0245EA06452B430E8A0D4D58
:1012800005EB065633430E7D6F0107EB06663343CD
:101290008E693343234353600268D20207D5426804
:1012A000098A22F4700205EB0151114341600020CC
:1012B000F0BD00000000F0FF30B5D1E901231A4372
:1012C000D1E9033423431A434B690D681A438B69F0
:1012D0001A43D1E90734012D496A05686FF30E05F9
:1012E00005D01A4322430A432A43026008E02343FD
:1012F00029430B43416803606FF30E010A434260C8
:10130000002030BD426942EA41014161002070473E
:10131000F8B514460546D1E9000210438A686FF01B
:101320001F03C96803EB421242EA412108430090BF
:10133000286105F02DF9064609E0601C07D024B1AC
:1013400005F026F9801BA04201D90320F8BDA86949
:101350008006F2D40020F8BDF0B56FF00F05D1E99A
:10136000003405EB04145B1E2E0123438C682F030D
:1013700006EB04244FEA054C23430D8A8E8ACC6881
:10138000097E4FF07F4E07EB05450CEB06560EEB42
:101390000161012A0CD082683F1107EB043423431A
:1013A0002B43334302F070420B43134383600FE03F
:1013B000C2682B430B4302F070428168134301F073
:1013C00070422103A1F5805131431143C360816014
:1013D0000020F0BD70B54A4888B00024016841F093
:1013E00080010160016801F080010791016841F40A
:1013F00080710160006802A900F48070079080206D
:10140000012581E83100032005903E4804F0C8FF23
:101410002802CDE9020502A93B4804F0C1FFFFF70D
:101420002DFD3A4EC6F8A042142006F5287618F095
:10143000EBF93560322018F0E7F98DF80040022210
:101440006946A12000F072F89DF80000302803D111
:101450009DF80110032931D09DF8011001292DD0EC
:1014600002292BD00422694648F2401000F01EFFEA
:101470008DF80440694626A0FEF77EFF27480099B4
:1014800048F24005C0F8021002208DF80000012249
:101490006946284601F05CF801226946E81D00F023
:1014A00005FF0A2018F0B0F98DF8004001226946C6
:1014B000284601F04DF808B0002070BDC9B201EB1C
:1014C000002117A0FEF758FF01226946002000F016
:1014D00079F901226946A42000F074F916208DF8EC
:1014E000000001226946802000F06CF90C208DF884
:1014F000000001226946882000F064F9DBE7000063
:1015000030380240001C02400020024000004442EB
:101510004354502049443A25730D0A0038000020F6
:101520004354502049443A25780D0A002DE9F041F2
:1015300015460F460446FFF76DFD7020FFF734FD9A
:10154000FFF7B4FDE0B2FFF72FFDFFF7AFFDFFF7A8
:1015500061FD7120FFF728FDFFF7A8FD00246E1E36
:1015600009E0B44201D0012000E00020FFF7E0FCD8
:101570003855641CE4B2AC42F3D3BDE8F041FFF748
:101580006FBD00002DE9F14783B00027884D8DF82D
:1015900004704FF00A0A6878864C401CC0B2B0FB59
:1015A000FAF20AFB1201B846687009B10A286FD234
:1015B0007F4881A1801CFFF7F7F84FF0010203A9D3
:1015C00008B30220FFF7B2FF9DF80C0001075FD0BF
:1015D00000F00F01287881425AD8FF228A40D1B208
:1015E000C943B4F8349041F0C001A18604EB400037
:1015F000A1894181218CC183042018F005F98DF85F
:1016000004706E4E84E048F24E16304600F04EFEF6
:101610009DF80C000106D7D5297800F00F0088420C
:10162000D2D88DF80470012201A9304600F090FF55
:10163000CAE7A18E01228240114264D05C485EA1BB
:10164000801CFFF7B1F820B35D489DF80410042218
:1016500030F811006946FFF769FF94F844009DF8DF
:101660000010C0079DF8010001F00F0139D000EB18
:1016700001219DF8040004EB400001849DF8022044
:101680009DF8031002F00F0201EB022181813AE084
:1016900058E04B489DF804100A30042230F811003D
:1016A000694600F003FE94F844009DF80110C0075D
:1016B0009DF8000000EB01219DF8040004EB4000C0
:1016C00005D081819DF802109DF8032018E0018467
:1016D0009DF802109DF8032001EB02213288511A77
:1016E000D4E700EB01203188091A9DF8040004EBCF
:1016F000400081819DF802209DF8031002F00F0246
:1017000001EB022101849DF80400401C8DF80400C7
:101710009DF80400297888428BD3A08931884FF046
:101720000108884203D8208C7188884209D99DF825
:101730000C0000F00F00012812D9E089A081608C14
:1017400020846F701A481CA1801CFFF72DF8002818
:101750009DF80C004FF6FF710FD0C00623D019E0A2
:10176000287804EB40004189A181C08B208480202F
:101770008DF80C00A4F83490E4E700F08F00802886
:1017800011D007E020F0800003E0A181218400F067
:10179000E000A0866878F02801D985F801A004B09F
:1017A0004046BDE8F087A08E0206EED5EAE70000CD
:1017B000380000204800002039313100A0160020F8
:1017C000D2F501082DE9F04115460E4604460027E2
:1017D000FFF720FC7020FFF7E7FBFFF767FCE0B2A4
:1017E000FFF7E2FBFFF762FC002408E0305DFFF743
:1017F000DBFBFFF75BFC070003D1641CE4B2AC42E7
:10180000F4D3FFF72DFC3846BDE8F0812DE9FF5FEA
:101810008346DDE90E45984691468A464FF0FF36ED
:1018200001274FF4B47004F5B47405F5B47503E002
:10183000A4F5B474A5F5B4758442F9DA002D65DD1C
:101840005A2C11DA002C00DA00245A2D01DA28462D
:1018500000E05A20CDE90040CDE9027643464A46F1
:101860005146584611F0AAF95A3C5A3D002D4DDD1B
:101870005A2C14DA002C00DA00245A2D01DA2846FA
:1018800000E05A20C4F15A01C0F15A008DE843002B
:1018900043464A4651465846039611F08FF95A3C42
:1018A0005A3D002D32DD5A2C12DA002C00DA0024C9
:1018B0005A2D01DA284600E05A200DF1040C00945C
:1018C0008CE8C10043464A465146584611F076F925
:1018D0005A3C5A3D002D19DD5A2C14DA002C00DA3E
:1018E00000245A2D01DA284600E05A20C4F15A019A
:1018F000C0F15A008DE8830043464A465146584697
:10190000039711F05BF95A3C5A3D97E7BDE8FF9FFA
:101910002DE9F0430446C56887B09046894600200B
:1019200003F08CFA064625B1287910B146F0020082
:1019300001E026F0020003F081FA2069012558B188
:10194000D4E902128DE82600039563882288046892
:1019500041464846A0471EE0124F134B21463868C7
:101960001B68427CE068984730B9E088012801D0C4
:10197000002001E03868806BA288E388A1680095A8
:10198000CDE90410CDE902320195638822884146F1
:10199000484606F019FA07B03046BDE8F04303F0B8
:1019A0004DBA0000DC010020D40100202DE9F047F1
:1019B0008146884640F2C32050434FF47A7190FB31
:1019C000F1F502FB02F002EBD27100EB6106174663
:1019D0000023414648466D1CFFF794FB012413E0A9
:1019E00004FB04F007FB0700B04206DD3B4622463D
:1019F00041464846FFF786FB7F1E3B46224641464E
:101A00004846FFF77FFB641CAC42E9DDBDE8F08788
:101A10002DE9FF4F89B0064616981F46111A181A6D
:101A200000F1010903FB07F0079009FB09F006909C
:101A30000020491C02FB02F801FB01FB1446019047
:101A40000125009047E000BF0A9805FB05FA401BFE
:101A5000401C05900A9807992844401E04900AFBF0
:101A600008F0B0FBF1F1A8EB010004F05BFCA04230
:101A700000D0641E311B03913119044602914D457B
:101A80000DDA06990AFB0BF0B0FBF1F1ABEB0100AC
:101A900004F048FC311A3044CDE9001004E003D1D1
:101AA000A6F10100CDE90006DDE90102059906F085
:101AB0008DFA009A0599039806F088FA012D09DD40
:101AC000DDE90301009A06F081FADDE901020499DB
:101AD00006F07CFA6D1CBD42B6DD0DB0BDE8F08F9E
:101AE0001CB50024019401AC009400F0E7F81CBD83
:101AF0002DE9FF4F83B0814606988A46A0EB0A087D
:101B0000109E00200090A2EB09043568934654EA29
:101B1000080018D02046FFF7BEF807464046FFF7FA
:101B2000BAF887420BDA2046444680464846D146FA
:101B300082465846DDF818B0069001200090002C2F
:101B400007DD204606E007B04846BDE8F04F00F04C
:101B50003BB96042A0420AD04846D9466442C8F127
:101B6000000883464FF0FF37DDF818A000E001279A
:101B70005148B8F1000F11D004EBD4714FEA610B5A
:101B800001DACBF1000B4C480068807E88B3002F4F
:101B900002DA30682044306000257BE0009900299B
:101BA000016821D0897E11B10027804615E007B079
:101BB0005A4649465046BDE8F04F06F0CBBA284693
:101BC0006D1C15F0A3FB38B9D8F8000009EB07012C
:101BD000406E4268504690477F1CA742EFDD6D1E65
:101BE000356007B0BDE8F08F8A7E1AB100278046C5
:101BF00017E019E0486E5A465146036807B0484658
:101C0000BDE8F04F184728466D1C15F07FFB38B92A
:101C1000D8F8001009EB0700496E4A685146904712
:101C20007F1CA742EFDDDAE700250FE008FB05B0D7
:101C300090FBF4F101EB0A00009951B11E4A09EB47
:101C400005011268526E526890476D1CA542EDDD89
:101C5000C7E7194909EB05030968496E4A68014657
:101C60001846F1E708FB05B090FBF4F101EB0A0020
:101C7000019030683844306015F048FB48B900984E
:101C800090B10D4809EB05010068406E426801986B
:101C900090476D1CA542E5DD3068002F01DA204435
:101CA0003060C01B30609CE7034909EB0500096800
:101CB000496E4A680199EBE7DC0100202DE9FF47F6
:101CC0000F4640491646804609680C981D460A7E14
:101CD000012A1CD0A8EB0600791B50EA01031CD096
:101CE000A2F1010917F044FC00F58060824604F07F
:101CF00026FB00FB09F4504604F026FB00FB09F12B
:101D0000002C0CDAC4F50070801240420AE000900A
:101D1000324639464046FFF7EBFEBDE8FF8704F543
:101D20000074A012002904DAC1F5007189124C4236
:101D300002E001F500718C12002804DD411C01EB6A
:101D4000D171491003E000EBD0714910401E00EB47
:101D5000D0704210002C04DD601C00EBD0704010ED
:101D600003E004EBD4704010641E04EBD47308EB62
:101D70000104ADF800403C18ADF80240A8EB0204A5
:101D80005B10B21AADF80440ADF808203144FC1ADB
:101D9000EA1AADF80C102844ADF80A20ADF80E0090
:101DA0000023ADF806401A460421684600F0BAF850
:101DB0003946404613F0B8F92946304613F0B4F9D5
:101DC000ABE70000DC010020064A13681A7E012AF6
:101DD00005D0521E02EBD272521000F005B85A6EB6
:101DE00052681047DC0100202DE9F05F0646884666
:101DF00040F2C32002FB00F14FF47A7091FBF0F740
:101E000002FB02F102EBD27001EB600B1446B11839
:101E1000234A301B7F1C1268526E13680A464146E3
:101E20009847012538E000BF05FB05F004FB0401DD
:101E300059451CDDBC4219DD194B06EB050AA6EB22
:101E400005091B68AAF1010208EB04015B6E09F1A8
:101E500001001B689847124BAAF10102A8EB04018C
:101E60001B6809F101005B6E1B689847641E0C4BF0
:101E70003219301B1B68924608EB05015B6E8146E8
:101E80001B689847064B5246A8EB05011B6848465D
:101E90005B6E1B6898476D1CBD42C5DDBDE8F09FB9
:101EA000DC0100202DE9FE4F98468B46074603FBD8
:101EB00008FA02FB02F6144601252EE005FB05F0A8
:101EC0007043B0FBFAF0301A04F02CFAA04200D0B4
:101ED000641E391B029139190446ABEB050000F171
:101EE00001090BEB0500401ECDE900010A464946F9
:101EF000384606F06BF87A1E4946029806F066F8F6
:101F0000012D09DD7A1E0099029806F05FF8DDE9DF
:101F10000012384606F05AF86D1C4545CEDDBDE886
:101F2000FE8F00002DE9FF4F43F6FF740F46664217
:101F300083B09B46814600210BE000BF09EB810086
:101F4000B0F90200A04200DA0446B04200DD0646C5
:101F5000491CB942F2DB67480068406900280DD08F
:101F6000B0F906101A46A1EB0B01B14200DA0E4699
:101F7000B0F90200801AA04200DD0446B4E0DFF8A8
:101F800078A100200546CAF8000088E0781E854246
:101F900001DA6B1C00E0002309EB850C09EB8302DE
:101FA000BCF90200B2F90210A04244D1A14215D1FD
:101FB00039F92330059A39F9251003EB020C4D4A03
:101FC00005981268084404EB0B01526E60451368D3
:101FD00001DA62462AE00246604627E02846A44627
:101FE0004FF000087A1E0BE008B1401E00E0781E9A
:101FF00009EB8003B3F90230634504D108F101080D
:102000009045F1DB2346A34248D01A1B39F925003D
:10201000A1EB040C059B92EA0C0F09D4354A184435
:1020200004EB0B011268526E13680246984735E0C4
:1020300010F0EAF932E0A14230D001DBA04203DD2A
:10204000A0422BDBA14229DCE04688420ADC0346A1
:10205000A04223DC0846A14220DBB8F900C0B2F957
:10206000001008E00B46A14218DCA04216DBB2F9D2
:1020700000C0B8F90010E21AA1EB0C01514300298D
:10208000A0EB030202DD01EB620102E0A1EB6201C1
:10209000491CC01A91FBF0F06044C9E76D1CBD42B9
:1020A000FFF674AF0598009004EB0B000190002040
:1020B0008046054613E01149B8F1000F31F915A02B
:1020C00009D0009901EB0A0208440A490968496EDF
:1020D0000B680199984788F0010850466D1C064925
:1020E00009688D42E7DB641CB4427FF748AF07B054
:1020F000BDE8F08FDC0100205802002038070120E5
:1021000010B5002002F07EFE6FF07F4002F085FEE9
:10211000012002F00BFF002002F016FF002002F069
:1021200023FF002002F08AFE0448006802F092FEBD
:10213000BDE81040002002F0CBBE0000D801002016
:102140002DE9F043464889B00024016841F0800140
:102150000160016801F080010791016841F480711C
:1021600001600068802600F480700296079003AA40
:1021700001250327DFF8EC9082E8B00002A9484669
:1021800004F00EF92802CDE9020502A9364804F050
:1021900007F9FEF773FEDFF8D480C8F8A0420A20E2
:1021A00017F032FBC8F8A0520A2017F02DFBCDE93A
:1021B0000264CDE9044702A9484604F0F1F864201E
:1021C00017F022FB0422694648F2401000F06EF836
:1021D0008DF80440694626A0FEF7CEF827A1684690
:1021E000FEF7E2FA90B126A16846FEF7DDFA68B183
:1021F00025A16846FEF7D8FA40B125A16846FEF74A
:10220000D3FA18B1012009B0BDE8F0831CA16846DB
:10221000FEF7CAFA10BB02208DF8000048F2400514
:1022200001226946284600F093F901226946E81D1B
:1022300000F03CF89DF80010602905D216A0FEF7CA
:102240009BF8012000F05EF90A2017F0DDFA8DF806
:10225000004001226946284600F07AF90020D2E7C2
:1022600030380240001C024000200240000044427E
:102270004354502049443A25730D0A003931310046
:1022800039313437000000003131353800000000AA
:10229000393237310000000044656661756C742086
:1022A0005665723A25640D0A000000002DE9F041E0
:1022B00015460F460446FEF7ADFE2820FEF774FED5
:1022C000FEF7F4FE200AFEF76FFEFEF7EFFEE0B227
:1022D000FEF76AFEFEF7EAFEFEF79CFE2920FEF7F7
:1022E00063FEFEF7E3FE00246E1E09E0B44201D057
:1022F000012000E00020FEF71BFE3855641CE4B20C
:10230000AC42F3D3BDE8F041FEF7AABE2DE9F14F90
:10231000784E00244FF00A0B307882B0401CC0B2D7
:10232000B0FBFBF20BFB1201734DA146307009B1FB
:102330000A2876D248F24E17012202A93846FFF742
:10234000B5FF9DF808004FF0000801060AD500F01F
:102350000F00062806D28DF80480012201A9384614
:1023600000F0F6F89DF8080001075AD000F00F00C1
:10237000062856D2FF218140C8B28DF80400C04320
:1023800095F834A040F0C000A886A889A882288CBF
:102390005A4F28854FF00109A98E09FA04F001422D
:1023A00054D057480422694630F81400FFF77EFFE6
:1023B000B888A0F5AA41103907D0A0F58641423966
:1023C00019D0A0F5864184392CD095F84400C00777
:1023D0002CD09DF800009DF8011000EB012105EBC9
:1023E000440001849DF802109DF8032001EB0221B6
:1023F000C1F548715DE095F84400C00716D19DF81D
:1024000000009DF8011000EB012105EB4400018460
:102410009DF802109DF8032001EB0221C1F588719F
:1024200047E02EE095F84400C00731D09DF8000049
:102430009DF8011000EB012105EB440081819DF81E
:1024400002109DF8032001EB02210184641CE4B218
:10245000052CA1D3A9893A884FF001092846914259
:1024600003D8018C7A88914209D99DF8081001F0AF
:102470000F0101291FD9C1898181418C298486F8E6
:1024800000809DF8080000F08F0080281DD029E012
:102490009DF800009DF8011000EB012105EB4400C0
:1024A00001849DF802109DF8032001EB0221C1F583
:1024B000F0718181CAE7818A8181018D0184802147
:1024C0008DF80810A5F834A0DBE7A88E010602D528
:1024D00020F0800005E04FF6FF71A981298400F00B
:1024E000E000A8863078F02801D986F800B0484688
:1024F000BDE8FE8F3F00002048000020A01600200D
:102500009EF6010808B500218DF800108DF8010035
:102510000E489DF80020435C491C1A44C9B28DF84E
:102520000020B829F5D3D0B2C043401C8DF800007C
:10253000B822064948F2470000F00AF8022269462C
:1025400048F2FF0000F004F8002008BDE6F501089D
:102550002DE9F04115460E4604460027FEF75AFDC8
:102560002820FEF721FDFEF7A1FD200AFEF71CFD45
:10257000FEF79CFDE0B2FEF717FDFEF797FD002485
:1025800008E0305DFEF710FDFEF790FD070003D177
:10259000641CE4B2AC42F4D3FEF762FD3846BDE8F9
:1025A000F08100002DE9F0433F4889B00024016824
:1025B00041F080010160016801F08001079101682C
:1025C00041F4807101600068802500F480700790FC
:1025D00001AA012603270095DFF8D09082E8D000F9
:1025E0006946484603F0DCFE4FF48078CDE900866A
:1025F0002F4E6946304603F0D3FEFEF73FFC002223
:102600004146304603F0BFFF0A2017F0FDF80122D3
:102610004146304603F0B7FF0A2017F0F5F8CDE940
:102620000054CDE902476946484603F0B9FE6420EC
:1026300017F0EAF8042205A948F2401000F050F81B
:102640008DF8184005A91BA0FDF796FE1DA105A851
:10265000FEF7AAF818B1012009B0BDE8F083022006
:102660008DF8140048F24005012205A92846FFF71D
:102670006FFF012205A9E81DFFF718FE9DF8141051
:10268000412905D211A0FDF777FE012000F030F9B5
:102690000A2017F0B9F88DF81440012205A9284640
:1026A000FFF756FF0020D7E730380240001C0240F9
:1026B000002002404354502049443A25730D0A0D2E
:1026C0000A000000393237310000000044656661BD
:1026D000756C74205665723A25640D0A000000007E
:1026E0002DE9F04115460F460446FEF793FC2820DD
:1026F000FEF75AFCFEF7DAFC200AFEF755FCFEF75F
:10270000D5FCE0B2FEF750FCFEF7D0FCFEF782FCF1
:102710002920FEF749FCFEF7C9FC00246E1E09E0E3
:10272000B44201D0012000E00020FEF701FC385542
:10273000641CE4B2AC42F3D3BDE8F041FEF790BCB8
:102740002DE9F14783B000268DF80060644C4FF00E
:102750000A0A644D20783746401CC0B2B0FBFAF23A
:102760000AFB120120704FF6FF7909B10A287DD2C9
:1027700048F24E18012203A94046FFF7B1FF9DF829
:102780000C0001060AD500F00F000B2806D28DF8C8
:10279000006001226946404600F0D0F89DF80C0028
:1027A000010775D000F00F000B2871D209FA00F173
:1027B000C843B5F8348040F0C000A886A889E883F3
:1027C000288C68868DF8006047E0A88E9DF8002070
:1027D0000121914008423BD043499DF80000062268
:1027E00031F8100001A9FFF77BFF95F84400C007FE
:1027F00016D09DF806109DF8070001EB00209DF80B
:10280000001005EB410108849DF804009DF80510B7
:1028100000EB01209DF8001005EB4101888117E0D5
:102820009DF806009DF8071000EB01209DF80010B0
:10283000C0F5487005EB410188819DF804009DF8C2
:10284000051000EB01209DF8001005EB4101088404
:102850009DF80000401C8DF800009DF800000A283B
:10286000B3D322480127A989028800E010E09142F1
:1028700003D8298C4088814209D99DF80C0000F0CA
:102880000F0001280BD9E889A881688C288426705C
:102890009DF80C0000F08F0080280AD016E0E88B2D
:1028A000A881688E288480208DF80C00A5F83480DB
:1028B000EEE7A88E010602D520F0800005E0A5F81D
:1028C0000C90A5F8209000F46040A8862078F028AD
:1028D00001D984F800A004B03846BDE8F0870000B4
:1028E000900000204800002072F70108A016002088
:1028F00008B500218DF800108DF801000E489DF8F4
:102900000020435C491C1A44C9B28DF80020B82944
:10291000F5D3D0B2C043401C8DF80000BA2206495E
:1029200048F2470000F00AF80222694648F2FF0028
:1029300000F004F8002008BDB8F601082DE9F041C8
:1029400015460E4604460027FEF764FB2820FEF7D6
:102950002BFBFEF7ABFB200AFEF726FBFEF7A6FBE0
:10296000E0B2FEF721FBFEF7A1FB002408E0305D9A
:10297000FEF71AFBFEF79AFB070003D1641CE4B2D2
:10298000AC42F4D3FEF76CFB3846BDE8F0810000A2
:102990002DE9F04FDFF828B191B04FF0FF35DBF8AB
:1029A0000030B3F922100691DE69B3F92490F4697E
:1029B000A189814206D8E289824203D3471AD4F81A
:1029C000008012E0D4E9018100296FD00A88824298
:1029D0006CD84D88854269D3801A82B2486800EB72
:1029E0008200B0F90070B0F90250781C5ED0307EE1
:1029F000A17C10FB01FA217CCDE90701B3F92A6023
:102A0000304606F05DF9C0B20E90DBF8000007FB1F
:102A10000A81A37C826B0127CDE90412CDE9027300
:102A2000C069089AC17E807ECDE90001DDE9060318
:102A3000494605F0C9F9681C18D046F0020006F0B6
:102A40003FF9DBF80000A37C05FB0A81826BCDE92E
:102A50000273CDE90412C069089AC17E807ECDE977
:102A60000001DDE90603494605F0AEF9DBF8000098
:102A70005D46C069417E007E814214D9022E12D08B
:102A800086F0040006F01CF92868C069027EC37E47
:102A900012FB0391437E857E089A06984B4412FBF5
:102AA000050205F07BFC0E9806F00AF9DBF8000041
:102AB000627C418C1144418411B0BDE8F08F00006C
:102AC000DC01002004480068C069C06909B1027CCB
:102AD0000A60407C70470000DC0100200220088072
:102AE0007047C06982898A4202D8C2898A4210D25C
:102AF000806880B102888A420DD843888B420AD30D
:102B0000406800EB8100A0EB8200B0F900000028D3
:102B100001DB012070470020704700002DE9F043E1
:102B2000304C034687B020681946B0F92A60C06966
:102B3000C06900F086F8002850D041680088181A53
:102B400001EBC0053046AF7806F0BAF88146206840
:102B50006A680123816BCDE90237CDE90421C1699F
:102B6000CB7E8A7ECDE900230B7EB0F924102A7833
:102B7000B0F9220005F028F92068C069417E027E84
:102B800091421FD9C07E11FB00F812FB00F7022E04
:102B900018D001F057F9064601F022F902F03DF98C
:102BA00021682A78CB69B1F92200DB7E12FB03028F
:102BB000B1F9241001EB0803394405F0EFFB30466E
:102BC00002F02BF9484606F07BF820686A78C36962
:102BD000B0F922109B7E12FB0311418407B0BDE8BF
:102BE000F0830000DC01002030B50F4C05460B4699
:102BF00020682946C069C06900F023F8002812D077
:102C00004168008824682A1A0120E46900EBC200A8
:102C1000085CA47E10FB04F0002B04D011F83210E5
:102C200011FB04F1196030BDDC0100200120088097
:102C3000704700B5C06900F004F8002800D00120FA
:102C400000BD06E002888A4202D842888A4202D247
:102C500080680028F6D1704770B50025124C19E045
:102C600020691249C5EB051600EBC6007022096801
:102C7000001DFDF738FD2069002140F8361000EBFB
:102C8000C60000F10C018161011D0A1DC0E90F128F
:102C90006D1C4164A0688542E2DB01F07FF9BDE86C
:102CA000704002F0A1BC000004030020DC01002001
:102CB00070B50F490D480860084603F0ADFA0C4C9A
:102CC000143CA068C0EB0010C500284600F06AF86C
:102CD0002A460021206103F0E1FA4FF0FF30206026
:102CE00002F0D2FCBDE8704013F000BCA96C0108F2
:102CF0001803002010B5040009D001F04FF9204658
:102D00000FF0E6FB044602F06FFC204610BD0020E9
:102D100010BD38B5054601F041F92846FFF7EAFF36
:102D2000040009D000F0BEF82A460021009003F00C
:102D3000B5FA684600F0F4F802F056FC204638BDBB
:102D4000024A106021F00300506070479406012091
:102D500010B5040016D001F021F90B48406B10F8B3
:102D6000341059B1022909D2042101EBC4014158A0
:102D700048680FF065FB204614F0AEF8BDE810403F
:102D800002F032BC10BD0000D4050120002805D09F
:102D9000034AD16B016001B14860D0637047000005
:102DA000D40501202DE9F041044613F09FFD284889
:102DB000E41C24F00305016C2D1DA94200D90D4629
:102DC000C46B13E054F8042CAA420ED184B12168DC
:102DD00009B162684A60616809B122680A60C26B21
:102DE000A24231D12168C1632EE02468002CE9D1D0
:102DF0008046816BC0680F1857F8040C3E1A306883
:102E000038B1002014F01CF957F8040C3E1A306851
:102E1000D0B97068A84217DB3044441B3046241DEB
:102E200014F0C6F8D8F80C10491BC8F80C10D8F8E4
:102E300014102944C8F814107068401B02D03146A1
:102E40000FF0FEFA44F8045C2046BDE8F081000073
:102E5000D405012010B5002413F048FD0C490F20C3
:102E600001EBC002526C1AB101EBC000406C08E0EB
:102E7000401EF5D508E04168A14200D90C468068A3
:102E800010B180680028F6D1A4F10C0010BD00003C
:102E9000D405012002488169491C81617047000006
:102EA000D40501200549CA69521CCA61496B01EB6E
:102EB000C0010A78521C0A7000F04AB8D4050120FB
:102EC00010B501F06BF8FFF7C5FF64220849B0F5B3
:102ED000800F04D990FBF2F4086A444303E0096AC6
:102EE0004143B1FBF2F402F07FFB204610BD00002D
:102EF000D40501200549102805D94A68B0EB520FC6
:102F000002D3500800E0102088607047940601202A
:102F100002488169491E816170470000D405012083
:102F20000A4902684B6B52F8082C03EBC202137873
:102F3000022B03D3CB690BB15B1ECB611178491E09
:102F4000117000210160084670470000D40501207F
:102F5000002806D00349042202EBC000496B085840
:102F600008307047D40501202DE9FC5F89460446EE
:102F700001F014F8484600F071FF2C4E09EB890768
:102F8000824656F82700019029484FF00108016851
:102F900041B92749C0F80080091D26480860084645
:102FA00003F03AF9214A09EB89015FEA0A0002EBD2
:102FB00081051BD001F0CEFE83464FF07F4001F02B
:102FC00021FF00F0B9F800221146206800F0D6FA7F
:102FD000206842880188504601F05CFF46F827408F
:102FE00085F80580584601F0B5FE17E046F8274001
:102FF00085F805802869464618B101F0DBFD002000
:10300000286174B10096E868A1684B46421AA86826
:103010006168411A206801F027FE2861484614F0D3
:1030200035FD02F0E1FA0198BDE8FC9F1007012090
:1030300020020020156C010870B514460D460646A6
:1030400000F0ACFF204600F009FF0300174804EB36
:10305000840109D050F8210041688068711A2A1A49
:10306000184601F007FF1CE000EB8104A268B242A1
:1030700001D0012200E00022E368AB4201D001232D
:1030800000E000231A430CD0236943B150F821001B
:10309000816840686A1A311A184601F0B0FDC4E927
:1030A0000265BDE8704002F09FBA000010070120E1
:1030B00002480068407C00F003B80000DC010020FA
:1030C00010B5044600F06AFF0A4804EB840100EBE7
:1030D000810301225A7150F8210030B1204614F0CA
:1030E000D5FCBDE8104002F07FBA21460248FFF748
:1030F0003BFFF6E710070120A85A020810B5C2B23C
:10310000CBB2D21A00D5524293B25B43C0F307222E
:10311000C1F30724121B00D55242000C92B2A0EB5F
:10312000114002FB023200B2002801DA404200B234
:1031300080B200FB002010BD10B50021084600F051
:10314000FFFE43F6FF725042BDE8104013460146B1
:10315000AFF300802DE9FC411C4615460E4607469C
:1031600000F01CFF042005F0ABFD80461248C0684B
:10317000C16C006D0F4406440D440444ADF800706A
:10318000ADF80450ADF80260ADF8064068460EF0A8
:1031900001FD07E023462A463146384605F0FEF891
:1031A0000EF0BAFC0028F5D1404605F089FD02F08A
:1031B0001BFABDE8FC810000D00100202DE9F041A0
:1031C0001C4616460D460746022B02DB0020BDE8D2
:1031D000F0811C20FFF7E6FD0028F8D00DB1056155
:1031E0000AE0094A52F8241009B905E011460A68B4
:1031F000002AFBD109690161846186820021016096
:103200004160C0E90217E2E7F401002070B51D46F5
:10321000FFF7D4FF040009D000F00EF8E068006862
:1032200020B90348006800EB85008465204670BD26
:10323000DC010020FFF7AABD70B590B38269022AB5
:1032400030DA1E4C54F8221019B944F8220032E04A
:1032500019464B68002BFBD106E0CB68C5681B689C
:103260002D68AB4203DD09680029F6D11AE0C1B12F
:10327000CB68C6681B683668B3420CD1838A012BC1
:1032800005D008E01946DB681B68AB4203DB0B681E
:10329000002BF7D129B14B6833B118604A684260FE
:1032A00004E0FFE7012070BD44F822004860884236
:1032B00000D100210160002070BD0000F401002059
:1032C00010B503E00468FFF7B7FF20460028F9D1E6
:1032D00010BD14F06FBE00002DE9F0410026DFF8AC
:1032E00034800D4F354600BF58F8254009E0E068AE
:1032F0000068385C20B1204614F05CFE266026464B
:103300002468002CF3D16D1C022DEDDB3046BDE8A6
:10331000F0810000F401002080F80108022801DBA0
:1033200000207047054A52F8200004E0C268126885
:103330008A42F6D000680028F8D17047F4010020D6
:10334000022801DB00207047054951F8200004E005
:10335000C16809680029F6D000680028F8D17047D4
:10336000F40100202DE9F041044602F077F9061936
:103370001EE000BF00F0FBFB052F00DD052700F07D
:103380000DFE11480568FFF785FD2C0017D000BF22
:1033900002F02AF9641EFBD1384602F043F91DB150
:1033A00000F0FCFD6D1EFBD1FFF7B2FD02F01CF931
:1033B00002F054F9371A002FDCDCBDE8F081384602
:1033C00002F030F9F0E70000100300202DE9FC477F
:1033D00006005FD000F0E2FD00F04AFD3C4C814663
:1033E0002068B0F9228000F07DFD216807468A8CB4
:1033F000D01B888441E000BF47F6FF71304602F0E1
:10340000C9FD82460146304602F09AFD2168054614
:1034100091F82C0000F00300012841D002283BD095
:1034200000204A8C101A4884ADF800006A1E10442F
:10343000ADF80400888CADF80200A9F10101084440
:10344000ADF806006A465146304602F0DFFA2168C0
:10345000BDF8020088845146304601F0B3FF0644AF
:1034600030780A281ED00D281CD0BDF80000216835
:1034700028444884307818B1761C30780028BBD1B5
:103480002068818C39448184818D21F003018185FC
:1034900002F0AAF8BDE8FC8705EBD5704010C0E744
:1034A0002846BEE7206890F82C1001F0030101299E
:1034B0000BD0022909D0018C418431780A29D9D155
:1034C000828C02EB09018184D4E7A0F82280F4E722
:1034D000DC01002070B514460D46064600F05EFD86
:1034E00005480068458484843046FFF76FFFBDE8D7
:1034F000704002F079B80000DC0100202DE9F041B5
:1035000007460A4815460E460068B0F92C0040F000
:10351000020001F019FD04462A4631463846FFF7FD
:10352000D9FF2046BDE8F04101F00EBDDC010020CE
:103530002DE9FC479846DDE90A7691460C4605469A
:1035400000F02CFD0C480068C16C006D0D44044473
:1035500000200EF01FFB09E0CDE9007643464A4605
:1035600021462846FEF752F90EF0D6FA0028F3D18C
:10357000BDE8FC4702F038B8DC0100207CB51446F9
:103580000D46064600F00AFD11480068C16C006D4A
:103590000D4404443188681E0844ADF80400ADF8B9
:1035A00000507188601E0844ADF80600ADF8024076
:1035B00068460EF0EFFA06E0224629463046FEF74E
:1035C000A7F90EF0A9FA0028F6D102F00DF87CBD9B
:1035D000DC0100207CB514460D46064600F0DEFCFA
:1035E00010480068C16C006D0E440544301BADF8F6
:1035F00000003019ADF80400281BADF802002819AE
:10360000ADF8060068460EF0C5FA06E022462946E7
:103610003046FEF7CBF90EF07FFA0028F6D101F024
:10362000E3FF7CBDDC0100202DE9FE431E4615466C
:103630008946074600F04AFC0446401C05EB50054D
:1036400006EB5006A54235DBA64233DB00F0A6FCB4
:1036500019480168C86C096D00EB0708A8EB050064
:10366000ADF8040008EB050001EB0907ADF8080010
:10367000B81BADF80600B819ADF80A0001A80EF0A5
:1036800089FA13E0AC4201D0B44206D133462A464F
:1036900039464046FEF706FC06E033462A463946E0
:1036A00040460094FEF7B4F90EF036FA0028E9D14E
:1036B00001F09AFFBDE8FE83DC0100202DE9F04F08
:1036C00087B09B46DDE9109892460C46054600F00F
:1036D00065FC16480168C86C096D47190E1900EBA6
:1036E0000A0501EB0B04ADF81070ADF81450ADF8FD
:1036F0001260ADF8164004A80EF04CFA88B1DFF85D
:1037000030B04FF0000ACDE90098CDE902BA2B465F
:1037100022463946304611F02FFA0EF0FDF9002806
:10372000F1D101F061FF07B0BDE8F08FDC010020AE
:10373000558100082DE9FF4F87B09346DDE91598C4
:103740000C460546DDF850A000F028FC164801683C
:10375000C86C096D471900EB0B050A980E190C1877
:10376000ADF81470ADF81850ADF81660ADF81A4009
:1037700005A80EF00FFA90B14FF0000B0B49CDE900
:1037800000A9CDE902812B462246CDF810B039467A
:10379000304611F0B0FA0EF0BFF90028EED101F07A
:1037A00023FF0BB0BDE8F08FDC010020558100083D
:1037B0002DE9FF4F87B09346DDE915980C46054685
:1037C000DDF850A000F0EAFB16480168C86C096DEE
:1037D000471900EB0B050A980E190C18ADF8147078
:1037E000ADF81850ADF81660ADF81A4005A80EF007
:1037F000D1F990B14FF0010B0B49CDE900A9CDE90A
:10380000028123462A46CDF810B03146384611F0E1
:1038100072FA0EF081F90028EED101F0E5FE0BB04E
:10382000BDE8F08FDC010020CD7F00082DE9F04FCE
:1038300087B09B46DDE9109892460C46054600F09D
:10384000ADFB16480168C86C096D47190E1900EBED
:103850000A0501EB0B04ADF81070ADF81450ADF88B
:103860001260ADF8164004A80EF094F988B1DFF8A4
:1038700030B04FF0010ACDE90098CDE902BA2346F5
:103880002A463146384611F077F90EF045F90028FE
:10389000F1D101F0A9FE07B0BDE8F08FDC010020F6
:1038A000CD7F00082DE9F0411C4615460E4607461F
:1038B00000F074FB0B480068C16C006D0D440444BB
:1038C00000200EF067F907E023462A4631463846C5
:1038D00011F094FA0EF020F90028F5D1BDE8F0417E
:1038E00001F082BEDC0100202DE9F0411C461546A6
:1038F0000E46074600F052FB0C480168C86C096D83
:10390000074405440E440C4400200EF043F907E040
:1039100023462A4631463846FEF7E2F80EF0FCF818
:103920000028F5D1BDE8F04101F05EBEDC010020C9
:1039300070B50C46054600F031FB0B480068C16CC1
:10394000006D0D44044400200EF024F905E02146EA
:103950002846FEF739FA0EF0DFF80028F7D1BDE867
:10396000704001F041BE0000DC0100202DE9FC4167
:103970001C4616460D46074600F010FB1A48016823
:10398000087ECA6C096D17440D440C44401E391A58
:103990001644ADF800103118ADF80410291A20446F
:1039A000ADF80600ADF8021068460EF0F3F815E029
:1039B00032462946384604F009FB3246214638464D
:1039C00004F004FB621E691C384604F0C3FB621E4F
:1039D000691C304604F0BEFB0EF09EF80028E7D1CB
:1039E00001F002FEBDE8FC81DC01002070B51B4C3B
:1039F00005466069E0B904F12401194808600846E9
:103A000002F00AFC012001F0C1F9C0B201F0BEF9D8
:103A1000144900231A4601F11800FFF7CFFB60613B
:103A200004F041FDC01DC008E061FFF7BBF9206153
:103A30000D4955B1E06808B1012070BD0A68E26027
:103A4000084A00204C320A6070BDE26822B10120B1
:103A50000A600021E16070BD002070BD2C020020D2
:103A60002D6C0108CCF80108280300202DE9F04353
:103A70001D462DED028B85B090460E46074600246C
:103A80006DE0024623463146684612F04DFD02A81D
:103A9000631C42463146814612F046FD684613F0EB
:103AA00054F8484613F051F89DED000ADDED020A86
:103AB00070EE208ACDED008A9DED010ADDED030A4E
:103AC00030EE208A28EEA80AF6EE000A8DED018A73
:103AD00008EE080A20EE200A10EE100A17F056F938
:103AE00041EC100B15F0F0F851EC100B16F056FBF2
:103AF00000EE100AB5EEC00AF1EE10FA0BDDC8EECA
:103B0000800A80EE801AC8EE000A8DED001A80EE61
:103B1000801A8DED011A00EE105ADDED010AB8EEA3
:103B2000C00A20EE800A15F0AFFD00EE105ADDED60
:103B3000000A8146B8EEC00A20EE800A15F0A4FD06
:103B400036F82420414202EB090027F8240006EB56
:103B500084004088084407EB8401641C4880404688
:103B600044458EDB05B0BDEC028BBDE8F08310B59B
:103B7000002400E0012400F005F80028FAD12046D6
:103B800010BD0000094810B50068002410B180473E
:103B900000B101240DF082FA00B10124044800684C
:103BA00010B1804700B10124204610BD0002002062
:103BB000FC01002070B516460C46054600F0EEF9F3
:103BC0000B480068C16C006D0D44044400200DF0EA
:103BD000E1FF06E0324621462846FEF705F90DF0E2
:103BE0009BFF0028F6D1BDE8704001F0FDBC00004D
:103BF000DC0100202DE9FC411D4614460E46074617
:103C000000F064F9401C04EB500405EB500500F093
:103C1000C5F912480068C16C006D0F440644381B9A
:103C2000ADF800003819ADF80400701BADF80200C3
:103C30007019ADF8060068460DF0ACFF07E02B46A2
:103C4000224631463846FEF72DF90DF065FF002873
:103C5000F5D101F0C9FCBDE8FC810000DC010020C9
:103C60002DE9FC471D4616468846814600F096F928
:103C7000164C2068C16C006D0E44054400200DF008
:103C800089FFF0B1124F20681121407C57F82000C5
:103C90000190C068426A01A890475FEA000C06D014
:103CA00033464246494600950198E04705E02B46D9
:103CB000324641464846FEF735F90DF02DFF002803
:103CC000E1D101F091FCBDE8FC870000DC0100209F
:103CD000F40100202DE9FC411C4615460E4607461E
:103CE00000F05CF910480068C16C006D0F44064498
:103CF0000D440444ADF80070ADF80450ADF8026016
:103D0000ADF8064068460DF045FF07E023462A4619
:103D10003146384604F042FB0DF0FEFE0028F5D196
:103D200001F062FCBDE8FC81DC01002008B50B4617
:103D3000002805D0009281888268C08800F001F8D0
:103D400008BD10B50828029C30D008DC04FB01F443
:103D500001280AD0022813D0042804D11CE010281E
:103D600028D020282CD0002010BD04EBD30003F075
:103D70000701105CC1F10701C84000F0010010BD4F
:103D800004EB93000621105C01EA4301C1F1060136
:103D9000C84000F0030010BD04EB5300D907105CCD
:103DA00002D000F00F0010BD000910BD04FB01306F
:103DB000105C10BD481004FB003032F8100010BD3C
:103DC000881004FB003052F8200010BD034951F860
:103DD0002000C1688A6A082110470000F401002011
:103DE00010B500F0DBF804F009FB04F0A1FB044679
:103DF00001F0FAFB204610BD10B5044600F0CEF8E5
:103E0000054800210068C069426820469047044682
:103E100001F0EAFB204610BDDC01002070B50C4625
:103E2000054600F0BBF8064821460068C0694268B4
:103E300028469047044601F0D7FB204670BD00009D
:103E4000DC01002010B500F0A9F804F0DFFA04F05E
:103E50006FFB044601F0C8FB204610BD002102287C
:103E600002D2024951F8201008467047FC02002097
:103E700010B500F093F804480068C069447E01F072
:103E8000B3FB204610BD0000DC01002070B51446D5
:103E90000D46064600F082F822462946304604F0D8
:103EA000E9FA10B1002028602060BDE8704001F000
:103EB0009BBB70B50C46054600F070F821462846BD
:103EC00002F084F8BDE8704001F08EBB10B500F040
:103ED00065F803480068047E01F086FB204610BDAB
:103EE000DC01002010B5002400F058F80B480068F1
:103EF00090F82C1001F00C01042904D0082906D0F8
:103F00000C2907D103E0C069047E641E02E0C06989
:103F1000007E440801F068FB204610BDDC01002053
:103F2000024951F82000006900687047F401002040
:103F3000024951F82000006940687047F4010020F0
:103F400070B50D46044600F029F8204612F012FB29
:103F50000446284612F016FB044301F045FB2046B8
:103F600070BD000010B501F07BFC0A492E200870DE
:103F700001F07AFB084812F06BFC04F0FFFA0446EB
:103F80000021084600F0B2FF0DF0CCFAFEF764FE07
:103F9000204610BDD0010020A006012070B5184CAD
:103FA000E06820B101F052FB6168884204D001F062
:103FB00089FB01F04BFB6060E068401CE060012879
:103FC0001CD112F093FA05462068854216D00028CD
:103FD00013DBFFF781F901462068C0EB001220696E
:103FE00000EBC2025167C5EB0511064A00EBC100A8
:103FF000011D1160406FFFF763F9256070BD00007F
:1040000004030020DC0100201CB5040004D10E488C
:104010000068046E002C16D0FFF7C0FF2046FEF7A4
:1040200041FF009044696846FEF77AFF4CB1204694
:10403000FEF738FF019081688968884701A8FEF77C
:104040006FFF01F0D1FA1CBDDC01002001490A46D6
:1040500000F002B801F0FFFF2DE9F04387B01546EC
:104060000C465FEA000846D0FFF798FF002000F0FA
:10407000E5FE814621480068066E4046FEF712FFC5
:1040800000900068806900F065FE074640F6FF700A
:10409000C44204D10098B0F90440B0F90650009829
:1040A000611E0289ADF804401144ADF80810418941
:1040B000681E0844ADF80650ADF80A000CF03AFE50
:1040C0006846FEF72DFF01A80DF064FD06E02A46C4
:1040D0002146404600F0D6FB0DF01EFD0028F6D12B
:1040E000384600F037FE304600F0D8F9484600F078
:1040F000A5FE01F079FA07B0BDE8F083DC010020ED
:104100002DE9FE4F984691468A46834600270C9E2D
:10411000FFF744FF184819490068407C51F82040D7
:10412000E1680968042903D02468002CF8D100E074
:104130001CB9FFF705F904001BD0E0680121C26A31
:1041400020469047050011D02469A0688047401C94
:1041500002D10B4C46F001060096CDE901544346CE
:104160004A465146584600F02DFA074601F03CFAFF
:104170003846BDE8FE8F0000DC010020F40100207D
:10418000A478020838B504001CD0FFF707FF0E48DA
:104190000068006EA04201D100F0CEFD2046FEF77F
:1041A00081FE0090406908B101F007FA00980068AC
:1041B000FFF740F86846FEF7B3FE2046FEF7C8FD5D
:1041C00001F012FA38BD0000DC0100202DE9FF4F9C
:1041D000DFF83891074683B0D9F800009A468B463D
:1041E000447C4B4800570128204606DD04F06AF95C
:1041F0000546204604F072F905E004F051F9054641
:10420000204604F053F904461FB302A901A8FFF7A2
:1042100050FEB7F90000002800DA0020B7F902606C
:104220008046002E00DA002601984119B7F90400F3
:10423000491E12F02FFC054602980119B7F9060035
:10424000491E12F027FCA5EB0802841B521C641CBB
:1042500003E04FF0000846462A46BAF1000F01D1AC
:10426000C4F1000A002A4FDD002C4DDD10980090AB
:10427000534631464046FFF743FF5FEA000A10D03D
:1042800000F0C6F80746A04206D0D9F80000806CBE
:1042900010B132210DF0F6FF504600F0FFF8002576
:1042A00021E0594605988847012007B0BDE8F08F06
:1042B000611BB94202DA504600F0D4F83DB17219E0
:1042C0004146504600F012F95046FFF79DFE594610
:1042D000059888470F48016809B100208847504673
:1042E000FFF7B4FE3D44A542E2DB5046FFF74AFF2C
:1042F000002000F0D3F8A74206D0D9F80000806C67
:1043000010B133210DF0BEFF0020CEE7DC0100200C
:10431000140200204003002038B505004FF00004CF
:1043200011D0FFF73BFE2846FEF7BCFD0090006869
:1043300000698068804704F0DFFF04466846FEF7A6
:10434000EFFD01F051F9204638BD38B504000ED01C
:10435000FFF724FE2046FEF7A5FD00F118040090AB
:104360006846FEF7DDFD01F03FF9204638BD00202C
:1043700038BD000038B504460025FFF70FFE1CB914
:1043800008480068046E44B12046FEF78BFD00909B
:10439000B0F904506846FEF7C3FD01F025F9284640
:1043A00038BD0000DC01002038B504460025FFF7C9
:1043B000F5FD1CB908480068046E44B12046FEF7BC
:1043C00071FD0090B0F908506846FEF7A9FD01F0B4
:1043D0000BF9284638BD0000DC01002038B5044642
:1043E0000025FFF7DBFD1CB908480068046E44B1E6
:1043F0002046FEF757FD0090B0F906506846FEF7DC
:104400008FFD01F0F1F8284638BD0000DC010020E6
:1044100038B504460025FFF7C1FD1CB908480068FF
:10442000046E44B12046FEF73DFD0090B0F90A50FD
:104430006846FEF775FD01F0D7F8284638BD000044
:10444000DC01002070B50546002428460EF072FA03
:10445000641C18B1BDE8704000F07AB8052CF4DB9C
:1044600070BD000038B50C46050004D10A4800684C
:10447000056E002D0FD0FFF791FD2846FEF712FDC7
:104480000090B0F90A10A14200DD44816846FEF7B1
:1044900047FD01F0A9F838BDDC010020F8B505465C
:1044A000FFF77CFD104E3068046ECDB10CB100F00A
:1044B00043FC0CF033FD2846FEF7F4FC0090316815
:1044C0000D660068FEF7B8FE6846FEF729FD04F0A9
:1044D0003DFD04F05DFB00BF01F086F82046F8BD0D
:1044E00000F02AFCF8E70000DC0100207CB515464E
:1044F0000E46040004D115480068046E002C24D038
:10450000FFF74CFD2046FEF7CDFC2DB20090C58094
:1045100034B2848004F03CFB0098406980B1FEF71F
:10452000C1FC009A0190B2F908108180B2F90A200A
:10453000C28011B10AB10480458001A8FEF7F0FCE9
:104540006846FEF7EDFC01F04FF87CBDDC01002071
:1045500001490A4600F002B801F0FFFF7FB5154699
:104560000C4606002DD0FFF719FD3046FEF79AFCE9
:1045700040F6FF710190CC4203D1B0F90440B0F98C
:1045800006500289611E1144ADF80840ADF80C10C8
:104590004189681E0844ADF80E00ADF80A5001A824
:1045A000FEF7BEFC02A80DF0F5FA06E02A46214609
:1045B000304600F04FF90DF0AFFA0028F6D101F0C7
:1045C00013F87FBD2DE9FF4FDFF8E8B083B01C463C
:1045D000DBF80010DDE9106092464FF000084B7CDC
:1045E00042461299FEF7EAFD050060D0286980680E
:1045F000804704F081FE81460AFB09F1C91DCF08FE
:10460000FEF75EFCF10705D1C11700EB9170801039
:1046100000EB4000002C09DC1FB11838B0FBF7F0AC
:1046200000E000206442A04200DC0446F00707D10D
:104630000090DDE903012346524600F043FF804627
:10464000002C03DC2846FEF7F5FD30E004FB07F004
:104650001830F10702D0FEF74DFB01E0FEF759FBE1
:1046600006001CD0FEF71EFC0190056003998180B6
:104670000499C180A0F808A04481C0F81480C0E962
:10468000037901A8FEF74CFC1298AE602861DBF8B4
:104690000000407CA861304607B0BDE8F08F284696
:1046A000FEF7C8FD5FEA080001D0FEF751FB0020CD
:1046B000F2E70000DC0100200149086070470000BB
:1046C000400300202DE9F74F8EB0144689460E981E
:1046D000FEF7E8FB0990B0F908B0B0F90A6000688D
:1046E000006940680C9009A8FEF71AFC564D574F18
:1046F0002868407C57F82000C1688A6A08219047E2
:104700000790182801D3202007902868407C57F88C
:1047100020000069069003C80B904D48814201D0EB
:10472000012000E000200A90002000F0E3FF0028B4
:104730007DD1286809EB0B01B0F90C20891A491EBC
:10474000002902DDABEB010500E05D46B0F9081081
:10475000494505DDA1EB090189446D1A089101E085
:1047600000210891002D6BDDB0F90E20A119891AE6
:10477000491E002902DDA6EB010800E0B046B0F9B1
:104780000A00A04204DD061B3444A8EB060800E042
:104790000026B8F1000F53DD089801900DA95F467F
:1047A000DDF830A00E980091FFF7CFFD774300EBC6
:1047B000870101982B4601EB800200994846CDE91C
:1047C00000A1214601F07AF90090002838D00A981B
:1047D000E8B1DDE906322946009801F03BF8B0B9AE
:1047E0000698009FDA46D0F810C0BCF1000F05D043
:1047F00004235A4639463846E04708E00B993868A2
:10480000884701C7AAF101005FEA000AF6D10099C2
:104810000020079ACDE90301059001200090CDE921
:10482000010221460346641C2A46484600E007E090
:1048300003F0CAFAA8F10100761C5FEA0008ABD1C8
:1048400011B0BDE8F08F0000DC010020F401002071
:104850004F850008F8B515460E460746FEF722FBC1
:10486000009000681621C068426A00209047044604
:104870006846FEF755FB002C03D02A4631463846E1
:10488000A047F8BDF8B516460F46050012D0FEF752
:1048900009FB009044696846FEF742FB2846FFF793
:1048A0003BFD0346082800DD2CB132463946284638
:1048B00013F0A0FBF8BD32463946284613F03AFD06
:1048C000F8BD000002480068407C00F003B800001A
:1048D000DC010020F8B51D49096809B1002200E09B
:1048E00002461B498D56012D2EDD1849143151F811
:1048F00022305B1C41F82230012B25D1A1F10803A5
:104900000026103953F8224051F8221053F8227033
:104910007F1C43F82270AF4201D143F8226053F864
:1049200022708F42F2D03D46FEF70AFD009000282B
:104930000AD0C0682121426A68469047030003D02C
:104940002A46214600989847F8BD0000D80200206A
:104950001402002002480068407C00F003B8000008
:10496000DC01002038B51449096809B1002200E0D3
:1049700002461249895601291CDD0F49143151F8AC
:1049800022305B1E41F8223014D1083951F8224000
:10499000103141F82240FEF7D3FC0090002809D0E6
:1049A000C0682221426A68469047020002D0214630
:1049B0000098904738BD0000D80200201402002063
:1049C00070B500240DE000BF31F8245000EB8406E0
:1049D0005D4320F8245001EB84056D885D437580AC
:1049E000641C9442F0DB70BD10B5002821D009B3DF
:1049F0000AB3B1F90040B2F900309C4200DA234614
:104A00000380B1F90240B2F902309C4200DA234639
:104A10004380B1F90440B2F904309C4200DD2346E2
:104A20008380B1F90610B2F90620914200DC1146EC
:104A3000C18010BD11460A6802604968416010BD1E
:104A400000280BD003880B4403808388194481809D
:104A5000418811444180C1881144C18070470000E1
:104A600070B50E4D0446D5E90001884209D10C49C4
:104A7000884201D13C3000E00C3807C884E80700C8
:104A800006E090E80E0084E80E0011F091FD286029
:104A9000207A002800D0012070BD0000F40300201F
:104AA000240801200448D0E90010814201D10120EE
:104AB0007047002070470000F4030020054A10B53D
:104AC0000349116013F0F4F8BDE8104000F05CBA3F
:104AD000AD1101080402002070B50025FFF75EFA51
:104AE000094CD4E9002082420AD0D2E9005610468F
:104AF00011F068FD2060314628460CF021FE0125AA
:104B000000F072FD284670BDC40300202DE9FC4171
:104B1000154DDDE908742D68B5F90860864200DDA1
:104B20003046B5F90C60964200DA3246824219DB13
:104B3000B5F90A608E4200DD3146B5F90E509D424E
:104B400000DA2B468B420DDB00E02C46E5682D6831
:104B500025B1042D02D02568002DF6D1CDE90074D1
:104B600003F006FEBDE8FC81DC010020B0F9022064
:104B7000B1F906309A4213DCB1F90220B0F90630DF
:104B80009A420DDCB0F90020B1F904309A4207DCFA
:104B9000B1F90010B0F90400814201DC0120704736
:104BA000002070470146024870220068FBF79BBD59
:104BB000DC01002038B5040020D0FFF7EFF92046D3
:104BC00013F04EF9204613F0C1F92046FEF76AF9BA
:104BD00000900068FEF7DAF80098C068FEF7B8F8B1
:104BE0000098C069FEF7B4F86846FEF799F92046C8
:104BF000FEF7AEF8BDE8384000F0F6BC38BD70B541
:104C000015460E4604000AD0FFF7C8F92A46314679
:104C1000204612F0D1FCBDE8704000F0E5BC70BD4C
:104C200038B504001ED0FFF7B9F92046FEF73AF96F
:104C30000090007C800710D4204611F0EBFE6846FF
:104C4000FEF76EF9204612F03DFF2046FEF72AF9E6
:104C50000090018A41F0020101826846FEF760F986
:104C600000F0C2FC38BD00002DE9F843044600887E
:104C7000089F91468846E8B36088D8B3E06818B1C9
:104C8000806800283BD002E0E088202836D107F079
:104C9000010200212348FEF791FA05002ED020885A
:104CA000860060884643FFF779F906F12000FEF799
:104CB00030F8060025D03046AE60FEF7F3F80090DD
:104CC00007824461A0F80480A0F80690238808EBCE
:104CD0000301491E018161884944491E41810560E3
:104CE0006846FEF71DF9E06878B1214630460DF0C0
:104CF00023FF00E002E040B100F076FC0020BDE8B8
:104D0000F8832846FEF796FAF6E7B80705D5304649
:104D100011F080FE304612F0D5FE00F065FC304602
:104D2000EDE70000BC5A0208024970220968FBF74F
:104D3000DABC0000DC01002010B5FFF72FF903F00A
:104D4000DDFE04F003F90BF0F5FFBDE8104000F0C4
:104D50004BBC000070B50B4D04462868467CFFF73D
:104D60001DF9022C09D22046FEF7EAFA28B128687C
:104D70004474FFF7E1FF0448046000F035FC30465E
:104D800070BD0000DC010020500300202DE9F0413F
:104D9000194E050019493068194F407C51F8201010
:104DA0008C6917F8048003D011F006FD60B11FE094
:104DB0000521FEF7B3FA06001AD00020FFF77CFCAD
:104DC0003046FEF786FA12E030680521407CFEF797
:104DD000A5FA60B9AFF24B00FFF76EFC30680849E6
:104DE000407C143151F8200008B1FEF725FA3D55FA
:104DF0004046BDE8F0810000DC010020F401002005
:104E00005C02002010B50446FFF7C8F8204603F006
:104E100095FEBDE8104000F0E7BB10B50446FFF773
:104E2000BDF8204603F0C2FEBDE8104000F0DCBB38
:104E30000149886070470000D001002010B5044689
:104E4000FFF7ACF8204603F03BFF044600F0CCFB34
:104E5000204610BD70B50446FFF7A0F8044800686E
:104E6000C56904B1C46100F0BFFB284670BD0000F5
:104E7000DC01002070B514460D460646FFF78EF89B
:104E800022462946304603F037FF044600F0ACFBCB
:104E9000204670BD70B514460D460646FFF77EF8F5
:104EA00022462946304603F03DFF044600F09CFBB5
:104EB000204670BD70B50C460546FFF76FF82146D9
:104EC000284603F05BFF044600F08EFB204670BDD1
:104ED00070B50546FFF762F803480068847E857662
:104EE00000F082FB204670BDDC01002070B50C464E
:104EF0000546FFF753F80948224605800848048014
:104F000008480068417C084850F82100C1680B6AD5
:104F100029469847BDE8704000F066BB1C0200209F
:104F20001E020020DC010020F401002070B50546BF
:104F3000FFF734F803480068047E057600F054FB60
:104F4000204670BDDC01002070B50446FFF726F84E
:104F500004480068B0F92C50848500F045FB2846D1
:104F600070BD0000DC01002070B50446FFF716F8A4
:104F700004480068B0F92A50448500F035FB284603
:104F800070BD0000DC01002002480068002800D04D
:104F900000477047D403002002498A6802B988603C
:104FA000FFF7F2BFC403002010B504000ED0FEF7D7
:104FB000F5FF204612F016F8204612F0D3FF2046E7
:104FC000FDF7C6FEBDE8104000F00EBB10BD38B5C1
:104FD0000C46050011D0FEF7E1FF2846FDF762FF01
:104FE00000908089204201D0012400E0002468461E
:104FF000FDF796FF00F0F8FA00E00124204638BDE6
:1050000038B50546002028600648046844B12046AB
:10501000FDF748FF0090006928606846FDF780FFB3
:10502000204638BD0004002038B504004FF00000D1
:105030000D46086011D02046FDF734FF00908468CB
:1050400044B16846FDF76CFF2046FDF72BFF00904A
:10505000006928606846FDF763FF204638BD000000
:105060002DE9F84FDFF898800546264F98F818008C
:105070008B46410738680A9E9946407C924607D481
:1050800003F020FA04463868407C03F027FA06E073
:1050900003F024FA04463868407C03F013FA002732
:1050A00085B1441EB9EB060000D54042142806DB4A
:1050B0005146BBEB0A0000D54042142804DA012017
:1050C000BDE8F88F641EEDE70A464B465946384660
:1050D000009611F0AAFC0C4F4B46524647F835009B
:1050E00059462046009611F0A0FC07EBC501486028
:1050F00012F048F901210020C8F81C10E0E7000078
:1051000078020020DC010020500701202DE9F04743
:105110004D4D4E4E0024E86950B9E8683460746023
:105120004107B4604107F46012F02CF90120E861F6
:105130002878C8B100F0D4F8A846686000F0CEF82E
:105140006968286A81420BDBD8F8242040469142E6
:1051500006DC836A82689A4202DBC36A9A420DDDEA
:105160004FF0FF3001466AE000F0E8F8A86000F078
:10517000B6F82878401C2870BDE8F087326898F8A7
:105180001800334F8D1A40073868407C02D403F072
:1051900099F901E003F0A2F9D6E90021401E454348
:1051A000B146891A95FBF1F6D8F80820D9F808001D
:1051B000151A98F8180040073868407C02D403F0AC
:1051C0008DF901E003F07EF9401E4543D9E9020163
:1051D000081A95FBF0F598F8180040073868407CED
:1051E00017D403F06FF981463868407C03F076F9F4
:1051F000D8F818200146D00703D0A9EB0600401EBE
:1052000000E03046920702D5491B491E17E02946A7
:1052100015E003F063F981463868407C03F052F9E9
:10522000D8F81820D10703D0A9EB0601491E00E0E9
:105230003146920702D5401B401E00E0284612F07E
:105240006BFD88F8004097E77802002050070120A6
:10525000DC010020014988617047000078020020CD
:10526000074A002806DB002904DB01231372C2E988
:10527000000101E000201072014800F003B80000B6
:10528000D007012010B504460C220849FBF778F935
:10529000002809D0054894E80E0080E80E0020465A
:1052A000BDE81040FFF70ABC10BD00006C080120EB
:1052B000094B30B41A68821A00D552425C680C1B44
:1052C00000D564422244022A04DDC3E9000130BC57
:1052D000FFF7C6BF30BC70472003002070477047FF
:1052E000144810B58088A0F5AA4110391CD0A0F54B
:1052F000C851633918D0A0F5E041843914D0A0F525
:105300008641423910D0A0F5E04116390CD0A0F505
:105310008641843908D0A0F58051183904D0BDE801
:105320001040D0200BF02EBA034C00206168884753
:10533000A08910BDA016002048000020144810B518
:105340008088A0F5AA4110391CD0A0F5C851633956
:1053500018D0A0F5E041843914D0A0F58641423937
:1053600010D0A0F5E04116390CD0A0F58641843963
:1053700008D0A0F58051183904D0BDE81040902025
:105380000BF000BA034C002061688847208C10BDE8
:10539000A0160020480000202DE9F041084E0446E8
:1053A00005683068016828468847074630684168C4
:1053B00028468847284420603846BDE8F081000030
:1053C000E00100202DE9F0410C4606460025064F7D
:1053D00005E0386841683046884706440544641E45
:1053E000F7D22846BDE8F081E00100202DE9F04128
:1053F0001E46069C1746884605463A46A8687F1C06
:105400003346D0F804C041462846E047641EF4D134
:10541000BDE8F08170B5B0F90040091BB0F9044057
:105420008C422CDD00F11404B0F902500069521BCB
:1054300002FB0040CA1800EBE104521ED010B0EB92
:10544000E10501F007034FF0FF0102F0070221FA26
:1054500003F0C2F1070201FA02F1CEB221780FD0B7
:1054600001436D1E04F8011B002D05DDFF222946B6
:105470002046FBF76AF92C4420783043207070BD39
:1054800030400143217070BD10B5B0F90030B0F963
:105490000240C91A00F114030069121B02FB00301C
:1054A00000EBE10001F0070302788021D9400A43B4
:1054B000027010BDB0F90610026951431430FBF7B9
:1054C0004CB900002DE9F843804602F10F000011AD
:1054D000470003FB07F01C46154689461430FDF7CC
:1054E00018FC060018D0FEF759FD3046FDF7DAFC2F
:1054F0000090A0F80080A0F802908580C480074941
:1055000081600121818107616846FDF709FD00F096
:105510006BF83046BDE8F8830020FBE7BC78020852
:1055200070B5B0F90660B0F904400B6800F11405DD
:1055300096421BDD0069A34202FB005000EBE30230
:1055400014DA641EE010A0EBE30512F8010B03F07F
:105550000704A040C4B206E045B1083312F8014B7D
:1055600023F007036D1E002CF6D004E0002070BD70
:105570006006040E5B1C2006FAD5FF2C07D01846E7
:1055800002E06406240E401C6606FAD400E0D81D32
:10559000C443640705D006E012F8014BFF2C09D183
:1055A00008306D1EF8D5C01A401C0B6070BD620635
:1055B000140E401C2206FAD4F5E738B50546FEF76E
:1055C000EDFC2846FDF76EFC00908189491E0CB267
:1055D00084816846FDF7A4FC14B92846FDF7B8FBA2
:1055E00000F002F838BD00000348C168491EC160E0
:1055F00001D100F075B870470403002010B54FF4D6
:1056000000042146012014F0D9FC2146FDF798FB47
:105610008020FDF76FFCBDE810400148FFF708BC93
:105620007C0002084FF47A71484308B504496A4681
:105630000968B0FBF1F0082105F072FB08BD00001D
:10564000F4F701080120FFF7EDBF000002480068F1
:1056500090F8370070470000A001002008B56846A8
:1056600005F036FC08BD000008B506486B46002270
:1056700002A1C06804F056FD08BD00004B65795FCB
:1056800053454D00AC01002038B50A4C6B46012251
:1056900005A1606804F046FD6B46002206A1A068E3
:1056A00004F040FD38BD0000446973705F53454D00
:1056B00000000000AC0100204576656E745F534524
:1056C0004D0000001CB501A80090044800231A46B4
:1056D0001946406804F062FD1CBD0000AC010020CA
:1056E00008B503486A460021406804F0FBFD08BD88
:1056F000AC0100200EB508B102AA00E00022002390
:1057000001A9684600F0CEFB0EBD0000074910B5A8
:105710000C7818B101200870801E03E0002008708A
:105720006FF07F4002F092FA204610BD1602002072
:1057300010B5082A0EDC0346012A18D0022A56D0DA
:10574000042A76D010F8042B03F8012B491EF9D156
:10575000012010BD102A08DC4FEA000230F8043B9B
:1057600022F8023B491EF9D1F2E7002010BD10F8E3
:10577000042BD207120E491E34D010F8044B491ED8
:1057800004F0010442EA84122CD010F8044B491EA4
:1057900004F0010442EA441224D010F8044B491EDC
:1057A00004F0010442EA04121CD010F8044B491E14
:1057B00004F0010442EAC40214D010F8044B491E5C
:1057C00004F0010442EA84020CD010F8044B491E94
:1057D00004F0010442EA440204D010F8044B04F03F
:1057E0000104224303F8012B0029C0D1B0E710F8CF
:1057F000042B9207120E491E15D010F8044B491EB7
:1058000004F0030442EA04120DD010F8044B491EC0
:1058100004F0030442EA840205D010F8044B04F0BB
:1058200003042243491E03F8012B0029DFD18FE72F
:10583000FFE710F8042B1207120E491E05D010F8CE
:10584000044B04F00F042243491E03F8012B0029E6
:10585000EFD17DE738B50024009400F01DF838BD85
:105860000B4810B58169002910D101218161FFF732
:10587000C5FEFDF71DFA03F0A5FB054905481C31DF
:105880000860BDE81040084600F0C6BC10BD00002E
:10589000D0010020E96B01082DE9F0410D46069981
:1058A000044601B901461F68082A09DC0E46012A90
:1058B0001AD0022A5BD0042A7DD0082A13D18DE0A9
:1058C000102A07DCD3F810C00E46BCF1000F04D03C
:1058D000022389E00020BDE8F08101CCB84726F81A
:1058E000020B6D1EF9D189E001CCB847C0074FEA21
:1058F00010686D1E36D001CCB84748EA801000F021
:10590000FF086D1E2ED001CCB84748EA401000F0C9
:10591000FF086D1E26D001CCB84748EA001000F001
:10592000FF086D1E1ED001CCB84748EAC00000F049
:10593000FF086D1E16D001CCB84748EA800000F081
:10594000FF086D1E0ED001CCB84748EA400000F0B9
:10595000FF086D1E06D001CCB84740EA080000F0F1
:10596000FF086D1E06F8018B002DBDD146E001CC6D
:10597000B84780074FEA10686D1E16D001CCB847B3
:1059800048EA001000F0FF086D1E0ED001CCB847A9
:1059900048EA800000F0FF086D1E06D001CCB84731
:1059A00040EA080000F0FF086D1E06F8018B002D8C
:1059B000DDD123E0FFE701CCB84700074FEA1068CC
:1059C0006D1E06D001CCB84740EA080000F0FF0881
:1059D0006D1E06F8018B002DEDD10FE0D3F810C03D
:1059E000BCF1000F04D001232A462046E04705E021
:1059F00001CCB84706F8010B6D1EF9D101206AE70A
:105A00000149084400F010BC905F01007CB50646D7
:105A100028480D46006868B100200CF0BBF806E08D
:105A20006A46294630460DF04DF80CF075F800280E
:105A3000F6D17CBD106800901F4C50680190226820
:105A4000BDF8000032F84C1F0844ADF80000BDF866
:105A5000020091880844ADF80200BDF804001188E6
:105A60000844ADF80400BDF8060091880844ADF87C
:105A7000060068460CF08EF80EE000BF2068BDF806
:105A800000106A464184BDF80210818429463046E0
:105A90000DF018F80CF040F80028EFD1206830F82D
:105AA000221F428D891A01804188C28D891A418046
:105AB0007CBD000018020020DC0100202DE9FF4F12
:105AC0008DB00020DDF86CA0164600901D460446FF
:105AD0000246CAF8000008AB03A902A800F0E2F9E8
