:020000040800F2
:10000000A80A0020AD020008BB020008BD020008DB
:10001000BF020008C1020008C3020008000000007F
:10002000000000000000000000000000C502000801
:10003000C702000800000000C9020008CB02000847
:10004000CD020008CD020008CD020008CD02000854
:10005000CD020008CD020008CD020008CD02000844
:10006000CD020008CD020008CD020008CD02000834
:10007000CD020008CD020008CD020008CD02000824
:10008000CD020008CD020008CD020008CD02000814
:10009000CD020008CD020008CD020008CD02000804
:1000A000CD020008CD020008CD020008CD020008F4
:1000B000CD020008CD020008294B0008CD0200083F
:1000C000CD020008CD020008CD020008CD020008D4
:1000D000CD020008B54B0008CD020008CD02000893
:1000E000CD020008CD020008CD020008CD020008B4
:1000F000CD020008CD020008CD020008CD020008A4
:10010000CD020008CD020008CD020008CD02000893
:10011000CD020008CD020008CD020008CD02000883
:10012000CD020008CD020008CD020008CD02000873
:10013000CD020008CD020008CD020008CD02000863
:10014000CD020008CD020008CD020008CD02000853
:10015000CD020008CD020008CD020008CD02000843
:10016000CD020008CD020008CD020008CD02000833
:10017000CD020008CD020008CD02000800000000FA
:10018000CD020008CD020008CD020008CD02000813
:10019000CD020008CD020008CD020008CD02000803
:1001A000CD020008CD020008CD02000800F002F8E0
:1001B00000F06DF80AA090E8000C82448344AAF194
:1001C0000107DA4501D100F062F8AFF2090EBAE892
:1001D0000F0013F0010F18BFFB1A43F0010318477B
:1001E00070AB000090AB00000A444FF0000C10F818
:1001F000013B13F0070408BF10F8014B1D1108BFA5
:1002000010F8015B641E05D010F8016B641E01F844
:10021000016BF9D113F0080F1EBF10F8014BAD1C94
:100220000C1B09D16D1E58BF01F801CBFAD505E0B2
:1002300014F8016B01F8016B6D1EF9D59142D6D30C
:10024000704700000023002400250026103A28BF34
:1002500078C1FBD8520728BF30C148BF0B60704738
:10026000642900F0A380752900F0A080782900F0AF
:10027000D980632900F02D82732900F0328200209A
:1002800070471FB506F034F91FBD10B510BD00F062
:100290005BFA1146FFF7F5FF04F058FD00F079FA1C
:1002A00003B4FFF7F2FF03BC04F0CBFC0B4801687A
:1002B00041F4700101600A480047FEE7FEE7FEE7EF
:1002C000FEE7FEE7FEE7FEE7FEE7FEE7FEE70000EB
:1002D00004480549034A054B7047000088ED00E0DB
:1002E000AD010008A8020020A80A0020A8020020F2
:1002F000704700000FB4044910B503AA029800F03B
:10030000F5F910BC5DF814FB0400002070B504463C
:1003100085690068C10601D5302600E02026C007A7
:1003200007D070BDD4E9012130469047206A401CB7
:1003300020626D1EF6D570BD70B5044685690078E3
:10034000C00707D170BDD4E9012120209047206A61
:10035000401C20626D1EF6D570BD70B50C4605467A
:10036000012A05D02878800600D5EA69002302E03A
:10037000012305E05B1C934202D2E05C0028F9D126
:10038000A869E618C01AA861286A18442862284695
:10039000FFF7BCFF04E0D5E9012114F8010B9047F9
:1003A000B442F8D32846FFF7C7FF70BD2DE9F041EE
:1003B0000646002410687529314616A510D0AFF303
:1003C0000080002802DA404213A507E031688A075E
:1003D00001D512A502E0490704D511A5012401E0C9
:1003E000AFF3008000210A2206F1240709E0B0FBE8
:1003F000F2FCB0FBF2F302FB1C00303078541846DC
:10040000491C0028F3D123462A463046BDE8F04176
:1004100000F0FCB8000000002D0000002B000000E0
:100420002000000070B504460D4621461068AFF369
:1004300000802188090502D50F4A7A4402E00E4A5D
:100440007A440E32002104F1240305E000F00F0687
:100450000009965D5E54491C0028F7D120780023DE
:10046000000704D5702D02D009B1022311322046B5
:10047000BDE8704000F0CAB814A800002DE9F05F94
:10048000894604464FF0000ADFF874B1FB44C0F817
:1004900020A02046E1688847002874D0252806D08F
:1004A000D4E901219047206A401C2062F1E7002630
:1004B0005F462046E16888472028054607DB312D46
:1004C00005D2781910F8200C08B10643F1E7B007FF
:1004D00001D526F00406C4F81CA00027C4F818A013
:1004E0002A2D09D0284604F0A5FB38B304EB870871
:1004F000303DC8F8185019E059F8041B204604EBA9
:1005000087029161E1688847012F054618D1E069AB
:10051000002820DA26F020061DE0D8F8180000EBAD
:10052000800005EB40003038C8F818002046E1682C
:100530008847054604F07EFB0028EED1012F0AD043
:100540002E2D08D12046E16888477F1C0546022FE2
:1005500046F02006C4DBA069002803DA404246F0DA
:100560000106A061F00701D026F010066C2D0BD01B
:10057000682D09D04C2D39D06A2D35D0742D35D049
:100580007A2D33D016E038E0E1682F4620468847C0
:10059000B842054609D16C2F26D04FF48060E1683F
:1005A000064320468847054604E06C2F1AD04FF4D6
:1005B000807006430DB3A5F14100192802D82035FB
:1005C00046F400664A462946204626604E46FFF716
:1005D00047FE80B101280BD0F61D26F0070000F180
:1005E000080956E74020E4E78020D8E70020D6E756
:1005F00006F104094DE7284652E7206ABDE8F09F5E
:10060000EAA7000070477047704770472DE9F04730
:100610000D4699469246044600F124080168880672
:1006200004D5E06921F01001216000E00120A8421A
:1006300001DD471B00E00027A1697A1902EB0900E0
:10064000081AA0612078C00602D42046FFF75EFE9B
:10065000002608E0D4E901211AF806009047206A34
:10066000401C761C20624E45F4DB2078C0060AD57B
:100670002046FFF74BFE06E0D4E9012130209047E9
:10068000206A401C2062381EA7F10107F4DC07E055
:10069000D4E9012118F805009047206A401C206227
:1006A000281EA5F10105F3DC2046FFF745FE207862
:1006B000000602D50220BDE8F0870120FBE710B557
:1006C000436913B1AFF3008001E0FFF746FE01205C
:1006D00010BD127800F124010A7000224A70012234
:1006E000EDE711684FF0FF32E9E70000074B70B506
:1006F0000D467B4400F011F80446284600F020F82F
:1007000010B14FF0FF3070BD204670BD3B46000079
:1007100001694A1C02610878704700B58FB0CDE9C5
:1007200001310021059105497944CDE903101146B5
:100730006846FFF7A3FE0FB000BD0000E5FFFFFF16
:10074000007B00F080007047754600F02BF8AE4645
:1007500005006946534620F00700854618B020B5CD
:10076000FFF7B6FDBDE820404FF000064FF0000750
:100770004FF000084FF0000B21F00701AC46ACE849
:10078000C009ACE8C009ACE8C009ACE8C0098D46B6
:10079000704710B50446AFF300802046BDE8104016
:1007A000FFF77EBD004870474802002010B5FF20CB
:1007B00000F028F80446552C01D1002010BD552129
:1007C000FF2000F05DF8FF2000F01CF80446552CD7
:1007D00001D10020F2E70120F0E710B500F030F978
:1007E00010BD70B506460C46154608E03046721C32
:1007F00096B200F007F804F8010B681E85B2002DD0
:10080000F4D170BD70B50446002600F0CBF9254642
:10081000E11704EB11610912A02202EB4101C8B2F9
:1008200000F08CF900F00AFAE11704EB11610912EB
:10083000A4EB0121C8B200F081F900F0FFF900F04B
:10084000B1F9A12000F07AF900F0F8F9002000F0E9
:100850003FF9064600F0CCF9304670BD70B505464C
:100860000C46164606E02178284600F009F8681C78
:1008700085B2641C301EA6F101018EB2F3D170BDA9
:1008800070B504460E4600F08DF92546E11704EBDD
:1008900011610912A02202EB4101C8B200F04EF929
:1008A00000F0CCF9E11704EB11610912A4EB01216E
:1008B000C8B200F043F900F0C1F9304600F03EF94B
:1008C00000F0BCF900F094F90A2004F0D9F970BDE9
:1008D00030B5CC1000F1200353F824304C07E50E5E
:1008E0000F24AC40A343CD1000F1200444F8253080
:1008F000CC1000F1200353F824304C07E40E02FA28
:1009000004F42343CD1000F1200444F8253030BD19
:100910002DE9F0470C46DDE90867002100258C46EB
:1009200000BF60E04FF0010808FA01F504EA050C89
:10093000AC4557D1D0F800804FEA410A4FF0030987
:1009400009FA0AF928EA0908C0F80080D0F80080FE
:100950004FEA410902FA09F948EA0908C0F800809B
:10096000012A01D0022A27D1D0F808804FEA410A93
:100970004FF0030909FA0AF928EA0908C0F80880C3
:10098000D0F808804FEA410906FA09F948EA09084F
:10099000C0F80880D0F804904FF0010808FA01F878
:1009A00029EA0809C0F80490D0F8048003FA01F994
:1009B00048EA0908C0F80480D0F80C804FEA410AE0
:1009C0004FF0030909FA0AF928EA0908C0F80C806F
:1009D000D0F80C804FEA410907FA09F948EA0908FA
:1009E000C0F80C80491C10299CD3BDE8F08700009A
:1009F00010B500200F4908600F48006820F44060DF
:100A00000D4908600846006840F4806008600020D6
:100A10000A49C1F89402022004F04EF90120054968
:100A20000860022004F048F900200449C1F890024F
:100A300010BD000090824342001C024000804342EF
:100A40001CB50B48006840F080000949086001208F
:100A5000022100230246CDE9001030210548FFF7AE
:100A600057FF0120044908600449C1F894021CBDE5
:100A700030380240001C02409082434200804342D2
:100A800010B500200F4908600F48006820F440604E
:100A90000D4908600846006840F480600860012045
:100AA0000A49C1F89402022004F006F90120054920
:100AB0000860022004F000F900200449C1F8900207
:100AC00010BD000090824342001C0240008043425F
:100AD00070B5054600241648006820F440601449AB
:100AE0000860084600680860002616E000201149EA
:100AF0000860022004F0E0F801200F49C1F89002DC
:100B00006006040E0B487C38006808B1601CC4B253
:100B1000012004F0D1F8701CC6B2082EE6DB15B92E
:100B2000FFF7AEFF01E0FFF763FF204670BD000056
:100B3000001C0240908243420080434270B504464C
:100B40001548006820F440601349086008460068B2
:100B500040F480600860002010490860002517E01C
:100B6000E0090E49091D08606006040E022004F029
:100B7000A3F801200A49C1F89002022004F09CF871
:100B8000002006490860022004F096F8681CC5B2EF
:100B9000082DE5DB70BD0000001C0240908243423E
:100BA0000080434210B50F48006820F440600D49B2
:100BB00008600846006840F48060086001200A4927
:100BC00008600A49C1F89002042004F075F800207A
:100BD00005490860042004F06FF800200349C1F8BB
:100BE000900210BD001C02409482434200804342A8
:100BF00010B50F48006820F440600D4908600846B1
:100C0000006840F48060086000200A4908600A49D2
:100C1000C1F89402042004F04FF80120054908604F
:100C20000549C1F89402042004F046F810BD000004
:100C3000001C0240908243420080434210B50024D1
:100C40001348006820F440601149086008460068B5
:100C5000086001200F49086004F02EF801200E49B9
:100C6000C1F8900204F028F807E0601CC4B2FA2C26
:100C700003DDFFF7BDFF012010BD06488038006886
:100C80000028F2D10349091F086000BFF4E7000003
:100C9000001C024094824342008043421CB5174826
:100CA000006840F00100154908600846006840F0FF
:100CB000040008600846006840F0800008600220D8
:100CC00000210B460A46CDE9001001210C48FFF730
:100CD0001FFE012000210B460A46CDE9001041030A
:100CE0000848FFF715FE012000210B460A46CDE912
:100CF00000100C210448FFF70BFE1CBD30380240E9
:100D00000000024000080240001C024010B50446EA
:100D100014B10120214908702048007848B32048C8
:100D2000006850B11E48001F006830B11D480068BF
:100D300018B11D48006801281BD10A2003F0A0FF4C
:100D40000020164908701648006808B9012010BD37
:100D50001348001F006808B90220F8E7114800682E
:100D600008B90320F3E710480068012814D10420D3
:100D7000EDE70B48006801280ED10948001F006804
:100D8000012809D107480068012805D106480068F4
:100D900010B90120014908700020D8E71C0000208C
:100DA0000C824342340241420002404270B5044684
:100DB00000260D4805880D48006818B1204602F04D
:100DC00097FF0FE00848408845430021084602F09D
:100DD000D7FD02F05BFF002602E005490C80761C7F
:100DE000AE42FAD370BD0000180200202802002095
:100DF0000000086010B504465C4884715C480068D7
:100E000050B1204602F0D2FF5948C08A57490880A5
:100E10005748008B488010BD002C51D1F020534919
:100E200008804FF4A07048800846808849F241311C
:100E3000884205D04D48808845F21031884214D14F
:100E40002C204A4908812A2048812B208881084685
:100E5000808845F21031884206D14FF4A070434992
:100E600008804FF4F07048807BE04048808845F26D
:100E70001051884210D14FF430503C4908814FF452
:100E8000285048814FF42C5088814FF4F07008802E
:100E90004FF44870488064E03448808841F663111C
:100EA00088425ED12C20314908812B2048812A209C
:100EB00088814FF4F07008804FF44870488050E00B
:100EC0004FF4A07029490880F020488008468088A7
:100ED00049F24131884205D02448808845F21031DA
:100EE000884207D12C20214908812A2048812B20C3
:100EF000888129E01D48808845F21051884210D130
:100F00004FF43050194908814FF4285048814FF46C
:100F10002C5088814FF4487008804FF4F07048805E
:100F200012E01248808841F6631188420CD12C20CF
:100F30000E4908812A2048812B2088814FF448706F
:100F400008804FF4F07048800848808845F21031DE
:100F5000884206D14FF4F070044908804FF4A07025
:100F60004880002002F0D2FB00BF54E718020020A6
:100F70002802002070B504460D4616464348006816
:100F800028B132462946204602F026FF70BD40486F
:100F9000808849F24131884205D03D48808845F239
:100FA0001031884214D13A49488902F063FE201278
:100FB00002F054FEE0B202F051FE3549888902F099
:100FC00059FE281202F04AFEE8B202F047FE54E051
:100FD0002F48808845F21051884220D12C494889F9
:100FE00002F048FE201202F039FE29494989491CC5
:100FF00088B202F03FFEE0B202F030FE2449888958
:1010000002F038FE281202F029FE21498989491C84
:1010100088B202F02FFEE8B202F020FE2DE01C485C
:10102000808841F66311884227D11948807920B918
:1010300017480088401E001B84B21549488902F0F9
:1010400019FE201202F00AFEE0B202F007FE2012A2
:1010500002F004FEE0B202F001FE0D49888902F0C0
:1010600009FE281202F0FAFDE8B202F0F7FD28129C
:1010700002F0F4FDE8B202F0F1FD054800890549EF
:101080000880891C0E8000BF80E700002802002035
:1010900018020020FEFF07602DE9F84F05460E46B6
:1010A00017469846DDF828904FF0000B144800686A
:1010B00040B143463A4631462846CDF8009002F00A
:1010C000B3FE1BE0781B401C1FFA80FB344613E084
:1010D0002146284602F054FC02F0D8FD4FF0000AE9
:1010E00006E00849A1F800900AF101001FFA80FA11
:1010F000DA45F6DB601C84B24445E9DDBDE8F88FD3
:1011000028020020000008601CB503F007FAFE4921
:1011100088800846808818B102F02AFF02F076BA6B
:10112000FA48006840F00200F84908600846006884
:1011300040F018000860F5480830006840F00100F1
:10114000F249083108600120022100230246CDE95E
:1011500000102021EE48FFF7DBFB012003210023D4
:101160000222CDE900104EF2B371EA48FFF7D0FB3E
:101170000120032100230222CDE900104FF68071E7
:10118000E548FFF7C5FB0C220021E248FFF7A0FB72
:101190000C220121DF48FFF79BFB0C220421DD48D4
:1011A000FFF796FB0C220521DA48FFF791FB0C2292
:1011B0000721D848FFF78CFB0C220821D548FFF700
:1011C00087FB0C220921D348FFF782FB0C220A215E
:1011D000D048FFF77DFB0C220D21CE48FFF778FBAE
:1011E0000C220E21CB48FFF773FB0C220F21C948BC
:1011F000FFF76EFB0C220721C748FFF769FB0C22A3
:101200000821C548FFF764FB0C220921C248FFF7FB
:101210005FFB0C220A21C048FFF75AFB0C220B216E
:10122000BD48FFF755FB0C221146BB48FFF750FBAA
:101230000C220D21B848FFF74BFB0C220E21B648BB
:10124000FFF746FB0C220F21B348FFF741FB0020BC
:101250004FF0204108604860B04908604FF02040DE
:10126000006840F480504FF0204108600846006854
:1012700040F4804008600846006840F010000860B4
:101280000846406848600846406840F00F004860E3
:101290000846406840F48C404860A0480068C1F8A7
:1012A00004010846D0F8040140F00F00C1F8040121
:1012B0000846D0F8040140F47060C1F80401084603
:1012C000006840F001000860322003F0D9FCD32010
:1012D00002F0D0FC02F0E0F98B49888002F0DCF9E2
:1012E0008949888002F0D8F9874988800846808833
:1012F0004FF6FF7101EA00208349888002F0CCF9A3
:10130000814989880843804988800846808849F255
:101310004131884278D0D42002F0ACFC02F0BCF914
:101320007949888002F0B8F97749888002F0B4F9E9
:1013300075498880084680884FF6FF7101EA0020D1
:101340007149888002F0A8F96F49898808436E497D
:1013500088800846808845F21031884254D04FF486
:101360005A4002F087FC02F097F9674988804FF4F1
:101370005B4002F07FFC02F08FF9634988800846E9
:1013800080884FF6FF7101EA00205F4988804FF4A2
:101390005C4002F06FFC02F07FF95B4989880843EA
:1013A0005949888008468088B0F5004F02D145F23F
:1013B000105088805448808845F21051884223D0CC
:1013C000A12002F057FC02F067F94F49888002F033
:1013D00063F94D498880084680884FF6FF7101EA1D
:1013E00000204949888002F057F947498988084315
:1013F000454988800846808845F26171884203D15A
:1014000041F66310404988803F48818844A0FEF738
:1014100071FF3D48808849F24131884272D1CF2026
:1014200002F028FC002002F019FCC12002F016FC9A
:10143000302002F013FCED2002F01CFC642002F0CE
:101440000DFC032002F00AFC122002F007FC8120B0
:1014500002F004FCE82002F00DFC852002F0FEFB07
:10146000102002F0FBFB7A2002F0F8FBCB2002F008
:1014700001FC392002F0F2FB2C2002F0EFFB0020EF
:1014800002F0ECFB342002F0E9FB022002F0E6FB64
:10149000F72002F0EFFB202002F0E0FBEA2002F050
:1014A000E9FB002002F0DAFB002002F0D7FBC020AD
:1014B00002F0E0FB1B2002F0D1FBC12002F0DAFBBE
:1014C000012002F0CBFBC52002F0D4FB302002F05B
:1014D000C5FB302002F0C2FBC72002F0CBFBB720D7
:1014E00002F0BCFB362002F0C5FB482002F0B6FB40
:1014F0003A2002F0BFFB552002F0B0FBB12002F011
:10150000B9FB15E0B7E000001802002030380240B7
:1015100000040240000C024000100240040100A040
:10152000204C43442049443A25780D0A000000002D
:10153000002002F093FB1A2002F090FBB62002F08C
:1015400099FB0A2002F08AFBA22002F087FBF2201E
:1015500002F090FB002002F081FB262002F08AFBC3
:10156000012002F07BFBE02002F084FB0F2002F060
:1015700075FB2A2002F072FB282002F06FFB082086
:1015800002F06CFB0E2002F069FB082002F066FB03
:10159000542002F063FBA92002F060FB432002F01C
:1015A0005DFB0A2002F05AFB0F2002F057FB0020DF
:1015B00002F054FB002002F051FB002002F04EFB31
:1015C000002002F04BFBE12002F054FB002002F06F
:1015D00045FB152002F042FB172002F03FFB0720DD
:1015E00002F03CFB112002F039FB062002F036FB32
:1015F0002B2002F033FB562002F030FB3C2002F09F
:101600002DFB052002F02AFB102002F027FB0F2003
:1016100002F024FB3F2002F021FB3F2002F01EFBE2
:101620000F2002F01BFB2B2002F024FB002002F015
:1016300015FB002002F012FB012002F00FFB3F20FF
:1016400002F00CFB2A2002F015FB002002F006FB42
:10165000002002F003FB002002F000FBEF2002F06C
:10166000FDFA112002F006FB782003F009FB292087
:1016700002F000FB52E5FE48808845F210318842B6
:1016800040F07C87ED2002F0F5FA012002F0E6FA46
:10169000FE2002F0E3FAEE2002F0ECFADE2002F087
:1016A000DDFA212002F0DAFAF12002F0E3FA01205B
:1016B00002F0D4FADF2002F0DDFA102002F0CEFAB8
:1016C000C42002F0D7FA8F2002F0C8FAC62002F038
:1016D000D1FA002002F0C2FAE22002F0BFFAE220C2
:1016E00002F0BCFAE22002F0B9FABF2002F0C2FA1E
:1016F000AA2002F0B3FAB02002F0BCFA0D2002F0EA
:10170000ADFA002002F0AAFA0D2002F0A7FA00209C
:1017100002F0A4FA112002F0A1FA002002F09EFAD1
:10172000192002F09BFA002002F098FA212002F022
:1017300095FA002002F092FA2D2002F08FFA002094
:1017400002F08CFA3D2002F089FA002002F086FABD
:101750005D2002F083FA002002F080FA5D2002F0A2
:101760007DFA002002F07AFAB12002F083FA80209C
:1017700002F074FA002002F071FA8B2002F06EFA87
:10178000002002F06BFA962002F068FA002002F0C6
:1017900065FAB22002F06EFA002002F05FFA002033
:1017A00002F05CFA022002F059FA002002F056FA28
:1017B000032002F053FA002002F050FAB32002F0A6
:1017C00059FA002002F04AFA002002F047FA0020FD
:1017D00002F044FA002002F041FA002002F03EFA42
:1017E000002002F03BFA002002F038FA002002F05C
:1017F00035FA002002F032FA002002F02FFA002021
:1018000002F02CFA002002F029FA002002F026FA59
:10181000002002F023FA002002F020FA002002F05B
:101820001DFA002002F01AFA002002F017FA002038
:1018300002F014FA002002F011FA002002F00EFA71
:10184000002002F00BFA002002F008FA002002F05B
:1018500005FAB42002F00EFA8B2002F0FFF9002006
:1018600002F0FCF9962002F0F9F9002002F0F6F9F6
:10187000A12002F0F3F9002002F0F0F9B52002F007
:10188000F9F9022002F0EAF9002002F0E7F903205A
:1018900002F0E4F9002002F0E1F9042002F0DEF9A0
:1018A000002002F0DBF9B62002F0E4F9002002F09B
:1018B000D5F9002002F0D2F9B72002F0DBF90020C0
:1018C00002F0CCF9002002F0C9F93F2002F0C6F97D
:1018D000002002F0C3F95E2002F0C0F9002002F0FF
:1018E000BDF9642002F0BAF9002002F0B7F98C20AB
:1018F00002F0B4F9002002F0B1F9AC2002F0AEF928
:10190000002002F0ABF9DC2002F0A8F9002002F080
:10191000A5F9702002F0A2F9002002F09FF99020B2
:1019200002F09CF9002002F099F9EB2002F096F900
:10193000002002F093F9DC2002F090F9002002F080
:101940008DF9B82002F096F9002002F087F9002006
:1019500002F084F9002002F081F9002002F07EF903
:10196000002002F07BF9002002F078F9002002F05C
:1019700075F9002002F072F9BA2002F07BF92420F8
:1019800002F06CF9002002F069F9002002F066F91B
:10199000002002F063F9C12002F06CF9202002F06F
:1019A0005DF9002002F05AF9542002F057F90020A6
:1019B00002F054F9FF2002F051F9002002F04EF934
:1019C000C22002F057F90A2002F048F9002002F084
:1019D00045F9042002F042F9002002F03FF9C3204B
:1019E00002F048F93C2002F039F9002002F036F903
:1019F0003A2002F033F9002002F030F9392002F0E9
:101A00002DF9002002F02AF9372002F027F90020F2
:101A100002F024F93C2002F021F9002002F01EF926
:101A2000362002F01BF9002002F018F9322002F0F3
:101A300015F9002002F012F92F2002F00FF9002012
:101A400002F00CF92C2002F009F9002002F006F94E
:101A5000292002F003F9002002F000F9262002F00C
:101A6000FDF8002002F0FAF8242002F0F7F801E077
:101A700018020020002002F0F1F8242002F0EEF815
:101A8000002002F0EBF8232002F0E8F8002002F03A
:101A9000E5F83C2002F0E2F8002002F0DFF8362002
:101AA00002F0DCF8002002F0D9F8322002F0D6F87B
:101AB000002002F0D3F82F2002F0D0F8002002F02E
:101AC000CDF82C2002F0CAF8002002F0C7F8292037
:101AD00002F0C4F8002002F0C1F8262002F0BEF89F
:101AE000002002F0BBF8242002F0B8F8002002F039
:101AF000B5F8242002F0B2F8002002F0AFF823205D
:101B000002F0ACF8002002F0A9F8C42002F0B2F80C
:101B1000622002F0A3F8002002F0A0F8052002F0F5
:101B20009DF8002002F09AF8842002F097F8002037
:101B300002F094F8F02002F091F8002002F08EF804
:101B4000182002F08BF8002002F088F8A42002F0A0
:101B500085F8002002F082F8182002F07FF80020BB
:101B600002F07CF8502002F079F8002002F076F8BC
:101B70000C2002F073F8002002F070F8172002F039
:101B80006DF8002002F06AF8952002F067F8002056
:101B900002F064F8F32002F061F8002002F05EF831
:101BA000E62002F05BF8002002F058F8C52002F0B1
:101BB00061F8322002F052F8002002F04FF8442081
:101BC00002F04CF8002002F049F8652002F046F8D7
:101BD000002002F043F8762002F040F8002002F0E6
:101BE0003DF8882002F03AF8002002F037F8C620CD
:101BF00002F040F8202002F031F8002002F02EF828
:101C0000172002F02BF8002002F028F8012002F043
:101C100025F8002002F022F8C72002F02BF800205F
:101C200002F01CF8002002F019F8002002F016F86B
:101C3000002002F013F8C82002F01CF8002002F087
:101C40000DF8002002F00AF8002002F007F800204A
:101C500002F004F8C92002F00DF8002001F0FEFFA8
:101C6000002001F0FBFF002001F0F8FF002001F050
:101C7000F5FF002001F0F2FF002001F0EFFF00204F
:101C800001F0ECFF002001F0E9FF002001F0E6FF89
:101C9000002001F0E3FF002001F0E0FF002001F050
:101CA000DDFF002001F0DAFF002001F0D7FF002067
:101CB00001F0D4FF002001F0D1FFE02001F0DAFFB5
:101CC000162001F0CBFF002001F0C8FF1C2001F01E
:101CD000C5FF002001F0C2FF212001F0BFFF00205E
:101CE00001F0BCFF362001F0B9FF002001F0B6FF83
:101CF000462001F0B3FF002001F0B0FF522001F0B8
:101D0000ADFF002001F0AAFF642001F0A7FF002032
:101D100001F0A4FF7A2001F0A1FF002001F09EFF56
:101D20008B2001F09BFF002001F098FF992001F02B
:101D300095FF002001F092FFA82001F08FFF002006
:101D400001F08CFFB92001F089FF002001F086FF2F
:101D5000C42001F083FF002001F080FFCA2001F0C1
:101D60007DFF002001F07AFFD22001F077FF0020F4
:101D700001F074FFD92001F071FF002001F06EFF27
:101D8000E02001F06BFF002001F068FFF32001F07C
:101D900065FF002001F062FFE12001F06BFF1620DB
:101DA00001F05CFF002001F059FF1C2001F056FFFC
:101DB000002001F053FF222001F050FF002001F02D
:101DC0004DFF362001F04AFF002001F047FF45207B
:101DD00001F044FF002001F041FF522001F03EFFDE
:101DE000002001F03BFF642001F038FF002001F0EB
:101DF00035FF7A2001F032FF002001F02FFF8B2009
:101E000001F02CFF002001F029FF992001F026FFAE
:101E1000002001F023FFA82001F020FF002001F0A6
:101E20001DFFB92001F01AFF002001F017FFC420A8
:101E300001F014FF002001F011FFCA2001F00EFF95
:101E4000002001F00BFFD22001F008FF002001F07C
:101E500005FFD82001F002FF002001F0FFFEE02086
:101E600001F0FCFE002001F0F9FEF32001F0F6FE87
:101E7000002001F0F3FEE22001F0FCFE052001F05D
:101E8000EDFE002001F0EAFE0B2001F0E7FE00204D
:101E900001F0E4FE1B2001F0E1FE002001F0DEFE77
:101EA000342001F0DBFE002001F0D8FE442001F0D8
:101EB000D5FE002001F0D2FE4F2001F0CFFE002021
:101EC00001F0CCFE612001F0C9FE002001F0C6FE49
:101ED000792001F0C3FE002001F0C0FE882001F04F
:101EE000BDFE002001F0BAFE972001F0B7FE0020F1
:101EF00001F0B4FEA62001F0B1FE002001F0AEFE1C
:101F0000B72001F0ABFE002001F0A8FEC22001F0D6
:101F1000A5FE002001F0A2FEC72001F09FFE0020D8
:101F200001F09CFED12001F099FE002001F096FE08
:101F3000D62001F093FE002001F090FEDD2001F09C
:101F40008DFE002001F08AFEF32001F087FE0020C4
:101F500001F084FEE32001F08DFE052001F07EFEFD
:101F6000002001F07BFE0A2001F078FE002001F045
:101F700075FE1C2001F072FE002001F06FFE332080
:101F800001F06CFE002001F069FE442001F066FEC5
:101F9000002001F063FE502001F060FE002001F0FF
:101FA0005DFE622001F05AFE002001F057FE78200D
:101FB00001F054FE002001F051FE882001F04EFE99
:101FC000002001F04BFE972001F048FE002001F0B8
:101FD00045FEA62001F042FE002001F03FFEB720A2
:101FE00001F03CFE002001F039FEC22001F036FE77
:101FF000002001F033FEC72001F030FE002001F088
:102000002DFED12001F02AFE002001F027FED52070
:1020100001F024FE002001F021FEDD2001F01EFE73
:10202000002001F01BFEF32001F018FE002001F05B
:1020300015FEE42001F01EFE012001F00FFE00203D
:1020400001F00CFE012001F009FE002001F006FE67
:10205000022001F003FE002001F000FE2A2001F022
:10206000FDFD002001F0FAFD3C2001F0F7FD00200D
:1020700001F0F4FD4B2001F0F1FD002001F0EEFD38
:102080005D2001F0EBFD002001F0E8FD742001F07F
:10209000E5FD002001F0E2FD842001F0DFFD0020DD
:1020A00001F0DCFD932001F0D9FD002001F0D6FD08
:1020B000A22001F0D3FD002001F0D0FDB32001F0FB
:1020C000CDFD002001F0CAFDBE2001F0C7FD0020BB
:1020D00001F0C4FDC42001F0C1FD002001F0BEFDEF
:1020E000CD2001F0BBFD002001F0B8FDD32001F0B0
:1020F000B5FD002001F0B2FDDD2001F0AFFD0020B4
:1021000001F0ACFDF32001F0A9FD002001F0A6FDD7
:10211000E52001F0AFFD002001F0A0FD002001F05E
:102120009DFD002001F09AFD002001F097FD0220A6
:1021300001F094FD002001F091FD292001F08EFDB9
:10214000002001F08BFD3C2001F088FD002001F013
:1021500085FD4B2001F082FD002001F07FFD5D2018
:1021600001F07CFD002001F079FD742001F076FD86
:10217000002001F073FD842001F070FD002001F0CB
:102180006DFD932001F06AFD002001F067FDA220A3
:1021900001F064FD002001F061FDB32001F05EFD5F
:1021A000002001F05BFDBE2001F058FD002001F091
:1021B00055FDC42001F052FD002001F04FFDCD205F
:1021C00001F04CFD002001F049FDD32001F046FD57
:1021D000002001F043FDDC2001F040FD002001F073
:1021E0003DFDF32001F03AFD002001F037FDE6202F
:1021F00001F040FD112001F031FD002001F02EFD25
:10220000342001F02BFD002001F028FD562001F0C4
:1022100025FD002001F022FD762001F01FFD0020A9
:1022200001F01CFD772001F019FD002001F016FDE2
:10223000662001F013FD002001F010FD882001F060
:102240000DFD002001F00AFD992001F007FD00209E
:1022500001F004FDBB2001F001FD002001F0FEFCB7
:10226000992001F0FBFC002001F0F8FC662001F051
:10227000F5FC002001F0F2FC552001F0EFFC0020FD
:1022800001F0ECFC552001F0E9FC002001F0E6FC37
:10229000452001F0E3FC002001F0E0FC432001F0C8
:1022A000DDFC002001F0DAFC442001F0D7FC002026
:1022B00001F0D4FCE72001F0DDFC322001F0CEFC7F
:1022C000002001F0CBFC552001F0C8FC002001F0FB
:1022D000C5FC762001F0C2FC002001F0BFFC6620A6
:1022E00001F0BCFC002001F0B9FC672001F0B6FC55
:1022F000002001F0B3FC672001F0B0FC002001F0E9
:10230000ADFC872001F0AAFC002001F0A7FC992079
:1023100001F0A4FC002001F0A1FCBB2001F09EFC18
:10232000002001F09BFC992001F098FC002001F0B6
:1023300095FC772001F092FC002001F08FFC4420F6
:1023400001F08CFC002001F089FC562001F086FC95
:10235000002001F083FC232001F080FC002001F02C
:102360007DFC332001F07AFC002001F077FC452051
:1023700001F074FC002001F071FCE82001F07AFC0F
:10238000002001F06BFC002001F068FC992001F0B6
:1023900065FC002001F062FC872001F05FFC00205A
:1023A00001F05CFC882001F059FC002001F056FC93
:1023B000772001F053FC002001F050FC662001F072
:1023C0004DFC002001F04AFC882001F047FC002071
:1023D00001F044FCAA2001F041FC002001F03EFC89
:1023E000BB2001F03BFC002001F038FC992001F0FB
:1023F00035FC002001F032FC662001F02FFC0020AB
:1024000001F02CFC552001F029FC002001F026FCF5
:10241000552001F023FC002001F020FC442001F0B5
:102420001DFC002001F01AFC442001F017FC0020E4
:1024300001F014FC552001F011FC002001F00EFC0D
:10244000E92001F017FCAA2001F008FC002001F0AF
:1024500005FC002001F002FC002001F0FFFB002041
:1024600001F008FCAA2001F0F9FBCF2001F002FCEA
:10247000002001F0F3FB002001F0F0FB002001F050
:10248000EDFB002001F0EAFB002001F0E7FB00205B
:1024900001F0E4FB002001F0E1FB002001F0DEFB95
:1024A000002001F0DBFB002001F0D8FB002001F050
:1024B000D5FB002001F0D2FB002001F0CFFB002073
:1024C00001F0CCFB002001F0C9FB002001F0C6FBAD
:1024D000002001F0C3FBF02001F0CCFB002001F054
:1024E000BDFB502001F0BAFB002001F0B7FB00203B
:1024F00001F0B4FB002001F0B1FBF32001F0BAFBC6
:10250000002001F0ABFBF92001F0B4FB062001F044
:10251000A5FB102001F0A2FB292001F09FFB002069
:1025200001F09CFB3A2001F0A5FB552001F096FB41
:10253000112001F09FFB642002F0A2FB292001F092
:1025400099FB352001F096FB002001F087FB51201C
:1025500001F090FBFF2001F081FB532001F08AFB8A
:102560002C2001F07BFB552001F084FB822001F040
:1025700075FB2C2001F07EFB01F048B8FE488088F6
:1025800045F2105188427DD155214FF4704001F041
:1025900087FBAA214FF2010001F082FB52214FF28A
:1025A000020001F07DFB08214FF2030001F078FBEF
:1025B00001214FF2040001F073FB0D214FF4304074
:1025C00001F06EFB0D214BF2010001F069FB0D21C2
:1025D0004BF2020001F064FB34214FF4364001F06D
:1025E0005FFB34214BF2016001F05AFB34214BF2C6
:1025F000026001F055FB0D214FF4314001F050FB1A
:102600000D214BF2011001F04BFB0D214BF202109A
:1026100001F046FB34214FF4374001F041FB3421F7
:102620004BF2017001F03CFB34214BF2027001F0DF
:1026300037FB00214FF4324001F032FB00214BF216
:10264000012001F02DFB00214BF2022001F028FBBC
:1026500024214FF4384001F023FB24214BF60100E4
:1026600001F01EFB24214BF6020001F019FB0121B1
:102670004FF43F4001F014FB0F214FF4334001F0C1
:102680000FFB00E0FDE30F214BF2013001F008FBEE
:102690000F214BF2023001F003FB34214FF439409B
:1026A00001F0FEFA34214BF6011001F0F9FA342161
:1026B0004BF6021001F0F4FA08214FF4354001F016
:1026C000EFFA08214BF2015001F0EAFA08214BF22F
:1026D000025001F0E5FA03214FF4424001F0E0FA24
:1026E00024214FF43A4001F0DBFA24214BF601207B
:1026F00001F0D6FA24214BF6022001F0D1FA002194
:102700004FF43C4001F0CCFA78214BF6014001F047
:10271000C7FA00214BF6024001F0C2FA00214FF443
:102720003D4001F0BDFA78214BF6015001F0B8FAB6
:1027300000214BF6025001F0B3FA00214FF43E4065
:1027400001F0AEFA64214BF6016001F0A9FA002114
:102750004FF4514001F0A4FA33214DF2011001F081
:102760009FFA00214DF2021001F09AFA34214DF245
:10277000031001F095FA00214DF2041001F090FAD7
:102780003A214DF2051001F08BFA00214DF20610AE
:1027900001F086FA4A214DF2071001F081FA00217A
:1027A0004DF2081001F07CFA5C214DF2091001F0A5
:1027B00077FA00214DF20A1001F072FA81214DF2F0
:1027C0000B1001F06DFA00214DF20C1001F068FAC7
:1027D000A6214DF20D1001F063FA00214DF20E100A
:1027E00001F05EFAE5214DF20F1001F059FA0121D6
:1027F0004DF2101001F054FA13214DF2111001F0B6
:102800004FFA01214DF2121001F04AFA54214DF213
:10281000131001F045FA01214DF2141001F040FAB5
:1028200082214DF2151001F03BFA01214DF21610F4
:1028300001F036FACA214DF2171001F031FA0221E7
:102840004DF2181001F02CFA00214DF2191001F090
:1028500027FA02214DF21A1001F022FA01214DF25D
:102860001B1001F01DFA02214DF21C1001F018FAA4
:1028700034214DF21D1001F013FA02214DF21E1009
:1028800001F00EFA67214DF21F1001F009FA022142
:102890004DF2201001F004FA84214DF2211001F0D4
:1028A000FFF902214DF2221001F0FAF9A4214DF2B4
:1028B000231001F0F5F902214DF2241001F0F0F996
:1028C000B7214DF2251001F0EBF902214DF226104F
:1028D00001F0E6F9CF214DF2271001F0E1F90221D4
:1028E0004DF2281001F0DCF9DE214DF2291001F043
:1028F000D7F902214DF22A1001F0D2F9F2214DF25E
:102900002B1001F0CDF902214DF22C1001F0C8F985
:10291000FE214DF22D1001F0C3F903214DF22E10CE
:1029200001F0BEF910214DF22F1001F0B9F9032189
:102930004DF2301001F0B4F933214DF2311001F0B5
:10294000AFF903214DF2321001F0AAF96D214DF2D9
:10295000331001F0A5F900214FF4524001F0A0F925
:1029600033214DF2012001F09BF900214DF20220AC
:1029700001F096F9342101E0180200204DF2032005
:1029800001F08EF900214DF2042001F089F93A217D
:102990004DF2052001F084F900214DF2062001F0EE
:1029A0007FF94A214DF2072001F07AF900214DF21A
:1029B000082001F075F95C214DF2092001F070F951
:1029C00000214DF20A2001F06BF981214DF20B201C
:1029D00001F066F900214DF20C2001F061F9A62109
:1029E0004DF20D2001F05CF900214DF20E2001F0B6
:1029F00057F9E5214DF20F2001F052F901214DF276
:102A0000102001F04DF913214DF2112001F048F989
:102A100001214DF2122001F043F954214DF213200F
:102A200001F03EF901214DF2142001F039F9822123
:102A30004DF2152001F034F901214DF2162001F07C
:102A40002FF9CA214DF2172001F02AF902214DF287
:102A5000182001F025F900214DF2192001F020F98C
:102A600002214DF21A2001F01BF901214DF21B2029
:102A700001F016F902214DF21C2001F011F9342168
:102A80004DF21D2001F00CF902214DF21E2001F043
:102A900007F967214DF21F2001F002F902214DF2E2
:102AA000202001F0FDF884214DF2212001F0F8F8FA
:102AB00002214DF2222001F0F3F8A4214DF223204F
:102AC00001F0EEF802214DF2242001F0E9F8B721DF
:102AD0004DF2252001F0E4F802214DF2262001F00C
:102AE000DFF8CF214DF2272001F0DAF802214DF274
:102AF000282001F0D5F8DE214DF2292001F0D0F890
:102B000002214DF22A2001F0CBF8F2214DF22B20C8
:102B100001F0C6F802214DF22C2001F0C1F8FE218F
:102B20004DF22D2001F0BCF803214DF22E2001F0D2
:102B3000B7F810214DF22F2001F0B2F803214DF229
:102B4000302001F0ADF833214DF2312001F0A8F82A
:102B500003214DF2322001F0A3F86D214DF2332014
:102B600001F09EF800214FF4534001F099F8332111
:102B70004DF2013001F094F800214DF2023001F0E5
:102B80008FF834214DF2033001F08AF800214DF224
:102B9000043001F085F83A214DF2053001F080F85B
:102BA00000214DF2063001F07BF84A214DF207304A
:102BB00001F076F800214DF2083001F071F85C2147
:102BC0004DF2093001F06CF800214DF20A3001F0AD
:102BD00067F881214DF20B3001F062F800214DF2CF
:102BE0000C3001F05DF8A6214DF20D3001F058F8DF
:102BF00000214DF20E3001F053F8E5214DF20F3077
:102C000001F04EF801214DF2103001F049F8132186
:102C10004DF2113001F044F801214DF2123001F073
:102C20003FF854214DF2133001F03AF801214DF2F2
:102C3000143001F035F882214DF2153001F030F8F2
:102C400001214DF2163001F02BF8CA214DF2173058
:102C500001F026F802214DF2183001F021F8002190
:102C60004DF2193001F01CF802214DF21A3001F03A
:102C700017F801214DF21B3001F012F802214DF23C
:102C80001C3001F00DF834214DF21D3001F008F830
:102C900002214DF21E3001F003F867214DF21F3082
:102CA00000F0FEFF02214DF2203000F0F9FF8421F8
:102CB0004DF2213000F0F4FF02214DF2223000F0FD
:102CC000EFFFA4214DF2233000F0EAFF02214DF284
:102CD000243000F0E5FFB7214DF2253000F0E0FF91
:102CE00002214DF2263000F0DBFFCF214DF22730DC
:102CF00000F0D6FF02214DF2283000F0D1FFDE2196
:102D00004DF2293000F0CCFF02214DF22A3000F0C4
:102D1000C7FFF2214DF22B3000F0C2FF02214DF22D
:102D20002C3000F0BDFFFE214DF22D3000F0B8FF39
:102D300003214DF22E3000F0B3FF10214DF22F3061
:102D400000F0AEFF03214DF2303000F0A9FF332137
:102D50004DF2313000F0A4FF03214DF2323000F08B
:102D60009FFF6D214DF2333000F09AFF00214FF4A8
:102D7000544000F095FF33214DF2014000F090FFE8
:102D800000214DF2024000F08BFF34214DF2034050
:102D900000F086FF00214DF2044000F081FF3A214F
:102DA0004DF2054000F07CFF00214DF2064000F09E
:102DB00077FF4A214DF2074000F072FF00214DF2EB
:102DC000084000F06DFF5C214DF2094000F068FF03
:102DD00000214DF20A4000F063FF81214DF20B40CB
:102DE00000F05EFF00214DF20C4000F059FFA621DB
:102DF0004DF20D4000F054FF00214DF20E4000F066
:102E00004FFFE5214DF20F4000F04AFF01214DF246
:102E1000104000F045FF13214DF2114000F040FF3B
:102E200001214DF2124000F03BFF54214DF21340BE
:102E300000F036FF01214DF2144000F031FF8221F5
:102E40004DF2154000F02CFF01214DF2164000F02C
:102E500027FFCA214DF2174000F022FF02214DF258
:102E6000184000F01DFF00214DF2194000F018FF3E
:102E700002214DF21A4000F013FF01214DF21B40D8
:102E800000E005E300F00CFF02214DF21C4000F0D1
:102E900007FF34214DF21D4000F002FF02214DF2E8
:102EA0001E4000F0FDFE67214DF21F4000F0F8FECD
:102EB00002214DF2204000F0F3FE84214DF221402A
:102EC00000F0EEFE02214DF2224000F0E9FEA421C6
:102ED0004DF2234000F0E4FE02214DF2244000F0C8
:102EE000DFFEB7214DF2254000F0DAFE02214DF25F
:102EF000264000F0D5FECF214DF2274000F0D0FE55
:102F000002214DF2284000F0CBFEDE214DF2294097
:102F100000F0C6FE02214DF22A4000F0C1FEF2216F
:102F20004DF22B4000F0BCFE02214DF22C4000F08F
:102F3000B7FEFE214DF22D4000F0B2FE03214DF20E
:102F40002E4000F0ADFE10214DF22F4000F0A8FE03
:102F500003214DF2304000F0A3FE33214DF2314009
:102F600000F09EFE03214DF2324000F099FE6D21EB
:102F70004DF2334000F094FE00214FF4554000F034
:102F80008FFE33214DF2015000F08AFE00214DF2F8
:102F9000025000F085FE34214DF2035000F080FE17
:102FA00000214DF2045000F07BFE3A214DF2055015
:102FB00000F076FE00214DF2065000F071FE4A212D
:102FC0004DF2075000F06CFE00214DF2085000F069
:102FD00067FE5C214DF2095000F062FE00214DF2C7
:102FE0000A5000F05DFE81214DF20B5000F058FEBA
:102FF00000214DF20C5000F053FEA6214DF20D5071
:1030000000F04EFE00214DF20E5000F049FEE52189
:103010004DF20F5000F044FE01214DF2105000F02F
:103020003FFE13214DF2115000F03AFE01214DF206
:10303000125000F035FE54214DF2135000F030FED6
:1030400001214DF2145000F02BFE82214DF215505B
:1030500000F026FE01214DF2165000F021FECA219B
:103060004DF2175000F01CFE02214DF2185000F0F6
:1030700017FE00214DF2195000F012FE02214DF210
:103080001A5000F00DFE01214DF21B5000F008FE19
:1030900002214DF21C5000F003FE34214DF21D5070
:1030A00000F0FEFD02214DF21E5000F0F9FD6721F7
:1030B0004DF21F5000F0F4FD02214DF2205000F0BF
:1030C000EFFD84214DF2215000F0EAFD02214DF286
:1030D000225000F0E5FDA4214DF2235000F0E0FD68
:1030E00002214DF2245000F0DBFDB7214DF22550B6
:1030F00000F0D6FD02214DF2265000F0D1FDCF2187
:103100004DF2275000F0CCFD02214DF2285000F086
:10311000C7FDDE214DF2295000F0C2FD02214DF223
:103120002A5000F0BDFDF2214DF22B5000F0B8FD09
:1031300002214DF22C5000F0B3FDFE214DF22D5036
:1031400000F0AEFD03214DF22E5000F0A9FD10213C
:103150004DF22F5000F0A4FD03214DF2305000F04D
:103160009FFD33214DF2315000F09AFD03214DF2C5
:10317000325000F095FD6D214DF2335000F090FD7E
:1031800000214FF4564000F08BFD33214DF20160D9
:1031900000F086FD00214DF2026000F081FD342137
:1031A0004DF2036000F07CFD00214DF2046000F060
:1031B00077FD3A214DF2056000F072FD00214DF2DD
:1031C000066000F06DFD4A214DF2076000F068FDD9
:1031D00000214DF2086000F063FD5C214DF20960B2
:1031E00000F05EFD00214DF20A6000F059FD8121E2
:1031F0004DF20B6000F054FD00214DF20C6000F028
:103200004FFDA6214DF20D6000F04AFD00214DF268
:103210000E6000F045FDE5214DF20F6000F040FD2D
:1032200001214DF2106000F03BFD13214DF21160C1
:1032300000F036FD01214DF2126000F031FD542105
:103240004DF2136000F02CFD01214DF2146000F0EE
:1032500027FD82214DF2156000F022FD01214DF283
:10326000166000F01DFDCA214DF2176000F018FD38
:1032700002214DF2186000F013FD00214DF219609B
:1032800000F00EFD02214DF21A6000F009FD01214F
:103290004DF21B6000F004FD02214DF21C6000F0B5
:1032A000FFFC34214DF21D6000F0FAFC02214DF2CA
:1032B0001E6000F0F5FC67214DF21F6000F0F0FC8D
:1032C00002214DF2206000F0EBFC84214DF22160E0
:1032D00000F0E6FC02214DF2226000F0E1FCA421A6
:1032E0004DF2236000F0DCFC02214DF2246000F07E
:1032F000D7FCB7214DF2256000F0D2FC02214DF23F
:10330000266000F0CDFCCF214DF2276000F0C8FC14
:1033100002214DF2286000F0C3FCDE214DF229604D
:1033200000F0BEFC02214DF22A6000F0B9FCF2214F
:103330004DF22B6000F0B4FC02214DF22C6000F045
:10334000AFFCFE214DF22D6000F0AAFC03214DF2EE
:103350002E6000F0A5FC10214DF22F6000F0A0FCC3
:1033600003214DF2306000F09BFC33214DF23160BF
:1033700000F096FC03214DF2326000F091FC6D21CB
:103380004DF2336000F08CFC55214FF4704000F09A
:1033900087FCAA214FF2010000F082FC52214FF27B
:1033A000020000F07DFC08214FF2030000F078FCE1
:1033B00000214FF2040000F073FCCC214FF43140A7
:1033C00000F06EFC00214BF2011000F069FC0521B9
:1033D0004FF4364000F064FC70214FF4374000F0A9
:1033E0005FFC70214BF2017000F05AFC01214FF498
:1033F000384000F055FC03214BF6010000F050FC72
:1034000003214BF6020000F04BFC03214BF60300B6
:1034100000F046FC02214FF43C4000F041FC00214A
:103420004BF6014000F03CFC00214BF6024000F05E
:1034300037FCD0214FF4494000F032FC02214CF619
:10344000011000F02DFC50214CF6021000F028FC79
:1034500050214CF6031000F023FC50214CF60410D0
:1034600000F01EFC00214FF4545000F019FC5521CF
:103470004FF4685000F014FC4FF4885000F0FAFB51
:10348000782001F019FC4FF4245000F0F3FBBDE06C
:103490007E48808841F663118842F8D1E22000F02E
:1034A000E9FB1D2000F0DAFB022000F0D7FB04202E
:1034B00000F0D4FB642001F0FFFBE02000F0DAFB19
:1034C000012000F0CBFB0A2001F0DAFBE02000F045
:1034D000D1FB032000F0C2FB0C2001F0D1FB012046
:1034E00000F0C8FB0A2001F0CBFBE62000F0C2FB95
:1034F0002F2000F0B3FBFF2000F0B0FBFF2000F016
:10350000ADFBB02000F0B6FB202000F0A7FB0020B0
:1035100000F0A4FB032000F0A1FB40F21F3000F0FC
:103520009DFB012000F09AFB40F2DF1000F096FBBB
:10353000002000F093FBB42000F09CFB042000F07E
:103540008DFB40F21F4000F089FB002000F086FB5D
:103550002E2000F083FB002000F080FB002000F014
:103560007DFB002000F07AFB002000F077FBB62006
:1035700000F080FB022000F071FB4FF4037000F0BC
:103580006DFB002000F06AFB172000F067FB1520A0
:1035900000F064FB002000F061FB002000F05EFB07
:1035A000F02000F067FB032000F058FB292000F01A
:1035B00061FBD02000F05EFB002000F04FFBBE203E
:1035C00000F058FB052000F049FBFE2000F046FB10
:1035D000012000F043FB002000F040FB002000F041
:1035E0003DFB002000F03AFBB82000F043FB032035
:1035F00000F034FB012000F031FBBA2000F03AFB70
:10360000012000F02BFB642000F050F81F48808858
:1036100049F24131884211D01C48808845F210316E
:1036200088420BD01948808845F21051884205D055
:103630001648808841F6631188421CD114480068FE
:1036400020F00F004FF02041C1F804010846D0F8E7
:10365000040120F47060C1F804010846D0F80401A8
:1036600040F00400C1F804010846D0F8040140F419
:103670008060C1F804010020FDF7BCFB0120054972
:1036800008604FF6FF70FDF791FB1CBD180200208B
:10369000040100A09482404208B5034800880090CD
:1036A000BDF8000008BD00000000086070B52DEDF9
:1036B000048B0446BE2000F0DDFA052000F0CEFAAF
:1036C000204602F004FE41EC190B9FED0E0B53EC6B
:1036D000102B02F00FFE41EC180B02F0CBFD85B26F
:1036E000284600F0BBFA012000F0B8FAFF2000F0F5
:1036F000B5FA002000F0B2FA002000F0AFFABDECFD
:10370000048B70BD6666666666660440F0B5054665
:103710000024002799488079012805D1974880889E
:1037200041F66311884208D194488079F0B99348F2
:10373000808841F66311884218D1082D15D2DFE840
:1037400005F00406080A0C0E101206250DE00725E8
:103750000BE0042509E0052507E0012505E000252B
:1037600003E0032501E0022500BF00BF83488088F5
:1037700049F24131884211D08048808845F21031A9
:1037800088420BD07D48808845F21051884205D090
:103790007A48808841F6631188427DD1082D1CD279
:1037A000DFE805F00406090C0F12151800BF14E03D
:1037B00044F0800411E044F040040EE044F0C00402
:1037C0000BE044F0200408E044F0600405E044F01D
:1037D000A00402E044F0E00400BF00BF6748808816
:1037E00045F21051884202D14FF4585700E0362775
:1037F0006248808845F2103188420DD05F48808849
:1038000045F21051884207D05C48808841F6631128
:10381000884201D044F008042146384600F040FABE
:103820005648808841F6631188421DD004F020007C
:1038300068B15248008851494988884214DA4F4893
:10384000068840884D490880084646800CE04B4871
:1038500000884A494988884206DD484806884088E9
:1038600046490880084646804448808845F2105101
:10387000884254D14149488900F0FCF9002000F009
:10388000EDF93E494989491C88B200F0F3F900205E
:1038900000F0E4F9394900E06FE04989891C88B2F9
:1038A00000F0E8F935490988491EC1F30F2000F0FE
:1038B000D5F932494989C91C88B200F0DBF92F4992
:1038C0000978491EC8B200F0C9F92C49888900F06E
:1038D000D1F9002000F0C2F928498989491C88B231
:1038E00000F0C8F9002000F0B9F924498989891C41
:1038F00088B200F0BFF921494988491EC1F30F2061
:1039000000F0ACF91D498989C91C88B200F0B2F9F0
:103910001A498978491EC8B200F0A0F92DE017496C
:10392000488900F0A7F9002000F098F9002000F085
:1039300095F912490988491EC1F30F2000F08EF94C
:103940000E490978491EC8B200F088F90B498889E8
:1039500000F090F9002000F081F9002000F07EF9DD
:1039600006494988491EC1F30F2000F077F9034941
:103970008978491EC8B200F071F9F0BD1802002024
:1039800010B502460C464B48808849F241318842C6
:1039900005D04848808845F21031884214D1454905
:1039A000488900F067F9101200F058F9D0B200F021
:1039B00055F94049888900F05DF9201200F04EF970
:1039C000E0B200F04BF973E03A48808841F66311A9
:1039D000884247D137488079A8B936480088401EC8
:1039E000801A82B23349488900F044F9002000F07F
:1039F00035F9002000F032F9101200F02FF9D0B2A2
:103A000000F02CF916E02B49488900F033F9101228
:103A100000F024F9D0B200F021F926490988491EA6
:103A2000C1F30F2000F01AF922490978491EC8B2E3
:103A300000F014F91F49888900F01CF9201200F0E9
:103A40000DF9E0B200F00AF91A494988491EC1F39C
:103A50000F2000F003F917498978491EC8B200F019
:103A6000FDF825E01348808845F2105188421FD1A7
:103A70001049488900F0FEF8101200F0EFF80D49E7
:103A80004989491C88B200F0F5F8D0B200F0E6F898
:103A90000849888900F0EEF8201200F0DFF80549A7
:103AA0008989491C88B200F0E5F8E0B200F0D6F848
:103AB00010BD0000180200202DE9F84F80460F4687
:103AC00016461C46BB462046E31704EB5373DB1037
:103AD00021464FEAE47C04EB5C7C4FEAEC0CA4EB5F
:103AE000CC0CBCF1000F02D04FF0010C01E04FF004
:103AF000000C6344224604EBD27C4FEA6C0C03FBBF
:103B00000CF3DBB20093A6F12000C6B200255EE004
:103B10000C2C07D106EB46002F4901EB800010F872
:103B200005901BE0102C05D12C4800EB061010F876
:103B3000059013E0182C07D106EBC600284901EBCD
:103B4000800010F8059009E0202C05D1254800EBF5
:103B5000C61010F8059001E0BDE8F88F4FF0000A9C
:103B60002FE009F0800030B11F4839460268404616
:103B7000FDF700FA07E00A9828B91C4839460268A0
:103B80004046FDF7F7F94FEA49604FEA1069781CA3
:103B900087B217484088B84200DCDDE7A7EB0B008E
:103BA000A0420AD15F4608F101001FFA80F81048D0
:103BB0000088404500DCCFE706E00AF1010000F094
:103BC000FF0ABAF1080FCCDB00BF681CC5B2009831
:103BD00085429DDB00BFBFE71265000886690008CB
:103BE000766F0008D27C00080C0000201000002036
:103BF000180200202DE9F84F04460D4690469946DC
:103C0000DDE90A6704F0FF0A08EB04001FFA80F8F8
:103C100009EB05001FFA80F916E0444502DB544623
:103C2000A81985B24D4500DB14E0002000903A78D9
:103C3000334629462046FFF73FFF304606EBD0715A
:103C400004EB61018CB27F1C38787E2802DC387866
:103C50002028E2DA00BFBDE8F88F000001B5BDF80A
:103C600000000090BDF800000149088008BD000078
:103C70000000086001B5BDF800000090BDF800002C
:103C80000149088008BD0000FEFF07600248008966
:103C9000024908807047000018020020FEFF0760FC
:103CA000024A1080921C118070470000FEFF0760DE
:103CB0001CB50B48006840F002000949086001206B
:103CC000032100230246CDE900100648FCF720FE40
:103CD0000120054908600549C1F880021CBD0000AB
:103CE000303802400004024084824042008040425A
:103CF00018B5044606480094008B401E83B2044861
:103D0000C08A401E82B20021084600F08DF818BD1E
:103D100028020020F0B503460C461546002100207D
:103D20000022214E366826F080561F4F3E6001E08B
:103D30004E1CB1B21C4E366806F000561EB141F65C
:103D4000FF76B142F4DB41F6FF76B14201D10120AA
:103D500029E042EA831242EA0472134E8836326046
:103D6000361D366826F440360F4F8C373E603E468F
:103D7000366846EA05463E600B4E366846F0805689
:103D8000094F3E6001E04E1CB1B2074E366806F0A6
:103D900000561EB941F6FF76B142F4DB41F6FF76DC
:103DA000B14200D10220F0BD0038024009494875F7
:103DB00030B98988074AD18211460988118308E001
:103DC000012806D103490988024AD182114689880F
:103DD000118370472802002070B5114B5B7D6BB1D9
:103DE0000F4BDB690E4D2D6805FB01056B430C4D38
:103DF0002D7D0C4E56F82550EA520FE0084B1D68F9
:103E00005B681B1A5B1E05FB0313054DED696B43D5
:103E1000034D2D7D034E56F82550EA5270BD00002B
:103E200028020020140000202DE9F04F04460D4622
:103E300016464FF0000CDFF8289199F81590B9F16B
:103E4000000F04D02046294632461F4611E028467E
:103E5000DFF80C91D9F80490A9EB0609A9F101014A
:103E60001A46DFF8FC90D9F80490A9EB0409A9F1EF
:103E70000107DFF8EC90B9F80090A2EB000A0AF114
:103E8000010AA9EB0A091FFA89F8DFF8D49099F81A
:103E90001490DFF8D0A05AF82990DFF8C4A0DAF81F
:103EA0001CA0DFF8BCB0DBF800B00BFB010B0AFB79
:103EB0000B9EDFF8B490D9F8009049F40009DFF8C0
:103EC000A8A0CAF80090DFF8A490D9F8009029F0D3
:103ED0000109DFF898A0CAF800904FF44039CAF8F9
:103EE00000904FF00209CAF83490D146C9F84080DA
:103EF000C9F83CE0A7EB010909F10109A2EB000AAE
:103F00000AF1010A49EA0A49DFF860A0CAF84490B8
:103F1000DDF82490CAF83890D146D9F8009049F0DD
:103F20000109CAF8009005E00CF1010CBCF5001F76
:103F300000D308E0DFF83490D9F8049009F00209C2
:103F4000B9F1000FF0D000BFDFF82090D9F8089049
:103F500049F00209DFF814A0CAF80890BDE8F08F14
:103F600028020020140000203038024000B0024037
:103F70007FB50024002500F0D1FA0546D34800683B
:103F800040F08060D1490860D0481438006840F0A3
:103F90000200CE49143908600846006840F4F07009
:103FA00008600120022100230246CDE900102021F3
:103FB000C748FCF7ADFC0120032100230222CDE914
:103FC00000108102C348FCF7A3FC01200321002359
:103FD0000222CDE900104FF40C61BF48FCF798FCB9
:103FE0000120032100230222CDE900104FF47E417D
:103FF000BA48FCF78DFC0120032100230222CDE901
:10400000001040F2F761B648FCF782FC0E220A214C
:10401000B048FCF75DFC0E220621AF48FCF758FCC7
:104020000E220721AC48FCF753FC0E220B21AA48B4
:10403000FCF74EFC0E220921A848FCF749FC0E2291
:104040000A21A648FCF744FC0E220B21A348FCF7EA
:104050003FFC0E220C21A148FCF73AFC0E220D2158
:104060009E48FCF735FC0E2211469C48FCF730FCBC
:104070000E220F219948FCF72BFC0E2200219848B4
:10408000FCF726FC0E2201219548FCF721FC0E22AC
:1040900002219348FCF71CFC0E2204219048FCF7F7
:1040A00017FC0E2205218E48FCF712FC0E22062179
:1040B0008B48FCF70DFC0E2207218948FCF708FC11
:1040C0000E2209218648FCF703FC0E220A218448AF
:1040D000FCF7FEFB44F24230854218D14FF4F070F9
:1040E000804908604FF48870486001200881488149
:1040F000282088810820C88105200882082048825D
:10410000022204214FF49070FFF704FE50E047F2C2
:104110008400854218D14FF44870724908604FF40A
:10412000F07048600120088148812E208881172086
:10413000C881D220088216204882012203214FF430
:10414000C670FFF7E7FD33E047F21600854219D14C
:104150004FF48060634908604FF416704860142083
:104160000881032048818C2088811420C881A020E8
:1041700008820C204882012202214FF4B470FFF71C
:10418000C9FD15E047F21800854207D14FF4A06041
:10419000544908604FF44870486009E048F216003E
:1041A000854205D140114F4908604FF416704860B0
:1041B000002400BF00BF00BF4B480460494840894D
:1041C000441E48480089401E44EA004446481038CE
:1041D0000460444840894349C9890844441E414811
:1041E0000089404989890844401E44EA00443E4809
:1041F0000C3804603B4840893A49C9890844394928
:1042000049680844441E374800893649898908446A
:10421000344909880844401E44EA004432480838BA
:104220000460304840892F49C98908442D494968AC
:1042300008442C49498A0844441E2A4800892949CF
:10424000898908442749098808442649098A084475
:10425000401E44EA00442448001F04600020224914
:1042600014310860012000F0AFF9204820490860AF
:1042700002201C49C861002007210622CDE9000266
:10428000CDE902101A48FF2302220168002000F045
:1042900035F81448808880B200901248008883B2B4
:1042A00000221146104600F09DF80E480088114982
:1042B00008800C4880884880002000F07FF90120A9
:1042C0000D490860801EFFF713FD7FBD4438024092
:1042D000000402400014024000180240001C02408A
:1042E000002002402802002018680140000000C0A1
:1042F0001400002018020020948240422DE9F04171
:1043000006ACF0CCE0B9DFF878C0CCF80010DFF8EC
:1043100070C0ACF1180CCCF800200CF1040CCCF8F7
:10432000003047EA046CDFF85880A8F11008C8F89C
:1043300000C046EA052C08F10408C8F800C01DE0DA
:10434000DFF83CC00CF1800CCCF80010DFF830C076
:104350000CF1680CCCF800200CF1040CCCF8003007
:1043600047EA046CDFF8188008F17008C8F800C04C
:1043700046EA052C08F10408C8F800C0BDE8F08141
:10438000AC680140012910D130B9154A126842F0D9
:104390000102134B1A6019E0114A8032126842F090
:1043A00001020F4B80331A6010E079B930B90C4A22
:1043B000126822F001020A4B1A6007E0084A8032B4
:1043C000126822F00102064B80331A60044A603AF8
:1043D000126842F00102024B603B1A607047000015
:1043E000846801402DE9F04782460F4690461E46FC
:1043F000DDF820900025BAF1000F43D1B8194549E6
:104400000968C1F30B410844040442480068C0F342
:104410000B403844401C20433E497C31086008EB87
:1044200009003C490968C1F30A01084404043948F9
:104430000068C0F30A004044401C204335498031E5
:10444000086034488830006800F007050DB904247E
:104450000AE0012D01D1032406E0052D01D0062D2F
:1044600001D1012400E0022406FB04F0C01C06FB7D
:1044700004F140EA01402749A4310860081DC0F852
:10448000009041E0B81923490968C1F30B41084481
:10449000040420480068C0F30B403844401C20430B
:1044A0001C49FC31086008EB09001A490968C1F38E
:1044B0000A010844040417480068C0F30A00404495
:1044C000401C20431449086013480830006800F07D
:1044D00007050DB904240AE0012D01D1032406E0EB
:1044E000052D01D0062D01D1012400E0022406FB98
:1044F00004F0C01C06FB04F140EA014006492431E7
:104500000860081DC0F8009001215046FFF73AFFEF
:10451000BDE8F0870C6801400C6901401CB500241F
:104520002048006840F4A0701E4908600120002166
:104530000B460A46CDE9001040211B48FCF7E8F97C
:10454000012000210B460A46CDE9001084211748BE
:10455000FCF7DEF916480068C4B21648D0F8080225
:1045600044EA4000C4B21448006844EA8000C4B27F
:1045700014B944F242301CBD012C02D147F2840030
:10458000F9E7022C02D147F21600F4E7032C02D11E
:1045900047F21800EFE7042C02D148F21600EAE7D0
:1045A0000020E8E7303802400018024000200240B6
:1045B00018024342000044421C024442014908756B
:1045C0007047000028020020012806D10749096829
:1045D00041F00101054A116006E028B90349096864
:1045E00021F00101014A1160704700001868014084
:1045F0002DE9F0410746884614461D46284600F03E
:1046000033F8C5F1040007FA00F60F20284100EA4C
:104610000800064306F00F06E21704EBD2625211BF
:10462000920002F1E022D2F800212146E31704EBC8
:10463000D3635B11A4EB431C012303FA0CF31A436D
:104640002046E31704EBD3635B119B0003F1E023E7
:10465000C3F800210348005D40EA061001490855EF
:10466000BDE8F08100E400E00146072323EA0102EF
:104670001202054B18684FF6FF031840034B18430E
:104680001043014B186070470CED00E00000FA0584
:104690004A0A52020243014B1A60704708ED00E0DB
:1046A0007CB5002400250026A948006840F00100E0
:1046B000A7490860A6480838006840F07C00A44973
:1046C000083908600120032100230222CDE90010EF
:1046D0000D21A048FCF71CF9012003210023022230
:1046E000CDE900104CF203719B48FCF711F9012051
:1046F000032100230222CDE900104FF68371974871
:10470000FCF706F90120032100230222CDE9001065
:104710004FF63F019248FCF7FBF8012003210023EC
:104720000222CDE9001048F237118E48FCF7F0F86C
:104730000C2200218748FCF7CBF80C220221854887
:10474000FCF7C6F80C2203218248FCF7C1F80C22C2
:1047500000218148FCF7BCF80C2201217E48FCF7BF
:10476000B7F80C2208217C48FCF7B2F80C2209218A
:104770007948FCF7ADF80C220A217748FCF7A8F835
:104780000C220E217448FCF7A3F80C220F2172486A
:10479000FCF79EF80C2200217048FCF799F80C22D7
:1047A00001216E48FCF794F80C2207216B48FCF7B6
:1047B0008FF80C2208216948FCF78AF80C2209219D
:1047C0006648FCF785F80C220A216448FCF780F85B
:1047D0000C220B216148FCF77BF80C2211465F4844
:1047E000FCF776F80C220D215C48FCF771F80C22DE
:1047F0000E215A48FCF76CF80C220F215748FCF7A1
:1048000067F80C2200215648FCF762F80C220121BF
:104810005348FCF75DF80C2202215148FCF758F888
:104820000C2203214E48FCF753F80C2204214C487B
:10483000FCF74EF80C2205214948FCF749F80C22F8
:104840000B214748FCF744F80C2211464448FCF77A
:104850003FF80C220D214248FCF73AF80C220E21B9
:104860003F48FCF735F80C220F213D48FCF730F8A3
:104870000C2200213B48FCF72BF80C22012139487F
:10488000FCF726F80C2202213648FCF721F80C220E
:1048900004213448FCF71CF80C2205213148FCF7B0
:1048A00017F80C2208212F48FCF712F80C220F21D0
:1048B0002C48FCF70DF844F0010444F0080444F0DF
:1048C000100444F0400444F4C07400BF44F4006495
:1048D00044F4805400BF2448046045F0010545F0CD
:1048E000600545F4A06545F4A04545F4803545F4E0
:1048F000801545F08075C005C0F8485100231A4660
:104900000121184600F032F84FF4FA7000F0D4F9A3
:1049100000231A460221184600F028F80023082236
:104920000321184600F022F846F0030600BF46F0C7
:10493000300600BF46F400763346002204211046BC
:1049400000F014F840F2B4500749143108607CBDFF
:104950003838024000080240000C024000100240BB
:104960000014024000180240400100A0F0B50446C7
:104970000D46002600212943C4F104070120B84058
:10498000014341EA421141EA43210948016005E03F
:10499000761CB6F5001F01D30120F0BD0448083095
:1049A000006800F020000028F2D100BFF5E7000009
:1049B000500100A0F0B504460D4616461F461448A7
:1049C000006840F0010012490860002010490831D9
:1049D00008600F4800680F4908400D4908600E48FC
:1049E000091D0860081F006820F48020091F086066
:1049F000002007490C3108603B46324629462046D4
:104A000000F00CF800210846FFF742FEF0BD000060
:104A100000380240FFFFF6FE10300024F0B50446D7
:104A20000D46002100203D4E366846F480363B4F4F
:104A30003E6001E04E1CB1B2384E366806F40036D6
:104A40001EB941F6FF76B142F4DB41F6FF76B14282
:104A500001D1012060E0314E4036366846F0805684
:104A60002E4F40373E602E4E366846F440462C4F5F
:104A70003E602A4E0836366846F41446274F0837FB
:104A80003E60264E366826F08076244F3E6045EA2A
:104A900084160127C7EB520746EA074646EA036633
:104AA00046F480061D4F3F1D3E603E1F366846F0AF
:104AB00080763F1F3E6000BF184E366806F00076D5
:104AC000002EF9D0174E366846F48076154F3E60BA
:104AD0003E46366846F400763E603E46366846F40A
:104AE00080663E603E46366846F005063E600B4EE8
:104AF0000836366826F00306084F08373E603E4603
:104B0000366846F002063E6000BF044E083636683E
:104B100006F00C06082EF8D1F0BD00000038024067
:104B200000700040003C024010B50C48006800F0E6
:104B3000010058B10A49086980470020074914312B
:104B400008604FF47A7005491C310860034800681A
:104B500020F001000149086010BD0000100800406D
:104B60005C00002070B505460C461048006840F017
:104B700004000E4908600E480560001F04600C48E0
:104B80002038006840F001000949203908600848D1
:104B90002C38006840F0010005492C3908600223D8
:104BA0001E2203210846FFF723FD70BD4038024056
:104BB0002C0800401C49096801F0200109B31A497A
:104BC0004968C8B21949098801F40041C9B91749AF
:104BD000098801F4804161B10A2803D00021134AF9
:104BE000118020E01149098841F400410F4A1180E9
:104BF00019E00D2806D10D49098841F480410B4A7E
:104C0000118010E009490988C1F30D01084A505488
:104C100006490988491C054A118011460988C72997
:104C200001DD0021118070470010014008000020C4
:104C30005001002030380A2801D20120704700209E
:104C4000704700BF704700004FF0E021096921F074
:104C500004014FF0E0221161C21700EB5272C2F35F
:104C6000C702054B1A704FF47A714143C1F3CF016B
:104C7000024A11807047000000000020020000205E
:104C800070B504464FF4077094FBF0F0C6B24FF4D1
:104C9000077094FBF0F100FB114085B205E04FF482
:104CA000077000F027F8701EC6B2002EF7D115B1BC
:104CB000284600F01FF870BD01460D4A12784A439D
:104CC0004FF0E0235A6100229A6101221A6100BF6D
:104CD0004FF0E022106900F001021AB100F48032B6
:104CE000002AF5D000224FF0E0231A619A61704744
:104CF0000000002001460D4A12884A434FF0E0238D
:104D00005A6100229A6101221A6100BF4FF0E0222D
:104D1000106900F001021AB100F48032002AF5D0C7
:104D200000224FF0E0231A619A61704702000020D0
:104D300000BF054A126802F04002002AF9D0C2B250
:104D4000014B5A60704700000010014088B00025F8
:104D50000823022219214FF4B470FFF72BFEB42070
:104D6000FFF772FF4FF4E1315A2000F05DF96D4812
:104D700041685A208847FEF79BFFFFF791FCFCF73C
:104D8000C3F9FBF78BFFFBF728FD4FF4784066492A
:104D9000086066A010210B46C822CDE90010322120
:104DA0001E20FEF727FF66A010210B46C822CDE982
:104DB000001046211E20FEF71DFF64A010210B46A7
:104DC000C822CDE900105A211E20FEF713FF63A070
:104DD00010210B46C822CDE900106E211E20FEF7DF
:104DE00009FF61A010210B46C822CDE900108221E5
:104DF0001E20FEF7FFFE23E061A010210B46C82213
:104E0000CDE9001096211E20FEF7F4FE4FF4FA7053
:104E1000FFF736FF5FA010210B46C822CDE9001036
:104E200096211E20FEF7E6FE4FF4FA70FFF728FFEA
:104E30005D48006808B9012000E000205A49086078
:104E4000FBF7B4FC0028D7D158A010210B46C8228C
:104E5000CDE9001096211E20FEF7CCFE1F2032491E
:104E600008605DE00020FBF751FF0446022C22D1D0
:104E70004FF6FF7040F23F13EF22AA21009000206E
:104E8000FCF70AF94DA010210B46C822CDE900100D
:104E9000AA211E20FEF7AEFE18224E490020FBF785
:104EA000DDFC4DA010210B46C822CDE90010AA213F
:104EB0001E20FEF79FFE012C22D14DA010210B4693
:104EC000C822CDE90010AA211E20FEF793FE182269
:104ED00002A90020FBF785FC4BA010210B46C8223D
:104EE000CDE90010AA211E20FEF784FE02A81021A1
:104EF0000B46C822CDE90010BE211E20FEF77AFE27
:104F0000681C85B20A20FFF7BBFE142D08D1264885
:104F1000006808B9012000E000202349086000254E
:104F2000A0E700005C0000200C00002041706F6CC6
:104F30006C6F2053544D333246342F4637000000F7
:104F400049494320544553540000000041544F4DFB
:104F500040414C49454E54454B00000032303135FC
:104F60002F31322F323700004B4559313A57726991
:104F7000746520204B4559303A5265616400000049
:104F8000323443303220436865636B204661696C7C
:104F900065642100506C6561736520436865636BCF
:104FA00021202020202020008482404232344330BF
:104FB00032205265616479210000000053746172EF
:104FC000742057726974652032344330322E2E2E8D
:104FD0002E000000FA640008323443303220577249
:104FE0006974652046696E69736865642100000014
:104FF00053746172742052656164203234433032DC
:105000002E2E2E2E2000000054686520446174610D
:10501000205265616465642049733A2020000000D5
:105020000146086870470000F0B52DED028B83B093
:1050300005460E46384905FB01F000EE100AF8EE71
:10504000400A300100EE100AB8EE400A80EE801AE5
:10505000B0EE418ABCEEC80A10EE100A84B200EE2F
:10506000104AB8EE400A38EE400AF3EE000A20EE8D
:10507000200ABCEEC00A10EE107A4FF6FF7000EA6C
:105080000414E01984B22548006840F00100234967
:10509000086022481430006840F010001F491431A5
:1050A00008600120022100230A46CDE900104FF4D8
:1050B000C0611B48FBF72CFC072209211848FBF7AD
:1050C00007FC07220A211648FBF702FC15488460FA
:1050D000C06820F400401349C8600846C06840F02A
:1050E0000800C8600846C06840F00400C860084670
:1050F000C06840F02000C860022325220321084632
:10510000FFF776FA0748C06840F400500549C860C8
:1051100003B0BDEC028BF0BD40420F0030380240BE
:10512000000002400010014030B595B0054613ABB9
:1051300012AA09A9284600F03FFA044614B12046F5
:1051400015B030BD0020149026E0224909689DF872
:10515000502001EBC20113AB11AA486801A900F06D
:105160002BFA04460CB12046EAE709A901A800F091
:10517000DDFC60B99DF844009DF84810884201DDCF
:105180000220DDE79DF85000124988750AE09DF87D
:105190005000401CC0B214900E48007D9DF8501085
:1051A0008842D2DC00BF0B48007D9DF85010884239
:1051B00001D10420C4E714A9284600F0DDFA044612
:1051C0000CB12046BCE79DF850000249487500200C
:1051D000B6E700005C0000202DE9F0419AB09C4841
:1051E000847D007DA04202DC1AB0BDE8F0819849C0
:1051F000096801EBC40106AB07AA486808A900F0DA
:10520000DBF908A993A0FBF775F8002644E0904865
:10521000008B0121B1400840D8B122218FA0FBF7BB
:1052200069F8304600F02EFB894924314718394689
:105230008BA0FBF75FF8222188A0FBF75BF83046D4
:1052400000F020FB82492431084410A941F82600CF
:1052500018E0304600F016FB7D492431085810A9AB
:1052600041F826007A48C07D30B910A850F82610C1
:105270007CA0FBF73FF805E010A850F826107AA0B4
:10528000FBF738F89DF81C00401EB04202D078A011
:10529000FBF730F8701CC6B29DF81C008642B6DBE6
:1052A00074A0FBF727F800F03DFB6948407D0B2810
:1052B0000DD2DFE800F0060D151E27323F4E5F725B
:1052C00087006349096851F834008047054690E03B
:1052D0005F4A126852F8341010988847054688E0F3
:1052E0005B4B1B6853F83420DDE9100190470546FD
:1052F0007FE0574F3F6857F8343010A807C89847E9
:10530000054676E0DFF848C1DCF800C05CF8347090
:1053100010A80FC8B84705466BE01498DFF830C1F5
:105320000090DCF800C05CF8347010A80FC8B847D3
:1053300005465EE0DDE91401DFF814C1CDE90001A6
:10534000DCF800C05CF8347010A80FC8B8470546F8
:105350004FE0DDE914121698DFF8F4C0CDE9001231
:105360000290DCF800C05CF8347010A80FC8B84791
:1053700005463EE0DDE91423DDE91610DFF8D0C074
:10538000CDE90023CDE90210DCF800C05CF83470F0
:1053900010A80FC8B84705462BE0DDE91523DDE965
:1053A0001710CDE90123CDE903101498DFF8A0C050
:1053B0000090DCF800C05CF8347010A80FC8B84743
:1053C000054616E0DDE91623DDE91810CDE90223D4
:1053D000CDE90410DDE91401DFF874C0CDE9000166
:1053E000DCF800C05CF8347010A80FC8B847054658
:1053F00000BF00BF00F056FA9DF8180001280CD13C
:105400001348C07D20B929461BA0FAF773FF07E0B7
:1054100029461BA0FAF76EFF02E018A0FAF76AFF10
:105420000B4890F8EC0088B10948D0F8F0000A2148
:10543000B0FBF1F201FB12070548D0F8F000B0FB19
:10544000F1F83A46414611A0FAF754FF00BFCBE607
:105450005C0000200D0A2573280000002563000071
:1054600025730000256C64003058255800000000AA
:105470002C000000290000003D256C753B0D0A0042
:105480003D305825583B0D0A0000000046756E63FC
:1054900074696F6E2052756E2054696D653A25648B
:1054A0002E2531646D730D0A00000000F0B503462F
:1054B000154600200022002600245BE01F782C2FD8
:1054C00001D104B901221F78292F01D01F780FB90B
:1054D00004B950E0002E3AD11F78302F02DB1F783C
:1054E000392F17DD1F782D2F14D01F782B2F11D0B7
:1054F0001F78612F02DB1F78662F0BDD1F78412F8D
:1055000002DB1F78462F05DD1F78582F02D01F7849
:10551000782F0CD102B12EE01F78612F03DB1F78AA
:10552000203F0F7001E01F780F70491C1FE01F78AB
:10553000222F04D102B11EE00126012417E01F78BA
:10554000202F14D01F782C2F11D0FF2613E01F78A6
:10555000222F00D1002402B10DE044B11F785C2F4E
:1055600002D15B1C471CF8B21F780F70491C471C06
:10557000F8B25B1CA2E700BF00270F702E70F0BDD1
:1055800010B50446002010700BE020780870641CF1
:10559000491C1078401C10701078984201DB0120E3
:1055A00010BD2078202802D020780028EDD10020DE
:1055B000087000BFF4E700002DE9FF4F85B080467A
:1055C00089460027002004900390012002904FF0AC
:1055D000000B002544461DE02078202816D005F059
:1055E0007F00052812DA0DB945F0800505F07F002F
:1055F000042803D120782A2800D00EE0207805F076
:105600007F010DF80100681CC5B202E0852D00D1B4
:1056100003E0641C20780028DED100BF8DB100209B
:1056200005F07F010DF8010051A1684600F07EFAF7
:1056300018B900210898017002E001210898017052
:1056400000254FF0000A444614E0641C0AF10100F2
:1056500000F0FF0A2078202802D020782A2809D1DB
:10566000204600F0D5F90646282E03D02A2E01D078
:10567000CDF810A02078282802D020780028E4D186
:105680004446049810B10498401C04444FF0000AAA
:10569000002654E0207810B94FF0010A50E020783D
:1056A000282803D116B9781CC7B213E0207829281E
:1056B00008D13EB917B1781EC7B201E04FF0010A18
:1056C00047B93DE02078222804D10EB9012000E03E
:1056D0000020064647B9207820282FD0207889F866
:1056E000000009F1010929E020782C2804D10120CB
:1056F0000290681CC5B214E02078202811D02078D0
:1057000028280ED04DB9BBF1050F06DA20780DF828
:105710000B000BF1010000F0FF0B0298401CC0B21F
:105720000290012F0AD10298022807D10298401C4A
:10573000C0B202900398401CC0B20390641CA9E759
:1057400000BF0398012809D100200DF80B0008A123
:10575000684600F0EBF908B9002003900799039818
:105760000870002089F80000504609B0BDE8F08FAD
:10577000766F6964000000002DE9F043B5B005467E
:105780000F460024002604E000213D488155701C8E
:10579000C6B20A2EF8DB06E06D1C287818B9012085
:1057A00035B0BDE8F08328782828F5D16D1C61E07C
:1057B00034AA69462846FFF779FE064635449DF827
:1057C000D00020B1012827D0FF284CD149E09DF816
:1057D000000000B333A9684600F025F906460EB173
:1057E0000220DDE7204600F04DF825490A31339AC2
:1057F0000A50A1F12400008B0121A14088432049D7
:105800001A39088304211E480155601CC4B20A2CB1
:1058100001DD0320C4E726E0684600F0A3F9401C40
:1058200000F0FF08204600F02DF815490A3100EB82
:1058300001094946684600F08AF911481A38018B77
:105840000120A040014388B20D491A3908830C4851
:1058500000F80480601CC4B20A2C01DD03209FE71D
:1058600001E002209CE700BF2878292801D0287891
:1058700000B900E09CE700BF3C70002090E700000A
:105880007600002002460020002105E0044B5B5C0E
:105890000344D8B24B1CD9B29142F7DB70470000E9
:1058A000760000200D48006800F0010040B10C486F
:1058B000D0F8F0004FF6FF7108440949C1F8F00034
:1058C0000748D0F8F0000549143109680844044934
:1058D000C1F8F0000846D0F8F0007047100800400A
:1058E0005C00002010B5044604EBC40000EB04107B
:1058F0000122C2EB800081B24FF47A70FFF732F9D7
:1059000001200149C87510BD5C00002010B5024699
:10591000012000E050430B1EA1F10104E1B2F9D1D6
:1059200010BD00000948006820F001000749086028
:105930004FF6FF7005491C310860002003491431FF
:1059400008600349C1F8F0007047000010080040EB
:105950005C00002070B51D48008800F4004000285D
:1059600033D01A48057800201949485519488168EC
:105970001748884704461CB91649C868804721E083
:10598000134800F0FBF80546012D00D02C46CCB1A1
:10599000012C06D0022C08D0032C0AD0042C10D1E4
:1059A0000BE00DA0FAF7A6FC0BE00EA0FAF7A2FCA4
:1059B00007E00FA0FAF79EFC03E010A0FAF79AFCAC
:1059C00000BF00BF00200149088070BD0800002012
:1059D000500100205C000020BAAFCAFDB4EDCEF348
:1059E000210D0A00B2CECAFDB4EDCEF3210D0A009E
:1059F000B2CECAFDCCABB6E0210D0A00CEB4D5D2F2
:105A0000B5BDC6A5C5E4B5C4BAAFCAFD210D0A002F
:105A10000146491C00E0491C0878202801D10029D2
:105A2000F9D1087870472DE9F04F05460F4600265A
:105A30004FF00A09B3462C460020386034E0207845
:105A4000392802DC2078302811DA28782D2802D075
:105A500028782B2800D156B12078462802DC2078FF
:105A6000412804DA2078582817D1012E15D1207842
:105A7000412801DB4FF0100928782D2803D14FF081
:105A8000020B6D1C0FE028782B2803D14FF0010B7F
:105A90006D1C08E0701CC6B205E0207800B904E077
:105AA0000120BDE8F08F641CC9E700BF2C46B9F1A6
:105AB000100F0FD1032E01DA0220F2E720783028F0
:105AC00006D16078582803D1A41CB01EC6B204E0E9
:105AD0000320E6E70EB90420E3E71BE00EB1701ED9
