:020000040800F2
:10000000E8C600202103000821550008A3210008AC
:100010001F550008FD080008295B000800000000CB
:10002000000000000000000000000000690200085D
:100030001509000800000000BD020008FD56000878
:100040003B0300083B0300083B0300083B03000898
:100050003B0300083B0300083B0300083B03000888
:100060003B0300083B0300083B0300083B03000878
:100070003B0300083B0300083B0300083B03000868
:100080003B0300083B0300083B0300083B03000858
:100090003B0300083B0300083B0300083B03000848
:1000A0003B0300083B0300083B0300083B03000838
:1000B0003B030008695700083B0300083B030008A6
:1000C0003B0300083B0300083B0300083B03000818
:1000D0003B030008E55A00083B0300083B03000807
:1000E0003B0300083B0300083B0300083B030008F8
:1000F0003B0300083B0300083B0300083B030008E8
:100100003B0300083B0300083B0300083B030008D7
:100110003B0300083B0300083B0300083B030008C7
:100120003B0300083B0300083B0300083B030008B7
:100130003B0300083B0300083B0300083B030008A7
:100140003B0300083B0300083B0300083B03000897
:100150003B0300083B0300083B0300083B03000887
:100160003B0300083B0300083B0300083B03000877
:100170003B0300083B0300083B03000800000000AD
:100180003B0300083B0300083B0300083B03000857
:100190003B0300083B0300083B0300083B03000847
:1001A0003B0300083B0300083B03000800F002F893
:1001B00000F04AF80AA090E8000C82448344AAF1B7
:1001C0000107DA4501D100F03FF8AFF2090EBAE8B5
:1001D0000F0013F0010F18BFFB1A43F0010318477B
:1001E000F4C6000014C70000103A24BF78C878C1D4
:1001F000FAD8520724BF30C830C144BF04680C602D
:10020000704700000023002400250026103A28BF74
:1002100078C1FBD8520728BF30C148BF0B60704778
:10022000642900F01D81752900F01A81782900F0F9
:100230005381732900F0ED82002070471FB507F04D
:1002400087FF1FBD10B510BD00F025FB1146FFF75D
:10025000F5FF05F00BFD00F043FB03B4FFF7F2FFE1
:1002600003BC05F062FC00002A4B19680868B0E87E
:10027000F04F80F30988BFF36F8F4FF0000080F3D9
:10028000118870470000000006480068006880F38D
:10029000088862B661B6BFF34F8FBFF36F8F00DF80
:1002A00000BF00BF08ED00E0DFF80C00016841F47A
:1002B00070010160704700BF88ED00E0EFF3098036
:1002C000BFF36F8F134B1A681EF0100F08BF20ED9D
:1002D000108A20E9F04F106008B44FF0500080F30E
:1002E0001188BFF34F8FBFF36F8F06F0B3FF4FF04E
:1002F000000080F3118808BC19680868B0E8F04F66
:100300001EF0100F08BFB0EC108A80F30988BFF30D
:100310006F8F704790000020EFF30580704700005A
:100320000948804709480047FEE7FEE7FEE7FEE789
:10033000FEE7FEE7FEE7FEE7FEE7FEE704480549C5
:10034000054A064B7047000015570008AD0100082C
:10035000E8C00020E8C60020E8C20020E8C2002073
:10036000704700000FB4044910B503AA029800F0CA
:1003700055FA10BC5DF814FB6C0000200FB41CB5DE
:10038000074B06AA7B4469460090059800F017FACF
:100390000020694600F026FA1CBC5DF814FB000042
:1003A0005D0400002DE9F0410E4604460020206265
:1003B0002046E168884730B3252805D0D4E90121DB
:1003C0009047206A401CF2E7E168204600278847F2
:1003D000050018D0A5F14100192802D820354FF4A6
:1003E00000673246294620462760FFF719FF40B1D3
:1003F000012804D0F61D26F007060836D8E7361D7A
:10040000D6E72846DAE7206ABDE8F08170B50C46E9
:100410000546012A05D02878800600D5EA69002320
:1004200002E0012305E05B1C934202D2E05C00285D
:10043000F9D1A869E618C01AA861286A1844286288
:100440002846AFF3008004E0D5E9012114F8010B40
:100450009047B442F8D32846AFF3008070BD000047
:100460002DE9F0410646002410687529314616A58D
:1004700010D0AFF30080002802DA404213A507E055
:1004800031688A0701D512A502E0490704D511A5F4
:10049000012401E0AFF3008000210A2206F12407C5
:1004A00009E0B0FBF2FCB0FBF2F302FB1C003030C1
:1004B00078541846491C0028F3D123462A46304672
:1004C000BDE8F04100F01CB9000000002D00000064
:1004D0002B0000002000000070B504460D462146A8
:1004E0001068AFF300802188090502D50F4A7A44CD
:1004F00002E00E4A7A440E32002104F1240305E0A2
:1005000000F00F060009965D5E54491C0028F7D1E3
:1005100020780023000704D5702D02D009B10223F2
:1005200011322046BDE8704000F0EAB8B8C30000C0
:1005300040EA0103024630B59B0710D14FF0013469
:1005400000E008C208C91D1B9D4315EAC41FF8D06E
:1005500013F0FF0102F8011B0DD01B0AF8E711F898
:10056000013B002B02F8013B05D011F8013B002BA9
:1005700002F8013BF3D130BD10B5431C02E010F886
:10058000011B71B18107FAD14FF0013202C88C1AF8
:100590008C4314EAC211F9D0C01A0A0603D0C01E57
:1005A00010BDC01A10BD0A0401D0801E10BD090282
:1005B000FCD0401E10BD032A40F2308010F0030C26
:1005C00000F0158011F8013BBCF1020F624498BFA6
:1005D00011F801CB00F8013B38BF11F8013BA2F143
:1005E000040298BF00F801CB38BF00F8013B11F0BE
:1005F000030300F02580083AC0F0088051F8043B5E
:10060000083A51F804CBA0E80810F5E7121D5CBFCA
:1006100051F8043B40F8043BAFF30080D20724BFFD
:1006200011F8013B11F801CB48BF11F8012B24BF91
:1006300000F8013B00F801CB48BF00F8012B7047E0
:1006400010B5203AC0F00B80B1E81850203AA0E86D
:100650001850B1E81850A0E81850BFF4F5AF5FEAA1
:10066000027C24BFB1E81850A0E8185044BF18C954
:1006700018C0BDE810405FEA827C24BF51F8043BFB
:1006800040F8043B08BF7047D20728BF31F8023B4F
:1006900048BF11F8012B28BF20F8023B48BF00F8E3
:1006A000012B704702F0FF0343EA032242EA0242B1
:1006B00000F002B84FF000020429C0F0128010F0E0
:1006C000030C00F0BF80CCF1040CBCF1020F18BF8A
:1006D00000F8012BA8BF20F8022BA1EB0C0100F0C1
:1006E000B1B85FEAC17C24BF00F8012B00F8012BF0
:1006F00048BF00F8012B704770477047704770473C
:100700002DE9F0470D4699469246044600F124082B
:100710000168880604D5E06921F01001216000E03D
:100720000120A84201DD471B00E00027A1697A19DA
:1007300002EB0900081AA0612078C00602D4204606
:10074000AFF30080002608E0D4E901211AF8060082
:100750009047206A401C761C20624E45F4DB2078CE
:10076000C0060AD52046AFF3008006E0D4E9012197
:1007700030209047206A401C2062381EA7F10107F4
:10078000F4DC07E0D4E9012118F805009047206A5D
:10079000401C2062281EA5F10105F3DC2046AFF3C2
:1007A00000802078000602D50220BDE8F0870120F5
:1007B000FBE7000001694A1C02610878704700B538
:1007C0008FB0CDE901310021059105497944CDE98A
:1007D000031011466846FFF7E5FD0FB000BD0000AD
:1007E000E5FFFFFF0A6802F8010B0A60704710B5C9
:1007F000436913B1AFF3008001E0FFF707FE01206A
:1008000010BD127800F124010A7000224A70012202
:10081000EDE711684FF0FF32E9E70000074B70B5D4
:100820000D467B44FFF7CBFF0446284600F02FF827
:1008300010B14FF0FF3070BD204670BD3354000042
:100840004FF0000200B5134694469646203922BF69
:10085000A0E80C50A0E80C50B1F12001BFF4F7AFB4
:10086000090728BFA0E80C5048BF0CC05DF804EB96
:10087000890028BF40F8042B08BF704748BF20F804
:10088000022B11F0804F18BF00F8012B7047007B3E
:1008900000F080007047754600F02CF8AE46050069
:1008A0006946534620F00700854618B020B5FFF78B
:1008B00045FDBDE820404FF000064FF000074FF027
:1008C00000084FF0000B21F00701AC46ACE8C0096E
:1008D000ACE8C009ACE8C009ACE8C0098D46704777
:1008E00010B50446AFF300802046BDE81040FFF786
:1008F000B4BC00000048704788C00020FEE700003C
:1009000003480022026042605921312004F032BFC6
:10091000880000207047000070B5B3F5804F05D007
:100920006FF0704140F82210002070BD50F8223066
:10093000084C2340D1E9004544EA05148D688E89AE
:100940002D0245EA064589692C430C431C4340F8B7
:100950002240E9E70000F0CFF0B50C6850F82450D1
:10096000194A1540D1E90123D1E903671A433E43EF
:1009700032434E6932438E693243CE6932430E6A46
:1009800032434E6A32438E6A3243CE6A3243CE6B72
:1009900032430E6B32434E6B32432A43082B01D154
:1009A00042F0400240F824204A6BB2F5801F08D183
:1009B0000A6832B14FF480720A6104490268114337
:1009C00001600020F0BD00008000E0FF0001100089
:1009D000F0B500EB820253688E8903F04044D1E900
:1009E000003543EA05138D682D0245EA06452B4381
:1009F0000E8A0D4D05EB065633430E7D6F0107EB56
:100A0000066633438E693343234353600268D20240
:100A100007D54268098A22F4700205EB015111439F
:100A200041600020F0BD00000000F0FF30B5D1E9CA
:100A300001231A43D1E9033423431A434B690D6858
:100A40001A438B691A43D1E90734012D496A0568B5
:100A50006FF30E0505D01A4322430A432A4302606E
:100A600008E0234329430B43416803606FF30E0101
:100A70000A434260002030BD426942EA41014161BF
:100A800000207047F8B514460546D1E9000210432E
:100A90008A686FF01F03C96803EB421242EA4121E2
:100AA00008430090286100F047F9064609E0601C01
:100AB00007D024B100F040F9801BA04201D90320E7
:100AC000F8BDA8698006F2D40020F8BDF0B56FF03B
:100AD0000F05D1E9003405EB04145B1E2E012343FE
:100AE0008C682F0306EB04244FEA054C23430D8A40
:100AF0008E8ACC68097E4FF07F4E07EB05450CEBE4
:100B000006560EEB0161012A0CD082683F1107EBFB
:100B1000043423432B43334302F070420B4313430B
:100B200083600FE0C2682B430B4302F07042816880
:100B3000134301F070422103A1F580513143114369
:100B4000C36081600020F0BD2DE9F84FDFF8A0916F
:100B5000002209F1040A0AF1040B4FF00F080BF10F
:100B6000040E01260B6896403340B34271D14C68A5
:100B7000022C01D0122C11D1D40800EB84073D6A5D
:100B80005407E40E08FA04FC25EA0C05D1F810C05D
:100B90000CFA04FC4CEA050CC7F820C007685400A6
:100BA000032591F804C0A5400CF0030CAF430CFAE8
:100BB00004FC4CEA070CC0F800C04F68012F05D0B8
:100BC000022F03D0112F01D0122F11D18768D1F835
:100BD0000CC0AF430CFA04FC4CEA070CC0F808C088
:100BE0004768B7430E79C6F3001696403E43466009
:100BF000C668AE438D68A5403543C5604C68E400C7
:100C00006FD53C4C256845F480452560246822F06A
:100C1000030504F480440094374C2E19D6F8087864
:100C20009407250F08FA05F4A743344CA04201D1DC
:100C300000242EE0324CA04201D1012429E0314CA5
:100C4000A04201D1022424E02F4CA04202D103246F
:100C50001FE046E02D4CA04201D1042419E02C4CA9
:100C6000A04201D1052414E02A4CA04201D106245F
:100C70000FE0294CA04201D107240AE0274CA042F2
:100C800001D1082405E0264CA04201D1092400E04E
:100C90000A24AC403C43C6F80848D9F800404D4609
:100CA0004E689C43F60300D51C432C60DAF80040E4
:100CB00055464E689C43B60300D51C432C60DBF8B8
:100CC00000405D464E689C43F60200D51C432C60F4
:100CD000DEF8004075464E689C43B60200D51C43C2
:100CE0002C60521C102AFFF43CAFBDE8F88F0000C6
:100CF000003C014044380240003001400000024006
:100D00000004024000080240000C024000100240B3
:100D10000014024000180240001C02400020024063
:100D2000002402400069084000D0012070470AB149
:100D3000816170470904FBE70148006870470000C3
:100D40005C00002002480168491C016070470000F7
:100D50005C0000200B4810B5016841F4007101608F
:100D6000016841F480610160016841F480710160B3
:100D7000032000F0BFF90F2000F006F800F08AF918
:100D8000002010BD003C024010B5044600F060FC9D
:100D90004FF47A71B0FBF1F000F094FF002221468D
:100DA000501E00F087F9002010BD2DE9F0410446E7
:100DB00090F8A00015460F4601281DD0012684F8A2
:100DC000A060022084F8A10005EB850000EBC500BF
:100DD00004EB800034223830FFF732FC2A463946D3
:100DE000204604F0EBFA2068466284F8A1600020F7
:100DF00084F8A000BDE8F0810220FBE770B5040094
:100E000004D094F8A100002510B106E0012070BDC7
:100E100084F8A050204600F06FF8022084F8A1006A
:100E20002068816921F070418161D4E9011001439A
:100E3000D4E90302104301432068826911438161B0
:100E4000206882682B490A408260A08A02042068D8
:100E50008368A6693343134383602068C2680A40ED
:100E6000C260A08B02042068C368266A3343134320
:100E7000C360206802690A400261A08C02042068F5
:100E80000369A66A334313430361206842690A4039
:100E90004261A08D010420684269236B1A430A4312
:100EA000426194F83500020294F83600010420688B
:100EB000C36A03F07F43C3622068C36A94F8346056
:100EC000114333430B43C3622068416B41F004017B
:100ED00041632068416B41F00201416320688169F0
:100EE00041F001018161C4F8A450012084F8A100FF
:100EF000002070BD00F800F030B5364887B00025FE
:100F0000016841F080610160006800F08060059038
:100F100030481438016841F400010160016801F4AF
:100F200000010591016841F002010160016801F0D2
:100F300002010591016841F020010160016801F0A2
:100F400020010591016841F040010160016801F054
:100F500040010591016841F080010160016801F0E4
:100F600080010591016841F48071016000680324EB
:100F700000F480700590202000900120CDE902044B
:100F8000019069461448FFF7DFFD4FF48060009040
:100F90000220CDE901050E20CDE9034069460F4846
:100FA000FFF7D2FD4FF40C60009069460C48FFF744
:100FB000CBFD4FF47E40009069460A48FFF7C4FD20
:100FC00040F2F760009069460748FFF7BDFD07B0A3
:100FD00030BD0000443802400004024000140240CA
:100FE00000180240001C02400020024070B5044678
:100FF00090F8A0000E46012820D0012584F8A050CA
:10100000022084F8A10003EB830000EBC30004EB93
:10101000800141F8386F886A3044C1E90102C86A2A
:101020001044C8601A46204604F0C8F9206845629A
:1010300084F8A150002084F8A00070BD022070BD8B
:101040002DE9F041044690F8A0000F4601281FD07A
:10105000012584F8A050022084F8A10003EB83004E
:1010600000EBC30004EB80010026E1E90E67204697
:10107000C1E90262C1E90A721A4604F09FF92068C8
:10108000456284F8A15084F8A0600020BDE8F0819A
:101090000220FBE708B50020009008BD00F01F0209
:1010A000012191404009800000F1E020C0F80011CA
:1010B00070470000F0B40E4B1B68C3F30223C3F16A
:1010C0000704042C00D904241D1D072D01D2002380
:1010D00000E0DB1E012606FA04F56D1E0D409D4062
:1010E0009E40761E164045EA0601F0BC04F019BA8F
:1010F0000CED00E0064A00F0070110684FF6FF0310
:10110000184040EA0120034908431060704700007E
:101110000CED00E00000FA052DE9F8431D480168D8
:1011200041F0805101600068012700F0805000907C
:10113000380490FAA0F0DFF86080B0FA80F048F848
:101140002070FFF7F9FD04464FF47A75134E04E062
:10115000FFF7F2FD001BA84213D87068C003F7D553
:101160004FF4003090FAA0F0B0FA80F048F8207008
:10117000FFF7E2FD044607E0FFF7DEFD001BA84293
:1011800002D90320BDE8F88370688003F4D50020FD
:10119000F8E700004038024000000E4200700040B6
:1011A0002DE9F84F04460068DFF878829E4DC107AC
:1011B00047F6C07A4FF0E0464FF0010B4FF00009C0
:1011C00001D180074BD59949C1F86890FFF7B4FD6C
:1011D000074604E0FFF7B0FDC01B64287ED82868EE
:1011E0000001F7D420789249C0070DD09AFAAAF2EC
:1011F0006068B2FA82F2904096FAA6F3A268B3FA57
:1012000083F39A40104308602078800718D5086857
:1012100096FAA6F200F0E040B2FA82F2D04062689C
:10122000237B920142EA036242EA00700860D8F828
:101230000010E26921F01F01521E1143C8F800108E
:101240007A49C1F868B0FFF777FD074604E0FFF779
:1012500073FDC01B642841D828680001F7D52068B9
:10126000410701D4000776D57049C1F87090FFF7A7
:1012700063FD074604E0FFF75FFDC01B64282DD81F
:101280002868C0438000F6D520786A4F40074FF0A9
:10129000706C29D5386896FAA6F100F0E040B1FAF2
:1012A00081F1C8409AFAAAF22169B2FA82F2914019
:1012B0009CFAACF36269B3FA83F39A40114396FA4D
:1012C000A6F2B2FA82F2904001433960D8F80010D9
:1012D0006FF0FF0321F4F851226A00E079E003EB9C
:1012E00002221143C8F800102078000723D538687F
:1012F0009CFAACF100F07060B1FA81F1C8409AFA42
:10130000AAF22169B2FA82F291409CFAACF2B2FAE6
:1013100082F29040014396FAA6F2A069B2FA82F2F4
:10132000904001433960D8F80010626A21F44031DE
:101330001143C8F800103D49C1F870B0FFF7FCFC3C
:10134000064604E0FFF7F8FC801B642841D82868B3
:10135000C0438000F6D42078800651D532484F46ED
:101360004030016841F0805101600068324E00F069
:1013700080500090306840F480703060FFF7DCFCF3
:10138000054604E0FFF7D8FC401B642821D83068EC
:10139000C005F7D5264E143E3068218D00F440700C
:1013A00001F4407188422BD03068244920F4407009
:1013B000C1F800B00F603060800710D5FFF7BCFCAB
:1013C000054641F2883707E0FFF7B6FC401BB842FC
:1013D00002D90320BDE8F88F30688007F4D5A06AF1
:1013E0001149C0F301220831032A13D0086820F400
:1013F000F81008603068218DC1F30B01084330609C
:101400002078C00604D50E4994F82C00C1F8E001FC
:101410000020DFE70A680B4B22F4F8121840024361
:101420000A60E7E78C38024000380240000047427B
:10143000843802408838024000700040400E474225
:1014400000104742FFFCFF0F2DE9F05FDFF8F8A125
:1014500004460F46DAF80000DFF8F08100F00F02D2
:10146000C8B27A49814641F2883608F10808BA4282
:1014700061D202468AF80020DAF8000000F00F007E
:10148000B8427DD12078800707D5D8F80020A3681E
:1014900022F0F0021A43C8F800202078C0072DD0AF
:1014A000606801281AD002281BD0032819D00968C7
:1014B0008907002964DAD8F80010474621F00301B3
:1014C0000143C8F80010FFF737FC054660680128A3
:1014D0000FD0022818D003281CD027E00968890300
:1014E000E7E709688901E4E7FFF726FC401BB04203
:1014F00058D83868C0F381000128F5D188E0FFF79B
:101500001BFC401BB0424DD83868C0F38100022854
:10151000F5D17DE03868FFF70FFC401BB042F9D9E8
:1015200040E0FFF709FC401BB0423BD8386810F0A0
:101530000C0FF6D16CE02078800707D5D8F8002092
:10154000A36822F0F0021A43C8F800202078C007F0
:101550004CD06068012828D0022829D0032827D041
:1015600009688907002949DAD8F8002022F0030227
:101570000243C8F80020FFF7DFFB0546606800E083
:101580003CE001281DD0022829D0032838D0B346DA
:101590004646306810F00C0F28D0FFF7CDFB411BFA
:1015A0005945F6D90320BDE8F09F09688903D9E7BA
:1015B00009688901D6E7FFF7BFFB411B594502D9EE
:1015C000F0E7B34646463068C0F381000128F2D107
:1015D0000CE0FFF7B1FB411B594502D9E2E7B346E6
:1015E00046463068C0F381000228F2D18AF80090A4
:1015F000DAF8000000F00F00B84209D00120D2E76D
:1016000044462068FFF798FB401BB042F9D9C9E770
:101610002078400707D5D8F80010E26821F4E0519F
:101620001143C8F800102078000708D5D8F800103A
:10163000226921F4604141EAC201C8F800100F207C
:10164000FFF7A2FB0020AEE7003C0240003802405A
:1016500010B500F043F808490968F02292FAA2F2A6
:1016600001F0F001B2FA82F2D140044A515CC84064
:101670000349086010BD0000083802405A81000884
:101680004800002010B5FFF7E3FF074909684FF451
:10169000E05292FAA2F201F4E051B2FA82F2D140A1
:1016A000024A515CC84010BD083802405A81000807
:1016B00010B5FFF7CDFF074909684FF4604292FA71
:1016C000A2F201F46041B2FA82F2D140024A515CC6
:1016D000C84010BD083802405A81000830B519488A
:1016E000006810F00C01184812D0184C04290ED0D4
:1016F00008290DD1134A121F1168136801F03F0128
:101700005D0247F6C07304D5B4FBF1F003E0204658
:1017100030BDB0FBF1F01168194093FAA3F3B3FAAE
:1017200083F3D940484311684FF4403292FAA2F251
:1017300001F44031B2FA82F2D140491C4900B0FBB9
:10174000F1F030BD083802400024F40040787D01FB
:101750002DE9F84F04460078DFF8FCA2BF4DC00722
:101760004FF0000648D0DAF800105046C1F381016E
:10177000012908D00068C0F3810002280AD1281D81
:101780000068400206D52868800335D560680028C7
:1017900073D031E0DFF8C49209F1020989F80060E2
:1017A000FFF7CAFA074641F2883804E0FFF7C4FAA7
:1017B000C11B41457AD828688003F7D4207989F87D
:1017C0000000606860B1FFF7B7FA074604E0FFF772
:1017D000B3FAC11B4145EDD828688003F7D50BE06B
:1017E000FFF7AAFA074604E0FFF7A6FAC11B414536
:1017F000E0D828688003F7D42078DFF86492800767
:1018000044D5DAF80010504611F00C0F4FF0F808EC
:1018100009D00068C0F3810002280BD18E48001F58
:101820000068400206D42868800714D5E0680128C3
:1018300023D110E0E068D0B10120C9F80000FFF723
:101840007BFA074604E0FFF777FAC01B6428B1D89B
:1018500028688007F7D5286898FAA8F22169B2FAB3
:1018600082F220F0F8009140084328600EE0C9F8A9
:101870000060FFF761FA074605E0EAE0FFF75CFA6F
:10188000C01B642812D828688007F7D42078000786
:1018900025D5DFF8C4817348616908F16C0881B10E
:1018A00001210160FFF748FA074605E07EE0FFF7F7
:1018B00043FAC01B642879D8D8F800008007F6D511
:1018C0000DE00660FFF738FA074604E0FFF734FA48
:1018D000C01B64286AD8D8F800008007F6D42078A6
:1018E000400753D55C483830016841F080510160B1
:1018F0000068DFF8748100F080500090D8F8001084
:1019000041F48071C8F80010FFF716FA074604E0AA
:10191000FFF712FAC01B642848D8D8F80000C005A9
:10192000F6D5DFF834B10BF1680B8BF80060FFF7E8
:1019300003FA074641F2883804E0FFF7FDF9C11BBE
:1019400041457ED8DBF800008007F6D4207A8BF87A
:101950000000A06868B1FFF7EFF9074604E0FFF761
:10196000EBF9C11B41456CD8DBF800008007F6D5C8
:101970000CE0FFF7E1F9074604E0FFF7DDF9C11BD2
:1019800041455ED8DBF800008007F6D4A069E8B3D3
:10199000DAF80010C1F3810102295AD0022806D0DA
:1019A000C9F86060FFF7C8F904464DE049E04F46CA
:1019B000C9F86060FFF7C0F9064604E0FFF7BCF91C
:1019C000801B64283DD828688001F7D4D4E907013A
:1019D000084347F6C07191FAA1F1626AB1FA81F148
:1019E0008A40A16A4FF0FF3303EB51014FF44033BB
:1019F00093FAA3F3B3FA83F399400A4310434FF0E9
:101A0000706292FAA2F2B2FA82F200E01FE0E16A9A
:101A1000914008431049091F086001203866FFF70C
:101A20008BF9044604E0FFF787F9001B642808D807
:101A300028688001F7D50AE0FFF77EF9001B6428CB
:101A400002D90320BDE8F88F28688001F4D4002073
:101A5000F8E70120F6E700000838024000380240AD
:101A600000004742800E47420070004070B50D46AE
:101A7000040003D094F82C0010B107E0012070BDE1
:101A8000002084F82D00204600F012F8022084F88F
:101A90002C00211D2068FEF7C9FFD4E90002294669
:101AA000FFF714F8012084F82C00002070BD00001E
:101AB000304800B5016887B041F00101016000685D
:101AC00000F0010005902B480838016841F004013E
:101AD0000160016801F004010591016841F008010D
:101AE0000160016801F008010591016841F01001F1
:101AF0000160016801F010010591016841F02001C9
:101B00000160016801F020010591016841F0400188
:101B100001600068694600F0400005900D200090CB
:101B20000220019001200290032003900C200490D9
:101B30001148FFF709F84CF20370009069460F480E
:101B4000FFF702F84FF68370009069460C48FEF7E5
:101B5000FBFF4FF63F00009069460A48FEF7F4FF8E
:101B600048F23710009069460748FEF7EDFF07B0CE
:101B700000BD00003838024000080240000C02405E
:101B800000100240001402400018024010B5044644
:101B900090F82C00022809D0022084F82C0020683C
:101BA000FEF76AFF012084F82C00002010BD70B5FC
:101BB000044690F82C000D4602280CD0022084F830
:101BC0002C002068FEF75EFF2868022804D0012060
:101BD00084F82C00002070BD0520F9E770B515468B
:101BE0000E46040003D094F8490010B107E001202C
:101BF00070BD002084F84800204600F01BF804F176
:101C000008012068FEF7A8FE3146A2682068FEF7AA
:101C1000DFFED4E901022946236BFEF77DFEA168B1
:101C2000206850F8212042F0010240F821200020D5
:101C300070BD00001A4800B5016887B041F001018D
:101C40000160006800F0010005901548083801683F
:101C500041F008010160016801F008010591016887
:101C600041F0100101600068694600F01000059025
:101C70004EF2B370009002200190012002900320E8
:101C800003900C2004900748FEF75EFF4FF680702B
:101C9000009069460448FEF757FF07B000BD0000FA
:101CA00038380240000C0240001002404FF0E021A2
:101CB0000428086903D020F004000861704740F050
:101CC0000400FAE710B5401EB0F1807F01D3012077
:101CD00010BD4FF0E02460610F21601703F021FC7C
:101CE0000020A06107202061002010BD70477047D0
:101CF00010B5040003D094F8390010B107E00120BA
:101D000010BD002084F83800204600F00DF80220B5
:101D100084F83900211D206803F042FD012084F879
:101D20003900002010BD000008B500680B4988424A
:101D300012D10B48016841F00201016000680022E5
:101D400000F00200009001211D20FFF7B3F9BDE86B
:101D500008401D20FFF7A2B908BD000000040040A4
:101D6000403802400168CA6842F00102CA60006857
:101D7000016841F00101016000207047704770B5B3
:101D80000446006801694FF00005C943890715D46E
:101D9000C168C943890711D4E91E01610120207679
:101DA000206880698007204602D0FFF7E7FF04E043
:101DB00000F098F8204600F096F825762068016932
:101DC000C943490717D4C168C943490713D46FF001
:101DD00004010161022020762068806910F4407FB0
:101DE000204602D0FFF7CAFF04E000F07BF820464F
:101DF00000F079F8257620680169C943090716D4EF
:101E0000C168C943090712D46FF0080101610420B9
:101E100020762068C0698007204602D0FFF7AEFF19
:101E200004E000F05FF8204600F05DF825762068B9
:101E30000169C943C90617D4C168C943C90613D487
:101E40006FF010010161082020762068C06910F44D
:101E5000407F204602D0FFF791FF04E000F042F8F7
:101E6000204600F040F8257620680169C943C9077B
:101E700008D1C168C943C90704D1891E0161204640
:101E800000F032F820680169C943090609D4C16825
:101E9000C943090605D46FF0800101612046FFF7B0
:101EA00025FF20680169C943490609D4C168C943AF
:101EB000490605D46FF040010161204600F024F886
:101EC00020680169C94389060BD4C168C9438906E2
:101ED00007D46FF0200101612046BDE87040FFF794
:101EE00006BF70BD704770470549884207D1054855
:101EF00001684268491C42F100020160426070477B
:101F000000050020880000207047704790F83900D5
:101F1000704738B5016804460868CA68C0F3000015
:101F200002F4807238B132B1086848680090E06B02
:101F300040F00100E06308684A69C0F3400002F025
:101F4000010238B132B1086848680090E06B40F097
:101F50000400E06308684A69C0F3800002F00102EF
:101F600038B132B1086848680090E06B40F0020078
:101F7000E06308684A69C0F3C00002F0010238B1AA
:101F800032B1086848680090E06B40F00800E063F8
:101F90000868C968C0F3401001F0200118B111B100
:101FA000204603F05DFC20680168C068C1F3C011E1
:101FB00000F0800019B110B1204603F05FFD2168E8
:101FC0000868CA68C0F3801002F04002012568B1B9
:101FD00062B1CA68204622F04002CA6094F8391003
:101FE00032290CD080F8395000F0DAF8E06B002884
:101FF00004D084F839502046FFF787FF38BD2221EE
:1020000080F83910F0E770B5040004D094F8390076
:10201000002510B106E0012070BD84F8385020463C
:1020200000F020F8022084F839002068C16821F40B
:102030000051C160204603F067FC2068016921F46B
:10204000904101612068416921F02A0141612068C5
:10205000C16841F40051C160E563012084F8390092
:10206000002070BD10B500681A4986B088422FD193
:102070001948016841F001010160006800F00100A9
:10208000059015481430016841F0100101600068A6
:10209000012100F0100005904FF400700090022024
:1020A000CDE90101039007200C4C049069462046BD
:1020B000FEF74AFD2115009169462046FEF744FDD2
:1020C0002520FEF7EBFF032211462520FEF7F2FF45
:1020D00006B010BD00100140303802400000024040
:1020E00090F83930012B01D0122B2BD131B32AB308
:1020F00090F83830012B25D0012380F838308162E8
:102100008285C2850022C26390F83910122917D047
:10211000222180F839100168CB6843F48073CB60CA
:1021200001684B6943F001034B6180F83820006877
:10213000C16841F02001C160002070470120704754
:102140003221E6E70220704730B500681149884225
:102150000CD1114A5088010408D41146440409786E
:102160004FF0000306D50A2901D0538030BD40F45A
:1021700000400DE00D2909D0C0F30D04074D401CAF
:1021800080B229555080C728EFD830BD40F4804038
:10219000508030BD00100140680000209C020020EB
:1021A0007047FEE770B51B4886B00025016841F016
:1021B00001010160016801F001010591016841F030
:1021C00004010160016801F004010591016841F01A
:1021D000800101600068032400F080000590022067
:1021E0000126CDE90204CDE9006569460A48FEF7FB
:1021F000ABFC700303948DE8610069460748FEF765
:10220000A3FC0C20009069460548FEF79DFC06B033
:1022100070BD00003038024000000240000802405B
:10222000001C02402DE9F0410121234C234E244F94
:10223000244D012813D0207860B1D5F80C0280B16C
:10224000D5F8080268B1D6F8340250B1D7F80002C8
:10225000012806D0D5F80C0201281ED029E02170F3
:10226000EBE70A2003F07EFC00202070D5F80C027A
:1022700050B1D5F8080250B1D6F8340248B1D7F8B9
:102280000002012807D014E00120BDE8F0810220FF
:10229000FBE70320F9E70420F7E7D5F80802012857
:1022A00007D1D6F83402012803D1D7F8000200B9CB
:1022B00021700020E9E7000080000020000041427A
:1022C000000040420080434270B50E490E4A064667
:1022D00008881268002422B13046BDE8704002F040
:1022E00049BE4D8800214543084602F095FC02F0A6
:1022F00009FEB1B2054801E00180641CAC42FBD389
:1023000070BD0000F4030020AC0400200000086051
:102310002DE9F05F394C3A4DA071296839B102F0CE
:1023200049FEE88A2080288B6080BDE8F09F334911
:102330002C232A2589884FF0F00949F2413A2B26AF
:1023400045F2105B4FF4305E4FF448774FF4A078BD
:1023500045F2103C4FF4F07258B1A4F80080A4F894
:102360000290514501D0614529D123816581A68123
:1023700039E0A4F80090A4F80280514501D06145ED
:1023800008D123816581A681614531D1A4F80080FF
:1023900062802DE0594508D1A4F808E04FF4285098
:1023A00060814FF42C50A08106E0A1F5C85063383D
:1023B0001ED123816681A5812280678018E059455E
:1023C00008D1A4F808E04FF4285060814FF42C5055
:1023D000A08106E0A1F5C850633804D1238165814E
:1023E000A68127806280614502D12280A4F8028004
:1023F000BDE8F05F002002F033BB0000F4030020D2
:10240000AC0400202DE9FE4F0026A2EB0008824616
:102410005F1A701E35468946B8F1000F02DD4FF095
:10242000010102E003D14FF00001019102E0C8F187
:1024300000080190002F02DD4FF0010002E003D1FF
:102440004FF00000009002E0C7F100070090404606
:10245000B84501DD044600E03C46601C4FF0000B2F
:10246000029015E01FFA89F11FFA8AF000F016F8C1
:1024700046443D44A64202DD0199361B8A44A542EA
:1024800002DD00992D1B89440BF101001FFA80FB2E
:1024900002998B45E6DDBDE8FE8F000010B5084AC5
:1024A000084C126822B12268BDE8104002F096BDC7
:1024B00002F0B2FB02F026FD03492088088010BD1F
:1024C000AC04002070000020000008602DE9F041FD
:1024D0001C4615460E4607460B46FFF793FF3A4645
:1024E000234631461046FFF78DFF23462A461946FC
:1024F0003846FFF787FF2A4623463146BDE8F041BC
:102500001046FFF77FBF00002DE9F041044639482F
:102510000D46006820B12046BDE8F04102F05EBDE6
:10252000354E270A3146B0884989A0F513434FEA52
:102530001528413B0BD0A0F5A643103B07D0B3F5BF
:10254000007311D0A0F5C853633B27D04BE0084679
:1025500002F0CCFC384602F0BDFCE0B202F0BAFC5E
:10256000B08902F0C3FC38E0084602F0BFFC3846F0
:1025700002F0B0FC7089401C80B202F0B7FCE0B2FF
:1025800002F0A8FCB08902F0B1FC404602F0A2FCC7
:10259000B089401C80B202F0A9FC21E0B07918B9E2
:1025A0003088001B401E84B2084602F09FFC270AB8
:1025B000384602F08FFCE0B202F08CFC384602F0A4
:1025C00089FCE0B202F086FCB08902F08FFC404644
:1025D00002F080FCE8B202F07DFC404602F07AFC9A
:1025E000E8B202F077FC054930890880881C028037
:1025F000BDE8F081AC040020F4030020FEFF07607A
:102600002DE9F8431F46144B804608981B6833B1E8
:1026100000903B46404602F0FFFCBDE8F883A2EB89
:102620000802521C96B20C4685B2DFF830900FE0DB
:102630002146404602F0F0FA02F064FC00204946D0
:1026400002E00D80401C80B2B042FAD3641CA4B2F8
:10265000BC42EDD9E1E70000AC04002000000860B6
:102660002DE9F04F95B002F04DFEFE4D4FF0010AFE
:10267000A5F15009A88049F2413B45F2103645F2D8
:10268000105441F6631818B102F01CFD02F08BB92A
:10269000F5480027016841F002010160006810A9B7
:1026A00000F0020000902020CDE9100A0320CDE9BF
:1026B00012A0EE48FEF748FA4FF020414846C9F80C
:1026C0000010EB49C0E901171021C9F80C70C0E9EE
:1026D0000471C9F818700902C9F81C70C0E90971C1
:1026E0008900C0E90B71C9F834708901C9E90E711C
:1026F00046210B910F20CDE90907CDE9020704908F
:10270000D8480F9702AA09A908975038FFF766FA28
:10271000322003F027FAD32002F0E8FB02F06EF932
:10272000A88002F06BF9A88002F068F94FF6FF72FA
:1027300002EA0020A88002F061F9A9885F460843F8
:10274000A880B84248D0D42002F0D0FB02F056F95D
:10275000A88002F053F9A88002F050F902EA0020A4
:10276000A88002F04BF9A9880843A880B04233D072
:102770004FF45A4002F0BAFB02F040F9A8804FF43F
:102780005B4002F0B3FB02F039F902EA0020A880B6
:102790004FF45C4002F0AAFB02F030F9A98808432C
:1027A000A880B0F5004F7DD0A04215D0A12002F046
:1027B0009DFB02F023F9A88002F020F902EA002034
:1027C000A88002F01BF9A9880843A0F5AE41A880B3
:1027D000613901D1A5F80480A988A6A0FDF7C2FD42
:1027E000A888B8427ED1CF2002F080FB002002F002
:1027F00071FBC12002F06EFB302002F06BFBED207C
:1028000002F074FB642002F065FB032002F062FB1F
:10281000122002F05FFB812002F05CFBE82002F056
:1028200065FB852002F056FB102002F053FB7A2056
:1028300002F050FBCB2002F059FB392002F04AFB9A
:102840002C2002F047FB002002F044FB342002F071
:1028500041FB022002F03EFBF72002F047FB202064
:1028600002F038FBEA2002F041FB002002F032FBCC
:10287000002002F02FFBC02002F038FB1B2002F0EA
:1028800029FBC12002F032FB012002F023FBC5200E
:1028900002F02CFB302002F01DFB302002F01AFB6E
:1028A000C72000E0B7E002F021FBB72002F012FBE6
:1028B000362002F01BFB482002F00CFB3A2002F00D
:1028C00015FB552002F006FBB12002F00FFB0020A3
:1028D00002F000FB1A2002F0FDFAB62002F006FB1F
:1028E0000A2000E099E002F0F5FAA22002F0F2FAE4
:1028F000F22002F0FBFA002002F0ECFA262002F0AF
:10290000F5FA012002F0E6FAE02002F0EFFA0F20DB
:1029100002F0E0FA2A2002F0DDFA282002F0DAFACA
:10292000082002F0D7FA0E2002F0D4FA082002F0B4
:10293000D1FA542002F0CEFAA92002F0CBFA4320BB
:1029400002F0C8FA0A2002F0C5FA0F2002F0C2FA1B
:10295000002002F0BFFA002002F0BCFA002002F0D2
:10296000B9FA002002F0B6FAE12002F0BFFA002026
:1029700002F0B0FA152002F0ADFA172002F0AAFA20
:10298000072002F0A7FA112002F0A4FA062002F0B4
:10299000A1FA2B2002F09EFA562002F09BFA3C206E
:1029A00002F098FA052002F095FA102002F092FA4F
:1029B0000F2002F08FFA3F2002F08CFA3F2002F045
:1029C00089FA0F2002F086FA2B2002F08FFA0020FD
:1029D00002F080FA002002F07DFA012002F07AFA7B
:1029E0003F2002F077FA2A2002F080FA002002F05D
:1029F00071FA002002F06EFA002002F06BFAEF206C
:102A000002F068FA112002F071FA782003F0AAF8B7
:102A1000292001F00BBFAC80DEE6B0427ED1ED2074
:102A200002F064FA012002F055FAFE2002F052FA98
:102A3000EE2002F05BFADE2002F04CFA212002F0D8
:102A400049FAF12002F052FA012002F043FADF20A5
:102A500002F04CFA102002F03DFAC42002F046FACF
:102A60008F200FE0F40300203038024000040240C1
:102A7000040100A0204C43442049443A25780D0A23
:102A80000000000002F026FAC62002F02FFA002013
:102A900002F020FAE22002F01DFAE22002F01AFA17
:102AA000E22002F017FABF2002F020FAAA2002F07A
:102AB00011FAB02002F01AFA0D2002F00BFA0020F1
:102AC00002F008FA0D2002F005FA002002F002FAE6
:102AD000112002F0FFF9002002F0FCF9192002F0A9
:102AE000F9F9002002F0F6F9212002F0F3F90020B4
:102AF00002F0F0F92D2002F0EDF9002002F0EAF9E1
:102B00003D2002F0E7F9002002F0E4F95D2002F038
:102B1000E1F9002002F0DEF95D2000E0FEE302F0C2
:102B2000D9F9002002F0D6F9B12002F0DFF98020B7
:102B300002F0D0F9002002F0CDF98B2002F0CAF9A2
:102B4000002002F0C7F9962002F0C4F9002002F03C
:102B5000C1F9B22002F0CAF9002002F0BBF900204E
:102B600002F0B8F9022002F0B5F9002002F0B2F943
:102B7000032002F0AFF9002002F0ACF9B32002F01C
:102B8000B5F9002002F0A6F9002002F0A3F9002018
:102B900002F0A0F9002002F09DF9002002F09AF95D
:102BA000002002F097F9002002F094F9002002F0D2
:102BB00091F9002002F08EF9002002F08BF900203C
:102BC00002F088F9002002F085F9002002F082F975
:102BD000002002F07FF9002002F07CF9002002F0D2
:102BE00079F9002002F076F9002002F073F9002054
:102BF00002F070F9002002F06DF9002002F06AF98D
:102C0000002002F067F9002002F064F9002002F0D1
:102C100061F9B42002F06AF98B2002F05BF9002020
:102C200002F058F9962002F055F9002002F052F90E
:102C3000A12002F04FF9002002F04CF9B52002F07B
:102C400055F9022002F046F9002002F043F9032072
:102C500002F040F9002002F03DF9042002F03AF9B8
:102C6000002002F037F9B62002F040F9002002F00F
:102C700031F9002002F02EF9B72002F037F90020D8
:102C800002F028F9002002F025F93F2002F022F995
:102C9000002002F01FF95E2002F01CF9002002F073
:102CA00019F9642002F016F9002002F013F98C20C3
:102CB00002F010F9002002F00DF9AC2002F00AF940
:102CC000002002F007F9DC2002F004F9002002F0F5
:102CD00001F9702002F0FEF8002002F0FBF89020CD
:102CE00002F0F8F8002002F0F5F8EB2002F0F2F81C
:102CF000002002F0EFF8DC2002F0ECF8002002F0F7
:102D0000E9F8B82002F0F2F8002002F0E3F8002021
:102D100002F0E0F8002002F0DDF8002002F0DAF81E
:102D2000002002F0D7F8002002F0D4F8002002F0D2
:102D3000D1F8002002F0CEF8BA2002F0D7F8242013
:102D400002F0C8F8002002F0C5F8002002F0C2F836
:102D5000002002F0BFF8C12002F0C8F8202002F0E5
:102D6000B9F8002002F0B6F8542002F0B3F80020C1
:102D700002F0B0F8FF2002F0ADF8002002F0AAF84F
:102D8000C22002F0B3F80A2002F0A4F8002002F0FA
:102D9000A1F8042002F09EF8002002F09BF8C32066
:102DA00002F0A4F83C2002F095F8002002F092F81E
:102DB0003A2002F08FF8002002F08CF8392002F05F
:102DC00089F8002002F086F8372002F083F800200E
:102DD00002F080F83C2002F07DF8002002F07AF842
:102DE000362002F077F8002002F074F8322002F06A
:102DF00071F8002002F06EF82F2002F06BF800202E
:102E000002F068F82C2002F065F8002002F062F869
:102E1000292002F05FF8002002F05CF8262002F082
:102E200059F8002002F056F8242002F053F8002050
:102E300002F050F8242002F04DF8002002F04AF889
:102E4000232002F047F8002002F044F83C2002F072
:102E500041F8002002F03EF8362002F03BF8002056
:102E600002F038F8322002F035F8002002F032F893
:102E70002F2002F02FF8002002F02CF82C2002F076
:102E800029F8002002F026F8292002F023F800207B
:102E900002F020F8262002F01DF8002002F01AF8B7
:102EA000242002F017F8002002F014F8242002F089
:102EB00011F8002002F00EF8232002F00BF8002099
:102EC00002F008F8C42002F011F8622002F002F8C3
:102ED000002001F0FFFF052001F0FCFF002001F0C1
:102EE000F9FF842001F0F6FF002001F0F3FFF0204D
:102EF00001F0F0FF002001F0EDFF182001F0EAFFE3
:102F0000002001F0E7FFA42001F0E4FF002001F021
:102F1000E1FF182001F0DEFF002001F0DBFF502070
:102F200001F0D8FF002001F0D5FF0C2001F0D2FF06
:102F3000002001F0CFFF172001F0CCFF002001F0AE
:102F4000C9FF952001F0C6FF002001F0C3FFF32068
:102F500001F0C0FF002001F0BDFFE62001F0BAFF44
:102F6000002001F0B7FFC52001F0C0FF322001F0C2
:102F7000B1FF002001F0AEFF442001F0ABFF0020C4
:102F800001F0A8FF652001F0A5FF002001F0A2FFDD
:102F9000762001F09FFF002001F09CFF882001F0C7
:102FA00099FF002001F096FFC62001F09FFF20202E
:102FB00001F090FF002001F08DFF172001F08AFF43
:102FC000002001F087FF012001F084FF002001F0C4
:102FD00081FFC72001F08AFF002001F07BFF002065
:102FE00001F078FF002001F075FF002001F072FF72
:102FF000C82001F07BFF002001F06CFF002001F0F1
:1030000069FF002001F066FF002001F063FFC92086
:1030100001F06CFF002001F05DFF002001F05AFF7D
:10302000002001F057FF002001F054FF002001F0C4
:1030300051FF002001F04EFF002001F04BFF002067
:1030400001F048FF002001F045FF002001F042FFA1
:10305000002001F03FFF002001F03CFF002001F0C4
:1030600039FF002001F036FF002001F033FF00207F
:1030700001F030FFE02001F039FF162001F02AFFB7
:10308000002001F027FF1C2001F024FF002001F0A8
:1030900021FF212001F01EFF002001F01BFF362040
:1030A00001F018FF002001F015FF462001F012FF8B
:1030B000002001F00FFF522001F00CFF002001F072
:1030C00009FF642001F006FF002001F003FF7A20D1
:1030D00001F000FF002001F0FDFE8B2001F0FAFE60
:1030E000002001F0F7FE992001F0F4FE002001F02D
:1030F000F1FEA82001F0EEFE002001F0EBFEB92069
:1031000001F0E8FE002001F0E5FEC42001F0E2FE3F
:10311000002001F0DFFECA2001F0DCFE002001F0FB
:10312000D9FED22001F0D6FE002001F0D3FED92036
:1031300001F0D0FE002001F0CDFEE02001F0CAFE3B
:10314000002001F0C7FEF32001F0C4FE002001F0D2
:10315000C1FEE12001F0CAFE162001F0BBFE0020F6
:1031600001F0B8FE1C2001F0B5FE002001F0B2FE17
:10317000222001F0AFFE002001F0ACFE362001F06D
:10318000A9FE002001F0A6FE452001F0A3FE0020CC
:1031900001F0A0FE522001F09DFE002001F09AFEF9
:1031A000642001F097FE002001F094FE7A2001F0E7
:1031B00091FE002001F08EFE8B2001F08BFE00209E
:1031C00001F088FE992001F085FE002001F082FECA
:1031D000A82001F07FFE002001F07CFEB92001F064
:1031E00079FE002001F076FEC42001F073FE00207D
:1031F00001F070FECA2001F06DFE002001F06AFEB1
:10320000D22001F067FE002001F064FED82001F01A
:1032100061FE002001F05EFEE02001F05BFE002078
:1032200001F058FEF32001F055FE002001F052FE9F
:10323000E22001F05BFE052001F04CFE002001F0D1
:1032400049FE0B2001F046FE002001F043FE1B204A
:1032500001F040FE002001F03DFE342001F03AFE76
:10326000002001F037FE442001F034FE002001F080
:1032700031FE4F2001F02EFE002001F02BFE6120D8
:1032800001F028FE002001F025FE792001F022FE49
:10329000002001F01FFE882001F01CFE002001F03C
:1032A00019FE972001F016FE002001F013FEA62063
:1032B00001F010FE002001F00DFEB72001F00AFE23
:1032C000002001F007FEC22001F004FE002001F002
:1032D00001FEC72001F0FEFD002001F0FBFDD12022
:1032E00001F0F8FD002001F0F5FDD62001F0F2FD1F
:1032F000002001F0EFFDDD2001F0ECFD002001F0E9
:10330000E9FDF32001F0E6FD002001F0E3FDE320FC
:1033100001F0ECFD052001F0DDFD00E00AE30020F6
:1033200001F0D8FD0A2001F0D5FD002001F0D2FD0A
:103330001C2001F0CFFD002001F0CCFD332001F076
:10334000C9FD002001F0C6FD442001F0C3FD0020AE
:1033500001F0C0FD502001F0BDFD002001F0BAFDDC
:10336000622001F0B7FD002001F0B4FD782001F0EB
:10337000B1FD002001F0AEFD882001F0ABFD002082
:1033800001F0A8FD972001F0A5FD002001F0A2FDAD
:10339000A62001F09FFD002001F09CFDB72001F068
:1033A00099FD002001F096FDC22001F093FD002060
:1033B00001F090FDC72001F08DFD002001F08AFD95
:1033C000D12001F087FD002001F084FDD52001F01F
:1033D00081FD002001F07EFDDD2001F07BFD00205D
:1033E00001F078FDF32001F075FD002001F072FD81
:1033F000E42001F07BFD012001F06CFD002001F0D4
:1034000069FD012001F066FD002001F063FD02204E
:1034100001F060FD002001F05DFD2A2001F05AFD61
:10342000002001F057FD3C2001F054FD002001F088
:1034300051FD4B2001F04EFD002001F04BFD5D20C1
:1034400001F048FD002001F045FD742001F042FD2F
:10345000002001F03FFD842001F03CFD002001F040
:1034600039FD932001F036FD002001F033FDA2204C
:1034700001F030FD002001F02DFDB32001F02AFD08
:10348000002001F027FDBE2001F024FD002001F006
:1034900021FDC42001F01EFD002001F01BFDCD2008
:1034A00001F018FD002001F015FDD32001F012FD00
:1034B000002001F00FFDDD2001F00CFD002001F0E7
:1034C00009FDF32001F006FD002001F003FDE520D9
:1034D00001F00CFD002001F0FDFC002001F0FAFCE1
:1034E000002001F0F7FC002001F0F4FC022001F0C4
:1034F000F1FC002001F0EEFC292001F0EBFC0020A3
:1035000001F0E8FC3C2001F0E5FC002001F0E2FCC9
:103510004B2001F0DFFC002001F0DCFC5D2001F01D
:10352000D9FC002001F0D6FC742001F0D3FC00206F
:1035300001F0D0FC842001F0CDFC002001F0CAFC99
:10354000932001F0C7FC002001F0C4FCA22001F090
:10355000C1FC002001F0BEFCB32001F0BBFC002048
:1035600001F0B8FCBE2001F0B5FC002001F0B2FC77
:10357000C42001F0AFFC002001F0ACFCCD2001F034
:10358000A9FC002001F0A6FCD32001F0A3FC002040
:1035900001F0A0FCDC2001F09DFC002001F09AFC71
:1035A000F32001F097FC002001F094FCE62001F0EC
:1035B0009DFC112001F08EFC002001F08BFC3420DA
:1035C00001F088FC002001F085FC562001F082FC0F
:1035D000002001F07FFC762001F07CFC002001F04F
:1035E00079FC772001F076FC002001F073FC662066
:1035F00001F070FC002001F06DFC882001F06AFCF5
:10360000002001F067FC992001F064FC002001F02B
:1036100061FCBB2001F05EFC002001F05BFC992006
:1036200001F058FC002001F055FC662001F052FC2E
:10363000002001F04FFC552001F04CFC002001F06F
:1036400049FC552001F046FC002001F043FC4520D8
:1036500001F040FC002001F03DFC432001F03AFC69
:10366000002001F037FC442001F034FC002001F080
:1036700031FCE72001F03AFC322001F02BFC002065
:1036800001F028FC552001F025FC002001F022FC6F
:10369000762001F01FFC002001F01CFC662001F0E8
:1036A00019FC002001F016FC672001F013FC00203B
:1036B00001F010FC672001F00DFC002001F00AFC75
:1036C000872001F007FC002001F004FC992001F0A4
:1036D00001FC002001F0FEFBBB2001F0FBFB002001
:1036E00001F0F8FB992001F0F5FB002001F0F2FB5E
:1036F000772001F0EFFB002001F0ECFB442001F00B
:10370000E9FB002001F0E6FB562001F0E3FB00207E
:1037100001F0E0FB232001F0DDFB002001F0DAFBEB
:10372000332001F0D7FB002001F0D4FB452001F04D
:10373000D1FB002001F0CEFBE82001F0D7FB0020F8
:1037400001F0C8FB002001F0C5FB992001F0C2FB8D
:10375000002001F0BFFB872001F0BCFB002001F03E
:10376000B9FB882001F0B6FB002001F0B3FB772005
:1037700001F0B0FB002001F0ADFB662001F0AAFBD8
:10378000002001F0A7FB882001F0A4FB002001F03D
:10379000A1FBAA2001F09EFB002001F09BFBBB20B7
:1037A00001F098FB002001F095FB992001F092FBBD
:1037B000002001F08FFB662001F08CFB002001F05F
:1037C00089FB552001F086FB002001F083FB55208A
:1037D00001F080FB002001F07DFB442001F07AFB2A
:1037E000002001F077FB442001F074FB002001F081
:1037F00071FB552001F06EFB002001F06BFBE9200E
:1038000001F074FBAA2001F065FB002001F062FBCF
:10381000002001F05FFB002001F05CFB002001F0C4
:1038200065FBAA2001F056FBCF2001F05FFB0020D2
:1038300001F050FB002001F04DFB002001F04AFB9D
:10384000002001F047FB002001F044FB002001F0C4
:1038500041FB002001F03EFB002001F03BFB00207B
:1038600001F038FB002001F035FB002001F032FBB5
:10387000002001F02FFB002001F02CFB002001F0C4
:1038800029FB002001F026FB002001F023FB002093
:1038900001F020FBF02001F029FB002001F01AFBD1
:1038A000502001F017FB002001F014FB002001F074
:1038B00011FB002001F00EFBF32001F017FB0020AC
:1038C00001F008FBF92001F011FB062001F002FBDA
:1038D000102001F0FFFA292001F0FCFA002001F08D
:1038E000F9FA3A2001F002FB552001F0F3FA112019
:1038F00001F0FCFA642002F035F9292001F0F6FA13
:10390000352001F0F3FA002001F0E4FA512001F033
:10391000EDFAFF2001F0DEFA532001F0E7FA2C2047
:1039200001F0D8FA552001F0E1FA822001F0D2FA34
:103930002C20FDE3A0427DD14FF470435521184661
:1039400001F0EAFA4FF20107AA21384601F0E4FA41
:103950005221781C01F0E0FA0821B81C01F0DCFAD1
:103960000121F81C01F0D8FA0D214FF4304001F08C
:10397000D3FA0D214BF2010001F0CEFA0D214BF2EA
:10398000020001F0C9FA34214FF4364001F0C4FAC4
:1039900034214BF2016001F0BFFA34214BF2026096
:1039A00001F0BAFA0D214FF4314001F0B5FA0D21C2
:1039B0004BF2011001F0B0FA0D214BF2021001F0B0
:1039C000ABFA34214FF4374001F0A6FA34214BF220
:1039D000017001F0A1FA34214BF2027001F09CFA5F
:1039E00000214FF4324001F097FA00214BF2012000
:1039F00001F092FA00214BF2022001F08DFA24210D
:103A00004FF4384001F088FA24214BF6010001F010
:103A100083FA24214BF6020001F07EFA01214FF4D3
:103A20003F4001F079FA0F214FF4334001F074FA6E
:103A30000F2100E0FEE34BF2013001F06DFA0F219F
:103A40004BF2023001F068FA34214FF4394001F0B2
:103A500063FA34214BF6011001F05EFA34214BF683
:103A6000021001F059FA08214FF4354001F054FAE0
:103A700008214BF2015001F04FFA08214BF202509D
:103A800001F04AFA03214FF4424001F045FA2421A3
:103A90004FF43A4001F040FA24214BF6012001F0A6
:103AA0003BFA24214BF6022001F036FA00214FF4B4
:103AB0003C4001F031FA78214BF6014001F02CFA3C
:103AC00000214BF6024001F027FA00214FF43D405F
:103AD00001F022FA78214BF6015001F01DFA002185
:103AE0004BF6025001F018FA00214FF43E4001F06D
:103AF00013FA64214BF6016001F00EFA00214FF435
:103B0000514001F009FA33214DF2011001F004FA9D
:103B100000214DF2021001F0FFF934214DF20310A3
:103B200001F0FAF900214DF2041001F0F5F93A2103
:103B30004DF2051001F0F0F900214DF2061001F0F0
:103B4000EBF94A214DF2071001F0E6F900214DF2A0
:103B5000081001F0E1F95C214DF2091001F0DCF9E7
:103B600000214DF20A1001F0D7F981214DF20B101E
:103B700001F0D2F900214DF20C1001F0CDF9A6218F
:103B80004DF20D1001F0C8F900214DF20E1001F0B8
:103B9000C3F9E5214DF20F1001F0BEF901214DF2FC
:103BA000101001F0B9F913214DF2111001F0B4F920
:103BB00001214DF2121001F0AFF954214DF2131012
:103BC00001F0AAF901214DF2141001F0A5F98221AA
:103BD0004DF2151001F0A0F901214DF2161001F07F
:103BE0009BF9CA214DF2171001F096F902214DF20E
:103BF000181001F091F900214DF2191001F08CF923
:103C000002214DF21A1001F087F901214DF21B102B
:103C100001F082F902214DF21C1001F07DF93421EE
:103C20004DF21D1001F078F902214DF21E1001F045
:103C300073F967214DF21F1001F06EF902214DF268
:103C4000201001F069F984214DF2211001F064F98E
:103C500002214DF2221001F05FF9A4214DF2231050
:103C600001F05AF902214DF2241001F055F9B72163
:103C70004DF2251001F050F902214DF2261001F00D
:103C80004BF9CF214DF2271001F046F902214DF2F8
:103C9000281001F041F9DE214DF2291001F03CF924
:103CA00002214DF22A1001F037F9F2214DF22B10CA
:103CB00001F032F902214DF22C1001F02DF9FE2114
:103CC0004DF22D1001F028F903214DF22E1001F0D4
:103CD00023F910214DF22F1001F01EF903214DF2AE
:103CE000301001F019F933214DF2311001F014F9BF
:103CF00003214DF2321001F00FF96D214DF2331016
:103D000001F00AF900214FF4524001F005F9332186
:103D10004DF2012001F000F900214DF2022001F0E6
:103D2000FBF834214DF2032001F0F6F800214DF2AA
:103D3000042001F0F1F83A214DF2052001F0ECF8F1
:103D400000214DF2062001F0E7F84A214DF207204C
:103D500001F0E2F800214DF2082001F0DDF85C21CD
:103D60004DF2092001F0D8F800214DF20A2001F0AF
:103D7000D3F881214DF20B2001F0CEF800214DF255
:103D80000C2001F0C9F8A6214DF20D2001F0C4F875
:103D900000214DF20E2001F0BFF8E5214DF20F2079
:103DA00001F0BAF801214DF2102001F0B5F813210D
:103DB0004DF2112001F0B0F801214DF2122001F076
:103DC000ABF854214DF2132001F0A6F801214DF279
:103DD000142001F0A1F882214DF2152001F09CF889
:103DE00001214DF2162001F097F8CA214DF217205B
:103DF00001F092F802214DF2182001F08DF8002117
:103E00004DF2192001F088F802214DF21A2001F03C
:103E100083F801214DF21B2001F07EF802214DF2C2
:103E20001C2001F079F834214DF21D2001F074F8C6
:103E300002214DF21E2001F06FF867214DF21F2084
:103E400001F06AF802214DF2202001F065F884218A
:103E50004DF2212001F060F802214DF2222001F004
:103E60005BF8A4214DF2232001F056F802214DF217
:103E7000242001F051F8B7214DF2252001F04CF833
:103E800002214DF2262001F047F8CF214DF22720E4
:103E900001F042F802214DF2282001F03DF8DE2128
:103EA0004DF2292001F038F802214DF22A2001F0CC
:103EB00033F8F2214DF22B2001F02EF802214DF2C1
:103EC0002C2001F029F8FE214DF22D2001F024F8DC
:103ED00003214DF22E2001F01FF810214DF22F206A
:103EE00001F01AF803214DF2302001F015F83321CA
:103EF0004DF2312001F010F803214DF2322001F093
:103F00000BF86D214DF2332001F006F800214FF43B
:103F1000534001F001F833214DF2013000F0FCFF75
:103F200000214DF2023000F0F7FF34214DF2033052
:103F300000F0F2FF00214DF2043000F0EDFF3A21D5
:103F40004DF2053000F0E8FF00214DF2063000F0A0
:103F5000E3FF4A214DF2073000F0DEFF00214DF271
:103F6000083000F0D9FF5C214DF2093000F0D4FF99
:103F700000214DF20A3000F0CFFF81214DF20B30CD
:103F800000F0CAFF00214DF20C3000F0C5FFA62161
:103F90004DF20D3000F0C0FF00214DF20E3000F068
:103FA000BBFFE5214DF20F3000F0B6FF01214DF2CD
:103FB000103000F0B1FF13214DF2113000F0ACFFD2
:103FC00001214DF2123000F0A7FF54214DF21330C1
:103FD00000F0A2FF01214DF2143000F09DFF82217C
:103FE0004DF2153000F098FF01214DF2163000F02F
:103FF00093FFCA214DF2173000F08EFF02214DF2DF
:10400000183000F089FF00214DF2193000F084FFD4
:1040100002214DF21A3000F07FFF01214DF21B30DA
:1040200000F07AFF02214DF21C3000F075FF3421C0
:104030004DF21D3000F070FF02214DF21E3000F0F5
:104040006BFF67214DF21F3000F066FF02214DF239
:10405000203000F061FF84214DF2213000F05CFF40
:1040600002214DF2223000F057FFA4214DF22330FF
:1040700000F052FF02214DF2243000F04DFFB72135
:104080004DF2253000F048FF02214DF2263000F0BD
:1040900043FFCF214DF2273000F03EFF02214DF2C9
:1040A000283000F039FFDE214DF2293000F034FFD6
:1040B00002214DF22A3000F02FFFF2214DF22B3079
:1040C00000F02AFF02214DF22C3000F025FFFE21E6
:1040D0004DF22D3000F020FF03214DF22E3000F084
:1040E0001BFF10214DF22F3000F016FF03214DF27F
:1040F000303000F011FF33214DF2313000F00CFF71
:1041000003214DF2323000F007FF6D214DF23330C4
:1041100000F002FF00214FF4544000F0FDFE332177
:104120004DF2014000F0F8FE00214DF2024000E0A7
:104130007CE300F0F1FE34214DF2034000F0ECFE90
:1041400000214DF2044000F0E7FE3A214DF2054017
:1041500000F0E2FE00214DF2064000F0DDFE4A21B3
:104160004DF2074000F0D8FE00214DF2084000F06B
:10417000D3FE5C214DF2094000F0CEFE00214DF24D
:104180000A4000F0C9FE81214DF20B4000F0C4FE50
:1041900000214DF20C4000F0BFFEA6214DF20D4073
:1041A00000F0BAFE00214DF20E4000F0B5FEE52110
:1041B0004DF20F4000F0B0FE01214DF2104000F032
:1041C000ABFE13214DF2114000F0A6FE01214DF28D
:1041D000124000F0A1FE54214DF2134000F09CFE6D
:1041E00001214DF2144000F097FE82214DF215405E
:1041F00000F092FE01214DF2164000F08DFECA2122
:104200004DF2174000F088FE02214DF2184000F0F8
:1042100083FE00214DF2194000F07EFE02214DF296
:104220001A4000F079FE01214DF21B4000F074FEAF
:10423000022100E0FDE24DF21C4000F06DFE342151
:104240004DF21D4000F068FE02214DF21E4000F0CC
:1042500063FE67214DF21F4000F05EFE02214DF229
:10426000204000F059FE84214DF2214000F054FE20
:1042700002214DF2224000F04FFEA4214DF22340D6
:1042800000F04AFE02214DF2244000F045FEB72125
:104290004DF2254000F040FE02214DF2264000F094
:1042A0003BFECF214DF2274000F036FE02214DF2B9
:1042B000284000F031FEDE214DF2294000F02CFEB6
:1042C00002214DF22A4000F027FEF2214DF22B4050
:1042D00000F022FE02214DF22C4000F01DFEFE21D6
:1042E0004DF22D4000F018FE03214DF22E4000F05B
:1042F00013FE10214DF22F4000F00EFE03214DF26F
:10430000304000F009FE33214DF2314000F004FE50
:1043100003214DF2324000F0FFFD6D214DF233409C
:1043200000F0FAFD00214FF4554000F0F5FD332177
:104330004DF2015000F0F0FD00214DF2025000F06E
:10434000EBFD34214DF2035000F0E6FD00214DF26B
:10435000045000F0E1FD3A214DF2055000F0DCFD83
:1043600000214DF2065000F0D7FD4A214DF20750D2
:1043700000F0D2FD00214DF2085000F0CDFD5C218F
:104380004DF2095000F0C8FD00214DF20A5000F036
:10439000C3FD81214DF20B5000F0BEFD00214DF216
:1043A0000C5000F0B9FDA6214DF20D5000F0B4FD07
:1043B00000214DF20E5000F0AFFDE5214DF20F50FF
:1043C00000F0AAFD01214DF2105000F0A5FD1321CF
:1043D0004DF2115000F0A0FD01214DF2125000F0FD
:1043E0009BFD54214DF2135000F096FD01214DF23A
:1043F000145000F091FD82214DF2155000F08CFD1B
:1044000001214DF2165000F087FDCA214DF21750E0
:1044100000F082FD02214DF2185000F07DFD0021D8
:104420004DF2195000F078FD02214DF21A5000F0C3
:1044300073FD01214DF21B5000F06EFD02214DF283
:104440001C5000F069FD34214DF21D5000F064FD58
:1044500002214DF21E5000F05FFD67214DF21F500A
:1044600000F05AFD02214DF2205000F055FD84214C
:104470004DF2215000F050FD02214DF2225000F08B
:104480004BFDA4214DF2235000F046FD02214DF2D8
:10449000245000F041FDB7214DF2255000F03CFDC5
:1044A00002214DF2265000F037FDCF214DF227506A
:1044B00000F032FD02214DF2285000F02DFDDE21EA
:1044C0004DF2295000F028FD02214DF22A5000F053
:1044D00023FDF2214DF22B5000F01EFD02214DF282
:1044E0002C5000F019FDFE214DF22D5000F014FD6E
:1044F00003214DF22E5000F00FFD10214DF22F50F0
:1045000000F00AFD03214DF2305000F005FD33218B
:104510004DF2315000F000FD03214DF2325000F019
:10452000FBFC6D214DF2335000F0F6FC00214FF4FE
:10453000564000F0F1FC33214DF2016000F0ECFC3C
:1045400000214DF2026000F0E7FC34214DF20360DF
:1045500000F0E2FC00214DF2046000F0DDFC3A21A5
:104560004DF2056000F0D8FC00214DF2066000F02D
:10457000D3FC4A214DF2076000F0CEFC00214DF241
:10458000086000F0C9FC5C214DF2096000F0C4FC39
:1045900000214DF20A6000F0BFFC81214DF20B605A
:1045A00000F0BAFC00214DF20C6000F0B5FCA62131
:1045B0004DF20D6000F0B0FC00214DF20E6000F0F5
:1045C000ABFCE5214DF20F6000F0A6FC01214DF29D
:1045D000106000F0A1FC13214DF2116000F09CFC72
:1045E00001214DF2126000F097FC54214DF213604E
:1045F00000F092FC01214DF2146000F08DFC82214C
:104600004DF2156000F088FC01214DF2166000F0BB
:1046100083FCCA214DF2176000F07EFC02214DF2AE
:10462000186000F079FC00214DF2196000F074FC74
:1046300002214DF21A6000F06FFC01214DF21B6067
:1046400000F06AFC02214DF21C6000F065FC342190
:104650004DF21D6000F060FC02214DF21E6000F082
:104660005BFC67214DF21F6000F056FC02214DF209
:10467000206000F051FC84214DF2216000F04CFCE0
:1046800002214DF2226000F047FCA4214DF223608C
:1046900000F042FC02214DF2246000F03DFCB72105
:1046A0004DF2256000F038FC02214DF2266000F04A
:1046B00033FCCF214DF2276000F02EFC02214DF299
:1046C000286000F029FCDE214DF2296000F024FC76
:1046D00002214DF22A6000F01FFCF2214DF22B6006
:1046E00000F01AFC02214DF22C6000F015FCFE21B6
:1046F0004DF22D6000F010FC03214DF22E6000F011
:104700000BFC10214DF22F6000F006FC03214DF24E
:10471000306000F001FC33214DF2316000F0FCFB11
:1047200003214DF2326000F0F7FB6D214DF2336052
:1047300000F0F2FB5521184600F0EEFBAA213846A6
:1047400000F0EAFB5221781C00F0E6FB0821B81CBF
:1047500000F0E2FB0021F81C00F0DEFBCC214FF45E
:10476000314000F0D9FB00214BF2011000F0D4FBE6
:1047700005214FF4364000F0CFFB70214FF4374055
:1047800000F0CAFB70214BF2017000F0C5FB012163
:104790004FF4384000F0C0FB03214BF6010000F05D
:1047A000BBFB03214BF6020000F0B6FB03214BF6E6
:1047B000030000F0B1FB02214FF43C4000F0ACFBE1
:1047C00000214BF6014000F0A7FB00214BF6024010
:1047D00000F0A2FBD0214FF4494000F09DFB0221E4
:1047E0004CF6011000F098FB50214CF6021000F03E
:1047F00093FB50214CF6031000F08EFB50214CF639
:10480000041000F089FB00214FF4545000F084FBA9
:1048100055214FF4685000F07FFB4FF4885000F0B2
:1048200065FB782001F0BAF94FF4245000F05EFBEC
:10483000B9E04045FCD1E22000F058FB1D2000F01B
:1048400049FB022000F046FB042000F043FB6420FB
:1048500001F0A4F9E02000F049FB012000F03AFB50
:104860000A2001F07FF9E02000F040FB032000F077
:1048700031FB0C2001F076F9012000F037FB0A2013
:1048800001F070F9E62000F031FB2F2000F022FB50
:10489000FF2000F01FFBFF2000F01CFBB02000F009
:1048A00025FB202000F016FB002000F013FB032066
:1048B00000F010FB40F21F3000F00CFB012000F074
:1048C00009FB40F2DF1000F005FB002000F002FBC6
:1048D000B42000F00BFB042000F0FCFA40F21F4073
:1048E00000F0F8FA002000F0F5FA2E2000F0F2FABD
:1048F000002000F0EFFA002000F0ECFA002000F0B9
:10490000E9FA002000F0E6FAB62000F0EFFA022003
:1049100000F0E0FA4FF4037000F0DCFA002000F041
:10492000D9FA172000F0D6FA152000F0D3FA0020AB
:1049300000F0D0FA002000F0CDFAF02000F0D6FA16
:10494000032000F0C7FA292000F0D0FAD02000F0B0
:10495000CDFA002000F0BEFABE2000F0C7FA052014
:1049600000F0B8FAFE2000F0B5FA012000F0B2FA2B
:10497000002000F0AFFA002000F0ACFA002000F0B8
:10498000A9FAB82000F0B2FA032000F0A3FA01203F
:1049900000F0A0FABA2000F0A9FA012000F09AFA7B
:1049A000642000F035F8A888584505D0B04203D0FF
:1049B000A04201D0404509D1042002900490D9E9D9
:1049C000010202A9D9F83030FBF7A6FF0020FDF75D
:1049D0009FFC0549C1F894A24FF6FF70FDF774FCE7
:1049E00015B0BDE8F08F0000008040420346012072
:1049F00000E05843491EC9B2FBD27047034808B5CE
:104A00000088ADF80000BDF8000008BD0000086097
:104A100010B50246BE2000F069FA052000F05AFAEF
:104A2000104603F084FA9FED0C1B53EC112B03F09E
:104A300091FA03F04FFA80B200F04CFA012000F036
:104A400049FAFF2000F046FA002000F043FABDE8E2
:104A50001040002000F03EBA666666666666044056
:104A6000F0B56C4D00232946AA79898841F6631474
:104A7000012A01D01AB11BE0A14202D118E0A142E3
:104A800016D1082814D2DFE800F00406080A0C0E3C
:104A9000101206200CE007200AE0042008E00520A0
:104AA00006E0012004E0002002E0032000E00220F4
:104AB000A1F5134745F2103245F21056413F05D09B
:104AC000914203D0B14201D0A14277D1082812D23D
:104AD000DFE800F0110406080A0C0E1080230AE03B
:104AE000402308E0C02306E0202304E0602302E026
:104AF000A02300E0E023B14202D14FF4585000E07F
:104B00003620914205D0B14203D0A14201D043F0FA
:104B10000803194600F000FAAA88A2420AD09806B3
:104B20002888698802D5884202D303E0884201D9E7
:104B3000298068806889B24241D100F0D7F900200D
:104B400000F0C8F96889401C80B200F0CFF900205D
:104B500000F0C0F96889801C80B200F0C7F928888D
:104B6000401EC0F30F2000F0B5F96889C01C80B268
:104B700000F0BCF92878401EC0B200F0ABF9A8895B
:104B800000F0B4F9002000F0A5F9A889401C80B21B
:104B900000F0ACF9002000F09DF9A889801C80B2DB
:104BA00000F0A4F96888401EC0F30F2000F092F9CD
:104BB000A889C01C80B200F099F922E028E000F03A
:104BC00095F9002000F086F9002000F083F928888C
:104BD000401EC0F30F2000F07DF92878401EC0B2BF
:104BE00000F078F9A88900F081F9002000F072F94E
:104BF000002000F06FF96888401EC0F30F2000F01D
:104C000069F9A878BDE8F040401EC0B200F062B972
:104C1000F0BD0000F4030020F0B53F4D0C46024605
:104C2000060AA9882846270A4089A1F51343413B73
:104C300028D0A1F5A643103B24D0A1F5C853633B6F
:104C40002FD0A1F5AA43103B64D100F04FF93046B4
:104C500000F040F96889401C80B200F047F9D0B2FA
:104C600000F038F9A88900F041F9384600F032F92F
:104C7000A889401C80B200F039F9E0B2BDE8F040EC
:104C800000F028B900F032F9304600F023F9D0B234
:104C900000F020F9A88900F029F9384600F01AF947
:104CA000EBE7A97929B300F021F9304600F012F9B9
:104CB000D0B200F00FF92888401EC0F30F2000F09A
:104CC00009F92878401EC0B200F004F9A88900F064
:104CD0000DF9384600F0FEF8E0B200F0FBF8688805
:104CE000401EC0F30F2000F0F5F8A878401EC0B2B7
:104CF000C4E72988891A491E8AB200F0F7F8002013
:104D000000F0E8F8002000F0E5F8100A00F0E2F802
:104D1000D0B2D9E7F0BD0000F40300202DE9F84F30
:104D200082461F460E468B46580700D0012000EBF6
:104D3000D700790810FB01F0203AC0B202F0FF0959
:104D40000025009047E00C2F10D0102F12D0182F04
:104D500014D0202F42D1224901EBC9104FF0000896
:104D6000445D200610D51F48026811E009EB490098
:104D70001D4906E01D4901EB0910EFE71C4909EB4D
:104D8000C90001EB8000E9E70A9828B91548426894
:104D900031465046FDF7B8FB6006040E1548761CF8
:104DA000B6B24088B04219D9A6EB0B00B84209D17F
:104DB0000AF101001FFA80FA0E485E46018851454B
:104DC0000CD906E008F1010000F0FF08B8F1080F67
:104DD000C7D36D1CEDB200988542B4D3BDE8F88FFF
:104DE0002A990008700000206A810008DE8500080A
:104DF000CE8B0008F40300202DE9F84F044600F0A4
:104E0000FF0810190D46DDE90A761FFA80FA5819D5
:104E10001FFA80F94FF0000B11E0544502D3E81956
:104E2000444685B24D450FD23B4629462046CDF833
:104E300000B0FFF773FF04EB570084B2761C3278A2
:104E4000A2F120005E28E8D9BDE8F88F2DE9FF4FD8
:104E500081B08046DDF83CA00E984FF000091F4657
:104E600093464C460AF0010546082BE0381B401ECD
:104E7000C1B20A20FFF7BAFDBBFBF0F00A21B0FB7C
:104E8000F1F201FB1200B9F1000F05D1791E8C423D
:104E900002DA48B14FF001093030C2B206FB04809B
:104EA00080B200950E9B08E05FEA0A6006FB048072
:104EB0000E9B80B200950AD530220299FFF72EFF93
:104EC000641CE4B2BC42D1D305B0BDE8F08F20220F
:104ED000F3E7000001B5BDF80000ADF80000BDF833
:104EE00000000149088008BD0000086001B5BDF858
:104EF0000000ADF80000BDF800000149088008BDC1
:104F0000FEFF0760024803490089088070470000DF
:104F1000F4030020FEFF0760024A1080901C01800D
:104F200070470000FEFF0760104810B5016886B0AA
:104F300041F0020101600068012100F002000590CB
:104F40000320CDE90210CDE90001094C6946204655
:104F5000FBF7FAFD012211462046FBF7E8FE01228D
:104F600002212046FBF7E3FE06B010BD30380240B8
:104F70000004024008B500900548018BC08A491E14
:104F80008BB2401E82B20021084600F045F808BDF1
:104F9000AC04002000B58DB0082309920490009362
:104FA00006916846FCF7FCF8002800D001200DB0FF
:104FB00000BD000010B5084B1C465875A1888AB288
:104FC000218889B220B1012801D1D9821A8310BD6C
:104FD000DA82198310BD0000AC040020F0B50C4F3C
:104FE00094B23D46DFF82CC02B68EA692D7D7E7DAA
:104FF0005CF8255026B103FB01004243AC52F0BDE2
:105000007E68301A401E03FB001050432C52F0BD46
:10501000AC040020780000202DE9F043254EDDF897
:105020001C900024757D0DB1054606E077680D469D
:10503000B91A1A463B1A491E5B1E306896F814C00E
:10504000DFF87480521B871A58F82CC0F66900FBF1
:10505000015006FB00C519487F1EBFB2066846F422
:105060000006066016484FF4403606600226466386
:105070000764066826F001060660C563591A4FF4F6
:10508000803303EB0242491C11434164C0F838905D
:10509000016841F0010101605A0102E0641C944280
:1050A00002D241688907F9D5816841F00201816027
:1050B000BDE8F083AC0400207800002030380240C6
:1050C00000B002402DE9FF4100F01CF90146012625
:1050D000644CA1F586424FF4F07547F28400423AE1
:1050E00014D032044FF44873814224D1C4E900350E
:1050F000268166812E20A0811720E081D220208287
:105100001620608203214FF4C67033E056A0FBF7EF
:1051100029F94FF48870C4E900502681668128205F
:10512000A0810820E0810521218282036082042180
:105130004FF490701EE0A1F5E0454FF48060163DFD
:1051400006D0AA1E19D0A1F50042173A1AD01DE0C8
:1051500020604FF41670606014202081032161816B
:105160008C21A181E081A02020820C20608202217C
:105170004FF4B470FFF70EFF08E04FF4A060C4E9ED
:10518000000303E020604FF44070606038482268FC
:10519000394F0280616841800220E0613548386003
:1051A0003048364BA8380025C0E900358560C56019
:1051B0000561B4F808C0ACF1010343616389A3F150
:1051C000010EC0F818E0B4F80CE0F444ACF1010EA4
:1051D000C0F81CE0B4F80EE07344A3F1010EC0F86F
:1051E00020E0A2F1010EE644C0F824E0A1F1010E96
:1051F0009E44C0F828E0B4F810E072446244521EA5
:10520000C262628A11441944491E016380F8365013
:1052100080F8355080F83450FBF7F0FD0720062168
:10522000CDE90205CDE90051FF23022200203968B3
:1052300000F028F8A088002280B200902088114653
:1052400083B2104600F04CF80020FFF7B3FE0C4884
:105250002575C0F8946204B0681EBDE8F041FFF700
:1052600089BE0000AC04002069643D25780D0A0069
:10527000F4030020000000C0780000200068014016
:10528000008040422DE9F0438DB0164614AA002458
:1052900092E88013114D009402942A6801926D687F
:1052A000CDE904634FEA0823CDE9067303954FEA7D
:1052B00009230DF1240E08938EE8260002468DF88E
:1052C000324006488DF831408DF830C06946A83824
:1052D000FBF76BFD0DB0BDE8F0830000AC040020CF
:1052E00070B51E46044603460548049DFBF77EFE46
:1052F00023462A463146BDE870400148FBF7A0BE70
:105300000404002030B52A4887B00021026842F02A
:1053100040020260026802F040020592026842F414
:10532000807202600068234C00F480700590402079
:10533000CDE9000101200290032003906946204638
:10534000FBF702FC84201C4D009069462846FBF7C1
:10535000FBFB40212046FBF7E5FC044604212846E0
:10536000FBF7E0FC44EA400480212846FBF7DAFC26
:1053700044EA800010F0FF000AD001280BD0022878
:105380000CD003280DD004280ED0002007B030BD6B
:1053900044F24230FAE747F28400F7E747F216009A
:1053A000F4E747F21800F1E748F21700EEE70000D3
:1053B000303802400018024000200240F0B5046876
:1053C0008B88E568C5F30B452B441D04882303EB4C
:1053D000C213E65806F47046E65004680F68E668A3
:1053E000C6F30B46761C3E442E43E65003688C8978
:1053F000DD68C5F30A052C4425048C2404EBC21493
:105400001E5906F470461E5103688F68DE68C6F3A5
:105410000A06761C3E442E431E519423046803EB77
:10542000C213E55825F00705E55005680C69EC50F6
:1054300091F8313005681F0291F832301C040B7E60
:105440001E069C2303EBC21355F803C04FF0000C5B
:1054500045F803C091F8305034433D432543046878
:10546000E5509823046803EBC213E55825F0FF05C7
:10547000E55005684C69EC50A023046803EBC213A7
:10548000E55840F20776B543E550D1E907452C438E
:105490000568EC50AC23046803EBC213E55844F8EC
:1054A00003C005684C6AEC500B698BB3012B32D0FA
:1054B000042B32D0022B30D0032B2ED0072B2CD034
:1054C0000123B024056804EBC2142E5906F0E0262F
:1054D0002E51D1E90065AD1B0E8D5D435E43ED1C81
:1054E00045EA064305682B51B423046803EBC21355
:1054F000E5586FF30A05E5500468C96AE150006891
:10550000842101EBC211425842F001024250F0BD29
:10551000FFE70423D5E70323D3E70223D1E7FEE720
:1055200070470907090E002806DA00F00F0000F1A5
:10553000E02080F8141D704700F1E02080F800148E
:10554000704700004FF4C8740020FCF76BFE04287D
:105550000DD121460848FBF7ADF8074801F00AFDD8
:1055600006A0FAF7FFFE04490DA0FAF7FBFE0A2099
:1055700001F024FCE8E700000C010020C8CECEF1C9
:10558000C3FB090909D4CBD0D0CAB1BCE409D4CB40
:10559000D0D0CBF9D5BCB0D9B7D6B1C80D0A000070
:1055A00025730D0A0000000000B5254887B0234987
:1055B0000022C0E900120121816008211023C0E906
:1055C0000313402343614FF4C073C0E906320A025B
:1055D00002624A0242628A0282620220CDE900012E
:1055E00006210291CDE90310059006906946144802
:1055F000FCF73CFA002301221146184600F022F87D
:105600004FF4FA7000F0CAFA002301220221184672
:1056100000F018F8002308220321184600F012F8C1
:105620004FF40C7301220421002000F00BF840F22B
:10563000AB210348FCF7AAFA07B000BD400100A067
:10564000CC0400201FB5002410B1012802D002E0D4
:10565000102400E00824CDE90014CDE902234FF422
:10566000805269460348FCF7A2FA002800D00120C6
:1056700004B010BDCC04002070B51E4C92B00025C3
:10568000266846F080562660246804F08054119401
:10569000194C266846F44046266024680DF1240C17
:1056A00004F44044119401240094019402240694CB
:1056B0008CE80D006605CDE907616846FCF748F8FF
:1056C00000B1FEE7FBF728FD00B1FEE70CA90F20B3
:1056D00081E831004FF4A0500F904FF480501090AB
:1056E00005210CA8FBF7B0FE002800D0FEE712B0A1
:1056F00070BD0000403802400070004010B502F05C
:105700008DF9012801D001F07DFEBDE81040FBF7C6
:1057100019BB00001048016841F4700101600F4896
:10572000016841F0010101600C4A0021083211605A
:1057300002680B4B1A400260031D0A4A1A60026895
:1057400022F48022026005480C30016002495806AC
:10575000803908607047000088ED00E000380240A2
:10576000FFFFF6FE103000240148FCF708BB0000E4
:1057700000050020094A10B5074BC2E9003100219D
:10578000C2E9021010461161FCF7B2FABDE8104000
:105790000248FCF7E7BA00000004004000050020C2
:1057A000F0B50268234D244E244FDFF894C0254BFA
:1057B0004FF0804EA84209D0704507D0B04205D0C6
:1057C000B84203D0604501D0984203D122F0700462
:1057D0004A682243A8421BD0704519D0B04217D066
:1057E000B84215D0604513D0984211D0164CA04253
:1057F0000ED0164CA0420BD0154CA04208D0154C30
:10580000A04205D0144CA04202D0144CA04203D1B7
:1058100022F44074CA68224302608A68C2620A683D
:105820008262A84201D0984201D109690163012135
:105830004161F0BD0000014000040040000800404C
:10584000000C0040000401400040014000440140C1
:105850000048014000180040001C004000200040AB
:1058600010B590F83910222903D0322901D0022036
:1058700010BD8168B1F5805F11D001690029016810
:105880001FD0496801F07F03816A4A1C82620B7055
:10589000C18D491E0904090CC18518D02FE0026989
:1058A000816A002A0268526805D0D2B20A80816AF1
:1058B000491C8162ECE7C2F308020A80816A891CF4
:1058C000F7E74A68816A4B1C83620A70E0E7016867
:1058D000CA6822F02002CA6090F83910322910D02C
:1058E0000168CA6822F48072CA6001684A6922F0BD
:1058F00001024A61012180F83910FCF725FC0020E3
:1059000010BD1221F7E700002DE9F04104460068C0
:105910000169E26821F440510A4302612068C168CC
:1059200049F20C6291432369A268E5691A436369ED
:105930002B431A430A43C2602068416921F4407234
:10594000A16911434161E06964263225B0F5004F39
:10595000484A494920681DD0884201D0904269D107
:10596000FBF7A6FE00EBC00101EB00106168B0463A
:105970008900B0FBF1F1B1FBF8F6FBF799FE00EB03
:10598000C00101EB001061688900B0FBF1F7FBF783
:105990008FFE68E0884201D0904219D1FBF788FE63
:1059A00000EBC00101EB00106168B0464900B0FB9C
:1059B000F1F1B1FBF8F6FBF77BFE00EBC00101EB68
:1059C000001061684900B0FBF1F7FBF771FE18E0C9
:1059D000FBF758FE00EBC00101EB00106168B04618
:1059E0004900B0FBF1F1B1FBF8F6FBF74BFE00EB21
:1059F000C00101EB001061684900B0FBF1F7FBF753
:105A000041FE00EBC00101EB001061684900B0FBF2
:105A1000F1F1B1FBF8F06FF01801484307EB80009B
:105A200005EB0011B1FBF8F0216866F31F108860E8
:105A3000BDE8F081FBF726FE00EBC00101EB001092
:105A40006168B0468900B0FBF1F1B1FBF8F6FBF7F5
:105A500019FE00EBC00101EB001061688900B0FB8A
:105A6000F1F7FBF70FFE00EBC00101EB00106168DE
:105A70008900CCE7001401400010014090F8391073
:105A8000122903D0322901D0022070478168B1F574
:105A9000805F016A0BD04A1C02620268097851607B
:105AA000C18C491E0904090CC1840ED017E0098875
:105AB0000268C1F30801516001690029016A02D03E
:105AC000491C0162ECE7891CFBE70168CA6822F007
:105AD0008002CA600068C16841F04001C1600020D6
