:020000040800F2
:1000000000000000A500000800F002F800F03AF837
:100010000AA090E8000C82448344AAF10107DA4563
:1000200001D100F02FF8AFF2090EBAE80F0013F07B
:10003000010F18BFFB1A43F00103184780030000AB
:10004000A0030000103A24BF78C878C1FAD852073C
:1000500024BF30C830C144BF04680C607047000042
:100060000023002400250026103A28BF78C1FBD8C1
:10007000520728BF30C148BF0B6070471FB51FBD76
:1000800010B510BD00F02AF81146FFF7F7FF00F099
:100090008BF800F048F803B4FFF7F2FF03BC00F060
:1000A00069F80000DFF81CD007480849084A00F04A
:1000B000F9F808484FF00001074A00F000F900F095
:1000C00073F800000000012000000020DC0300089D
:1000D0000400000004000020B8000000754600F095
:1000E0002BF8AE4605006946534620F007008546CA
:1000F00018B020B500F024F8BDE820404FF000060D
:100100004FF000074FF000084FF0000B21F00701FF
:10011000AC46ACE8C009ACE8C009ACE8C009ACE842
:10012000C0098D46704710B50446AFF300802046E5
:10013000BDE81040FFF7AFBF004870475C000020EB
:1001400000B54FF0160085B0694601AA0A60ABBE43
:100150000198002802BF0548C01D20F00700039940
:10016000029A049B05B000BD0900000000000000D9
:100170007047000001491820ABBEFEE726000200D0
:1001800001B500BF0098411E00910028FAD108BDBA
:10019000044900BF086800F020000028FAD0486831
:1001A000704700000038014000F0DEF80120FFF742
:1001B000E7FF312000F09EF8302000F09BF830205F
:1001C00000F098F8612000F095F8732000F092F8A4
:1001D0006B2000F08FF80A2000F08CF80D2000F062
:1001E00089F8154915A000F075F8194919A000F013
:1001F00071F81D4801681DA000F06CF81F480178D7
:100200001FA000F067F82248016822A000F062F801
:100210000948007800F06EF8422000F06BF809E021
:10022000FFF7B6FFC4B2204600F064F8611CC8B204
:1002300000F060F8F4E7000000000020675F43680A
:1002400061722773206164647220203D20000000E9
:10025000B8030008675F43686172322773206164E6
:100260006472203D2000000004000020675F415BB5
:10027000305D27732076616C203D20001000002047
:10028000675F425B305D27732076616C203D200004
:100290001C000020735F435B305D27732076616C28
:1002A000203D200070B503460C4603E025781D7004
:1002B000641C5B1C151EA2F10102F7D170BD30B5A4
:1002C000034601E019705B1C141EA2F10102F9D172
:1002D00030BD000070B505460C46284600F038F8E1
:1002E000204600F013F802A000F032F870BD0000C4
:1002F0000D0A0000044900BF0A6802F08002002ACB
:10030000FAD04860704700000038014070B50646DA
:100310000EA000F01DF8072514E0A80026FA00F052
:1003200000F00F04002C07DB092C05DC04F1300180
:10033000C8B2FFF7DFFF04E004F13701C8B2FFF7EE
:10034000D9FF6D1E002DE8DA70BD00003078000086
:1003500010B5044603E02078FFF7CCFF641C20783A
:100360000028F8D110BD000010491148026844F27D
:1003700004031A4302600F48026822F0F002026090
:10038000026842F090020260026822F47062026029
:10039000026842F48062026045228A6042F20C02E6
:1003A000CA600A6922F440520A617047003801406D
:1003B000181002400408014042000000DC0300085D
:1003C000000000200400000044000008E0030008D2
:1003D00004000020B8000000600000084100000098
:0400000508000009E6
:00000001FF
