:020000040800F2
:100000000000000041000008000000003501000869
:100010000000000000000000710000080000000067
:1000200000000000000000000000000000000000D0
:1000300000000000000000000000000000000000C0
:10004000DFF834D000F086F800F00EFA00F0A6F8E1
:100050004FF000004FF011314FF022324FF03333A8
:100060004FF0443C4FF0553EFFFFFFFF03488047F1
:10007000684600F09BB8000000000120B9020008AB
:1000800010B5203AC0F00B80B1E81850203AA0E833
:100090001850B1E81850A0E81850BFF4F5AF5FEA67
:1000A000027C24BFB1E81850A0E8185044BF18C91A
:1000B00018C0BDE810405FEA827C24BF51F8043BC1
:1000C00040F8043B08BF7047D20728BF31F8023B15
:1000D00048BF11F8012B28BF20F8023B48BF00F8A9
:1000E000012B70474FF0000200B513469446964628
:1000F000203922BFA0E80C50A0E80C50B1F120013B
:10010000BFF4F7AF090728BFA0E80C5048BF0CC0E8
:100110005DF804EB890028BF40F8042B08BF704746
:1001200048BF20F8022B11F0804F18BF00F8012BB8
:100130007047000002A000F08BF900BFFEE700004E
:10014000486172644661756C745F48616E646C6589
:10015000720A0D0010B509480949884202D0094ABF
:10016000FFF78EFF08480949884202D0084AFFF786
:1001700087FF08490848FFF7B5FF10BD00000008D9
:1001800000000008BC04000000000020BC040008BF
:100190000400000058000000040000200248416AEA
:1001A00041F480214162704700ED00E070B50446E3
:1001B000144D15A000F04CF919A0216800F00AF9BF
:1001C00019A0616800F006F919A0A16800F002F911
:1001D00019A0E16800F0FEF819A0216900F0FAF812
:1001E00019A0616900F0F6F819A0A16900F0F2F811
:1001F00019A0E16900F0EEF8A86AA862A069001DE4
:10020000A06170BD00ED00E05573616765466175E2
:100210006C745F48616E646C65720A0D00000000CA
:10022000523020203D200000523120203D2000008F
:10023000523220203D200000523320203D2000007B
:10024000523132203D2000004C5220203D20000041
:10025000504320203D200000785053523D200000A4
:1002600001B500BF0098411E00910028FAD108BDD9
:10027000044900BF086800F020000028FAD0486850
:10028000704700000038014070B503460C4603E09B
:1002900025781D70641C5B1C151EA2F10102F7D1AC
:1002A00070BD30B5034601E019705B1C141EA2F14D
:1002B0000102F9D130BD0000244D0120FFF7D0FF2D
:1002C000312000F097F8302000F094F8302000F052
:1002D00091F8612000F08EF8732000F08BF86B200D
:1002E00000F088F80A2000F085F80D2000F082F870
:1002F0007B2117A0A8471C491CA000F06BF82049DF
:1003000020A000F067F82448016824A000F062F8FB
:100310002648017826A000F05DF82948016829A048
:1003200000F058F81048007800F064F8422000F01F
:1003300061F809E0FFF79CFFC4B2204600F05AF8CC
:10034000611CC8B200F056F8F4E70000D5030008BD
:100350007465737420666F7220746578742072659A
:100360006C6F63617465200000000020675F436864
:1003700061722773206164647220203D20000000B8
:10038000B8040008675F43686172322773206164B4
:100390006472203D2000000004000020675F415B84
:1003A000305D27732076616C203D20001000002016
:1003B000675F425B305D27732076616C203D2000D3
:1003C0001C000020735F435B305D27732076616CF7
:1003D000203D200070B505460C46284600F038F850
:1003E000204600F013F802A000F032F870BD0000C3
:1003F0000D0A0000044900BF0A6802F08002002ACA
:10040000FAD04860704700000038014070B50646D9
:100410000EA000F01DF8072514E0A80026FA00F051
:1004200000F00F04002C07DB092C05DC04F130017F
:10043000C8B2FFF7DFFF04E004F13701C8B2FFF7ED
:10044000D9FF6D1E002DE8DA70BD00003078000085
:1004500010B5044603E02078FFF7CCFF641C207839
:100460000028F8D110BD000010491148026844F27C
:1004700004031A4302600F48026822F0F00202608F
:10048000026842F090020260026822F47062026028
:10049000026842F48062026045228A6042F20C02E5
:1004A000CA600A6922F440520A617047003801406C
:1004B0001810024004080140420000004100000002
:0400000500000000F7
:00000001FF
