:020000040800F2
:1000000080C502206D020008D1720008BF340008CC
:100010000B690008190900080D84000800000000A1
:10002000000000000000000000000000577E0008F3
:100030001B09000800000000F3720008358000086A
:10004000870200088702000887020008870200086C
:10005000870200088702000887020008870200085C
:10006000870200088702000887020008870200084C
:10007000870200088702000887020008870200083C
:10008000870200088702000887020008870200082C
:10009000870200088702000887020008870200081C
:1000A000870200088702000887020008870200080C
:1000B00087020008870200088702000887020008FC
:1000C00087020008870200088702000887020008EC
:1000D00087020008A1830008870200088702000841
:1000E00087020008870200088702000887020008CC
:1000F00087020008870200088702000887020008BC
:1001000087020008870200088702000887020008AB
:10011000870200088702000887020008870200089B
:10012000870200088702000887020008870200088B
:10013000870200088702000887020008870200087B
:10014000870200088702000887020008870200086B
:10015000870200088702000887020008870200085B
:10016000870200088702000887020008870200084B
:1001700087020008870200088702000800000000CC
:10018000870200088702000887020008870200082B
:10019000870200088702000887020008870200081B
:1001A00087020008870200088702000800F002F8B2
:1001B00000F044F80AA090E8000C82448344AAF1BD
:1001C0000107DA4501D100F039F8AFF2090EBAE8BB
:1001D0000F0013F0010F18BFFB1A43F0010318477B
:1001E0007425010094250100103A24BF78C878C115
:1001F000FAD8520724BF30C830C144BF04680C602D
:10020000704700000023002400250026103A28BF74
:1002100078C1FBD8520728BF30C148BF0B60704778
:10022000642900F0C780782900F000810020704721
:100230001FB50DF0E5F91FBD10B510BD00F03AFB7C
:100240001146FFF7F5FF0BF0F5FE00F058FB03B485
:10025000FFF7F2FF03BC08F073FA000030BF72B67C
:10026000704762B6704780F3088870470948804736
:1002700009480047FEE7FEE7FEE7FEE7FEE7FEE788
:10028000FEE7FEE7FEE7FEE704480549054A064BA0
:100290007047000039800008AD01000880BF0220CF
:1002A00080C5022080C1022080C10220704753EA2D
:1002B000020C00F069802DE9F04B4FF00006002B96
:1002C0001FBFB3FA83F503FA05F424FA05F65E407E
:1002D00012BF1643B2FA82F502FA05F4C5F1200501
:1002E0001EBF22FA05FC44EA0C04203556EA044CF1
:1002F0004FEA144418BF641C4FF000084FF0000987
:10030000904271EB030C39D3002919BFB1FA81F780
:1003100001FA07F6B0FA80F700FA07F6C7F12007EE
:100320001EBF20FA07FC46EA0C062037B6FBF4FC99
:10033000A7EB0507103F07F01F0BCBF120060CFAC7
:100340000BFB2CFA06F644BFB3460026202FA4BFB1
:100350005E464FF0000B5BEA060C08BF4FF0010B46
:1003600019EB0B09ABFB027C48EB0608C01B06FB34
:1003700002CC0BFB03CC71EB0C01C1E70B46024630
:1003800041464846BDE8F08B13B54FF000004FF0F2
:100390000001AFF30080BDE81C4070470FB4044972
:1003A00010B503AA029800F057FA10BC5DF814FBD0
:1003B000200000202DE9F041064600241068752930
:1003C000314616A510D0AFF30080002802DA404273
:1003D00013A507E031688A0701D512A502E0490795
:1003E00004D511A5012401E0AFF3008000210A2209
:1003F00006F1240709E0B0FBF2FCB0FBF2F302FBCC
:100400001C00303078541846491C0028F3D123468C
:100410002A463046BDE8F04100F0C4B900000000B3
:100420002D0000002B0000002000000070B50446E5
:100430000D4621461068AFF300802188090502D5DA
:100440000F4A7A4402E00E4A7A440E32002104F147
:10045000240305E000F00F060009965D5E54491C78
:100460000028F7D120780023000704D5702D02D092
:1004700009B1022311322046BDE8704000F092B964
:100480009E2201002DE9F0410F460546002028621A
:100490002846E968884770B3252805D0D5E90121A9
:1004A0009047286A401CF2E7E968284600268847FA
:1004B0006C2804460AD0682C08D04C2C35D06A2C05
:1004C00031D0742C31D07A2C2FD016E0E968064652
:1004D00028468847B042044608D16C2E23D04FF4FA
:1004E00080662846E9688847044606E06C2E03D0FB
:1004F0004FF4807601E01EE04026E4B1A4F1410013
:10050000192802D8203446F400663A462146284687
:100510002E60FFF785FE60B1012808D0FF1D27F08F
:1005200007070837B4E78026DBE70026D9E73F1D39
:10053000AEE72046B2E7286ABDE8F08140EA010351
:10054000024630B59B0710D14FF0013400E008C2DD
:1005500008C91D1B9D4315EAC41FF8D013F0FF0105
:1005600002F8011B0DD01B0AF8E711F8013B002B24
:1005700002F8013B05D011F8013B002B02F8013BCA
:10058000F3D130BD421E12F8013F002BFBD111F810
:10059000013B002B02F8013BF9D17047032A40F2DE
:1005A000308010F0030C00F0158011F8013BBCF115
:1005B000020F624498BF11F801CB00F8013B38BF2D
:1005C00011F8013BA2F1040298BF00F801CB38BF3B
:1005D00000F8013B11F0030300F02580083AC0F059
:1005E000088051F8043B083A51F804CBA0E8081001
:1005F000F5E7121D5CBF51F8043B40F8043BAFF334
:100600000080D20724BF11F8013B11F801CB48BF8D
:1006100011F8012B24BF00F8013B00F801CB48BFC3
:1006200000F8012B704710B5203AC0F00B80B1E8FC
:100630001850203AA0E81850B1E81850A0E8185017
:10064000BFF4F5AF5FEA027C24BFB1E81850A0E820
:10065000185044BF18C918C0BDE810405FEA827C3A
:1006600024BF51F8043B40F8043B08BF7047D20751
:1006700028BF31F8023B48BF11F8012B28BF20F8F2
:10068000023B48BF00F8012B70474FF000020429DD
:10069000C0F0128010F0030C00F01B80CCF1040CB1
:1006A000BCF1020F18BF00F8012BA8BF20F8022BE5
:1006B000A1EB0C0100F00DB85FEAC17C24BF00F88B
:1006C000012B00F8012B48BF00F8012B70474FF0B9
:1006D000000200B5134694469646203922BFA0E892
:1006E0000C50A0E80C50B1F12001BFF4F7AF09079E
:1006F00028BFA0E80C5048BF0CC05DF804EB89008F
:1007000028BF40F8042B08BF704748BF20F8022BD1
:1007100011F0804F18BF00F8012B70474FF0013CDB
:1007200050F8042B51F8043B9A4221D1A2EB0C0360
:10073000934313EACC1317D150F8042B51F8043B20
:100740009A4215D1A2EB0C03934313EACC130BD1BD
:1007500050F8042B51F8043B9A4209D1A2EB0C0348
:10076000934313EACC13DBD04FF00000704700BF77
:10077000D01A01BAB1FA81F101F0180122FA01F0A0
:10078000CB40C1F12001DBB2C0B2C01A2CFA01F398
:10079000D11A914311EAC311E6D1704770477047EF
:1007A000704770472DE9F0470D469946924604463A
:1007B00000F124080168880604D5E06921F01001E1
:1007C000216000E00120A84201DD471B00E0002776
:1007D000A1697A1902EB0900081AA0612078C00605
:1007E00002D42046AFF30080002608E0D4E90121BE
:1007F0001AF806009047206A401C761C20624E457D
:10080000F4DB2078C0060AD52046AFF3008006E06E
:10081000D4E9012130209047206A401C2062381E14
:10082000A7F10107F4DC07E0D4E9012118F805007D
:100830009047206A401C2062281EA5F10105F3DCC8
:100840002046AFF300802078000602D50220BDE8E4
:10085000F0870120FBE70000074B70B50D467B4495
:1008600000F011F80446284600F020F810B14FF0CF
:10087000FF3070BD204670BD63A1000001694A1CB5
:1008800002610878704700B58FB0CDE901310021D1
:10089000059105497944CDE9031011466846FFF7F3
:1008A000F1FD0FB000BD0000E5FFFFFF007B00F091
:1008B00080007047754600F02BF8AE46050069468B
:1008C000534620F00700854618B020B5FFF7DCFC42
:1008D000BDE820404FF000064FF000074FF0000841
:1008E0004FF0000B21F00701AC46ACE8C009ACE8C2
:1008F000C009ACE8C009ACE8C0098D46704710B526
:100900000446AFF300802046BDE81040FFF79FBCCF
:100910000048704720BF0220FEE77047102A0FD022
:10092000C26AD1E9002342EA03220B89097B4FEA1C
:10093000034343EA016142EA010203D1C26002E0DB
:10094000C268EEE7C2624FF000007047102A0FD075
:10095000826AD1E9002342EA03220B89097B4FEA2C
:10096000034343EA016142EA010203D1826002E0EB
:100970008268EEE782624FF00000704730B50A6887
:10098000102A1AD0026A104B02EA0302D1E901349C
:1009900043EA0403D1E9034544EA050443EA0403B6
:1009A0004C69896943EA442343EA413141EA02013F
:1009B00041F0080103D1016002E00268E3E701624F
:1009C0004FF0000030BD00008101F0FF70B5B3F5BD
:1009D000804F05D06FF0704140F82210002070BDAC
:1009E00050F82230084C2340D1E9004544EA051470
:1009F0008D688E892D0245EA064589692C430C4392
:100A00001C4340F82240E9E70000F0CFF0B50C6845
:100A100050F82450194A1540D1E90123D1E9036760
:100A20001A433E4332434E6932438E693243CE69A4
:100A300032430E6A32434E6A32438E6A3243CE6A82
:100A40003243CE6B32430E6B32434E6B32432A43FA
:100A5000082B01D142F0400240F824204A6BB2F545
:100A6000801F08D10A6832B14FF480720A610449CC
:100A70000268114301600020F0BD00008000E0FF2B
:100A800000011000F0B500EB820253688E8903F07C
:100A90004044D1E9003543EA05138D682D0245EA4B
:100AA00006452B430E8A0D4D05EB065633430E7D4E
:100AB0006F0107EB066633438E693343234353606C
:100AC0000268D20207D54268098A22F4700205EB57
:100AD0000151114341600020F0BD00000000F0FF13
:100AE00030B5D1E901231A43D1E9033423431A4332
:100AF0004B690D681A438B691A43D1E90734012DFC
:100B0000496A05686FF30E0505D01A4322430A436C
:100B10002A43026008E0234329430B4341680360F2
:100B20006FF30E010A434260002030BD426942EA81
:100B30004101416100207047F8B514460546D1E9EE
:100B4000000210438A686FF01F03C96803EB42126A
:100B500042EA412108430090286100F057FD064613
:100B600009E0601C07D024B100F050FD801BA042BA
:100B700001D90320F8BDA8698006F2D40020F8BD91
:100B8000F0B56FF00F05D1E9003405EB04145B1EDE
:100B90002E0123438C682F0306EB04244FEA054CF7
:100BA00023430D8A8E8ACC68097E4FF07F4E07EB77
:100BB00005450CEB06560EEB0161012A0CD082684C
:100BC0003F1107EB043423432B43334302F07042BD
:100BD0000B43134383600FE0C2682B430B4302F0C7
:100BE00070428168134301F070422103A1F58051E6
:100BF00031431143C36081600020F0BD38B5044625
:100C0000094D4FF0AA300090A879042360436A464A
:100C1000002106F04DFBA879042360436A460021B9
:100C2000401C06F045FB38BD301600202DE9FC477E
:100C3000254F89460646002500240DF1040810E0E2
:100C4000CDF80080798870438B084A46002106F071
:100C5000B1F97888BDF80410B1EB900F04D1641C91
:100C6000A4B2B879A042EBD8B879A04202D1002052
:100C7000BDE8FC87304605F0C1FF20B1294613A02E
:100C8000FFF78CFB16E0B9F1FF3F13D000200AE01C
:100C90007A8806FB001093080022114606F0E0FA5D
:100CA000BDF80400401CADF80400B879BDF804108C
:100CB0008842EDD86D1CADB2032DBDD3314609A0DD
:100CC000FFF76CFB0120D3E7301600206572726FCE
:100CD0007220657261736520626C6F636B3A256484
:100CE0000D0A000062616420626C6F636B206368B0
:100CF00065636B65643A25640D0A000038B50446E7
:100D0000104D00208DF80000A879012360436A4649
:100D1000002106F083F99DF80000FF2801D0022091
:100D200038BDA879012360436A460021401C06F0C3
:100D300075F99DF80000FF2801D0012038BD002082
:100D400038BD0000301600202DE9F84F91462F4A9B
:100D50008A461D469179B0FBF1F3B0FBF1F801FB37
:100D6000130B404600F0B8F8284907464889B842B6
:100D700002D20120BDE8F88F002428E05C4516D39C
:100D8000ADB14A88A2EB0A01A94201D28EB200E0BD
:100D9000AEB207FB004108FB00404B4652460096AE
:100DA00005F0B4FD4FF0000AB144AD1B05E007FBB0
:100DB000004108FB004005F07BFE30B13846FFF7EC
:100DC0001DFF012000F024F8CBE7641CA4B20F49FA
:100DD0008879A042D2D80D46A879A04214D13846CD
:100DE00000F028FA404605F009FF00206A89696989
:100DF00008E031F81040444502D121F8107003E0BA
:100E0000401C80B28242F4D80020B3E730160020A4
:100E1000F8B506460021294D4FF6FF7003E06A69D8
:100E200022F81100491C6A898A42F8D80020A8815A
:100E300004461CE0A879042360436A46002106F0BA
:100E4000EDF89DF80000FF280CD1B6B1A879012378
:100E500060436A460021401C06F0E0F89DF800005F
:100E6000FF280AD0214616A0FFF798FA641C69896A
:100E7000A142DFD800206A6916E09DF802009DF8C3
:100E8000031000EB01206989814202D9696921F8C8
:100E90001040A889401CA881E8E732F810308B4246
:100EA00001D3E88102E0401C8142F6D8E889642839
:100EB00001D20220F8BD0020F8BD0000301600204D
:100EC00062616420626C6F636B20696E6465783A5E
:100ED00025640D0A0000000070B5104E104C718999
:100EE0002268491E914200D2216000F00105294686
:100EF000206800F017F8411C0AD170892168401E53
:100F0000884207D92946206000F00CF8411C01D026
:100F1000206070BD4FF0FF3070BD00003016002023
:100F20003C000020F8B50D460021401C0091040053
:100F300012D00C4F012626EA0400A8420AD1B87943
:100F4000611E484304236A46002106F067F80098B2
:100F5000401C04D0641EEED14FF0FF30F8BD601E7F
:100F6000F8BD000030160020F8B5254E00273C469D
:100F7000B78113E02046FFF7C1FE70B9204605F0A7
:100F80003DFE38B121461FA0FFF708FA2046FFF7C3
:100F900035FE02E0B089401CB081641C7089A0421B
:100FA000E8D8B1891BA0FFF7F9F9B089642801D20C
:100FB0000120F8BDC0EB4010642100EB4000B0FB05
:100FC000F1F50024009710E02046FFF797FE58B98E
:100FD000B079022360436A46194606F069F9009821
:100FE000401C0090A84203D0641C7089A042EBD83A
:100FF0000120FFF70DFF0028DBD00220F8BD000024
:101000003016002042616420626C6F636B3A256485
:101010000D0A0000676F6F645F626C6F636B6E75C3
:101020006D3A25640D0A000010B505F011FE00BBF5
:10103000184C616911B100200BF03CFD6089410042
:1010400000200BF043FD606161894900FFF71DFB43
:10105000606970B10120FFF7DBFE60B10EA0FFF701
:101060009DF9FFF781FF90B111A0FFF797F90220DA
:1010700010BD012010BD618912A0FFF78FF9A18971
:1010800016A0FFF78BF9E18919A0FFF787F9002077
:1010900010BD000030160020666F726D6174206E06
:1010A000616E6420666C6173682E2E2E0D0A00003E
:1010B000666F726D6174206661696C6564210D0AEA
:1010C00000000000746F74616C20626C6F636B20B1
:1010D0006E756D3A25640D0A00000000676F6F643D
:1010E00020626C6F636B206E756D3A25640D0A008B
:1010F00076616C696420626C6F636B206E756D3A0B
:1011000025640D0A000000000549CA89824202D206
:101110004FF6FF707047496931F8100070470000C2
:10112000301600202DE9FF5F9B46154682460026BB
:1011300079E03F4C6088B0FBF5F1A079414301981C
:101140008319B3FBF1F0FFF7DFFF6189814203D818
:10115000012004B0BDE8F09F354C6188A479B1FB53
:10116000F5F26243B3FBF2F702FB17326A43B2FBBC
:10117000F1F300FB0437B2FBF1F001FB1028A1EB07
:101180000800B0FBF5F084B2ABEB0600A04200D241
:1011900084B204FB05F91FFA89F31FFA88F152465D
:1011A000384605F0E9FD032809D11FFA89F31FFA33
:1011B00088F15246384605F0DFFD032804D00428A4
:1011C0002ED068B30220C4E74B461FFA88F152467E
:1011D0003846FFF7B9FDDFF858804FF0FF3198F837
:1011E0000600B7FBF0F0FFF721FD80B998F8060084
:1011F0000021B7FBF0F0FFF719FD814698F80600D3
:10120000B7FBF0F005F0FAFCB9F1000F08D098F840
:101210000600B7FBF0F0FFF7F1FC0120FFF7F8FD47
:1012200005FB04AA26445E4583D3002091E7000015
:101230003016002008B5CC218DF800100449012398
:101240006A4689794843194606F032F808BD00001D
:10125000301600202DE9FF4F85B0154600274FF0CE
:10126000FF3B7BE0404C6088A179B0FBF5F0484340
:101270000699CB19B3FBF0F0FFF746FF6189804672
:10128000414503D8012009B0BDE8F08F364A5088A7
:101290009279B0FBF5F15143B3FBF1F401FB14314A
:1012A00001FB05FABAFBF0F308FB0231BAFBF0F2DE
:1012B00000FB12A9A0EB090080B2B0FBF5F002918F
:1012C0000899ADF80400C91B8CB20391844200D385
:1012D000044601A804FB05F600901FFA89F1C6F345
:1012E0008F034FF0FF32029805F064FE08B1022030
:1012F000C9E7BDF80400B0EB960F0FD1B3B21FFAE7
:1013000089F1059A029805F003FF38B94146C345B3
:1013100020D00846FFF78EFFC346D8B11248817926
:1013200040884143A1EB0A00B0FBF5F0039980B27D
:101330008CB2ADF80400844200D3044604FB05F6E9
:101340001FFA89F13346059A0298FFF7FDFC08B1B0
:10135000032098E705982744304405900898874271
:1013600080D300208FE700003016002030B40C46F8
:1013700001461546500700D0012000EBD50010FBB8
:1013800005F0C2B208784B78812809D3402B07D3E7
:10139000FF2B05D0FF2803D07F2B0CD2403B0BE066
:1013A0000023184603E05B1C04F8010BDBB29342F8
:1013B000F9D330BC7047413B8138D9B2C0B2C0EBE1
:1013C000401303EB801001EB400050430C490C2DFF
:1013D0000CD0102D0DD0182D0ED0202DE9D1D1F824
:1013E00021100144204630BC07F07CB8D1F8091028
:1013F000F7E7D1F81110F4E7D1F81910F1E7000080
:10140000B8BE022031B500F001F9044600F0FEF844
:101410000099001B8842F9D338BD00002DE9F84F30
:10142000DFF8A091002209F1040A0AF1040B4FF041
:101430000F080BF1040E01260B6896403340B342AF
:1014400071D14C68022C01D0122C11D1D40800EBC0
:1014500084073D6A5407E40E08FA04FC25EA0C05EB
:10146000D1F810C00CFA04FC4CEA050CC7F820C0F7
:1014700007685400032591F804C0A5400CF0030C44
:10148000AF430CFA04FC4CEA070CC0F800C04F68EC
:10149000012F05D0022F03D0112F01D0122F11D10F
:1014A0008768D1F80CC0AF430CFA04FC4CEA070C77
:1014B000C0F808C04768B7430E79C6F300169640D7
:1014C0003E434660C668AE438D68A5403543C5605F
:1014D0004C68E4006FD53C4C256845F48045256098
:1014E000246822F0030504F480440094374C2E193C
:1014F000D6F808789407250F08FA05F4A743344C6A
:10150000A04201D100242EE0324CA04201D101249E
:1015100029E0314CA04201D1022424E02F4CA0420A
:1015200002D103241FE046E02D4CA04201D1042447
:1015300019E02C4CA04201D1052414E02A4CA04211
:1015400001D106240FE0294CA04201D107240AE072
:10155000274CA04201D1082405E0264CA04201D12D
:10156000092400E00A24AC403C43C6F80848D9F8F6
:1015700000404D464E689C43F60300D51C432C604A
:10158000DAF8004055464E689C43B60300D51C432C
:101590002C60DBF800405D464E689C43F60200D5A7
:1015A0001C432C60DEF8004075464E689C43B60232
:1015B00000D51C432C60521C102AFFF43CAFBDE840
:1015C000F88F0000003C01404438024000300140E8
:1015D000000002400004024000080240000C0240EB
:1015E000001002400014024000180240001C02409B
:1015F00000200240002402400069084000D0012081
:1016000070470AB1816170470904FBE7014800682F
:10161000704700001400002002480168491C016066
:1016200070470000140000200B4810B5016841F419
:1016300000710160016841F480610160016841F45A
:1016400080710160052000F049FA0F2000F006F8D3
:1016500000F08AF9002010BD003C024010B504469D
:1016600000F0EAFC4FF47A71B0FBF1F001F0B8FD44
:1016700000222146501E00F011FA002010BD2DE975
:10168000F041044690F8A00015460F4601281DD0F1
:10169000012684F8A060022084F8A10005EB8500F3
:1016A00000EBC50004EB800034223830FEF7BBFFAE
:1016B0002A463946204605F077F82068466284F8C5
:1016C000A160002084F8A000BDE8F0810220FBE7C3
:1016D00070B5040004D094F8A100002510B106E014
:1016E000012070BD84F8A050204600F06FF8022061
:1016F00084F8A1002068816921F070418161D4E9FA
:1017000001100143D4E903021043014320688269B8
:1017100011438161206882682B490A408260A08A57
:10172000020420688368A6693343134383602068FA
:10173000C2680A40C260A08B02042068C368266A9F
:1017400033431343C360206802690A400261A08CDE
:10175000020420680369A66A3343134303612068C7
:1017600042690A404261A08D010420684269236BEE
:101770001A430A43426194F83500020294F8360095
:1017800001042068C36A03F07F43C3622068C36A10
:1017900094F83460114333430B43C3622068416BB8
:1017A00041F0040141632068416B41F00201416353
:1017B0002068816941F001018161C4F8A4500120D1
:1017C00084F8A100002070BD00F800F030B5364864
:1017D00087B00025016841F080610160006800F079
:1017E0008060059030481438016841F400010160C0
:1017F000016801F400010591016841F002010160F6
:10180000016801F002010591016841F020010160C9
:10181000016801F020010591016841F0400101607B
:10182000016801F040010591016841F0800101600B
:10183000016801F080010591016841F48071016047
:101840000068032400F4807005902020009001209F
:10185000CDE90204019069461448FFF7DFFD4FF41B
:10186000806000900220CDE901050E20CDE9034003
:1018700069460F48FFF7D2FD4FF40C6000906946AF
:101880000C48FFF7CBFD4FF47E40009069460A48B4
:10189000FFF7C4FD40F2F760009069460748FFF784
:1018A000BDFD07B030BD00004438024000040240D6
:1018B0000014024000180240001C024000200240B8
:1018C00070B5044690F8A0000E46012820D00125EE
:1018D00084F8A050022084F8A10003EB830000EB01
:1018E000C30004EB800141F8386F886A3044C1E9D5
:1018F0000102C86A1044C8601A46204604F054FF2A
:101900002068456284F8A150002084F8A00070BDD2
:10191000022070BD2DE9F041044690F8A0000F466A
:1019200001281FD0012584F8A050022084F8A100CE
:1019300003EB830000EBC30004EB80010026E1E928
:101940000E672046C1E90262C1E90A721A4604F034
:101950002BFF2068456284F8A15084F8A060002025
:10196000BDE8F0810220FBE708B50020009008BD2B
:1019700070B515460E46040003D094F8210010B14E
:1019800007E0012070BD002084F82000204600F010
:1019900021F8211D2068FEF7F1FFD4E9000231464D
:1019A000FEF7D4FFD4E900022946FEF7B7FF6068CE
:1019B0001028206808D0016A41F00401016201206A
:1019C00084F82100002070BD016841F0040101602D
:1019D000F5E7000070B5274886B00024016841F0A3
:1019E00001010160006800F00100059021480838FD
:1019F000016841F008010160016801F008010591EA
:101A0000016841F010010160016801F010010591C9
:101A1000016841F0400101600068032500F04000CA
:101A200005904020CDE900040120CDE90205124EC9
:101A300069463046FFF7F2FC7015009001A90220BC
:101A400081E831000C20049069460C48FFF7E6FC61
:101A50004DF633000090694602943046FFF7DEFCF5
:101A60004FF4F060009069460548FFF7D7FC06B0D8
:101A700070BD000038380240000C024000180240DF
:101A80000010024000F01F02012191404009800037
:101A900000F1E020C0F8001170470000F0B40E4BD8
:101AA0001B68C3F30223C3F10704042C00D90424E8
:101AB0001D1D072D01D2002300E0DB1E012606FAC2
:101AC00004F56D1E0D409D409E40761E164045EA71
:101AD0000601F0BC05F0FDBB0CED00E0064A00F08D
:101AE000070110684FF6FF03184040EA0120034940
:101AF00008431060704700000CED00E00000FA059C
:101B00002DE9F8431D48016841F0805101600068EB
:101B1000012700F080500090380490FAA0F0DFF820
:101B20006080B0FA80F048F82070FFF76FFD04463F
:101B30004FF47A75134E04E0FFF768FD001BA842CE
:101B400013D87068C003F7D54FF4003090FAA0F0B6
:101B5000B0FA80F048F82070FFF758FD044607E01F
:101B6000FFF754FD001BA84202D90320BDE8F8830B
:101B700070688003F4D50020F8E700004038024088
:101B800000000E42007000402DE9F84F0446006846
:101B9000DFF878829E4DC10747F6C07A4FF0E046E5
:101BA0004FF0010B4FF0000901D180074BD5994947
:101BB000C1F86890FFF72AFD074604E0FFF726FD0D
:101BC000C01B64287ED828680001F7D42078924989
:101BD000C0070DD09AFAAAF26068B2FA82F2904079
:101BE00096FAA6F3A268B3FA83F39A40104308600A
:101BF0002078800718D5086896FAA6F200F0E04031
:101C0000B2FA82F2D0406268237B920142EA036218
:101C100042EA00700860D8F80010E26921F01F0164
:101C2000521E1143C8F800107A49C1F868B0FFF796
:101C3000EDFC074604E0FFF7E9FCC01B642841D82F
:101C400028680001F7D52068410701D4000776D540
:101C50007049C1F87090FFF7D9FC074604E0FFF720
:101C6000D5FCC01B64282DD82868C0438000F6D559
:101C700020786A4F40074FF0706C29D5386896FA83
:101C8000A6F100F0E040B1FA81F1C8409AFAAAF258
:101C90002169B2FA82F291409CFAACF36269B3FA1C
:101CA00083F39A40114396FAA6F2B2FA82F2904078
:101CB00001433960D8F800106FF0FF0321F4F851A8
:101CC000226A00E079E003EB02221143C8F8001019
:101CD0002078000723D538689CFAACF100F07060DA
:101CE000B1FA81F1C8409AFAAAF22169B2FA82F2F5
:101CF00091409CFAACF2B2FA82F29040014396FA1B
:101D0000A6F2A069B2FA82F2904001433960D8F895
:101D10000010626A21F440311143C8F800103D49B7
:101D2000C1F870B0FFF772FC064604E0FFF76EFCE6
:101D3000801B642841D82868C0438000F6D42078EE
:101D4000800651D532484F464030016841F08051FD
:101D500001600068324E00F080500090306840F41E
:101D600080703060FFF752FC054604E0FFF74EFC40
:101D7000401B642821D83068C005F7D5264E143E94
:101D80003068218D00F4407001F4407188422BD0FE
:101D90003068244920F44070C1F800B00F60306012
:101DA000800710D5FFF732FC054641F2883707E07F
:101DB000FFF72CFC401BB84202D90320BDE8F88F86
:101DC00030688007F4D5A06A1149C0F301220831B8
:101DD000032A13D0086820F4F81008603068218DB9
:101DE000C1F30B01084330602078C00604D50E49CA
:101DF00094F82C00C1F8E0010020DFE70A680B4BE3
:101E000022F4F812184002430A60E7E78C380240D7
:101E100000380240000047428438024088380240BF
:101E200000700040400E474200104742FFFCFF0F89
:101E30002DE9F05FDFF8F8A104460F46DAF800005C
:101E4000DFF8F08100F00F02C8B27A49814641F212
:101E5000883608F10808BA4261D202468AF80020A2
:101E6000DAF8000000F00F00B8427DD1207880073A
:101E700007D5D8F80020A36822F0F0021A43C8F86A
:101E800000202078C0072DD0606801281AD00228D1
:101E90001BD0032819D009688907002964DAD8F80B
:101EA0000010474621F003010143C8F80010FFF776
:101EB000ADFB0546606801280FD0022818D0032822
:101EC0001CD027E009688903E7E709688901E4E78E
:101ED000FFF79CFB401BB04258D83868C0F3810024
:101EE0000128F5D188E0FFF791FB401BB0424DD8A7
:101EF0003868C0F381000228F5D17DE03868FFF72B
:101F000085FB401BB042F9D940E0FFF77FFB401B47
:101F1000B0423BD8386810F00C0FF6D16CE0207856
:101F2000800707D5D8F80020A36822F0F0021A43F2
:101F3000C8F800202078C0074CD06068012828D05D
:101F4000022829D0032827D009688907002949DAFF
:101F5000D8F8002022F003020243C8F80020FFF75F
:101F600055FB0546606800E03CE001281DD00228D2
:101F700029D0032838D0B3464646306810F00C0FFD
:101F800028D0FFF743FB411B5945F6D90320BDE894
:101F9000F09F09688903D9E709688901D6E7FFF747
:101FA00035FB411B594502D9F0E7B3464646306838
:101FB000C0F381000128F2D10CE0FFF727FB411BA1
:101FC000594502D9E2E7B34646463068C0F381007E
:101FD0000228F2D18AF80090DAF8000000F00F0031
:101FE000B84209D00120D2E744462068FFF70EFB33
:101FF000401BB042F9D9C9E72078400707D5D8F887
:102000000010E26821F4E0511143C8F80010207874
:10201000000708D5D8F80010226921F4604141EA90
:10202000C201C8F800100F20FFF718FB0020AEE730
:10203000003C02400038024010B500F043F8084967
:102040000968F02292FAA2F201F0F001B2FA82F2EB
:10205000D140044A515CC8400349086010BD0000EB
:10206000083802400AD600080000002010B5FFF72B
:10207000E3FF074909684FF4E05292FAA2F201F433
:10208000E051B2FA82F2D140024A515CC84010BD20
:10209000083802400AD6000810B5FFF7CDFF0749FF
:1020A00009684FF4604292FAA2F201F46041B2FA78
:1020B00082F2D140024A515CC84010BD083802404B
:1020C0000AD6000830B51948006810F00C0118480D
:1020D00012D0184C04290ED008290DD1134A121F12
:1020E0001168136801F03F015D0247F6C07304D523
:1020F000B4FBF1F003E0204630BDB0FBF1F0116815
:10210000194093FAA3F3B3FA83F3D9404843116813
:102110004FF4403292FAA2F201F44031B2FA82F264
:10212000D140491C4900B0FBF1F030BD08380240F5
:102130000024F40040787D012DE9F84F0446007832
:10214000DFF8FCA2BF4DC0074FF0000648D0DAF818
:1021500000105046C1F38101012908D00068C0F386
:10216000810002280AD1281D0068400206D528688F
:10217000800335D56068002873D031E0DFF8C49261
:1021800009F1020989F80060FFF740FA074641F2B9
:10219000883804E0FFF73AFAC11B41457AD828682D
:1021A0008003F7D4207989F80000606860B1FFF7F8
:1021B0002DFA074604E0FFF729FAC11B4145EDD887
:1021C00028688003F7D50BE0FFF720FA074604E004
:1021D000FFF71CFAC11B4145E0D828688003F7D4FB
:1021E0002078DFF86492800744D5DAF80010504672
:1021F00011F00C0F4FF0F80809D00068C0F381000F
:1022000002280BD18E48001F0068400206D42868BF
:10221000800714D5E068012823D110E0E068D0B130
:102220000120C9F80000FFF7F1F9074604E0FFF7C5
:10223000EDF9C01B6428B1D828688007F7D5286855
:1022400098FAA8F22169B2FA82F220F0F8009140DF
:10225000084328600EE0C9F80060FFF7D7F9074689
:1022600005E0EAE0FFF7D2F9C01B642812D828681D
:102270008007F7D42078000725D5DFF8C48173489C
:10228000616908F16C0881B101210160FFF7BEF9B5
:10229000074605E07EE0FFF7B9F9C01B642879D84E
:1022A000D8F800008007F6D50DE00660FFF7AEF91C
:1022B000074604E0FFF7AAF9C01B64286AD8D8F8DB
:1022C00000008007F6D42078400753D55C483830AA
:1022D000016841F0805101600068DFF8748100F00E
:1022E00080500090D8F8001041F48071C8F80010B8
:1022F000FFF78CF9074604E0FFF788F9C01B642854
:1023000048D8D8F80000C005F6D5DFF834B10BF195
:10231000680B8BF80060FFF779F9074641F28838BF
:1023200004E0FFF773F9C11B41457ED8DBF80000DC
:102330008007F6D4207A8BF80000A06868B1FFF718
:1023400065F9074604E0FFF761F9C11B41456CD808
:10235000DBF800008007F6D50CE0FFF757F90746D9
:1023600004E0FFF753F9C11B41455ED8DBF80000DC
:102370008007F6D4A069E8B3DAF80010C1F3810150
:1023800002295AD0022806D0C9F86060FFF73EF94A
:1023900004464DE049E04F46C9F86060FFF736F962
:1023A000064604E0FFF732F9801B64283DD8286810
:1023B0008001F7D4D4E90701084347F6C07191FAC8
:1023C000A1F1626AB1FA81F18A40A16A4FF0FF334C
:1023D00003EB51014FF4403393FAA3F3B3FA83F3C1
:1023E00099400A4310434FF0706292FAA2F2B2FA97
:1023F00082F200E01FE0E16A914008431049091FA2
:10240000086001203866FFF701F9044604E0FFF791
:10241000FDF8001B642808D828688001F7D50AE079
:10242000FFF7F4F8001B642802D90320BDE8F88FF9
:1024300028688001F4D40020F8E70120F6E70000C6
:10244000083802400038024000004742800E4742F0
:102450000070004070B50D46040003D094F82C00C5
:1024600010B107E0012070BD002084F82D00204647
:1024700000F012F8022084F82C00211D2068FEF7DD
:102480002FFBD4E900022946FEF77AFB012084F8ED
:102490002C00002070BD0000304800B5016887B0F6
:1024A00041F001010160006800F0010005902B4837
:1024B0000838016841F004010160016801F004017D
:1024C0000591016841F008010160016801F008010F
:1024D0000591016841F010010160016801F01001EF
:1024E0000591016841F020010160016801F02001BF
:1024F0000591016841F0400101600068694600F003
:10250000400005900D2000900220019001200290D3
:10251000032003900C2004901148FEF77FFF4CF23B
:102520000370009069460F48FEF778FF4FF68370FE
:10253000009069460C48FEF771FF4FF63F0000908F
:1025400069460A48FEF76AFF48F23710009069466C
:102550000748FEF763FF07B000BD000038380240AF
:1025600000080240000C024000100240001402402B
:102570000018024010B5044690F82C00022809D03B
:10258000022084F82C002068FEF7D0FA012084F89D
:102590002C00002010BD70B5044690F82C000D46AC
:1025A00002280CD0022084F82C002068FEF7C4FA20
:1025B0002868022804D0012084F82C00002070BD77
:1025C0000520F9E72DE9F04790F8202081F8562002
:1025D000828CA1F85420826A0023120E94090C7098
:1025E000C2F383044C7002F003028A70826A120CF8
:1025F000CA70028D120A0A7190F828204A71C26AC4
:102600004FF6FF7A120E0AEA0212CA80C26ACC881A
:10261000C2F3074244EA1214CC8002F00F020A729D
:10262000828DC2F30722D4094C72C2F380148C72DB
:10263000C2F34014CC72C2F300140C7300264E7324
:10264000046A4FF00109002C7DD0012CFCD0022C33
:102650007AD02923C2F380144C769206520E01F8E8
:102660001A2F10F8302F0C7844EAD21401F8014BDD
:1026700002F07F0201F8012B50F8042F120ED4094A
:102680000C70C2F341144C70C2F382048C70920738
:10269000120FCA7004C8CC78C2F3074244EA9214FD
:1026A000CC70C2F340140C714E7102F001028A71B9
:1026B00030F8042CC2F30722D409CC71C2F3801481
:1026C0000C72C2F340144C72C2F300148C72C2F349
:1026D0008104CC7202F003020A7310F8042C520831
:1026E0004A734C4681F80E9050F8082B120E0A746B
:1026F00050F8082C120C0AEA02224A8230F8082C00
:102700004D8AC2F3072215434D8210F8082C120699
:1027100041F8142F50F8042C0D68120E45EA0242BD
:102720000A6050F8042C0D68C2F3074245EA022201
:102730000A6030F8042C0D68C2F30722154320C14B
:1027400010F8042C01E034E076E001F8012B026877
:10275000120E01F8032B0268120C12060A6002889E
:102760000D68C2F3072245EA02420A6002780D684A
:1027700045EA02220A6042680D6845EA126520C1F6
:1027800042680D78C2F3074245EA121501F8025B70
:102790001207120D0A8082880D88C2F307221543A2
:1027A00021F8025B0079400808704C701846BDE8BB
:1027B000F0879207120D0A6190F82C200C6944EA08
:1027C00082020A61026B0C69120E44EA92140C61D7
:1027D000C2F3C2040C7502F007024A75026BC2F321
:1027E000074254098C75C2F38204CC759207520FCC
:1027F0000A76028E0C7EC2F3072244EAD2140C76CB
:102800000C690F7EBF1C09FA07F5641CA4FB057850
:102810004FEAE57C06FB058504FB0C5591F808C0E2
:1028200009FA0CF4A7FB04C80C6505FB048407FB3C
:102830000644C1E912C40DE790F82C209206920AD2
:102840000A61026B0C69120E44EA02220A61026BF1
:102850000C69C2F3074214430C61028E0C69C2F387
:102860000722641C46F10005ED0445EA5435E404F2
:10287000C1E912454FF400740C65EBE670B586B003
:1028800000250E4604468DF80C50057700F046F8FA
:1028900076200095CDE901502B462A46294620682E
:1028A00004F04AFD204605F081F88DF80C009DF8F3
:1028B0000C0038B9204604F06DFF8DF80C009DF82F
:1028C0000C0018B19DF80C0006B070BD31462046D2
:1028D000FFF778FE8DF80C009DF80C00A0B9B6F853
:1028E0005400694600040090072001904020CDE983
:1028F000020500010490206804F037FD07212046FE
:1029000004F0BAFD8DF80C0004F1100007C88DE842
:10291000070094E80F0004F00FFDD3E71D4800B551
:10292000016887B041F400610160006800F4006054
:10293000059018481438016841F48001016001686D
:1029400001F480010591016841F004010160016812
:1029500001F004010591016841F00801016000687F
:10296000694600F0080005904FF4F85000900220EE
:10297000019001200290032003900C20049006484F
:10298000FEF74CFD0420009069460448FEF746FD22
:1029900007B000BD4438024000080240000C02406D
:1029A0002DE9F04F8BB004460D46DDE9147821681F
:1029B00000201646C862216A022903D10F02560A76
:1029C00046EAC3561021CDE9007140218346080133
:1029D0000291CDE903B06946206804F0C6FC1021DD
:1029E000204604F049FD00286DD14FF0FF3A08FB66
:1029F00007F0CDE905A007A990204FF0020981E872
:102A0000010A01200A9005A9206804F073FCB8F1BE
:102A1000010F01D9122000E01120CDE900606946C4
:102A2000206804F0A2FCB8F1010F1AD91221204647
:102A300004F022FD070046D140F22A3B2068416B9A
:102A400011EA0B0F28D1406B0004F7D5002620684F
:102A500004F088FC45F82600761C082EF7D32035B4
:102A6000ECE71121204604F007FD07002BD140F2CE
:102A70002A6B2068416B11EA0B0F0DD1406B0004EB
:102A8000F7D50026206804F06DFC45F82600761C7A
:102A9000082EF7D32035ECE7406BC0050CD5B8F114
:102AA000010F09D9206A18B1012801D0022803D1E9
:102AB000204600F033F807462168486B000705D52B
:102AC0000820886304200BB0BDE8F08F486B8007B6
:102AD00003D54846C1F83890F5E7486B800603D522
:102AE000202088630620EEE7486B800504D54FF46C
:102AF000007088630720E6E7564603E004F032FCE6
:102B000001C5761E2068416B890201D5002EF5D1E2
:102B1000216840F2FF5088633846D4E710B586B08C
:102B2000044600200C21CDE900014021CDE902102E
:102B3000080104906946206804F017FC0C21204627
:102B400004F09AFC06B010BDFEB50446006A0025EC
:102B50000E46032805D030B1012804D0022802D047
:102B60001FE02720FEBDB6F5805F05D0B6F5006FEB
:102B700004D03EB1262514E0272512E0204605F0BA
:102B800050F802E0204605F013F8050009D1211D98
:102B9000D4E905070EC9CDE900600297206804F06A
:102BA000CBFB2846FEBD2DE9F04F8DB00646002533
:102BB0000C468DF82C50DDE91698316817462846EA
:102BC000CD62316A4FF4007B022903D1570AD946FE
:102BD00047EAC3571021CDE9009140218246080100
:102BE0000291CDE903A06946306804F0BEFB1021D4
:102BF000304604F041FC00286ED1B8F1010F01D934
:102C0000192000E01820CDE900706946306804F012
:102C1000ACFBB8F1010F01D9192100E018213046B1
:102C200004F02AFC00287FD1411E09FB08F99020FE
:102C3000CDE906900591CDF820A00120CDE909A0AD
:102C400005A9306804F056FBB8F1010F24D84FE015
:102C5000406B400420D5A9EB0500202811D2810744
:102C60004FEA900000D0401C8246002706E0214633
:102C7000306804F08AFB241D2D1D7F1C57450BD2A4
:102C8000F5E7002704EB8701306804F07EFB7F1C2A
:102C9000082FF7D3203420353068416B40F21A32C8
:102CA0001142D5D02AE0406B400421D5A9EB0500A4
:102CB000202812D281074FEA900000D0401C8246A3
:102CC000002706E02146306804F05FFB241D2D1D1F
:102CD0007F1C57450CD2F5E726E0002704EB87015F
:102CE000306804F052FB7F1C082FF7D320342035C6
:102CF0003068416B40F21A621142D4D0406BC0057B
:102D00000BD5B8F1010F08D9306A18B1012801D0EC
:102D1000022802D13046FFF701FF3168486B0007F7
:102D200005D50820886304200DB0BDE8F08F486BFE
:102D3000800702D502208863F6E7486BC00603D5FA
:102D4000102088630520EFE7486B800503D5C1F8A4
:102D500038B00720E8E740F2FF5088630BA93046FF
:102D600004F086FD0028DFD19DF82C100729F5D04E
:102D70000629F3D0D8E770B5040004D094F85100C8
:102D8000002510B106E0012070BD84F850502046A7
:102D900000F034F8022084F851002068016821F026
:102DA00040010160D4E901010843D4E90312114351
:102DB000084361690843218B01F400710843E1690C
:102DC0000843216A0843A16A084321680860A06992
:102DD000042101EA1040616A0843216848602168C3
:102DE000E06A08612068C16921F40061C16165651C
:102DF000012084F85100002070BD0000124800B589
:102E0000016887B041F020010160006800F02000F7
:102E100005900D481430016841F48011016000688C
:102E2000012100F4801005904FF4607000900220A2
:102E3000CDE9010103900520049069460348FEF79F
:102E4000EDFA07B000BD0000303802400014024027
:102E50002DE9F843044690F85100DDF82080012860
:102E600001D022287ED169B162B15BB194F85000E3
:102E7000012877D0012784F8507094F85100012878
:102E800003D005E00120BDE8F883322084F851002A
:102E900000266665A263A387E3872163A386E38692
:102EA000A664E664A06A4FF40055A84209D12068E0
:102EB000016821F4005101602068016841F400516B
:102EC000016020680168490603D4016841F04001AF
:102ED0000160E0684FF48271B0F5006F606807D060
:102EE000002867D088426ED1E08E012862D06AE067
:102EF00020B188420CD1E08E012809D1206B2168D5
:102F00000088C860206B801C2063E08E401EE08635
:102F1000E08E80B9A06AA84244D12068016841F4DB
:102F2000805101603EE02068C068A16B0880A06B02
:102F3000801CA0639EE0434600220221204604F04C
:102F40003BFF002874D1206B21680088C860206B8B
:102F5000801C2063E08E401E0004000CE08609D136
:102F6000A06A00E0C7E0A84204D12068016841F4EB
:102F700080510160434600220121204604F01CFFDD
:102F800000286FD12068C068A16B0880A06B801CEE
:102F9000A063E08F401EE087E08E0028CBD1606800
:102FA00000286AD1434600220121204604F004FF94
:102FB000F0BBB8E7206B411C216321680078C86032
:102FC000E08E401EE086E08E98B9A06AA84204D147
:102FD0002068016841F480510160434600220121CC
:102FE000204604F0E9FE18BB2068C068A16B087099
:102FF00040E0434600220221204604F0DDFEB8B93D
:10300000206B411C216321680078C860E08E401E5F
:103010000004000CE08607D1A06AA84204D1206811
:10302000016841F48051016000224346012100E023
:1030300018E0204604F0C0FEA0B92068C168A06B6B
:10304000421CA2630170E08F401EE087E08E0028E2
:10305000CFD1606888B9434600220121204604F0A0
:10306000ABFE08B103200EE72068C168A06B421CCC
:10307000A2630170E08F401EE087A06AA84210D1D1
:10308000434600220121204604F096FE18B1606DEF
:1030900040F002000FE02068C068ADF80000BDF805
:1030A0000000434601228021204604F085FE20B125
:1030B000606D40F020006065D4E784F851702068AE
:1030C0008168A26AC1F30011AA4210D179B1616D81
:1030D00041F002016165016821F40051016020683E
:1030E000016841F40051016084F85060CAE684F838
:1030F00050600020C7E60220C5E670B515460E46B2
:10310000040003D094F8490010B107E0012070BD1D
:10311000002084F84800204600F01AF804F1080165
:103120002068FDF773FC3146A2682068FDF7AAFC11
:10313000D4E901022946236BFDF748FCA168206809
:1031400050F8212042F0010240F82120002070BDFB
:103150001A4800B5016887B041F0010101600068BC
:1031600000F00100059015480838016841F0080199
:103170000160016801F008010591016841F010014A
:1031800001600068694600F0100005904EF2B370CF
:1031900000900220019001200290032003900C2057
:1031A00004900748FEF73AF94FF6807000906946A0
:1031B0000448FEF733F907B000BD0000383802407C
:1031C000000C0240001002404FF0E0210428086982
:1031D00003D020F004000861704740F00400FAE7D3
:1031E00010B5401EB0F1807F01D3012010BD4FF01B
:1031F000E02460610F21601704F06BF80020A061EB
:1032000007202061002010BD704738B501680446D2
:103210000868CA68C0F3000002F4807238B132B1A5
:10322000086848680090E06B40F00100E0630868BF
:103230004A69C0F3400002F0010238B132B10868B7
:1032400048680090E06B40F00400E06308684A6959
:10325000C0F3800002F0010238B132B1086848685A
:103260000090E06B40F00200E06308684A69C0F338
:10327000C00002F0010238B132B10868486800901D
:10328000E06B40F00800E0630868C968C0F34010D4
:1032900001F0200118B111B1204604F0F7FE2068BA
:1032A0000168C068C1F3C01100F0800019B110B10D
:1032B000204604F0F9FF21680868CA68C0F380104E
:1032C00002F04002012568B162B1CA68204622F0CE
:1032D0004002CA6094F8391032290CD080F8395075
:1032E00000F0ECF8E06B002804D084F83950204658
:1032F000FFF78AFF38BD222180F83910F0E770B55A
:10330000040004D094F83900002510B106E0012033
:1033100070BD84F83850204600F020F8022084F870
:1033200039002068C16821F40051C160204604F0D2
:1033300001FF2068016921F4904101612068416921
:1033400021F02A0141612068C16841F40051C16047
:10335000E563012084F83900002070BD30B50446D3
:103360000068204987B0884239D11F48016841F080
:1033700001010160006800F0010005901A48143056
:10338000016841F0100101600068012100F01000A7
:1033900005904FF4007000900220CDE901010390E8
:1033A0000720124D049069462846FEF737F8281585
:1033B000009069462846FEF731F82068C16821F080
:1033C0004001C1602068C16841F02001C160252032
:1033D000FEF758FB032211462520FEF75FFB07B0DE
:1033E00030BD0000001001403038024000000240B3
:1033F0002DE9F047044690F8390099460D4601281A
:1034000001D0122857D125B31AB394F838000128F7
:1034100051D0012684F838600027E76394F839001A
:10342000122819D0222084F83900A285E2854FF4B1
:103430008058E08D4B46401EE085A0684FF00002AA
:1034400040454FF02001204616D104F060FFB0B98E
:1034500004E00120BDE8F0873220E4E7206900287D
:103460002068406803D0C1B225F8011B12E0C0F308
:10347000080125F8021B0DE004F049FF08B1032004
:10348000E8E7206900282068406801D000F07F004C
:1034900005F8010BE08D0028CBD194F839003228D3
:1034A00005D084F8396084F838700020D2E7122003
:1034B00084F83900F7E70220CCE770477047FEE751
:1034C00070B51B4886B00025016841F0010101601C
:1034D000016801F001010591016841F004010160FA
:1034E000016801F004010591016841F0800101606B
:1034F0000068032400F08000059002200126CDE939
:103500000204CDE9006569460A48FDF787FF7003AC
:1035100003948DE8610069460748FDF77FFF0C20A2
:10352000009069460548FDF779FF06B070BD0000C0
:10353000303802400000024000080240001C0240F7
:103540002DE9F0470126304C7703DFF8C080DFF823
:10355000C090304D01281DD02078A0B10821284608
:10356000FEF74AF8C0B104212846FEF745F898B1A5
:1035700039464046FEF740F870B101214846FEF753
:103580003BF8012808D008212846FEF735F8012825
:1035900026D037E02670E1E70A2005F0D7FD0020AD
:1035A000207008212846FEF727F880B1042128461C
:1035B000FEF722F870B139464046FEF71DF858B1C3
:1035C00001214846FEF718F8012807D01AE001202B
:1035D000BDE8F0870220FBE70320F9E70420F7E7C6
:1035E00004212846FEF708F801280BD13946404649
:1035F000FEF702F8012805D101214846FDF7FCFF3E
:1036000000B926700020E3E72400002000080240F3
:1036100000000240001C024070B50E490E4A0646EA
:1036200008881268002422B13046BDE8704002F0DC
:1036300001BE4D8800214543084602F091FC02F08E
:10364000C1FDB1B2054801E00180641CAC42FBD36E
:1036500070BD0000DC010020C802002000000860EE
:103660002DE9F84F814617480A9F0E46006828B199
:103670004846009702F0FEFDBDE8F88FA2EB090076
:10368000401C85B2981B401C1FFA80F80024DFF80C
:1036900038A014E0301981B2484602F061FC02F013
:1036A00091FD0020514606E004FB050237F8122088
:1036B0000A80401C80B2A842F6D3641CA4B24445E0
:1036C000E8D3D9E7C8020020000008602DE9F05FC8
:1036D000394C3A4DA071296839B102F02BFEE88AC5
:1036E0002080288B6080BDE8F09F33492C232A2559
:1036F00089884FF0F00949F2413A2B2645F2105BD8
:103700004FF4305E4FF448774FF4A07845F2103C08
:103710004FF4F07258B1A4F80080A4F8029051451B
:1037200001D0614529D123816581A68139E0A4F8C2
:103730000090A4F80280514501D0614508D1238151
:103740006581A681614531D1A4F8008062802DE0B9
:10375000594508D1A4F808E04FF4285060814FF48F
:103760002C50A08106E0A1F5C85063381ED12381FA
:103770006681A5812280678018E0594508D1A4F8A8
:1037800008E04FF4285060814FF42C50A08106E0EF
:10379000A1F5C850633804D123816581A6812780B3
:1037A0006280614502D12280A4F80280BDE8F05F0A
:1037B000002002F0F9BA0000DC010020C80200205D
:1037C0002DE9F04104463A480D46006820B12046F4
:1037D000BDE8F04102F0C2BD364E270A3146B0883E
:1037E0004989A0F513434FEA1528413B0CD0A0F5B9
:1037F000A643103B08D0A0F5AA43103B11D0A0F57A
:10380000C853633B27D04BE0084602F0CFFC384654
:1038100002F0C0FCE0B202F0BDFCB08902F0C6FCD0
:1038200038E0084602F0C2FC384602F0B3FC70896A
:10383000401C80B202F0BAFCE0B202F0ABFCB089EE
:1038400002F0B4FC404602F0A5FCB089401C80B2F6
:1038500002F0ACFC21E0B07918B93088001B401EA2
:1038600084B2084602F0A2FC270A384602F092FC15
:10387000E0B202F08FFC384602F08CFCE0B202F0BD
:1038800089FCB08902F092FC404602F083FCE8B269
:1038900002F080FC404602F07DFCE8B202F07AFCC7
:1038A000054930890880881C0280BDE8F08100004D
:1038B000C8020020DC010020FEFF07602DE9F8436C
:1038C0001F46144B804608981B6833B100903B4656
:1038D000404602F061FDBDE8F883A2EB0802521CED
:1038E00096B20C4685B2DFF830900FE02146404694
:1038F00002F036FB02F066FC0020494602E00D8033
:10390000401C80B2B042FAD3641CA4B2BC42EDD9D0
:10391000E1E70000C8020020000008602DE9F04F38
:1039200095B002F0C9FEFE4D4FF0010AA5F1500915
:10393000A88049F2413B45F2103645F2105441F659
:10394000631818B102F082FD02F08BB9F548002728
:10395000016841F002010160006810A900F0020056
:1039600000902020CDE9100A0320CDE912A0EE48F6
:10397000FDF754FD4FF020414846C9F80010EB49CF
:10398000C0E901171021C9F80C70C0E90471C9F829
:1039900018700902C9F81C70C0E909718900C0E9F2
:1039A0000B71C9F834708901C9E90E7146210B9178
:1039B0000F20CDE90907CDE902070490D8480F97F9
:1039C00002AA09A908975038FFF797FB322005F0A3
:1039D000BDFBD32002F0EAFB02F066F9A88002F0FA
:1039E00063F9A88002F060F94FF6FF7202EA002046
:1039F000A88002F059F9A9885F460843A880B84218
:103A000048D0D42002F0D2FB02F04EF9A88002F098
:103A10004BF9A88002F048F902EA0020A88002F0E1
:103A200043F9A9880843A880B04233D04FF45A40E4
:103A300002F0BCFB02F038F9A8804FF45B4002F0C2
:103A4000B5FB02F031F902EA0020A8804FF45C4097
:103A500002F0ACFB02F028F9A9880843A880B0F571
:103A6000004F7DD0A04215D0A12002F09FFB02F0B4
:103A70001BF9A88002F018F902EA0020A88002F0E1
:103A800013F9A9880843A0F5AE41A880613901D196
:103A9000A5F80480A988A6A0FCF780FCA888B842F5
:103AA0007ED1CF2002F082FB002002F073FBC12008
:103AB00002F070FB302002F06DFBED2002F076FB8F
:103AC000642002F067FB032002F064FB122002F086
:103AD00061FB812002F05EFBE82002F067FB85209D
:103AE00002F058FB102002F055FB7A2002F052FB46
:103AF000CB2002F05BFB392002F04CFB2C2002F0C3
:103B000049FB002002F046FB342002F043FB022078
:103B100002F040FBF72002F049FB202002F03AFBC4
:103B2000EA2002F043FB002002F034FB002002F008
:103B300031FBC02002F03AFB1B2002F02BFBC1201E
:103B400002F034FB012002F025FBC52002F02EFB21
:103B5000302002F01FFB302002F01CFBC72000E0E9
:103B6000B7E002F023FBB72002F014FB362002F08E
:103B70001DFB482002F00EFB3A2002F017FB5520F7
:103B800002F008FBB12002F011FB002002F002FB62
:103B90001A2002F0FFFAB62002F008FB0A2000E02B
:103BA00099E002F0F7FAA22002F0F4FAF22002F013
:103BB000FDFA002002F0EEFA262002F0F7FA0120CA
:103BC00002F0E8FAE02002F0F1FA0F2002F0E2FA47
:103BD0002A2002F0DFFA282002F0DCFA082002F0A6
:103BE000D9FA0E2002F0D6FA082002F0D3FA5420B7
:103BF00002F0D0FAA92002F0CDFA432002F0CAFA6E
:103C00000A2002F0C7FA0F2002F0C4FA002002F0E6
:103C1000C1FA002002F0BEFA002002F0BBFA002038
:103C200002F0B8FAE12002F0C1FA002002F0B2FA84
:103C3000152002F0AFFA172002F0ACFA072002F0CC
:103C4000A9FA112002F0A6FA062002F0A3FA2B200E
:103C500002F0A0FA562002F09DFA3C2002F09AFAF7
:103C6000052002F097FA102002F094FA0F2002F0DB
:103C700091FA3F2002F08EFA3F2002F08BFA0F20DB
:103C800002F088FA2B2002F091FA002002F082FA6A
:103C9000002002F07FFA012002F07CFA3F2002F0BF
:103CA00079FA2A2002F082FA002002F073FA00204A
:103CB00002F070FA002002F06DFAEF2002F06AFACA
:103CC000112002F073FA782005F040FA292001F063
:103CD0000BBFAC80DEE6B0427ED1ED2002F066FA8A
:103CE000012002F057FAFE2002F054FAEE2002F012
:103CF0005DFADE2002F04EFA212002F04BFAF120AC
:103D000002F054FA012002F045FADF2002F04EFAE8
:103D1000102002F03FFAC42002F048FA8F200FE092
:103D2000DC0100203038024000040240040100A001
:103D3000204C43442049443A25780D0A00000000F5
:103D400002F028FAC62002F031FA002002F022FA2E
:103D5000E22002F01FFAE22002F01CFAE22002F058
:103D600019FABF2002F022FAAA2002F013FAB020BA
:103D700002F01CFA0D2002F00DFA002002F00AFAFF
:103D80000D2002F007FA002002F004FA112002F0E0
:103D900001FA002002F0FEF9192002F0FBF90020E0
:103DA00002F0F8F9212002F0F5F9002002F0F2F912
:103DB0002D2002F0EFF9002002F0ECF93D2002F096
:103DC000E9F9002002F0E6F95D2002F0E3F90020B5
:103DD00002F0E0F95D2000E0FEE302F0DBF90020F4
:103DE00002F0D8F9B12002F0E1F9802002F0D2F916
:103DF000002002F0CFF98B2002F0CCF9002002F075
:103E0000C9F9962002F0C6F9002002F0C3F9B220E9
:103E100002F0CCF9002002F0BDF9002002F0BAF95E
:103E2000022002F0B7F9002002F0B4F9032002F0FA
:103E3000B1F9002002F0AEF9B32002F0B7F900208A
:103E400002F0A8F9002002F0A5F9002002F0A2F982
:103E5000002002F09FF9002002F09CF9002002F0FF
:103E600099F9002002F096F9002002F093F9002061
:103E700002F090F9002002F08DF9002002F08AF99A
:103E8000002002F087F9002002F084F9002002F0FF
:103E900081F9002002F07EF9002002F07BF9002079
:103EA00002F078F9002002F075F9002002F072F9B2
:103EB000002002F06FF9002002F06CF9002002F0FF
:103EC00069F9002002F066F9002002F063F9B420DD
:103ED00002F06CF98B2002F05DF9002002F05AF933
:103EE000962002F057F9002002F054F9A12002F0C8
:103EF00051F9002002F04EF9B52002F057F90220E6
:103F000002F048F9002002F045F9032002F042F9DE
:103F1000002002F03FF9042002F03CF9002002F0FA
:103F200039F9B62002F042F9002002F033F90020FE
:103F300002F030F9B72002F039F9002002F02AF936
:103F4000002002F027F93F2002F024F9002002F0BF
:103F500021F95E2002F01EF9002002F01BF9642016
:103F600002F018F9002002F015F98C2002F012F985
:103F7000002002F00FF9AC2002F00CF9002002F052
:103F800009F9DC2002F006F9002002F003F97020A4
:103F900002F000F9002002F0FDF8902002F0FAF89B
:103FA000002002F0F7F8EB2002F0F4F8002002F015
:103FB000F1F8DC2002F0EEF8002002F0EBF8B82077
:103FC00002F0F4F8002002F0E5F8002002F0E2F838
:103FD000002002F0DFF8002002F0DCF8002002F000
:103FE000D9F8002002F0D6F8002002F0D3F8002023
:103FF00002F0D0F8BA2002F0D9F8242002F0CAF872
:10400000002002F0C7F8002002F0C4F8002002F0FF
:10401000C1F8C12002F0CAF8202002F0BBF800204D
:1040200002F0B8F8542002F0B5F8002002F0B2F81F
:10403000FF2002F0AFF8002002F0ACF8C22002F03E
:10404000B5F80A2002F0A6F8002002F0A3F8042038
:1040500002F0A0F8002002F09DF8C32002F0A6F8BC
:104060003C2002F097F8002002F094F83A2002F089
:1040700091F8002002F08EF8392002F08BF8002031
:1040800002F088F8372002F085F8002002F082F86C
:104090003C2002F07FF8002002F07CF8362002F08D
:1040A00079F8002002F076F8322002F073F8002050
:1040B00002F070F82F2002F06DF8002002F06AF88C
:1040C0002C2002F067F8002002F064F8292002F0AA
:1040D00061F8002002F05EF8262002F05BF8002074
:1040E00002F058F8242002F055F8002002F052F8AF
:1040F000242002F04FF8002002F04CF8232002F0B8
:1041000049F8002002F046F83C2002F043F8002075
:1041100002F040F8362002F03DF8002002F03AF8B4
:10412000322002F037F8002002F034F82F2002F09D
:1041300031F8002002F02EF82C2002F02BF800209D
:1041400002F028F8292002F025F8002002F022F8D9
:10415000262002F01FF8002002F01CF8242002F0B4
:1041600019F8002002F016F8242002F013F80020BD
:1041700002F010F8232002F00DF8002002F00AF8F7
:10418000C42002F013F8622002F004F8002002F0CC
:1041900001F8052001F0FEFF002001F0FBFF842064
:1041A00001F0F8FF002001F0F5FFF02001F0F2FF30
:1041B000002001F0EFFF182001F0ECFF002001F0DB
:1041C000E9FFA42001F0E6FF002001F0E3FF182042
:1041D00001F0E0FF002001F0DDFF502001F0DAFFE8
:1041E000002001F0D7FF0C2001F0D4FF002001F0E7
:1041F000D1FF172001F0CEFF002001F0CBFF95206A
:1042000001F0C8FF002001F0C5FFF32001F0C2FF5C
:10421000002001F0BFFFE62001F0BCFF002001F00C
:10422000B9FFC52001F0C2FF322001F0B3FF00202A
:1042300001F0B0FF442001F0ADFF002001F0AAFF23
:10424000652001F0A7FF002001F0A4FF762001F017
:10425000A1FF002001F09EFF882001F09BFF0020BD
:1042600001F098FFC62001F0A1FF202001F092FF8D
:10427000002001F08FFF172001F08CFF002001F0DB
:1042800089FF012001F086FF002001F083FFC72095
:1042900001F08CFF002001F07DFF002001F07AFF8B
:1042A000002001F077FF002001F074FFC82001F02A
:1042B0007DFF002001F06EFF002001F06BFF002069
:1042C00001F068FF002001F065FFC92001F06EFFDA
:1042D000002001F05FFF002001F05CFF002001F0F2
:1042E00059FF002001F056FF002001F053FF00208D
:1042F00001F050FF002001F04DFF002001F04AFFC7
:10430000002001F047FF002001F044FF002001F0F1
:1043100041FF002001F03EFF002001F03BFF0020A4
:1043200001F038FF002001F035FF002001F032FFDE
:10433000E02001F03BFF162001F02CFF002001F0EF
:1043400029FF1C2001F026FF002001F023FF21207F
:1043500001F020FF002001F01DFF362001F01AFFC0
:10436000002001F017FF462001F014FF002001F0AB
:1043700011FF522001F00EFF002001F00BFF64201E
:1043800001F008FF002001F005FF7A2001F002FF94
:10439000002001F0FFFE8B2001F0FCFE002001F068
:1043A000F9FE992001F0F6FE002001F0F3FEA820AE
:1043B00001F0F0FE002001F0EDFEB92001F0EAFE70
:1043C000002001F0E7FEC42001F0E4FE002001F02F
:1043D000E1FECA2001F0DEFE002001F0DBFED2206B
:1043E00001F0D8FE002001F0D5FED92001F0D2FE68
:1043F000002001F0CFFEE02001F0CCFE002001F013
:10440000C9FEF32001F0C6FE002001F0C3FEE1204A
:1044100001F0CCFE162001F0BDFE002001F0BAFE36
:104420001C2001F0B7FE002001F0B4FE222001F0B4
:10443000B1FE002001F0AEFE362001F0ABFE002000
:1044400001F0A8FE452001F0A5FE002001F0A2FE2B
:10445000522001F09FFE002001F09CFE642001F03C
:1044600099FE002001F096FE7A2001F093FE0020D4
:1044700001F090FE8B2001F08DFE002001F08AFEFD
:10448000992001F087FE002001F084FEA82001F0B1
:1044900081FE002001F07EFEB92001F07BFE0020AD
:1044A00001F078FEC42001F075FE002001F072FEDC
:1044B000CA2001F06FFE002001F06CFED22001F056
:1044C00069FE002001F066FED82001F063FE0020A6
:1044D00001F060FEE02001F05DFE002001F05AFED8
:1044E000F32001F057FE002001F054FEE22001F01D
:1044F0005DFE052001F04EFE002001F04BFE0B207A
:1045000001F048FE002001F045FE1B2001F042FEB4
:10451000002001F03FFE342001F03CFE002001F0BD
:1045200039FE442001F036FE002001F033FE4F201A
:1045300001F030FE002001F02DFE612001F02AFE86
:10454000002001F027FE792001F024FE002001F078
:1045500021FE882001F01EFE002001F01BFE9720A6
:1045600001F018FE002001F015FEA62001F012FE59
:10457000002001F00FFEB72001F00CFE002001F03A
:1045800009FEC22001F006FE002001F003FEC72054
:1045900001F000FE002001F0FDFDD12001F0FAFD48
:1045A000002001F0F7FDD62001F0F4FD002001F01D
:1045B000F1FDDD2001F0EEFD002001F0EBFDF32028
:1045C00001F0E8FD002001F0E5FDE32001F0EEFD43
:1045D000052001F0DFFD00E00AE3002001F0DAFD34
:1045E0000A2001F0D7FD002001F0D4FD1C2001F0CD
:1045F000D1FD002001F0CEFD332001F0CBFD0020E5
:1046000001F0C8FD442001F0C5FD002001F0C2FD0D
:10461000502001F0BFFD002001F0BCFD622001F040
:10462000B9FD002001F0B6FD782001F0B3FD0020B7
:1046300001F0B0FD882001F0ADFD002001F0AAFDE1
:10464000972001F0A7FD002001F0A4FDA62001F0B5
:10465000A1FD002001F09EFDB72001F09BFD002090
:1046600001F098FDC22001F095FD002001F092FDBF
:10467000C72001F08FFD002001F08CFDD12001F05A
:1046800089FD002001F086FDD52001F083FD00208A
:1046900001F080FDDD2001F07DFD002001F07AFDBC
:1046A000F32001F077FD002001F074FDE42001F01B
:1046B0007DFD012001F06EFD002001F06BFD012069
:1046C00001F068FD002001F065FD022001F062FDAF
:1046D000002001F05FFD2A2001F05CFD002001F0C8
:1046E00059FD3C2001F056FD002001F053FD4B2008
:1046F00001F050FD002001F04DFD5D2001F04AFD6C
:10470000002001F047FD742001F044FD002001F07D
:1047100041FD842001F03EFD002001F03BFD93208F
:1047200001F038FD002001F035FDA22001F032FD3E
:10473000002001F02FFDB32001F02CFD002001F03E
:1047400029FDBE2001F026FD002001F023FDC4203C
:1047500001F020FD002001F01DFDCD2001F01AFD2B
:10476000002001F017FDD32001F014FD002001F01E
:1047700011FDDD2001F00EFD002001F00BFDF32006
:1047800001F008FD002001F005FDE52001F00EFD1F
:10479000002001F0FFFC002001F0FCFC002001F0F3
:1047A000F9FC002001F0F6FC022001F0F3FC0020EF
:1047B00001F0F0FC292001F0EDFC002001F0EAFC02
:1047C0003C2001F0E7FC002001F0E4FC4B2001F06C
:1047D000E1FC002001F0DEFC5D2001F0DBFC0020AC
:1047E00001F0D8FC742001F0D5FC002001F0D2FCCF
:1047F000842001F0CFFC002001F0CCFC932001F0DC
:10480000C9FC002001F0C6FCA22001F0C3FC00207E
:1048100001F0C0FCB32001F0BDFC002001F0BAFCA7
:10482000BE2001F0B7FC002001F0B4FCC42001F070
:10483000B1FC002001F0AEFCCD2001F0ABFC00206B
:1048400001F0A8FCD32001F0A5FC002001F0A2FC9F
:10485000DC2001F09FFC002001F09CFCF32001F023
:1048600099FC002001F096FCE62001F09FFC11204D
:1048700001F090FC002001F08DFC342001F08AFC56
:10488000002001F087FC562001F084FC002001F09C
:1048900081FC762001F07EFC002001F07BFC77207B
:1048A00001F078FC002001F075FC662001F072FC3C
:1048B000002001F06FFC882001F06CFC002001F06A
:1048C00069FC992001F066FC002001F063FCBB202C
:1048D00001F060FC002001F05DFC992001F05AFC21
:1048E000002001F057FC662001F054FC002001F08C
:1048F00051FC552001F04EFC002001F04BFC5520EE
:1049000001F048FC002001F045FC452001F042FC8C
:10491000002001F03FFC432001F03CFC002001F0AE
:1049200039FC442001F036FC002001F033FCE72084
:1049300001F03CFC322001F02DFC002001F02AFCAB
:10494000552001F027FC002001F024FC762001F026
:1049500021FC002001F01EFC662001F01BFC002061
:1049600001F018FC672001F015FC002001F012FC9A
:10497000672001F00FFC002001F00CFC872001F003
:1049800009FC002001F006FC992001F003FC002046
:1049900001F000FCBB2001F0FDFB002001F0FAFB60
:1049A000992001F0F7FB002001F0F4FB772001F0E3
:1049B000F1FB002001F0EEFB442001F0EBFB0020B6
:1049C00001F0E8FB562001F0E5FB002001F0E2FBDE
:1049D000232001F0DFFB002001F0DCFB332001F09D
:1049E000D9FB002001F0D6FB452001F0D3FB0020CD
:1049F00001F0D0FBE82001F0D9FB002001F0CAFB58
:104A0000002001F0C7FB992001F0C4FB002001F059
:104A1000C1FB872001F0BEFB002001F0BBFB88201A
:104A200001F0B8FB002001F0B5FB772001F0B2FBEC
:104A3000002001F0AFFB662001F0ACFB002001F08C
:104A4000A9FB882001F0A6FB002001F0A3FBAA200F
:104A500001F0A0FB002001F09DFBBB2001F09AFBC0
:104A6000002001F097FB992001F094FB002001F059
:104A700091FB662001F08EFB002001F08BFB55209E
:104A800001F088FB002001F085FB552001F082FB3E
:104A9000002001F07FFB442001F07CFB002001F0AE
:104AA00079FB442001F076FB002001F073FB5520D8
:104AB00001F070FB002001F06DFBE92001F076FBB6
:104AC000AA2001F067FB002001F064FB002001F048
:104AD00061FB002001F05EFB002001F067FBAA20D3
:104AE00001F058FBCF2001F061FB002001F052FBE8
:104AF000002001F04FFB002001F04CFB002001F0F2
:104B000049FB002001F046FB002001F043FB0020A0
:104B100001F040FB002001F03DFB002001F03AFBDA
:104B2000002001F037FB002001F034FB002001F0F1
:104B300031FB002001F02EFB002001F02BFB0020B8
:104B400001F028FB002001F025FB002001F022FBF2
:104B5000F02001F02BFB002001F01CFB502001F0A5
:104B600019FB002001F016FB002001F013FB0020D0
:104B700001F010FBF32001F019FB002001F00AFB0B
:104B8000F92001F013FB062001F004FB102001F0D6
:104B900001FB292001F0FEFA002001F0FBFA3A2087
:104BA00001F004FB552001F0F5FA112001F0FEFAA6
:104BB000642004F0CBFA292001F0F8FA352001F046
:104BC000F5FA002001F0E6FA512001F0EFFAFF209B
:104BD00001F0E0FA532001F0E9FA2C2001F0DAFAB2
:104BE000552001F0E3FA822001F0D4FA2C20FDE3F5
:104BF000A0427DD14FF470435521184601F0ECFAE4
:104C00004FF20107AA21384601F0E6FA5221781C3A
:104C100001F0E2FA0821B81C01F0DEFA0121F81CCB
:104C200001F0DAFA0D214FF4304001F0D5FA0D21F0
:104C30004BF2010001F0D0FA0D214BF2020001F01D
:104C4000CBFA34214FF4364001F0C6FA34214BF24E
:104C5000016001F0C1FA34214BF2026001F0BCFAAC
:104C60000D214FF4314001F0B7FA0D214BF2011044
:104C700001F0B2FA0D214BF2021001F0ADFA34212D
:104C80004FF4374001F0A8FA34214BF2017001F0E3
:104C9000A3FA34214BF2027001F09EFA00214FF486
:104CA000324001F099FA00214BF2012001F094FA10
:104CB00000214BF2022001F08FFA24214FF43840FA
:104CC00001F08AFA24214BF6010001F085FA242133
:104CD0004BF6020001F080FA01214FF43F4001F051
:104CE0007BFA0F214FF4334001F076FA0F2100E0F8
:104CF000FEE34BF2013001F06FFA0F214BF202306C
:104D000001F06AFA34214FF4394001F065FA342198
:104D10004BF6011001F060FA34214BF6021001F05D
:104D20005BFA08214FF4354001F056FA08214BF2A6
:104D3000015001F051FA08214BF2025001F04CFAF7
:104D400003214FF4424001F047FA24214FF43A4046
:104D500001F042FA24214BF6012001F03DFA242112
:104D60004BF6022001F038FA00214FF43C4001F0EC
:104D700033FA78214BF6014001F02EFA00214BF670
:104D8000024001F029FA00214FF43D4001F024FADD
:104D900078214BF6015001F01FFA00214BF602502A
:104DA00001F01AFA00214FF43E4001F015FA642197
:104DB0004BF6016001F010FA00214FF4514001F070
:104DC0000BFA33214DF2011001F006FA00214DF2E9
:104DD000021001F001FA34214DF2031001F0FCF948
:104DE00000214DF2041001F0F7F93A214DF20510BF
:104DF00001F0F2F900214DF2061001F0EDF94A211F
:104E00004DF2071001F0E8F900214DF2081001F011
:104E1000E3F95C214DF2091001F0DEF900214DF2B9
:104E20000A1001F0D9F981214DF20B1001F0D4F9EB
:104E300000214DF20C1001F0CFF9A6214DF20D101A
:104E400001F0CAF900214DF20E1001F0C5F9E5217B
:104E50004DF20F1001F0C0F901214DF2101001F0D8
:104E6000BBF913214DF2111001F0B6F901214DF2F9
:104E7000121001F0B1F954214DF2131001F0ACF908
:104E800001214DF2141001F0A7F982214DF2151005
:104E900001F0A2F901214DF2161001F09DF9CA218D
:104EA0004DF2171001F098F902214DF2181001F09F
:104EB00093F900214DF2191001F08EF902214DF203
:104EC0001A1001F089F901214DF21B1001F084F94B
:104ED00002214DF21C1001F07FF934214DF21D101A
:104EE00001F07AF902214DF21E1001F075F96721E7
:104EF0004DF21F1001F070F902214DF2201001F067
:104F00006BF984214DF2211001F066F902214DF276
:104F1000221001F061F9A4214DF2231001F05CF997
:104F200002214DF2241001F057F9B7214DF225105E
:104F300001F052F902214DF2261001F04DF9CF2176
:104F40004DF2271001F048F902214DF2281001F02E
:104F500043F9DE214DF2291001F03EF902214DF214
:104F60002A1001F039F9F2214DF22B1001F034F939
:104F700002214DF22C1001F02FF9FE214DF22D10DF
:104F800001F02AF903214DF22E1001F025F910212C
:104F90004DF22F1001F020F903214DF2301001F0F5
:104FA0001BF933214DF2311001F016F903214DF2B6
:104FB000321001F011F96D214DF2331001F00CF9AE
:104FC00000214FF4524001F007F933214DF2012046
:104FD00001F002F900214DF2022001F0FDF8342128
:104FE0004DF2032001F0F8F800214DF2042001F009
:104FF000F3F83A214DF2052001F0EEF800214DF2D0
:10500000062001F0E9F84A214DF2072001F0E4F80A
:1050100000214DF2082001F0DFF85C214DF209205B
:1050200001F0DAF800214DF20A2001F0D5F88121D3
:105030004DF20B2001F0D0F800214DF20C2001F0D0
:10504000CBF8A6214DF20D2001F0C6F800214DF25B
:105050000E2001F0C1F8E5214DF20F2001F0BCF85F
:1050600001214DF2102001F0B7F813214DF211206B
:1050700001F0B2F801214DF2122001F0ADF85421F7
:105080004DF2132001F0A8F801214DF2142001F097
:10509000A3F882214DF2152001F09EF801214DF276
:1050A000162001F099F8CA214DF2172001F094F86A
:1050B00002214DF2182001F08FF800214DF2192045
:1050C00001F08AF802214DF21A2001F085F8012141
:1050D0004DF21B2001F080F802214DF21C2001F05E
:1050E0007BF834214DF21D2001F076F802214DF2BB
:1050F0001E2001F071F867214DF21F2001F06CF8BD
:1051000002214DF2202001F067F884214DF2212088
:1051100001F062F802214DF2222001F05DF8A42195
:105120004DF2232001F058F802214DF2242001F025
:1051300053F8B7214DF2252001F04EF802214DF22F
:10514000262001F049F8CF214DF2272001F044F844
:1051500002214DF2282001F03FF8DE214DF22920F6
:1051600001F03AF802214DF22A2001F035F8F2213F
:105170004DF22B2001F030F802214DF22C2001F0ED
:105180002BF8FE214DF22D2001F026F803214DF2DF
:105190002E2001F021F810214DF22F2001F01CF8F3
:1051A00003214DF2302001F017F833214DF2312068
:1051B00001F012F803214DF2322001F00DF86D21BB
:1051C0004DF2332001F008F800214FF4534001F074
:1051D00003F833214DF2013000F0FEFF00214DF2C3
:1051E000023000F0F9FF34214DF2033000F0F4FFFB
:1051F00000214DF2043000F0EFFF3A214DF205306E
:1052000000F0EAFF00214DF2063000F0E5FF4A21F0
:105210004DF2073000F0E0FF00214DF2083000F0C1
:10522000DBFF5C214DF2093000F0D6FF00214DF28A
:105230000A3000F0D1FF81214DF20B3000F0CCFF9D
:1052400000214DF20C3000F0C7FFA6214DF20D30C9
:1052500000F0C2FF00214DF20E3000F0BDFFE5214D
:105260004DF20F3000F0B8FF01214DF2103000F088
:10527000B3FF13214DF2113000F0AEFF01214DF2CA
:10528000123000F0A9FF54214DF2133000F0A4FFBA
:1052900001214DF2143000F09FFF82214DF21530B4
:1052A00000F09AFF01214DF2163000F095FFCA215F
:1052B0004DF2173000F090FF02214DF2183000F04F
:1052C0008BFF00214DF2193000F086FF02214DF2D4
:1052D0001A3000F081FF01214DF21B3000F07CFFFD
:1052E00002214DF21C3000F077FF34214DF21D30C9
:1052F00000F072FF02214DF21E3000F06DFF6721B9
:105300004DF21F3000F068FF02214DF2203000F016
:1053100063FF84214DF2213000F05EFF02214DF247
:10532000223000F059FFA4214DF2233000F054FF49
:1053300002214DF2243000F04FFFB7214DF225300D
:1053400000F04AFF02214DF2263000F045FFCF2148
:105350004DF2273000F040FF02214DF2283000F0DE
:105360003BFFDE214DF2293000F036FF02214DF2E5
:105370002A3000F031FFF2214DF22B3000F02CFFEB
:1053800002214DF22C3000F027FFFE214DF22D308E
:1053900000F022FF03214DF22E3000F01DFF1021FE
:1053A0004DF22F3000F018FF03214DF2303000F0A5
:1053B00013FF33214DF2313000F00EFF03214DF287
:1053C000323000F009FF6D214DF2333000F004FF60
:1053D00000214FF4544000F0FFFE33214DF2014014
:1053E00000F0FAFE00214DF2024000E07CE300F004
:1053F000F3FE34214DF2034000F0EEFE00214DF2A9
:10540000044000F0E9FE3A214DF2054000F0E4FED0
:1054100000214DF2064000F0DFFE4A214DF2074028
:1054200000F0DAFE00214DF2084000F0D5FE5C21CC
:105430004DF2094000F0D0FE00214DF20A4000F08C
:10544000CBFE81214DF20B4000F0C6FE00214DF253
:105450000C4000F0C1FEA6214DF20D4000F0BCFE54
:1054600000214DF20E4000F0B7FEE5214DF20F4055
:1054700000F0B2FE01214DF2104000F0ADFE13210C
:105480004DF2114000F0A8FE01214DF2124000F053
:10549000A3FE54214DF2134000F09EFE01214DF277
:1054A000144000F099FE82214DF2154000F094FE68
:1054B00001214DF2164000F08FFECA214DF2174037
:1054C00000F08AFE02214DF2184000F085FE002116
:1054D0004DF2194000F080FE02214DF21A4000F01A
:1054E0007BFE01214DF21B4000F076FE022100E020
:1054F000FDE24DF21C4000F06FFE34214DF21D40E4
:1055000000F06AFE02214DF21E4000F065FE6721A8
:105510004DF21F4000F060FE02214DF2204000F0ED
:105520005BFE84214DF2214000F056FE02214DF237
:10553000224000F051FEA4214DF2234000F04CFE29
:1055400002214DF2244000F047FEB7214DF22540E4
:1055500000F042FE02214DF2264000F03DFECF2138
:105560004DF2274000F038FE02214DF2284000F0B5
:1055700033FEDE214DF2294000F02EFE02214DF2D5
:105580002A4000F029FEF2214DF22B4000F024FECB
:1055900002214DF22C4000F01FFEFE214DF22D4065
:1055A00000F01AFE03214DF22E4000F015FE1021EE
:1055B0004DF22F4000F010FE03214DF2304000F07C
:1055C0000BFE33214DF2314000F006FE03214DF277
:1055D000324000F001FE6D214DF2334000F0FCFD41
:1055E00000214FF4554000F0F7FD33214DF20150FA
:1055F00000F0F2FD00214DF2025000F0EDFD3421EB
:105600004DF2035000F0E8FD00214DF2045000F08F
:10561000E3FD3A214DF2055000F0DEFD00214DF290
:10562000065000F0D9FD4A214DF2075000F0D4FD9C
:1056300000214DF2085000F0CFFD5C214DF20950E1
:1056400000F0CAFD00214DF20A5000F0C5FD812195
:105650004DF20B5000F0C0FD00214DF20C5000F057
:10566000BBFDA6214DF20D5000F0B6FD00214DF21C
:105670000E5000F0B1FDE5214DF20F5000F0ACFDF1
:1056800001214DF2105000F0A7FD13214DF21150F1
:1056900000F0A2FD01214DF2125000F09DFD5421B9
:1056A0004DF2135000F098FD01214DF2145000F01E
:1056B00093FD82214DF2155000F08EFD01214DF237
:1056C000165000F089FDCA214DF2175000F084FDFC
:1056D00002214DF2185000F07FFD00214DF21950CB
:1056E00000F07AFD02214DF21A5000F075FD012103
:1056F0004DF21B5000F070FD02214DF21C5000F0E5
:105700006BFD34214DF21D5000F066FD02214DF27B
:105710001E5000F061FD67214DF21F5000F05CFD4E
:1057200002214DF2205000F057FD84214DF221500E
:1057300000F052FD02214DF2225000F04DFDA42157
:105740004DF2235000F048FD02214DF2245000F0AC
:1057500043FDB7214DF2255000F03EFD02214DF2F0
:10576000265000F039FDCF214DF2275000F034FDD6
:1057700002214DF2285000F02FFDDE214DF229507C
:1057800000F02AFD02214DF22A5000F025FDF22101
:105790004DF22B5000F020FD02214DF22C5000F074
:1057A0001BFDFE214DF22D5000F016FD03214DF2A0
:1057B0002E5000F011FD10214DF22F5000F00CFD85
:1057C00003214DF2305000F007FD33214DF23150EE
:1057D00000F002FD03214DF2325000F0FDFC6D217E
:1057E0004DF2335000F0F8FC00214FF4564000F029
:1057F000F3FC33214DF2016000F0EEFC00214DF28C
:10580000026000F0E9FC34214DF2036000F0E4FC9A
:1058100000214DF2046000F0DFFC3A214DF20560FA
:1058200000F0DAFC00214DF2066000F0D5FC4A21C0
:105830004DF2076000F0D0FC00214DF2086000F04E
:10584000CBFC5C214DF2096000F0C6FC00214DF25A
:105850000A6000F0C1FC81214DF20B6000F0BCFC3D
:1058600000214DF20C6000F0B7FCA6214DF20D6056
:1058700000F0B2FC00214DF20E6000F0ADFCE5211D
:105880004DF20F6000F0A8FC01214DF2106000F015
:10589000A3FC13214DF2116000F09EFC01214DF29A
:1058A000126000F099FC54214DF2136000F094FC5A
:1058B00001214DF2146000F08FFC82214DF2156041
:1058C00000F08AFC01214DF2166000F085FCCA212F
:1058D0004DF2176000F080FC02214DF2186000F0DC
:1058E0007BFC00214DF2196000F076FC02214DF2A4
:1058F0001A6000F071FC01214DF21B6000F06CFC9D
:1059000002214DF21C6000F067FC34214DF21D6055
:1059100000F062FC02214DF21E6000F05DFC672188
:105920004DF21F6000F058FC02214DF2206000F0A3
:1059300053FC84214DF2216000F04EFC02214DF217
:10594000226000F049FCA4214DF2236000F044FCE9
:1059500002214DF2246000F03FFCB7214DF225609A
:1059600000F03AFC02214DF2266000F035FCCF2118
:105970004DF2276000F030FC02214DF2286000F06B
:105980002BFCDE214DF2296000F026FC02214DF2B5
:105990002A6000F021FCF2214DF22B6000F01CFC8B
:1059A00002214DF22C6000F017FCFE214DF22D601B
:1059B00000F012FC03214DF22E6000F00DFC1021CE
:1059C0004DF22F6000F008FC03214DF2306000F032
:1059D00003FC33214DF2316000F0FEFB03214DF258
:1059E000326000F0F9FB6D214DF2336000F0F4FB02
:1059F0005521184600F0F0FBAA21384600F0ECFBD8
:105A00005221781C00F0E8FB0821B81C00F0E4FBF0
:105A10000021F81C00F0E0FBCC214FF4314000F0F5
:105A2000DBFB00214BF2011000F0D6FB05214FF407
:105A3000364000F0D1FB70214FF4374000F0CCFB32
:105A400070214BF2017000F0C7FB01214FF4384088
:105A500000F0C2FB03214BF6010000F0BDFB032167
:105A60004BF6020000F0B8FB03214BF6030000F0F8
:105A7000B3FB02214FF43C4000F0AEFB00214BF69B
:105A8000014000F0A9FB00214BF6024000F0A4FB0E
:105A9000D0214FF4494000F09FFB02214CF6011049
:105AA00000F09AFB50214CF6021000F095FB5021BB
:105AB0004CF6031000F090FB50214CF6041000F05F
:105AC0008BFB00214FF4545000F086FB55214FF41E
:105AD000685000F081FB4FF4885000F067FB78209D
