:020000040800F2
:10000000680F0220A102000895D00008C19C0008DA
:100010004DD00008011100087D4A010800000000D1
:10002000000000000000000000000000A111010815
:10003000AF1B000800000000550B00082912010842
:10004000DB020008DB020008DB020008DB0200081C
:10005000DB020008DB020008DB020008DB0200080C
:10006000DB020008DB020008DB020008DB020008FC
:10007000DB020008DB020008DB020008DB020008EC
:10008000DB020008DB020008DB020008DB020008DC
:10009000DB020008DB020008DB020008DB020008CC
:1000A000DB020008DB020008DB020008DB020008BC
:1000B000DB020008393A0108513A0108DB02000866
:1000C000DB020008DB020008DB020008DB0200089C
:1000D000DB020008094A0108DB020008DB02000815
:1000E000DB020008DB020008DB020008DB0200087C
:1000F000DB020008DB020008DB020008DB0200086C
:10010000DB020008DB020008DB020008DB0200085B
:10011000DB020008DB020008DB020008DB0200084B
:10012000DB020008DB020008DB020008DB0200083B
:10013000DB020008DB020008DB020008DB0200082B
:10014000DB020008DB020008DB020008DB0200081B
:10015000DB020008DB020008DB020008DB0200080B
:10016000DB020008DB020008DB020008DB020008FB
:10017000DB020008DB020008DB02000800000000D0
:10018000DB020008DB020008DB020008DB020008DB
:10019000DB020008DB020008DB020008DB020008CB
:1001A000A1C50008DB020008DB02000800F002F82D
:1001B00000F067F80AA090E8000C82448344AAF19A
:1001C0000107DA4501D100F05CF8AFF2090EBAE898
:1001D0000F0013F0010F18BFFB1A43F0010318477B
:1001E00060ED070080ED07000A444FF0000C10F8A6
:1001F000013B13F0070408BF10F8014B1D1108BFA5
:1002000010F8015B641E05D010F8016B641E01F844
:10021000016BF9D113F0080F1EBF10F8014BAD1C94
:100220000C1B09D16D1E58BF01F801CBFAD505E0B2
:1002300014F8016B01F8016B6D1EF9D59142D6D30C
:10024000704700000023002400250026103A28BF34
:1002500078C1FBD8520728BF30C148BF0B60704738
:10026000642900F0D780782900F01081732900F00C
:100270004B83002070471FB524F041FD1FBD10B512
:1002800010BD00F0DBFB1146FFF7F5FF23F0C6FEC3
:1002900000F0F9FB03B4FFF7F2FF03BC23F042FDCB
:1002A00011488047DFF84400016841F470010160A3
:1002B000BFF34F8FDFF83800016821F04041016043
:1002C000BFF36F8F0B480047FEE7FEE7FEE7FEE750
:1002D000FEE7FEE7FEE7FEE7FEE7FEE70648074922
:1002E000074A084B704700004D12010888ED00E0F6
:1002F00034EF00E0AD01000868030220680F02201F
:10030000680502206805022072B6704762B6704721
:10031000EFF3108072B6704780F31088704730BFDB
:10032000704720BF7047B0FA80F0704790FAA0F095
:10033000B0FA80F0704790FAA0F070477047000064
:100340000FB4044910B503AA029800F0E1FA10BCFA
:100350005DF814FB240000202DE9F0410E46044610
:10036000002020622046E168884730B3252805D068
:10037000D4E901219047206A401CF2E7E168204659
:1003800000278847050018D0A5F14100192802D898
:1003900020354FF400673246294620462760FFF794
:1003A0005FFF40B1012804D0F61D26F0070608368D
:1003B000D8E7361DD6E72846DAE7206ABDE8F0819F
:1003C00070B50C460546012A05D02878800600D570
:1003D000EA69002302E0012305E05B1C934202D29C
:1003E000E05C0028F9D1A869E618C01AA861286A5B
:1003F000184428622846AFF3008004E0D5E90121C3
:1004000014F8010B9047B442F8D32846AFF30080AC
:1004100070BD00002DE9F0410646002410687529E2
:10042000314616A510D0AFF30080002802DA404212
:1004300013A507E031688A0701D512A502E0490734
:1004400004D511A5012401E0AFF3008000210A22A8
:1004500006F1240709E0B0FBF2FCB0FBF2F302FB6B
:100460001C00303078541846491C0028F3D123462C
:100470002A463046BDE8F04100F0DBB9000000003C
:100480002D0000002B0000002000000070B5044685
:100490000D4621461068AFF300802188090502D57A
:1004A0000F4A7A4402E00E4A7A440E32002104F1E7
:1004B000240305E000F00F060009965D5E54491C18
:1004C0000028F7D120780023000704D5702D02D032
:1004D00009B1022311322046BDE8704000F0A9B9ED
:1004E00073E9070040EA010310B59B070FD1042A06
:1004F0000DD310C808C9121F9C42F8D020BA19BAEF
:10050000884201D9012010BD4FF0FF3010BD1AB153
:10051000D30703D0521C07E0002010BD10F8013BA8
:1005200011F8014B1B1B07D110F8013B11F8014BCF
:100530001B1B01D1921EF1D1184610BD40EA0103E8
:10054000024630B59B0710D14FF0013400E008C2DD
:1005500008C91D1B9D4315EAC41FF8D013F0FF0105
:1005600002F8011B0DD01B0AF8E711F8013B002B24
:1005700002F8013B05D011F8013B002B02F8013BCA
:10058000F3D130BD10B5431C02E010F8011B71B16E
:100590008107FAD14FF0013202C88C1A8C4314EA59
:1005A000C211F9D0C01A0A0603D0C01E10BDC01A6D
:1005B00010BD0A0401D0801E10BD0902FCD0401EEF
:1005C00010BD032A40F2308010F0030C00F01580BB
:1005D00011F8013BBCF1020F624498BF11F801CB46
:1005E00000F8013B38BF11F8013BA2F1040298BFAB
:1005F00000F801CB38BF00F8013B11F0030300F015
:100600006780083AC0F0088051F8043B083A51F876
:1006100004CBA0E80810F5E7121D5CBF51F8043BBD
:1006200040F8043BAFF30080D20724BF11F8013B30
:1006300011F801CB48BF11F8012B24BF00F8013B92
:1006400000F801CB48BF00F8012B7047431A28BFC0
:100650009A427FF6B6AF032A1044114440F2268036
:1006600010F0030F1EBF11F8013D521E00F8013DAE
:1006700010F0030F7FF4F6AF11F0030300F06D816B
:10068000083AC0F00B8051F8043D083A51F804CD07
:1006900040F8043D40F804CDFFF7F3BF121D5CBFE6
:1006A00051F8043D40F8043DAFF30080D20724BF69
:1006B00011F8013D11F801CD48BF11F8012C24BFFC
:1006C00000F8013D00F801CD48BF00F8012C70474B
:1006D00010B5203AC0F00B80B1E81850203AA0E8DD
:1006E0001850B1E81850A0E81850BFF4F5AF5FEA11
:1006F000027C24BFB1E81850A0E8185044BF18C9C4
:1007000018C0BDE810405FEA827C24BF51F8043B6A
:1007100040F8043B08BF7047D20728BF31F8023BBE
:1007200048BF11F8012B28BF20F8023B48BF00F852
:10073000012B704702F0FF0343EA032242EA024220
:1007400000F037B94FF0000200B5134694469646C4
:10075000203922BFA0E80C50A0E80C50B1F12001D4
:10076000BFF4F7AF090728BFA0E80C5048BF0CC082
:100770005DF804EB890028BF40F8042B08BF7047E0
:1007800048BF20F8022B11F0804F18BF00F8012B52
:10079000704700004FF0013C50F8042B51F8043B27
:1007A0009A4221D1A2EB0C03934313EACC1317D145
:1007B00050F8042B51F8043B9A4215D1A2EB0C03DC
:1007C000934313EACC130BD150F8042B51F8043B9C
:1007D0009A4209D1A2EB0C03934313EACC13DBD06A
:1007E0004FF00000704700BFD01A01BAB1FA81F192
:1007F00001F0180122FA01F0CB40C1F12001DBB277
:10080000C0B2C01A2CFA01F3D11A914311EAC311F4
:10081000E6D17047704770477047704710B500F0D9
:10082000E9F8006810BD10B5044600F0E3F8046074
:1008300010BD2DE9F0470D4699469246044600F159
:1008400024080168880604D5E06921F010012160C0
:1008500000E00120A84201DD471B00E00027A1695C
:100860007A1902EB0900081AA0612078C00602D4A8
:100870002046AFF30080002608E0D4E901211AF8F1
:1008800006009047206A401C761C20624E45F4DB2F
:100890002078C0060AD52046AFF3008006E0D4E9F0
:1008A000012130209047206A401C2062381EA7F1A9
:1008B0000107F4DC07E0D4E9012118F805009047AE
:1008C000206A401C2062281EA5F10105F3DC2046A9
:1008D000AFF300802078000602D50220BDE8F08743
:1008E0000120FBE710B5436913B1AFF3008001E0CD
:1008F000FFF766FD012010BD127800F124010A7097
:1009000000224A700122EDE711684FF0FF32E9E75B
:10091000074B70B50D467B4400F075F80446284639
:1009200000F084F810B14FF0FF3070BD204670BD6C
:10093000BB350200431A28BF9A427FF6C9AE104465
:1009400010F0030F11441EBF11F8013D521E00F8B4
:10095000013D10F0030F7FF4F6AF103AC0F00A80AB
:1009600010B531E91850103A20E91850BFF4F9AF2A
:10097000BDE81040530724BF31E9081020E90810F2
:1009800044BF51F8043D40F8043D12F0030F08BF86
:100990007047D20728BF31F8023D48BF11F8012C3B
:1009A00028BF20F8023D48BF00F8012C70474FF0E7
:1009B00000020429C0F0128010F0030C3FF4C4AE12
:1009C000CCF1040CBCF1020F18BF00F8012BA8BF3A
:1009D00020F8022BA1EB0C01FFF7B6BE5FEAC17C49
:1009E00024BF00F8012B00F8012B48BF00F8012BB1
:1009F00070470000004870470403022001694A1C48
:100A000002610878704700B58FB0CDE9013100214F
:100A1000059105497944CDE9031011466846FFF771
:100A20009BFC0FB000BD0000E5FFFFFF007B00F066
:100A30008000704700487047040302207546FFF7A6
:100A4000F9FFAE4605006946534620F0070085468B
:100A500018B020B5FFF742FCBDE820404FF000067B
:100A60004FF000074FF000084FF0000B21F0070196
:100A7000AC46ACE8C009ACE8C009ACE8C009ACE8D9
:100A8000C0098D46704710B50446AFF3008020467C
:100A9000BDE81040FFF7FEBBEFF3098141B1F1EE75
:100AA000101A40F8041D20ED200A3E490A68106023
:100AB0007047B0EC200A02C8E1EE101A3A490A6801
:100AC0001060704772B64EF62250CEF2000040F22F
:100AD000FF01C0F2000101704FF0000080F30988AF
:100AE0000DF036FC40F2A810C2F20000016881F35C
:100AF000088840F23210C2F2000040F23311C2F214
:100B000000010A78027040F2A015C2F2000540F21E
:100B1000A411C2F200010A682A60106880F30988F3
:100B2000EFF3148040F0020080F31488BFF36F8F5E
:100B3000BDE8F00F0FBCBDE8005006BC62B6084728
:100B40001A484FF080510160704718484FF08051AB
:100B50000160704772B6EFF3098020E9F00F40F2B0
:100B6000A015C2F200052E68306074460DF0F0FB4F
:100B700040F23210C2F2000040F23311C2F2000122
:100B80000A78027040F2A411C2F200010A682A60D9
:100B900044F0F40E1068B0E8F00F80F3098862B6F4
:100BA00070470000A0010020A401002004ED00E037
:100BB00009F0D2BA2DE9F0410D4601460020044665
:100BC0004E1908E00702301B401E80B200F007F803
:100BD000641C3844E4B2AC42F4D3BDE8F08110B5F3
:100BE000044609F061FB200AA02101EB4000C0B2DD
:100BF00009F02AFB09F09AFBE0B209F025FB09F0A5
:100C000095FB09F051FBA12009F01EFB09F08EFBBA
:100C1000002009F0E5FA044609F066FB204610BD05
:100C20002DE9F04116460D460746002409E0E00094
:100C300025FA00F0C1B2381980B200F006F8641C41
:100C4000E4B2B442F3D3BDE8F08170B50D4604467A
:100C500009F02AFB200AA02101EB4000C0B209F0F4
:100C6000F3FA09F063FBE0B209F0EEFA09F05EFB7B
:100C7000284609F0E9FA09F059FB09F035FBBDE80F
:100C800070400A2023F0D4B8002800DC40427047AE
:100C900038B5456804460146284613F009FF002888
:100CA0002BD02068304A11280DD006DC0B2825D027
:100CB0000E2833D00F2852D112E0282849D0B0F5A1
:100CC000107F4CD108E09268002A16D021462846B1
:100CD00001B0BDE830401047214628465268F7E78A
:100CE000284603F081FB0090406E0468684603F0DC
:100CF000E5FB002C01D02846A04738BD284603F06C
:100D000073FB0090683003F0C5FA009803216C3043
:100D100003F0CEFA684603F0D1FB20E0E1684868B2
:100D200009680D2902D0202913D105E0002810DD23
:100D300028461FF0F2F806E0002804DD2846BDE84A
:100D400038401FF0EAB82846BDE8384002211FF0BD
:100D5000FAB8E06818B90021284600F093F9204657
:100D6000BDE8384014F006B9480800202DE9FF41DD
:100D70000AAF97E87000002703958DE8D00000F0D7
:100D800003F804B0BDE8F081F0B585B00DF1280C92
:100D90009CE8F0004FF0000C8DE8F01000F002F835
:100DA00005B0F0BD2DE9F04F85B01F46DDE911B467
:100DB000DDE90E5690468946824604F0ADFC1648A1
:100DC0004C34CDE90204CDE900563B464246494643
:100DD000504614F017F8040018D003F005FB102259
:100DE0005946049013F070FF049830220B493430B8
:100DF000FFF76EFC094D04990C3D2868486604A86D
:100E000003F05CFB286841682046884706F054F9E7
:100E100005B02046BDE8F08F910C00085408002072
:100E2000F0B5044680688B4989B051F8205060685D
:100E300000287DD0052804D006287AD0122879D140
:100E4000AEE0E86900284FD095E80E008DE80F006D
:100E500004F110010FC906F099FD002655F826008F
:100E600005F0A9FBA169E8690A1A216901446069D2
:100E7000304404F065F9A169E8690A1A216901445E
:100E8000E069801B04F05CF9E169E8690A1A6169AC
:100E900001442069304404F029FAE169E8690A1A3A
:100EA00061690144A069801B04F020FA761C022EBF
:100EB000D4DBA86805F07FFBE069E9696669431A3D
:100EC000206942183144801C521E04F06BFAE1691B
:100ED000E869A2690B1A61690144101A401C921E4C
:100EE00004F060FAEE6913E05FF0000655F82600A2
:100EF00005F061FBE069831BA069821B60698119B1
:100F00002069304404F092F9761C022EEEDB0226B2
:100F1000D5E90301CDE900016169E06908444310A6
:100F2000A069891C821B2069304404F0CDF802E0DE
:100F300089E012E08AE0D5E90501CDE90001E36925
:100F400060690121184401EB6001A0699B1E821BAE
:100F50002069304404F0B8F878E0206803F044FADF
:100F60000490206815F010FC40B1A06808B1002082
:100F700008E00498006F28B1012003E00498406F56
:100F800000B10220049901EB8000C56E04A803F0B3
:100F900095FA00231A462846216803F0D5FD55E04E
:100FA000206803F021FA0490866EEEB3B0F95C700D
:100FB000A168D1B3032942D05FF0000100EB8101A9
:100FC000406D0C6C05F026FB204605F0F4FA05A8F0
:100FD00004F0AAFABDF81410A88B0144ADF814105F
:100FE000BDF81810081AADF81800BDF81600801CDE
:100FF000ADF81600BDF81A00801EADF81A0004986E
:10100000B0F96020B0F95E1005A805F0E7F804A873
:1010100003F054FA022005F061FC304603F0E4F9D5
:101020003A4605A9079001E00BE006E003F090FEC8
:101030000DF11C0003F042FA08E00121BEE7022195
:10104000BCE704A8F6E7206815F036F809B00020E0
:10105000F0BD00002CD50708044A0349116004497B
:101060004A6A486210467047200300204808002062
:101070005408002000294FF0100101D013F0ACBD3E
:1010800013F0FDBC4FF480720029114601D013F01B
:10109000A3BD13F0F4BC08B50023009300F001F8E1
:1010A00008BD70B516460C46054619463046049AEA
:1010B00003F02CFD024621462846BDE87040AFF300
:1010C0000080F8B515460C46060018D004F024FB45
:1010D000304603F089F90090032C0BD200EB84001A
:1010E0006C3003F0D7F8009800EB8400C5663046FA
:1010F00014F0BEFC684603F0E1F905F0DDFFF8BD31
:10110000FEE700002DE9FF470446006810B115F026
:101110003BFB68B10022314850F8221060680A2871
:1011200041D007DCF0B306280DD0072854D106E0E3
:101130000122F0E712280AD019284DD137E02046C5
:1011400016F06CFE48E0204619F08AFC44E0206866
:1011500003F04AF90290B0F9548090F85650476C69
:10116000466B02A803F0AAF9206800F039F881461E
:10117000684614F01FF8BDF8001009EB050008449C
:10118000ADF80000246A304605F044FA022005F06C
:10119000A5FB384605F00FFA42466946204603F0A3
:1011A000D7FD19E007E020461BF019F814E0886924
:1011B00004B0BDE8F087206814F07EFF206803F0DB
:1011C00013F90390B0F90610B0F90220891A491CEE
:1011D000C16703A803F072F90020E9E73CD50708CE
:1011E00038B5044604F098FA204603F0FDF8009064
:1011F000C46F684603F062F905F05EFF204638BD13
:10120000044A034911600449CA69C861104670471D
:10121000AC030020840800208808002000B589B0B5
:1012200024216846FFF78EFA1920019003480068D0
:10123000806841686846884709B000BD840800207E
:10124000054910B50020486000F0A6F800F006F847
:10125000BDE8104000F086B8B80000202DE9F0414C
:10126000104F002635463E807E80BE60FE607E6167
:10127000BE613E61FFF74CF8804600247E6100F0BD
:1012800049F800F057F87869641C24040544240CDC
:10129000F4D0C7E904564046BE61BDE8F041FFF70F
:1012A0003BB80000B800002003490969884201D911
:1012B000401A704700207047B800002010B5FFF7B3
:1012C00027F804494C69FFF727F82046BDE810408D
:1012D000FFF7EABFB800002010B5FFF7EFFF0446A4
:1012E000FFF716F8034A00215161FFF715F8204671
:1012F00010BD0000B800002010B5FFF709F8044940
:101300008C69FFF709F82046BDE81040FFF7CCBF15
:10131000B800002010B5064C2088401C2080608852
:1013200010B900F051F8A0606088401C608010BDCA
:10133000B800002010B50A4C6088401E0004000C64
:1013400060800CD100F040F8E060A168401A61694B
:10135000814200D26061A169814200D2A06110BDCA
:10136000B800002010B5FEF7D3FF0446FFF7D2FF08
:10137000102105480BF06BFEFFF7DCFF2046BDE8AF
:101380001040FEF7C9BF0000E0F2002001494860AC
:1013900070470000B800002010B507F007FF0849AB
:1013A0000A6842F080720A60064900224A600A68B0
:1013B00042F001020A60BDE81040FFF7E7BF0000FD
:1013C000FCED00E0001000E00148406870470000BC
:1013D000001000E070B50E4C0025C4F898520D487E
:1013E000016821F0C0010160016841F04001016025
:1013F0000948C0F88C52022004F5267422F040FD02
:1014000001202060022022F03BFD256070BD00001D
:10141000008043420020024000004442154810B5BD
:10142000016886B041F080010160016801F080012F
:101430000591016841F4807101600068012400F4A5
:10144000807005904020CDE900040320CDE90240E2
:101450006946094806F092FF08200090694607484F
:1014600006F08CFF0648C0F88C420648C0F8984247
:1014700006B010BD30380240001C0240002002407F
:10148000000044420080434270B50E4C0026C4F870
:1014900098620D48016821F0C0010160016841F0C7
:1014A0004001016009480125C0F88C52022004F572
:1014B000267422F0E5FC2560022022F0E1FC266083
:1014C00070BD000000804342002002400000444202
:1014D0002DE9F047824619480024016821F0C00137
:1014E0000160016801601E2022F0CAFC0025144E34
:1014F000DFF850902F464FF00108C6F8987202208E
:1015000022F0BEFCC6F898826006040ED9F80C02E0
:1015100008B1641CE4B2022022F0B2FC6D1CEDB2F2
:10152000082DEAD3BAF1000F04D0FFF753FF20468D
:10153000BDE8F087FFF7A8FFF9E7000000200240B0
:1015400000804342000044422DE9F047054616481A
:10155000016821F0C0010160016841F040010160B3
:10156000124E0027C6F89872022022F089FCDFF89C
:10157000408000244FF00109E909C8F88C12680680
:10158000050E022022F07CFCC6F89892022022F080
:1015900077FCC6F89872022022F072FC641CE4B258
:1015A000082CE9D3BDE8F0870020024000804342C8
:1015B0000000444270B50F48016821F0C00101608D
:1015C000016841F0400101600B4E0120C6F88C0219
:1015D0000A4DC5F898021E2005F5267506F52376F6
:1015E00022F04EFC00243460022022F049FC2C60E2
:1015F00070BD0000002002400000444200804342D1
:1016000070B50F48016821F0C0010160016841F028
:10161000400101600B4E0020C6F898020A4DC5F843
:101620008C021E2005F5237506F5267622F028FC8F
:1016300001243460022022F023FC2C6070BD0000E5
:1016400000200240008043420000444270B511482F
:101650000024016821F0C0010160016801600E4DA5
:101660000120C5F88C020D4EC6F8980207E0641CF4
:10167000E4B2FA2C03D9FFF7C3FF012070BD0220AA
:1016800022F0FEFBD5F80C020028F0D1C6F8980233
:1016900070BD000000200240000044420080434230
:1016A000FEB515460C46064606F02CFE0B4FC6EB63
:1016B000C60257F8223000FB043100FB053007EB6F
:1016C000820400232269CDE90023029302463046BA
:1016D000E36800F07FF9A560FEBD00001C1001204A
:1016E0002DE9FE4F9846DDE90C9416460F46054657
:1016F000DDF838A006F006FE02461149C5EBC5002C
:1017000051F820C001EB80004168C36802FB01C1B1
:1017100006FB03774669406807FB061102FB00C71A
:1017200009FB038000FB0672181B0026CDF800A001
:10173000CDE901062346284600F04CF9BDE8FE8FAE
:101740001C1001202DE9F0471D46DDE9086A14460A
:101750000F46804603F012FF012831D0ED1B361BE7
:1017600040466D1C761C06F0CDFD0146214BC8EBB2
:10177000C80053F8202003EB8000836801FB03229C
:10178000C168406904FB017303FB00274046A1EBDD
:101790000509D046002409F0EDFC1849164A0A60F4
:1017A000C1F83880CF63C1F84090486365F31F46A5
:1017B0004E64086840F0010008604FF4001214E025
:1017C0000022192140460AF093F833462A46214662
:1017D000384609F0A9FA4046BDE8F047084A192101
:1017E0000AF086B8641C944202D20868C007F9D196
:1017F000BDE8F0871C1001200002030000B0024089
:101800004517000838B50324009400F0AFF838BD40
:1018100038B50424009400F0A9F838BD38B5002488
:10182000009400F0A3F838BD38B50024009400F00F
:101830009DF838BD1CB513F0EBFC0346002000906A
:101840000190044A0221044803F036F80349086075
:101850001CBD00003D390208489E0708C401002055
:101860001CB513F0D5FC0346002000900190044AFB
:101870000221044803F020F8034948601CBD000021
:10188000E5390208809E0708C40100201CB513F04A
:10189000BFFC0346002000900190044A0221044846
:1018A00003F00AF8034988601CBD0000A93A020849
:1018B000B89E0708C40100201CB513F0A9FC03461C
:1018C000002000900190044A0221044802F0F4FF35
:1018D0000349C8601CBD00006D3B0208F09E07086C
:1018E000C401002070B515460E461C461A460A492A
:1018F00008F05EFD22460949304608F059FD2346AE
:10190000074A0649044800F00DF822462946BDE87A
:101910007040034808F04CBD3860012038B0012009
:101920003810012070B5104D0E4E00242E60E86076
:101930006961EA632C61AC612C64EC616C626C637C
:10194000012000EB03406864286840F00100286033
:101950004FF4001102E0641C8C4202D22868C007D8
:10196000F9D170BD0002020000B00240F8B50E4689
:1019700014460649069D08F022FD2B4600223146FA
:101980000248009400F004F8F8BD0000381001206F
:10199000F0B50F4D4FF48137059E00242F60E860AD
:1019A000E9632C612C64EA616B63012000EB064063
:1019B0006864286840F0010028604FF4001102E0DC
:1019C000641C8C4202D22868C007F9D1F0BD000027
:1019D00000B002402DE9F0470F4608A91D4691E8E6
:1019E00000071646002409F0C5FB0E494FF40072AB
:1019F0000A60CF60CE63C1F81090C1F840A0C86102
:101A0000404665F31F404864086840F001000860E4
:101A1000120302E0641C944202D20868C007F9D1A4
:101A2000BDE8F08700B0024038B514460D46049A70
:101A3000002305490094FFF7ABFF22462946BDE885
:101A40003840014808F0BBBC381001201EB5002307
:101A5000FF24B4EB116F2CD080F07F40009081F018
:101A60007F400190144813490160C0F80CD001A9CF
:101A7000416102A9C1634FF4803141EA0261C16151
:101A8000C2F1FF0109064162002141634FF00111DB
:101A90004164016841F0010101604FF4001202E06D
:101AA0005B1C934202D20168C907F9D1029880F009
:101AB0007F401EBD0002020000B00240F8B505469E
:101AC000006802F091FC0090448ED0F8886068466F
:101AD00002F0F4FC06B1012604F00104286814F0B9
:101AE00053FE0EB1002006E00CB1012003E008B166
:101AF000022000E003201B4951F82010686858B309
:101B000002280CD0052802D0122828D103E028464C
:101B100016F0B0F923E028461BF05BF91FE06A6974
:101B2000E8694FF0FF33801AA0F1080203EB62046A
:101B3000421CAB69001B4510A3EB6206C86904F0A8
:101B40003AFD06E03219311B284603F0F9FA641E0B
:101B50006D1C002CF6DA02E0286814F0ADFA0020C3
:101B6000F8BD000044D50708044A03491160044940
:101B70000A6B086310467047F8030020C408002071
:101B8000C808002038B50D46002402F02DFC009056
:101B9000C06B294602F02AFD0546684602F08EFC1D
:101BA0001DB1284602F020FC0446204638BD70478F
:101BB00070B5B3F5804F05D06FF0704140F822103A
:101BC000002070BD50F82230084C2340D1E9004578
:101BD00044EA05148D688E892D0245EA0645896917
:101BE0002C430C431C4340F82240E9E70000F0CFAF
:101BF000F0B50C6850F82450194A1540D1E901237A
:101C0000D1E903671A433E4332434E6932438E693A
:101C10003243CE6932430E6A32434E6A32438E6A91
:101C20003243CE6A3243CE6B32430E6B32434E6B3D
:101C300032432A43082B01D142F0400240F82420CD
:101C40004A6BB2F5801F08D10A6832B14FF4807236
:101C50000A6104490268114301600020F0BD0000E0
:101C60008000E0FF00011000F0B500EB8202536835
:101C70008E8903F04044D1E9003543EA05138D68AD
:101C80002D0245EA06452B430E8A0D4D05EB0656FF
:101C900033430E7D6F0107EB066633438E69334392
:101CA000234353600268D20207D54268098A22F4AE
:101CB000700205EB0151114341600020F0BD0000AE
:101CC0000000F0FF30B5D1E901231A43D1E9033414
:101CD00023431A434B690D681A438B691A43D1E9B0
:101CE0000734012D496A05686FF30E0505D01A43C4
:101CF00022430A432A43026008E0234329430B435B
:101D0000416803606FF30E010A434260002030BD5A
:101D1000426942EA4101416100207047F8B514462A
:101D20000546D1E9000210438A686FF01F03C968B5
:101D300003EB421242EA412108430090286106F079
:101D400015FC064609E0601C07D024B106F00EFC25
:101D5000801BA04201D90320F8BDA8698006F2D4F7
:101D60000020F8BDF0B56FF00F05D1E9003405EBA8
:101D700004145B1E2E0123438C682F0306EB0424FE
:101D80004FEA054C23430D8A8E8ACC68097E4FF0BA
:101D90007F4E07EB05450CEB06560EEB0161012A61
:101DA0000CD082683F1107EB043423432B433343A9
:101DB00002F070420B43134383600FE0C2682B4371
:101DC0000B4302F070428168134301F0704221031B
:101DD000A1F5805131431143C36081600020F0BD03
:101DE0002DE9F04389B0984615460F4606004FF09E
:101DF00000042CD000F0D0FB0446304600F0B3FBCA
:101E0000814603F089FC03A9304600F0A1FCF807E5
:101E100006D0BDF91C008221001B401B401C08E0BD
:101E2000B807BDF91800284402D540F2022100E0AD
:101E300002210096CDE9018123461A464946FEF764
:101E400095FF04460021FFF715F905F035F909B0B3
:101E50002046BDE8F083000010B50523FFF7C0FF62
:101E60000446054A0021FFF716F90449204614F0FC
:101E700000F8204610BD0000FD7B0108313C02083F
:101E800010B50723FFF7ACFF0446054A0021FFF712
:101E900002F90449204613F0ECFF204610BD000073
:101EA000497D0108473C020810B50823FFF798FF59
:101EB0000446054A0021FFF7EEF80449204613F0D6
:101EC000D8FF204610BD0000797D01087D3C020846
:101ED0002DE9F047044640688EB00027804602F0A6
:101EE00083FA0090B0F87CA0D0F86890D0F88060B9
:101EF000D0F88850C06D00B10768684602F0DEFA7D
:101F000005E0696820468847002843D12D68002DE8
:101F1000F7D12068172853D00CDC0F283DD004DC03
:101F20000B2877D00D2825D18BE0112810D014284C
:101F300020D13BE0262846D004DC1E2851D02028A2
:101F400018D18AE02A2816D0B0F5107F12D128E0E7
:101F50004046E56802F048FA0290697A39B9297A70
:101F6000012904D130F87C1F41F48071018002A85E
:101F700002F0A4FA75E0404602F036FA0090E168FB
:101F800011B1C0F8841002E0D0F88400E060684627
:101F900002F094FA0EB0BDE8F087D7B34046B847D8
:101FA0005FE0214640461EF039FAF3E705A94046B6
:101FB00000F0CEFBE0680699016007994160E9E70F
:101FC000C4F80C90E6E7E0680228E3D1CDF8308051
:101FD000E0680D9027200A900AA9A06814F0DAFDA5
:101FE000D8E7E068012804D00021404600F01BFB40
:101FF000D0E7304613F0A5FD68B1304613F0D6FFA8
:10200000304613F061FC98B10121304612F0E4FD36
:102010000EE026E02FE0484614F01CF80646404645
:1020200002F0E2F90090C0F88060684602F046FADB
:102030000121404600F0F7FA002EABD10020E0600D
:10204000A8E75FEA0A700CD4E068C06848B1007A7B
:1020500038B1404613F0AAFF03E0214640461DF088
:102060008FFF2146404612F023FD002892D02046E3
:1020700012F080FF8EE7404602F0B6F90090703013
:1020800002F008F9684673E7F0B587B0B0F9084088
:102090000DF10C0C0C9E876945688CE8F000448AB1
:1020A0000025CDE900150294B0F90C10B0F91050DC
:1020B000B0F90E40B0F90A00194410442B462246EC
:1020C00000F002F807B0F0BD2DE9F04F8BB0984654
:1020D000DDE9155691468A468346149F1A9C03F003
:1020E0001BFB3348603445F48055CDE90204CDE94B
:1020F000007543464A465146584612F083FE040096
:102100004FD002F071F930220490179912F0DCFDE3
:102110000498282227493430FEF7DAFA04981999EE
:10212000244F4166A0F87C600026C0F88060C66637
:10213000083FC0F888607968C16504A802F0BEF95C
:1021400005A9204600F004FB1B4841F2827103966A
:102150000094CDE90110BDF91E00BDF91A10BDF9BA
:102160001C20431ABDF918005B1C121A521C12F0F5
:1021700049FE06467868416820468847204602F0B6
:1021800033F90490866604A802F098F942F204003C
:10219000054202D1204612F09DFF2046189900F01A
:1021A0009BFA04F089FF0BB02046BDE8F08F0000D9
:1021B000D11E0008BC040020592A00082DE9F04176
:1021C000044694B0006800F0B7F908B1D94D01E0B9
:1021D000D84D2C35606815281ED00CDC0B281FD07C
:1021E00004DC00287ED005287DD12FE10E287BD08D
:1021F0001228F9D141E1162806D0172808D018284E
:1022000008D01C28F0D109E0E86914B0BDE8F081DD
:10221000286AFAE7686AF8E7A86AF6E76869F4E7FF
:1022200020680B901C200C90206802F0DDF80390D1
:10223000016D0BA88847064603A802F03FF9022E5D
:102240000FDB95E807008DE80700D4E90402334668
:10225000A16905F061FB20698719A069A0EB060858
:102260002CE0286804F0A7F92169E8690A18521ED1
:10227000606902F065FFA269E869111A491C60698A
:1022800002F05EFFD4E904077F1C394602F0A8FF84
:102290003946A06902F0A4FF686804F08CF920694F
:1022A0003946401C02F09CFFA0693946401E02F0EE
:1022B00097FFA0692769A0F10208BF1C286804F0F5
:1022C0007AF942463946606902F03AFF686804F0DC
:1022D00072F9606942463946401C02F031FF686A73
:1022E000022802E015E1B0E000E10BDDA86804F08F
:1022F00062F961696A6A881C8B1801464246384651
:102300005B1E27E0296AB14226DD6069022E07467E
:1023100000F1020801DB374401E007F10207206900
:1023200001DB304401E000F1020022693B460A442F
:102330004146A2F1010203F035F8022E02DBA0694A
:10234000821B01E0A269921EA069E9693B46401A1E
:102350004146401C03F026F8022E02DB6069064469
:1023600001E06669B61CE76928687F1E04F023F95E
:102370003A463146206902F0B9FF3A463146A06933
:1023800002F0B4FFE7696868BF1E04F014F9206921
:102390003A463146401C02F0A9FFA0693A46314650
:1023A000401E02F0A3FFE869022802DC286A022826
:1023B00023DDA86A022802DDE1690F1A01E0E7695E
:1023C000BF1EA86804F0F7F8E969022909DD206951
:1023D0003B46421800F1020C31466046521E02F0A4
:1023E000E1FF286A022808DDA269E8693B46101A65
:1023F0003146401C921E02F0D5FF286804F0DBF83D
:10240000D4E90620216902F09BFE686804F0D3F845
:10241000D4E906202169401E491C521E02F090FE9C
:10242000A86A022811DDA1692669E469A1F1020800
:10243000271AA41EB61C7F1CA86804F0BCF823460B
:1024400042463946304602F0ADFF71E0208A00B2C4
:10245000ADF81400A18A09B2ADF81610228B12B2A1
:10246000ADF81820A38B1BB2ADF81A302C69ED68BB
:10247000CDE9005402F028FE5AE0208A298B084456
:10248000ADF81400A08AADF81600208B298B401AF5
:10249000ADF81800A08BADF81A00206801F0A4FF79
:1024A0000390006FF0B1022004F018FA039890F83E
:1024B0007C10C1F3C00100EB8100006C04F07BF8DC
:1024C0000398406B04F0A6F80398006F01F08CFFAE
:1024D00003990990B1F95A2005A902F039FC09A81D
:1024E00001F0ECFF03A801F0E9FF21E0208AADF83C
:1024F0001400A08AADF81600208BADF81800A08B50
:10250000ADF81A00A86804F056F805A802F076FFA6
:102510000EE0206801F068FF039030F85A1F41F088
:102520000C01018003A801F0C9FF206813F0C4FD6D
:1025300000206AE6F804002038B505004FF00004DA
:102540000FD003F0E9F8284601F04EFF009090F814
:102550007C00000700D50124684601F0AFFF04F0BD
:10256000ABFD204638BD38B505004FF0000411D052
:1025700003F0D2F8284601F037FF0090C06D00212B
:1025800080680268284690470446684601F096FF36
:1025900004F092FD204638BD30B587B005004FF0FD
:1025A000000413D003F0B8F801A9284600F0D0F8D1
:1025B000284601F019FF0090B0F95440684601F038
:1025C0007DFF0CB9BDF9044004F076FD07B020464C
:1025D00030BD10B5040008D003F09EF820461DF071
:1025E000ACFBBDE8104004F067BD10BD10B50400A1
:1025F00008D003F091F820461DF0EEFBBDE8104036
:1026000004F05ABD10BD10B504000BD003F084F8DF
:1026100020461FF0E3F920461FF0B4F9BDE8104052
:1026200004F04ABD10BD70B50D46040009D003F09A
:1026300073F8294620461FF049FABDE8704004F0BF
:102640003BBD70BD074A0649054B1160064A083B71
:10265000D16958601B68C2E906300846704700001F
:10266000EC040020B8040020BC0400202DE9FC414B
:102670000D46804603F050F85FEA080028D001F0CC
:10268000B3FE0190C16D8C6800F0C9F8074601984F
:10269000456301A801F012FF2268012140469047DE
:1026A00006462268032140469047054622680021DD
:1026B000404690470446404600F097F92B46324684
:1026C00039464046009400F020F9404613F0D0F916
:1026D00004F0F2FCBDE8FC817CB50D4604001DD081
:1026E00003F01AF8204601F07FFE0090006F019081
:1026F000684601F0E3FE294601A805F0E3FC58B165
:10270000204601F071FE009001990167684601F0D2
:10271000D5FE204613F0ACF904F0CEFC7CBD38B5F4
:102720000C46050013D002F0F7FF284601F05CFECE
:102730000090B0F95A10A14204D0A0F85A4028469F
:1027400013F096F9684601F0B9FE04F0B5FC38BD07
:102750002DE9F34F85B000270C46B846059801F0E7
:1027600043FE0090C06D0121856805982A68904756
:1027700082462A6803210598904704902A6802211E
:102780000598904703902A680021059890470646CF
:10279000009813F077FE8346009813F07AFE814686
:1027A000009890F83210890601D5B0F9588000F0F1
:1027B00036F805460098C06E10B112F0A2FE07462A
:1027C00025806780A4F804A0049AABEB020006EB16
:1027D0000802401E2A4420813A44E280039BA9EB70
:1027E0000302521E6281A4F80CA020827019E681B7
:1027F000401E6082684601F061FEB4F90C00019051
:10280000B4F91000029002AA01A9059800F03AF864
:102810000198A0810298208207B0BDE8F08F10B522
:102820000146002091F83220920607D5B1F95400F4
:10283000002803D1486B02F02BFF801C10BD70B53F
:102840008AB00C46054601F0CFFD0990C06D866840
:1028500009A801F033FE009534B1012C06D0022CFA
:102860000BD0032C04D10AE0182000E016200190C0
:102870007168684688470AB070BD1520F7E71720D1
:10288000F5E700002DE9FC4117468846044601F0B3
:10289000ABFD0090C16D056868468E6801F00EFEC4
:1028A00032680021204690470646204612F0D7FCA9
:1028B00027E000BF01F098FD0190B0F900102AB2A6
:1028C000B0F90430891A9A1AB0F90230A3EB254303
:1028D000B34210D190F82800000605D53868884228
:1028E00009DB491E396006E0D8F80000904202DC9E
:1028F000521CC8F8002001A801F0E0FD204612F0AB
:1029000053FD0400D6D1BDE8FC812DE9FF4F83B013
:102910000E460746DDF8409001F066FD0190C16D5E
:102920008D68FFF77CFF044601A801F0C7FD2A6807
:1029300001213846904783462A680321384690474C
:1029400082462A680021384690470546B44207D19E
:1029500005998B4504D106998A4501D14D4541D051
:10296000A41B0026B046384612F079FC38E001F08E
:102970003BFD0090806A010601D5800502E08105DB
:1029800028D50006002825DB24B12246114638460A
:1029900013F07BF9009890F8280000060AD50698F5
:1029A000A5EB0902A0EB0A0004FB16013846761CD1
:1029B00013F01EF90098008D80050BD50599A5EB45
:1029C0000902ABEB010004FB080108F101083846DD
:1029D00013F00EF9684601F071FD384612F0E4FC80
:1029E0000700C4D107B0BDE8F08F70B586B00646C9
:1029F00001F0FAFC0590D0E91A4505A801F05EFD4A
:102A000054EA050026D069463046FFF7A1FEACB176
:102A1000BDF90620BDF90410204613F0ADF8BDF94C
:102A20000A00BDF90610421ABDF90800BDF90410EC
:102A3000521C411A2046491C13F07CFB002D09D082
:102A4000BDF90600BDF90210421ABDF9041028466E
:102A500013F092F806B070BD2DE9F04304464068CB
:102A600089B0054612F0ADFC814601F0BDFC029034
:102A7000D0F84880D0F88070466E02A801F01EFDA4
:102A80002068172853D008DC0E283AD00F2811D020
:102A900014284CD015283DD149E01E281ED01F28EF
:102AA0002AD0222840D0312834D10020E06009B05B
:102AB000BDE8F0836FF070414046884503D008F0D0
:102AC00043FE01F0B7FE002EF1D0D4E902122068D7
:102AD000CDE90405CDE9061204A81FE0E06800284E
:102AE000E5D02FB1AF4203D0384613F05FFADEE7EE
:102AF000284613F0AFFADAE72146484611F0D8FF2E
:102B0000D5E7E0684168002904DD00680928EFD0B6
:102B10000A2805D05EB12046C4F80490B047C6E745
:102B2000284613F0A6FAC2E7C4F80C80BFE7204697
:102B300012F020FABBE7000070B54A4888B00024C4
:102B4000016841F080010160016801F08001079196
:102B5000016841F480710160006802A900F480708E
:102B600007908020012581E83100032005903E4830
:102B700005F004FC2802CDE9020502A93B4805F056
:102B8000FDFBFEF74BFC3A4EC6F8A042142006F5BA
:102B9000287621F04DF93560322021F049F98DF881
:102BA000004002226946A12000F072F89DF8000062
:102BB000302803D19DF80110032931D09DF8011070
:102BC00001292DD002292BD00422694648F2401059
:102BD00000F0AAFD8DF80440694626A0FDF7B0FB81
:102BE0002748009948F24005C0F8021002208DF8ED
:102BF000000001226946284600F0EAFE01226946EB
:102C0000E81D00F091FD0A2021F012F98DF8004036
:102C100001226946284600F0DBFE08B0002070BDA6
:102C2000C9B201EB002117A0FDF78AFB012269461A
:102C3000002000F079F901226946A42000F074F91F
:102C400016208DF8000001226946802000F06CF902
:102C50000C208DF8000001226946882000F064F9FC
:102C6000DBE7000030380240001C02400020024038
:102C7000000044424354502049443A25730D0A0051
:102C8000380000204354502049443A25780D0A006A
:102C90002DE9F04115460F460446FEF78BFC7020E7
:102CA000FEF752FCFEF7D2FCE0B2FEF74DFCFEF759
:102CB000CDFCFEF77FFC7120FEF746FCFEF7C6FC5C
:102CC00000246E1E09E0B44201D0012000E0002083
:102CD000FEF7FEFB3855641CE4B2AC42F3D3BDE80A
:102CE000F041FEF78DBC00002DE9F14783B00027CD
:102CF000884D8DF804704FF00A0A6878864C401CA5
:102D0000C0B2B0FBFAF20AFB1201B846687009B112
:102D10000A286FD27F4881A1801CFDF73BFD4FF050
:102D2000010203A908B30220FFF7B2FF9DF80C00CF
:102D300001075FD000F00F01287881425AD8FF22A6
:102D40008A40D1B2C943B4F8349041F0C001A186A1
:102D500004EB4000A1894181218CC183042021F032
:102D600067F88DF804706E4E84E048F24E163046D7
:102D700000F0DAFC9DF80C000106D7D5297800F0A8
:102D80000F008842D2D88DF80470012201A9304684
:102D900000F01EFECAE7A18E01228240114264D0DB
:102DA0005C485EA1801CFDF7F5FC20B35D489DF8F2
:102DB0000410042230F811006946FFF769FF94F807
:102DC00044009DF80010C0079DF8010001F00F01BC
:102DD00039D000EB01219DF8040004EB4000018490
:102DE0009DF802209DF8031002F00F0201EB022172
:102DF00081813AE058E04B489DF804100A300422E3
:102E000030F81100694600F08FFC94F844009DF8FA
:102E10000110C0079DF8000000EB01219DF804009F
:102E200004EB400005D081819DF802109DF803203D
:102E300018E001849DF802109DF8032001EB0221A7
:102E40003288511AD4E700EB01203188091A9DF825
:102E5000040004EB400081819DF802209DF80310DE
:102E600002F00F0201EB022101849DF80400401CD6
:102E70008DF804009DF80400297888428BD3A0893E
:102E800031884FF00108884203D8208C718888422D
:102E900009D99DF80C0000F00F00012812D9E08933
:102EA000A081608C20846F701A481CA1801CFDF7E3
:102EB00071FC00289DF80C004FF6FF710FD0C00682
:102EC00023D019E0287804EB40004189A181C08B10
:102ED000208480208DF80C00A4F83490E4E700F002
:102EE0008F00802811D007E020F0800003E0A1814E
:102EF000218400F0E000A0866878F02801D985F8E8
:102F000001A004B04046BDE8F087A08E0206EED5D1
:102F1000EAE7000038000020480000203931310085
:102F2000D01C0020589402082DE9F04115460E46A9
:102F300004460027FEF73EFB7020FEF705FBFEF778
:102F400085FBE0B2FEF700FBFEF780FB002408E003
:102F5000305DFEF7F9FAFEF779FB070003D1641C38
:102F6000E4B2AC42F4D3FEF74BFB3846BDE8F08147
:102F70002DE9F0430446C56887B090468946002095
:102F800003F03CFB064625B1287910B146F002005B
:102F900001E026F0020003F031FB2069012558B161
:102FA000D4E902128DE8260003956388228804681C
:102FB00041464846A0471EE0124F134B2146386851
:102FC0001B68427CE068984730B9E088012801D04E
:102FD000002001E03868806BA288E388A168009532
:102FE000CDE90410CDE9023201956388228841467B
:102FF000484607F05BFB07B03046BDE8F04303F0FE
:10300000FDBA000030020020280200201CB5002478
:10301000019401AC009400F0E7F81CBD2DE9FF4FCE
:1030200083B0814606988A46A0EB0A08109E0020CD
:103030000090A2EB09043568934654EA080018D0C2
:103040002046FDF721FE07464046FDF71DFE87425C
:103050000BDA2046444680464846D14682465846CA
:10306000DDF818B0069001200090002C07DD204606
:1030700006E007B04846BDE8F04F00F03BB96042BB
:10308000A0420AD04846D9466442C8F100088346A7
:103090004FF0FF37DDF818A000E001275148B8F1E4
:1030A000000F11D004EBD4714FEA610B01DACBF1C0
:1030B000000B4C480068807E88B3002F02DA30682D
:1030C0002044306000257BE000990029016821D070
:1030D000897E11B10027804615E007B05A4649465F
:1030E0005046BDE8F04F07F01BBD28466D1C1EF092
:1030F00017FE38B9D8F8000009EB0701406E4268A6
:10310000504690477F1CA742EFDD6D1E356007B02B
:10311000BDE8F08F8A7E1AB10027804617E019E0DB
:10312000486E5A465146036807B04846BDE8F04F1E
:10313000184728466D1C1EF0F3FD38B9D8F800106A
:1031400009EB0700496E4A68514690477F1CA74229
:10315000EFDDDAE700250FE008FB05B090FBF4F1A6
:1031600001EB0A00009951B11E4A09EB05011268F2
:10317000526E526890476D1CA542EDDDC7E71949B4
:1031800009EB05030968496E4A6801461846F1E7EC
:1031900008FB05B090FBF4F101EB0A0001903068E8
:1031A000384430601EF0BCFD48B9009890B10D481D
:1031B00009EB05010068406E4268019890476D1C5C
:1031C000A542E5DD3068002F01DA20443060C01BE5
:1031D00030609CE7034909EB05000968496E4A68BD
:1031E0000199EBE7300200202DE9FF470F464049E7
:1031F0001646804609680C981D460A7E012A1CD096
:10320000A8EB0600791B50EA01031CD0A2F10109CA
:1032100020F02AFB00F58060824605F042F800FBB2
:1032200009F4504605F042F800FB09F1002C0CDAD5
:10323000C4F50070801240420AE0009032463946E0
:103240004046FFF7EBFEBDE8FF8704F50074A012CF
:10325000002904DAC1F5007189124C4202E001F53F
:1032600000718C12002804DD411C01EBD171491062
:1032700003E000EBD0714910401E00EBD07042100B
:10328000002C04DD601C00EBD070401003E004EB68
:10329000D4704010641E04EBD47308EB0104ADF845
:1032A00000403C18ADF80240A8EB02045B10B21AD3
:1032B000ADF80440ADF808203144FC1AEA1AADF824
:1032C0000C102844ADF80A20ADF80E000023ADF82C
:1032D00006401A460421684600F07AF8394640460E
:1032E00019F0F4FA2946304619F0F0FAABE700007D
:1032F00030020020064A13681A7E012A05D0521EA9
:1033000002EBD272521000F005B85A6E52681047A4
:10331000300200202DE9F05F0646884640F2C320C7
:1033200002FB00F14FF47A7091FBF0F702FB02F11F
:1033300002EBD27001EB600B1446B118234A301B2C
:103340007F1C1268526E13680A4641469847012551
:1033500038E000BF05FB05F004FB040159451CDD06
:10336000BC4219DD194B06EB050AA6EB05091B68E3
:10337000AAF1010208EB04015B6E09F101001B6870
:103380009847124BAAF10102A8EB04011B6809F14E
:1033900001005B6E1B689847641E0C4B3219301B92
:1033A0001B68924608EB05015B6E81461B689847D7
:1033B000064B5246A8EB05011B6848465B6E1B682E
:1033C00098476D1CBD42C5DDBDE8F09F300200206E
:1033D0002DE9FF4F43F6FF740F46664283B09B46CC
:1033E000814600210BE000BF09EB8100B0F902002B
:1033F000A04200DA0446B04200DD0646491CB9424C
:10340000F2DB67480068406900280DD0B0F906106B
:103410001A46A1EB0B01B14200DA0E46B0F90200E8
:10342000801AA04200DD0446B4E0DFF878A1002055
:103430000546CAF8000088E0781E854201DA6B1C58
:1034400000E0002309EB850C09EB8302BCF90200C4
:10345000B2F90210A04244D1A14215D139F923306A
:10346000059A39F9251003EB020C4D4A05981268AC
:10347000084404EB0B01526E6045136801DA6246A2
:103480002AE00246604627E02846A4464FF000089E
:103490007A1E0BE008B1401E00E0781E09EB8003A5
:1034A000B3F90230634504D108F101089045F1DB1E
:1034B0002346A34248D01A1B39F92500A1EB040C7E
:1034C000059B92EA0C0F09D4354A184404EB0B0112
:1034D0001268526E13680246984735E013F04CFCB0
:1034E00032E0A14230D001DBA04203DDA0422BDB61
:1034F000A14229DCE04688420ADC0346A04223DCE4
:103500000846A14220DBB8F900C0B2F9001008E07B
:103510000B46A14218DCA04216DBB2F900C0B8F994
:103520000010E21AA1EB0C0151430029A0EB0302A9
:1035300002DD01EB620102E0A1EB6201491CC01A4D
:1035400091FBF0F06044C9E76D1CBD42FFF674AF1B
:103550000598009004EB0B00019000208046054682
:1035600013E01149B8F1000F31F915A009D0009905
:1035700001EB0A0208440A490968496E0B6801997F
:10358000984788F0010850466D1C064909688D422D
:10359000E7DB641CB4427FF748AF07B0BDE8F08FAB
:1035A000300200201C0A00207402022010B5002006
:1035B00002F0F6FF6FF07F4002F0FDFF012003F004
:1035C0006FF9002003F07AF9002003F087F900205A
:1035D00003F014F80448006803F01CF8BDE810403C
:1035E000002003F06DB800002C0200202DE9F0430C
:1035F0003E4889B00024016841F080010160016803
:1036000001F080010791016841F480710160006858
:10361000802600F48070079001AA012503270096F8
:10362000DFF8CC9082E8B0006946484604F0A6FE78
:103630002802CDE9000569462E4804F09FFEFDF7FB
:10364000EDFEDFF8B480C8F8A0420A2020F0F0FBBD
:10365000C8F8A0520A2020F0EBFBCDE90064CDE9C8
:1036600002476946484604F089FE642020F0E0FBEA
:10367000042205A948F2401000F056F88DF81840D1
:1036800005A91EA0FCF75CFE1FA105A8FDF782F8A6
:1036900040BB02208DF8140048F24005012205A924
:1036A000284600F095F9012205A9E81D00F03CF834
:1036B0009DF8141060290BD215A0FCF741FE1948A3
:1036C0008088A0F5AA41103902D1012000F05AF9F2
:1036D0000A2020F0ADFB8DF81440012205A92846F0
:1036E00000F076F909B00020BDE8F08330380240E0
:1036F000001C02400020024000004442435450207D
:1037000049443A25730D0A0039313437000000006E
:1037100044656661756C74205665723A25640D0ABD
:1037200000000000D01C00202DE9F04115460F4696
:103730000446FDF73FFF2820FDF706FFFDF786FF53
:10374000200AFDF701FFFDF781FFE0B2FDF7FCFE67
:10375000FDF77CFFFDF72EFF2920FDF7F5FEFDF7B5
:1037600075FF00246E1E09E0B44201D0012000E084
:103770000020FDF7ADFE3855641CE4B2AC42F3D333
:10378000BDE8F041FDF73CBF2DE9F14F794E002433
:103790004FF00A0B307882B0401CC0B2B0FBFBF295
:1037A0000BFB1201744DA146307009B10A2877D283
:1037B00048F24E17012202A93846FFF7B5FF9DF8DF
:1037C00008004FF0000801060AD500F00F00062897
:1037D00006D28DF80480012201A9384600F0F8F8DD
:1037E0009DF8080001075BD000F00F00062857D2B3
:1037F000FF218140C8B28DF80400C04395F834A081
:1038000040F0C000A886A889A882288C5B4F288534
:103810004FF00109A98E09FA04F0014268D0584816
:103820000422694630F81400FFF77EFFB888A0F53F
:10383000AA41103908D0A0F5864142391AD0A0F526
:10384000864184392DD053E095F84400C0072CD030
:103850009DF800009DF8011000EB012105EB4400EC
:1038600001849DF802109DF8032001EB0221C1F5AF
:1038700048713CE095F84400C00716D19DF800005F
:103880009DF8011000EB012105EB440001849DF837
:1038900002109DF8032001EB0221C1F5887126E09A
:1038A00041E095F84400C00710D09DF800009DF855
:1038B000011000EB012105EB440081819DF802100D
:1038C0009DF8032001EB0221018411E09DF8000026
:1038D0009DF8011000EB012105EB440001849DF8E7
:1038E00002109DF8032001EB0221C1F5F0718181E6
:1038F000641CE4B2052C8DD3A9893A884FF00109E4
:103900002846914203D8018C7A88914209D99DF8C2
:10391000081001F00F0101290CD9C1898181418C66
:10392000298486F800809DF8080000F08F00802828
:103930000AD016E0818A8181018D018480218DF871
:103940000810A5F834A0EEE7A88E010602D520F0F5
:10395000800005E04FF6FF71A981298400F0E000A6
:10396000A8863078F02801D986F800B04846BDE82E
:10397000FE8F00003F00002048000020D01C0020E7
:103980002495020808B500218DF800108DF801007B
:103990000E489DF80020435C491C1A44C9B28DF8BA
:1039A0000020B829F5D3D0B2C043401C8DF80000E8
:1039B000B822064948F2470000F00AF80222694698
:1039C00048F2FF0000F004F8002008BD6C940208E3
:1039D0002DE9F04115460E4604460027FDF7EAFDA5
:1039E0002820FDF7B1FDFDF731FE200AFDF7ACFD03
:1039F000FDF72CFEE0B2FDF7A7FDFDF727FE002442
:103A000008E0305DFDF7A0FDFDF720FE070003D1C3
:103A1000641CE4B2AC42F4D3FDF7F2FD3846BDE8D5
:103A2000F08100002DE9F0433F4889B0002401688F
:103A300041F080010160016801F080010791016897
:103A400041F4807101600068802500F48070079067
:103A500001AA012603270095DFF8D09082E8D00064
:103A60006946484604F08AFC4FF48078CDE9008628
:103A70002F4E6946304604F081FCFDF7CFFC002252
:103A80004146304604F06DFD0A2020F0D1F90122B4
:103A90004146304604F065FD0A2020F0C9F9CDE921
:103AA0000054CDE902476946484604F067FC6420AB
:103AB00020F0BEF9042205A948F2401000F050F8A9
:103AC0008DF8184005A91BA0FCF73AFC1DA105A81C
:103AD000FCF760FE18B1012009B0BDE8F0830220B8
:103AE0008DF8140048F24005012205A92846FFF789
:103AF0006FFF012205A9E81DFFF716FE9DF81410BF
:103B0000412905D211A0FCF71BFC012000F030F97F
:103B10000A2020F08DF98DF81440012205A92846CD
:103B2000FFF756FF0020D7E730380240001C024064
:103B3000002002404354502049443A25730D0A0D99
:103B40000A00000039323731000000004465666128
:103B5000756C74205665723A25640D0A00000000E9
:103B60002DE9F04115460F460446FDF723FD2820B8
:103B7000FDF7EAFCFDF76AFD200AFDF7E5FCFDF71D
:103B800065FDE0B2FDF7E0FCFDF760FDFDF712FD1D
:103B90002920FDF7D9FCFDF759FD00246E1E09E030
:103BA000B44201D0012000E00020FDF791FC38551F
:103BB000641CE4B2AC42F3D3BDE8F041FDF720BD94
:103BC0002DE9F14783B000268DF80060644C4FF07A
:103BD0000A0A644D20783746401CC0B2B0FBFAF2A6
:103BE0000AFB120120704FF6FF7909B10A287DD235
:103BF00048F24E18012203A94046FFF7B1FF9DF895
:103C00000C0001060AD500F00F000B2806D28DF833
:103C1000006001226946404600F0D0F89DF80C0093
:103C2000010775D000F00F000B2871D209FA00F1DE
:103C3000C843B5F8348040F0C000A886A889E8835E
:103C4000288C68868DF8006047E0A88E9DF80020DB
:103C50000121914008423BD043499DF800000622D3
:103C600031F8100001A9FFF77BFF95F84400C00769
:103C700016D09DF806109DF8070001EB00209DF876
:103C8000001005EB410108849DF804009DF8051023
:103C900000EB01209DF8001005EB4101888117E041
:103CA0009DF806009DF8071000EB01209DF800101C
:103CB000C0F5487005EB410188819DF804009DF82E
:103CC000051000EB01209DF8001005EB4101088470
:103CD0009DF80000401C8DF800009DF800000A28A7
:103CE000B3D322480127A989028800E010E091425D
:103CF00003D8298C4088814209D99DF80C0000F036
:103D00000F0001280BD9E889A881688C28842670C7
:103D10009DF80C0000F08F0080280AD016E0E88B98
:103D2000A881688E288480208DF80C00A5F8348046
:103D3000EEE7A88E010602D520F0800005E0A5F888
:103D40000C90A5F8209000F46040A8862078F02818
:103D500001D984F800A004B03846BDE8F08700001F
:103D60009000002048000020F6950208D01C00209A
:103D700008B500218DF800108DF801000E489DF85F
:103D80000020435C491C1A44C9B28DF80020B829B0
:103D9000F5D3D0B2C043401C8DF80000BA220649CA
:103DA00048F2470000F00AF80222694648F2FF0094
:103DB00000F004F8002008BD3C9502082DE9F04110
:103DC00015460E4604460027FDF7F4FB2820FDF7B4
:103DD000BBFBFDF73BFC200AFDF7B6FBFDF736FC0D
:103DE000E0B2FDF7B1FBFDF731FC002408E0305DE7
:103DF000FDF7AAFBFDF72AFC070003D1641CE4B21F
:103E0000AC42F4D3FDF7FCFB3846BDE8F08100007E
:103E1000014AC2E900017047DC010020014AC2E901
:103E200000017047E4010020014AC2E90001704727
:103E3000EC010020014AC2E900017047F0020020B5
:103E40002DE9F04FDFF828B191B04FF0FF35DBF8E6
:103E50000030B3F922100691DE69B3F92490F469B9
:103E6000A189814206D8E289824203D3471AD4F855
:103E7000008012E0D4E9018100296FD00A888242D3
:103E80006CD84D88854269D3801A82B2486800EBAD
:103E90008200B0F90070B0F90250781C5ED0307E1C
:103EA000A17C10FB01FA217CCDE90701B3F92A605E
:103EB000304607F033FDC0B20E90DBF8000007FB80
:103EC0000A81A37C826B0127CDE90412CDE902733C
:103ED000C069089AC17E807ECDE90001DDE9060354
:103EE000494606F0E3FB681C18D046F0020007F0D4
:103EF00015FDDBF80000A37C05FB0A81826BCDE990
:103F00000273CDE90412C069089AC17E807ECDE9B2
:103F10000001DDE90603494606F0C8FBDBF80000B6
:103F20005D46C069417E007E814214D9022E12D0C6
:103F300086F0040007F0F2FC2868C069027EC37EA8
:103F400012FB0391437E857E089A06984B4412FB30
:103F5000050206F0E9FE0E9807F0E0FCDBF8000031
:103F6000627C418C1144418411B0BDE8F08F0000A7
:103F70003002002004480068C069C06909B1027CB1
:103F80000A60407C70470000300200200220088058
:103F90007047C06982898A4202D8C2898A4210D297
:103FA000806880B102888A420DD843888B420AD348
:103FB000406800EB8100A0EB8200B0F9000000280F
:103FC00001DB012070470020704700002DE9F0431D
:103FD000304C034687B020681946B0F92A60C069A2
:103FE000C06900F086F8002850D041680088181A8F
:103FF00001EBC0053046AF7807F090FC81462068A1
:104000006A680123816BCDE90237CDE90421C169DA
:10401000CB7E8A7ECDE900230B7EB0F924102A786E
:10402000B0F9220006F042FB2068C069417E027EA2
:1040300091421FD9C07E11FB00F812FB00F7022E3F
:1040400018D001F076FA064601F03CFA02F0B3FA15
:1040500021682A78CB69B1F92200DB7E12FB0302CA
:10406000B1F9241001EB0803394406F05DFE304637
:1040700002F0A1FA484607F051FC20686A78C3694B
:10408000B0F922109B7E12FB0311418407B0BDE8FA
:10409000F08300003002002030B50F4C05460B467F
:1040A00020682946C069C06900F023F8002812D0B2
:1040B0004168008824682A1A0120E46900EBC200E4
:1040C000085CA47E10FB04F0002B04D011F8321021
:1040D00011FB04F1196030BD30020020012008807E
:1040E000704700B5C06900F004F8002800D0012036
:1040F00000BD06E002888A4202D842888A4202D283
:1041000080680028F6D1704770B50025124C19E080
:1041100020691249C5EB051600EBC600702209683C
:10412000001DFCF7D5FA2069002140F8361000EB9D
:10413000C60000F10C018161011D0A1DC0E90F12CA
:104140006D1C4164A0688542E2DB01F0E5FABDE840
:10415000704002F0B1BF00000008002030020020D3
:1041600070B50F490D480860084603F0A3FF0C4CDA
:10417000143CA068C0EB0010C500284600F0A6F86B
:104180002A460021206104F00EF84FF0FF30206035
:1041900002F0F8FFBDE870401BF02AB901010208E7
:1041A00014080020F8B50C0005460FD001F0B4FA51
:1041B000204600F017F8060010D000F015F922464E
:1041C00000902DB12946FCF7FCF904E00020F8BD71
:1041D000002103F0E8FF684600F070F902F06CFF80
:1041E0003046F8BD10B5040009D001F095FA20461C
:1041F00012F09CFE044602F05FFF204610BD002036
:1042000010BD38B5054601F087FA2846FFF7EAFFEA
:10421000040009D000F0E8F82A460021009003F0DD
:10422000C2FF684600F04AF902F046FF204638BD5A
:10423000024A106021F0030050607047F80002202D
:1042400010B5040016D001F067FA0B48406B10F867
:10425000341059B1022909D2042101EBC40141589B
:10426000486812F0A5FD20461DF064FABDE8104034
:1042700002F022BF10BD000038000220002805D047
:10428000034AD16B016001B14860D0637047000000
:104290003800022010B5044601F03EFA2068FFF70E
:1042A000CFFF00202060BDE8104002F005BF0000F5
:1042B00070B50D460646002405E000BF06EB8400FD
:1042C000FFF7E8FF641CAC42F8DB70BD2DE9F0415C
:1042D00004461BF0A1FB2848E41C24F00305016CF4
:1042E0002D1DA94200D90D46C46B13E054F8042CCF
:1042F000AA420ED184B1216809B162684A6061683E
:1043000009B122680A60C26BA24231D12168C1633F
:104310002EE02468002CE9D18046816BC0680F181C
:1043200057F8040C3E1A306838B100201DF0DAFA54
:1043300057F8040C3E1A3068D0B97068A84217DBF1
:104340003044441B3046241D1DF084FAD8F80C106C
:10435000491BC8F80C10D8F814102944C8F81410D8
:104360007068401B02D0314612F022FD44F8045C14
:104370002046BDE8F08100003800022010B500247E
:104380001BF04AFB0C490F2001EBC002526C1AB122
:1043900001EBC000406C08E0401EF5D508E0416824
:1043A000A14200D90C46806810B180680028F6D17F
:1043B000A4F10C0010BD000038000220002138B12B
:1043C0000449042202EBC000496B085841680C39CB
:1043D000084670473800022002488169491C816103
:1043E00070470000380002200549CA69521CCA61A2
:1043F000496B01EBC0010A78521C0A7000F076B8D4
:10440000380002207CB506460C460846FFF7EAFE57
:10441000050020D0FEB13046FFF7D0FFA04200DA01
:10442000044601F079F92846FFF7DEFF0090304698
:10443000FFF7DAFF0146019022460098FCF7C1F829
:10444000684600F03BF801A800F038F83046FFF766
:10445000F7FE02F031FE28467CBD000010B501F0E9
:104460005BF9FFF78BFF64220849B0F5800F04D990
:1044700090FBF2F4086A444303E0096A4143B1FB4C
:10448000F2F402F019FE204610BD000038000220B0
:104490000549102805D94A68B0EB520F02D35008DD
:1044A00000E0102088607047F8000220024881690F
:1044B000491E816170470000380002200A490268E5
:1044C0004B6B52F8082C03EBC2021378022B03D378
:1044D000CB690BB15B1ECB611178491E11700021B5
:1044E000016008467047000038000220002806D00E
:1044F0000349042202EBC000496B0858083070479A
:10450000380002202DE9FC414FF000060B465FEA1F
:10451000000834462BD032B111461846FFF742FE50
:10452000060000D101244046FFF75EFF0090078897
:1045300045686846FFF7C2FFCCB9B9002846091D97
:10454000FFF760FF050015D0FFF74EFF019040F820
:10455000276001A8FFF7B2FF4046FFF745FF009034
:1045600045600188491C01806846FFF7A7FF204687
:10457000BDE8FC813046FFF763FE0124F7E7082021
:10458000FFF73FBE7CB5050023D0FFF72DFF00905D
:104590004068C0B1FFF728FF0024019005E00198B2
:1045A00000EB8400FFF776FE641C00980088A042B0
:1045B000F5DC01A8FFF782FF0098001DFFF76AFEF7
:1045C0000099002008806846FFF778FF2846FFF72B
:1045D00037FE7CBD38B5002430B1FFF705FF0090F1
:1045E00004886846FFF76AFF204638BD38B50D4697
:1045F000002448B1FFF7F8FE2946009000F016F8B5
:1046000004466846FFF75AFF204638BD38B50D46C8
:10461000002448B1FFF7E8FE2946009000F018F8A2
:1046200004466846FFF74AFF204638BD38B50D46B8
:1046300001880024A94209D9406838B1FFF7D4FEA7
:10464000009050F825406846FFF738FF204638BDF7
:1046500010B50024FFF7EAFF10B1FFF7C5FE0446CE
:10466000204610BD2DE9FC5F8946044601F054F850
:10467000484600F06BFF2C4E09EB8907824656F83E
:104680002700019029484FF00108016841B92749E6
:10469000C0F80080091D26480860084603F00AFD9E
:1046A000214A09EB89015FEA0A0002EB81051BD070
:1046B00001F01EFF83464FF07F4001F071FF00F0D4
:1046C000B9F800221146206800F040FC20684288BA
:1046D0000188504601F0D6FF46F8274085F805804E
:1046E000584601F005FF17E046F8274085F8058099
:1046F0002869464618B101F02BFE0020286174B1EC
:104700000096E868A1684B46421AA8686168411A99
:10471000206801F077FE286148461EF037F802F065
:10472000CBFC0198BDE8FC9F7401022074020020BC
:104730006900020870B514460D46064600F0ECFF0D
:10474000204600F003FF0300174804EB840109D062
:1047500050F8210041688068711A2A1A184601F041
:1047600081FF1CE000EB8104A268B24201D001226B
:1047700000E00022E368AB4201D0012300E0002307
:104780001A430CD0236943B150F821008168406876
:104790006A1A311A184601F000FEC4E90265BDE844
:1047A000704002F089BC00007401022002480068D9
:1047B000407C00F003B800003002002010B5044631
:1047C00000F0AAFF0A4804EB840100EB81030122F8
:1047D0005A7150F8210030B120461DF0D7FFBDE8D6
:1047E000104002F069BC21460248FFF73BFFF6E7A4
:1047F00074010220E0D7070810B5C2B2CBB2D21ABA
:1048000000D5524293B25B43C0F30722C1F30724A1
:10481000121B00D55242000C92B2A0EB114002FBD9
:10482000023200B2002801DA404200B280B200FB3E
:10483000002010BD10B50021084600F03FFF43F6F0
:10484000FF725042BDE8104013460146AFF30080AE
:104850002DE9FC411C4615460E46074600F05CFF5C
:10486000042007F05BF880461248C068C16C006DF8
:104870000F4406440D440444ADF80070ADF80450F4
:10488000ADF80260ADF80640684611F009FE07E099
:1048900023462A463146384606F046FA11F0B4FD62
:1048A0000028F5D1404607F039F802F005FCBDE8D4
:1048B000FC810000240200202DE9F8431C00DDE902
:1048C000089816460F46054602D110F0A1FC044692
:1048D00000962E6843464A4621462846B0470600C1
:1048E00039D010F08AFC8146698A304610F074F99C
:1048F000304611F053FC484611F050FC4FF00008D0
:104900000CE000BFCDF8008055F81CCF00231A46FC
:1049100049462846E04700B311F040FC7F1E002FB7
:10492000F0DC1D21484611F084FA601C12D000F022
:10493000F3FE10F0B1FC30B1FFF7D8FD8469B4424A
:1049400001D02000F8D1B44202D0304611F082FBF1
:1049500002F0B2FB3046BDE8F883304610F042FB6F
:104960000020F8E72DE9F0411C4616460D460746A3
:10497000022B02DB0020BDE8F0811C20FFF7A6FC23
:104980000028F8D00DB105610AE0094A52F8241058
:1049900009B905E011460A68002AFBD109690161DD
:1049A00084618682002101604160C0E90217E2E76C
:1049B0004802002070B51D46FFF7D4FF040009D05F
:1049C00000F00EF8E068006820B90348006800EBCA
:1049D00085008465204670BD30020020FFF74EBC84
:1049E00070B590B38269022A30DA1E4C54F8221056
:1049F00019B944F8220032E019464B68002BFBD16C
:104A000006E0CB68C5681B682D68AB4203DD09680A
:104A10000029F6D11AE0C1B1CB68C6681B683668B8
:104A2000B3420CD1838A012B05D008E01946DB681C
:104A30001B68AB4203DB0B68002BF7D129B14B6835
:104A400033B118604A68426004E0FFE7012070BD9E
:104A500044F822004860884200D100210160002013
:104A600070BD00004802002010B503E00468FFF7A5
:104A7000B7FF20460028F9D110BD1EF08DB9000007
:104A80002DE9F0410026DFF834800D4F354600BF98
:104A900058F8254009E0E0680068385C20B12046FD
:104AA0001EF07AF9266026462468002CF3D16D1C8E
:104AB000022DEDDB3046BDE8F08100004802002009
:104AC00018A00708022801DB00207047054A52F8A9
:104AD000200004E0C26812688A42F6D0006800280C
:104AE000F8D1704748020020022801DB00207047FF
:104AF000054951F8200004E0C16809680029F6D092
:104B000000680028F8D1704748020020F8B5074631
:104B100015460E460C20FFF774FB04000FD000F082
:104B2000FBFD2046FFF760FC06490090C0E9001736
:104B3000068145816846FFF7C1FC02F0BDFA2046B8
:104B4000F8BD0000ECEC07082DE9F8431D461646B9
:104B5000884604000CD0FFF747FC00900068076807
:104B60006846FFF7ABFC2B46324641462046B84725
:104B7000BDE8F88338B504004FF000000AD02046A5
:104B8000FFF732FC0090006845686846FFF796FC26
:104B90002046A84738BD38B504004FF000000AD0C1
:104BA0002046FFF721FC0090006885686846FFF703
:104BB00085FC2046A84738BD2DE9F041044602F0A7
:104BC000CBFA06191EE000BF00F0CAFB052F00DD7E
:104BD000052700F0A1FD11480568FFF7FDFB2C003B
:104BE00017D000BF02F068FA641EFBD1384602F00D
:104BF00097FA1DB100F090FD6D1EFBD1FFF756FC3A
:104C000002F05AFA02F0A8FA371A002FDCDCBDE8ED
:104C1000F081384602F084FAF0E700000C0800202A
:104C20002DE9FC4706005FD000F076FD00F0B2FCF5
:104C30003C4C81462068B0F9228000F00BFD2168D1
:104C400007468A8CD01B888441E000BF47F6FF717D
:104C5000304603F099F882460146304603F06AF880
:104C60002168054691F82C0000F00300012841D08E
:104C700002283BD000204A8C101A4884ADF800006E
:104C80006A1E1044ADF80400888CADF80200A9F14A
:104C900001010844ADF806006A465146304602F06C
:104CA0004BFC2168BDF8020088845146304602F072
:104CB000F1F8064430780A281ED00D281CD0BDF823
:104CC0000000216828444884307818B1761C307878
:104CD0000028BBD12068818C39448184818D21F0EA
:104CE0000301818502F0E8F9BDE8FC8705EBD5708A
:104CF0004010C0E72846BEE7206890F82C1001F06D
:104D0000030101290BD0022909D0018C418431789B
:104D10000A29D9D1828C02EB09018184D4E7A0F859
:104D20002280F4E73002002070B514460D46064696
:104D300000F0F2FC05480068458484843046FFF7A3
:104D40006FFFBDE8704002F0B7B9000030020020EC
:104D500047F6FF7300F044B82DE9FF471F460C9E4D
:104D600090460D46814696B300240094019400F0CD
:104D7000D3FCADB12868009068680190174800998D
:104D8000016001994160284611F0F8F9040007D04C
:104D90000246294602A803F064F802A811F0EEF9D1
:104DA00030461DF027FC05467168684688473B463B
:104DB00042466946484602F017FC204611F0DEF9EB
:104DC00028461DF017FC02F077F9BDE8FF87FFE7E2
:104DD00004B0BDE8F04700F003B80000CC070020A5
:104DE0002DE9FC411F4690460D4606004FF0000499
:104DF0001AD000F091FC65B1284611F0BFF904000B
:104E000007D002462946684603F02BF8684611F0A1
:104E1000B5F93B4642462946304602F0E5FB2046BE
:104E200011F0ACF902F048F9BDE8FC812DE9FF4F23
:104E300087B09046894607007DD000F06DFCD9F818
:104E40000040D9F8045021B228B2401A401C029008
:104E500000F0A0FB064618F00C0F1ED038460A9A48
:104E6000029902F033F908F00C01042904D0082952
:104E700002D00C2911D104E0291400FB1610401CAB
:104E800009E02114C1EB254200FB1620401C00EB79
:104E9000D07001EB600060F31F44484611F06EF9DA
:104EA0005FEA000B09D00246494604A8CDE9044553
:104EB00002F0D7FF04A811F061F9A6F1010A384603
:104EC0000A9A029903F03EF903900AEB244060F33A
:104ED0001F45CDE900453846039902F02BFF18F035
:104EE00003010ED001292CD002290ED1B9F90420DA
:104EF000B9F90010521A101A00EBD07001EB6000E3
:104F000001E0B9F80000ADF800006A4638460399A0
:104F100002F012FB38460A9A029903F009F9074495
:104F200006EB244060F31F4438780028C7D1584668
:104F300011F024F900E001E002F0BEF80BB0BDE88A
:104F4000F08FB9F80410081A401CDCE77CB5144651
:104F50000D46064600F0E0FB11480068C16C006D8C
:104F60000D4404443188681E0844ADF80400ADF8CF
:104F700000507188601E0844ADF80600ADF802408C
:104F8000684611F08DFA06E0224629463046FDF7C4
:104F9000EFFF11F039FA0028F6D102F08DF87CBD50
:104FA000300200201CB50A460146684603F075F839
:104FB00000F0B2FB2548BDF80010006830F84C2F17
:104FC0001144ADF80010BDF8021082881144ADF80C
:104FD0000210BDF8041002881144ADF80410BDF8A9
:104FE000061080880844ADF80600684611F058FAAB
:104FF00027E000BFBDF900400BE000BFBDF9021083
:10500000204605F041FDBDF90610204605F03CFDA7
:10501000A41CBDF90400A042F0DABDF902400AE088
:10502000BDF90000214605F02FFDBDF90400214621
:1050300005F02AFDA41CBDF90600A042F0DA11F02B
:10504000E3F90028D6D102F037F81CBD3002002069
:105050002DE9F04F87B09B46DDE9109892460C464B
:10506000054600F059FB16480168C86C096D4719E0
:105070000E1900EB0A0501EB0B04ADF81070ADF84A
:105080001450ADF81260ADF8164004A811F008FAFB
:1050900088B1DFF830B04FF0000ACDE90098CDE9D3
:1050A00002BA2B4622463946304617F07BF911F0FA
:1050B000ABF90028F1D101F0FFFF07B0BDE8F08F98
:1050C0003002002021AB00082DE9F04F87B09B464D
:1050D000DDE9109892460C46054600F01DFB164887
:1050E0000168C86C096D47190E1900EB0A0501EB40
:1050F0000B04ADF81070ADF81450ADF81260ADF8B7
:10510000164004A811F0CCF988B1DFF830B04FF0A8
:10511000010ACDE90098CDE902BA23462A46314674
:10512000384617F03FF911F06FF90028F1D101F07E
:10513000C3FF07B0BDE8F08F3002002099A9000836
:105140002DE9FC4114460D46064600F0E5FA114FE4
:105150003968C86C096D054404440E44ADF800502C
:10516000ADF80440ADF80260ADF80660684611F095
:1051700097F908E0386822463146406E03682846B1
:10518000984711F041F90028F4D101F095FFBDE8EE
:10519000FC810000300200202DE9F0411C4615463C
:1051A0000E46074600F0B8FA0C480168C86C096D55
:1051B000074405440E440C44002011F071F907E047
:1051C00023462A4631463846FDF720FF11F01CF9E8
:1051D0000028F5D1BDE8F04101F06EBF300200209B
:1051E0007CB50C46064600F097FA0F4D2868C16C56
:1051F000006D0E440444ADF80460ADF80060ADF8F5
:105200000640ADF80240684611F04AF907E0286808
:105210002146406E42683046904711F0F5F800286C
:10522000F5D101F049FF7CBD300200202DE9FC41A1
:105230001C4616460D46074600F06EFA1A480168ED
:10524000087ECA6C096D17440D440C44401E391A7F
:105250001644ADF800103118ADF80410291A204496
:10526000ADF80600ADF80210684611F019F915E026
:1052700032462946384605F08FFB324621463846ED
:1052800005F08AFB621E691C384605F049FC621E67
:10529000691C304605F044FC11F0B6F80028E7D14F
:1052A00001F00AFFBDE8FC813002002070B58EB02D
:1052B00015460E46044600F02FFA214606A802F0D5
:1052C000C9FEBDF81A30642B0CD1002000900AAB47
:1052D00001AA214606A802F011F92A46314601A882
:1052E000FFF734FE01F0E8FE0EB070BD7CB5144649
:1052F0000D46064600F010FA0F480068C16C006DBC
:105300000E4405440444ADF80060ADF80460ADF807
:105310000250ADF80640684611F0C2F806E0224699
:105320002946304605F0FCFB11F06EF80028F6D156
:1053300001F0C2FE7CBD00003002002070B50C46BA
:10534000054600F00DF910B10121C0E9001400F08C
:10535000E3F9284610F0DAFFBDE8704001F0ACBE7A
:1053600010B5002400E0012400F004F80028FAD170
:10537000204610BD094810B50068002410B18047D0
:1053800000B101240FF0B8FE00B101240448006808
:1053900010B1804700B10124204610BD5402002006
:1053A000500200202DE9FC411C4615460E460746DA
:1053B00000F0B2F910480068C16C006D0F4406445B
:1053C0000D440444ADF80070ADF80450ADF802602F
:1053D000ADF80640684611F063F807E023462A4618
:1053E0003146384605F0A0FC11F00EF80028F5D142
:1053F00001F062FEBDE8FC8130020020B0F9063009
:10540000B0F90420B0F90210B0F90000FFF7CABFEC
:1054100008B50B46002805D0009281888268C088B4
:1054200000F001F808BD10B50828029C30D008DC57
:1054300004FB01F401280AD0022813D0042804D167
:105440001CE0102828D020282CD0002010BD04EB10
:10545000D30003F00701105CC1F10701C84000F060
:10546000010010BD04EB93000621105C01EA43012A
:10547000C1F10601C84000F0030010BD04EB530069
:10548000D907105C02D000F00F0010BD000910BD5C
:1054900004FB0130105C10BD481004FB003032F8F2
:1054A000100010BD881004FB003052F8200010BD21
:1054B000034951F82000C1688A6A0821104700009A
:1054C0004802002010B500F027F905F05DFC05F05A
:1054D00043FD044601F0F0FD204610BD10B5044622
:1054E00000F01AF9054800210068C06942682046AA
:1054F0009047044601F0E0FD204610BD3002002038
:1055000070B50C46054600F007F9064821460068CC
:10551000C069426828469047044601F0CDFD204608
:1055200070BD000030020020002801D00FF042BE04
:10553000704710B500F0F0F805F02EFC05F00CFDFA
:10554000044601F0B9FD204610BD000000210228EC
:1055500002D2024951F8201008467047B0020020DC
:105560001FB500210191029103912A210091694602
:1055700010F050FC039804B010BD000010B500F00E
:10558000CBF803480068047C01F096FD204610BD6E
:105590003002002010B500F0BFF804480068C06970
:1055A000447E01F089FD204610BD0000300200203D
:1055B00070B50D46044600F0AFF814B9094800680C
:1055C000C469294694F82000A87094F82200287134
:1055D00094F82100E870A26820469047BDE870402A
:1055E00001F06ABD3002002010B500F095F802F01D
:1055F00097FB044601F060FD204610BD70B51446CF
:105600000D46064600F088F822462946304605F049
:1056100041FC10B1002028602060BDE8704001F01E
:105620004BBD70B50C46054600F076F8214628467D
:1056300002F0D4FBBDE8704001F03EBD10B5044659
:1056400002F0BEFB01462046BDE8104002F072BBEE
:1056500001F082BD10B5002400F05EF80B48006830
:1056600090F82C1001F00C01042904D0082906D070
:105670000C2907D103E0C069047E641E02E0C06902
:10568000007E440801F018FD204610BD30020020C5
:10569000017EC07E11FB00F070470000024951F806
:1056A000200000690068704748020020024951F854
:1056B00020000069406870474802002070B50D4620
:1056C000044600F029F8204619F04AFF044628460F
:1056D00019F04EFF044301F0EFFC204670BD0000BE
:1056E00010B501F03BFE0A492E20087001F03AFD8A
:1056F00008481AF059F905F0A0FC044600210846B4
:1057000000F0ECFF10F00AF9FEF7FEFC204610BD99
:10571000240200200401022070B5184CE06820B17A
:1057200001F012FD6168884204D001F049FD01F0EA
:105730000BFD6060E068401CE06001281CD119F09E
:1057400057FE05462068854216D0002813DBFFF778
:1057500097F901462068C0EB0012206900EBC202F5
:105760005167C5EB0511064A00EBC100011D116030
:10577000406FFFF779F9256070BD00000008002038
:10578000300200201CB5040004D10E480068046EED
:10579000002C16D0FFF7C0FF2046FEF725FE009034
:1057A00044696846FEF78AFE4CB12046FEF71CFEAF
:1057B000019081688968884701A8FEF77FFE01F0A3
:1057C0007BFC1CBD3002002001490A4600F002B8F3
:1057D00001F0FFFF2DE9F04387B015460C465FEA64
:1057E000000846D0FFF798FF002000F007FF814631
:1057F00021480068066E4046FEF7F6FD00900068FE
:10580000806900F075FE074640F6FF70C44204D17F
:105810000098B0F90440B0F906500098611E028962
:10582000ADF804401144ADF808104189681E0844E1
:10583000ADF80650ADF80A000FF05EFA6846FEF7C4
:105840003DFE01A810F02CFE06E02A462146404607
:1058500000F0D6FB10F0D8FD0028F6D1384600F055
:1058600047FE304600F0D8F9484600F0C7FE01F088
:1058700023FC07B0BDE8F083300200202DE9FE4F85
:10588000984691468A46834600270C9EFFF744FFC0
:10589000184819490068407C51F82040E1680968BF
:1058A000042903D02468002CF8D100E01CB9FFF7CC
:1058B0001BF904001BD0E0680121C26A2046904712
:1058C000050011D02469A0688047401C02D10B4C10
:1058D00046F001060096CDE9015443464A4651463A
:1058E000584600F02DFA074601F0E6FB3846BDE8C1
:1058F000FE8F00003002002048020020D8E3070895
:1059000038B504001CD0FFF707FF0E480068006E92
:10591000A04201D100F0DEFD2046FEF765FD0090BB
:10592000406908B101F0B1FB00980068FFF756F834
:105930006846FEF7C3FD2046FEF782FC01F0BCFB83
:1059400038BD0000300200202DE9FF4FDFF838910C
:10595000074683B0D9F800009A468B46447C4B48F2
:1059600000570128204606DD05F0BEFA0546204610
:1059700005F0C6FA05E005F0A6FA0546204605F052
:10598000A8FA04461FB302A901A8FFF74AFEB7F917
:105990000000002800DA0020B7F902608046002EDF
:1059A00000DA002601984119B7F90400491E1AF0DF
:1059B0000FFA054602980119B7F90600491E1AF0B8
:1059C00007FAA5EB0802841B521C641C03E04FF08D
:1059D000000846462A46BAF1000F01D1C4F1000A78
:1059E000002A4FDD002C4DDD1098009053463146C3
:1059F0004046FFF743FF5FEA000A10D000F0C6F808
:105A00000746A04206D0D9F80000806C10B13221C0
:105A100011F0ECF8504600F0FFF8002521E059465F
:105A200005988847012007B0BDE8F08F611BB94297
:105A300002DA504600F0D4F83DB1721941465046A2
:105A400000F012F95046FFF79DFE59460598884729
:105A50000F48016809B1002088475046FFF7B4FE9F
:105A60003D44A542E2DB5046FFF74AFF002000F02C
:105A7000D3F8A74206D0D9F80000806C10B13321CA
:105A800011F0B4F80020CEE73002002068020020B8
:105A90004008002038B505004FF0000411D0FFF792
:105AA0003BFE2846FEF7A0FC009000680069806875
:105AB000804706F067FC04466846FEF7FFFC01F0ED
:105AC000FBFA204638BD38B504000ED0FFF724FE9F
:105AD0002046FEF789FC00F1180400906846FEF7A6
