:020000040800F2
:10000000C010002079020008870200088902000859
:100010008B0200088D0200088F020008000000001B
:100020000000000000000000000000009102000835
:1000300093020008000000009502000897020008E3
:100040009902000899020008990200089902000824
:100050009902000899020008990200089902000814
:100060009902000899020008990200089902000804
:1000700099020008990200089902000899020008F4
:1000800099020008990200089902000899020008E4
:1000900099020008990200089902000899020008D4
:1000A00099020008990200089902000899020008C4
:1000B000990200086D510008990200089902000891
:1000C00099020008990200089902000899020008A4
:1000D0009902000869520008990200089902000874
:1000E0009902000899020008990200089902000884
:1000F0009902000899020008990200089902000874
:100100009902000899020008D951000899020008D4
:100110009902000899020008990200089902000853
:100120009902000899020008990200089902000843
:100130009902000899020008990200089902000833
:100140009902000899020008990200089902000823
:100150009902000899020008990200089902000813
:100160009902000899020008990200089902000803
:100170009902000899020008990200080000000096
:1001800099020008990200089902000899020008E3
:1001900099020008990200089902000899020008D3
:1001A00099020008990200089902000800F002F87C
:1001B00000F052F80AA090E8000C82448344AAF1AF
:1001C0000107DA4501D100F047F8AFF2090EBAE8AD
:1001D0000F0013F0010F18BFFB1A43F0010318477B
:1001E000F8A0000018A10000103A24BF78C878C118
:1001F000FAD8520724BF30C830C144BF04680C602D
:10020000704700000023002400250026103A28BF74
:1002100078C1FBD8520728BF30C148BF0B60704778
:10022000662905F03584642900F09480782900F06F
:10023000CD80732900F02B84002070471FB505F096
:1002400022FC00F03BFC04000020002105F056FADF
:10025000E0601FBD10B510BD00F030FD1146FFF786
:10026000EDFF05F0ABF800F04EFD03B4FFF7F2FF31
:1002700003BC05F044F800000B48016841F470012C
:1002800001600A480047FEE7FEE7FEE7FEE7FEE7FB
:10029000FEE7FEE7FEE7FEE7FEE70000044805494B
:1002A000034A054B7047000088ED00E0AD010008EF
:1002B000C0080020C0100020C008002070470000C7
:1002C0000FB4044910B503AA029800F0E5FB10BC76
:1002D0005DF814FB080000200FB41CB5074B06AAFC
:1002E0007B4469460090059800F0A7FB0020694612
:1002F00000F0B6FB1CBC5DF814FB00007D0700009D
:1003000070B50C460546012A05D02878800600D530
:10031000EA69002302E0012305E05B1C934202D25C
:10032000E05C0028F9D1A869E618C01AA861286A1B
:10033000184428622846AFF3008004E0D5E9012183
:1003400014F8010B9047B442F8D32846AFF300806D
:1003500070BD00002DE9F0410646002410687529A3
:10036000314616A510D0AFF30080002802DA4042D3
:1003700013A507E031688A0701D512A502E04907F5
:1003800004D511A5012401E0AFF3008000210A2269
:1003900006F1240709E0B0FBF2FCB0FBF2F302FB2C
:1003A0001C00303078541846491C0028F3D12346ED
:1003B0002A463046BDE8F04100F0D4B80000000005
:1003C0002D0000002B0000002000000070B5044646
:1003D0000D4621461068AFF300802188090502D53B
:1003E0000F4A7A4402E00E4A7A440E32002104F1A8
:1003F000240305E000F00F060009965D5E54491CD9
:100400000028F7D120780023000704D5702D02D0F2
:1004100009B1022311322046BDE8704000F0A2B8B5
:10042000229E00002DE9F05F894604464FF0000A45
:10043000DFF824B1FB44C0F820A02046E1688847DB
:1004400000287DD0252806D0D4E901219047206AD4
:10045000401C2062F1E700255F462046E16888479E
:100460002028064607DB312E05D2B81910F8200CDB
:1004700008B10543F1E7A80701D525F00405C4F844
:100480001CA00027C4F818A02A2E09D0304604F07A
:100490002FFF38B304EB8708303EC8F8186019E026
:1004A00059F8041B204604EB87029161E1688847F4
:1004B000012F064618D1E069002820DA25F0200532
:1004C0001DE0D8F8180000EB800006EB4000303843
:1004D000C8F818002046E1688847064604F008FF7F
:1004E0000028EED1012F0AD02E2E08D12046E16837
:1004F00088477F1C0646022F45F02005C4DBA06913
:10050000002803DA404245F00105A061E80701D068
:1005100025F01005A6B1A6F14100192802D8203611
:1005200045F400654A463146204625604D46FFF7B2
:1005300077FE60B1012807D0ED1D25F0070000E02F
:1005400007E000F1080978E705F1040975E730468E
:100550007AE7206ABDE8F09FF89D00007047704779
:10056000704770472DE9F0470D469946924604467C
:1005700000F124080168880604D5E06921F0100123
:10058000216000E00120A84201DD471B00E00027B8
:10059000A1697A1902EB0900081AA0612078C00647
:1005A00002D42046AFF30080002608E0D4E9012100
:1005B0001AF806009047206A401C761C20624E45BF
:1005C000F4DB2078C0060AD52046AFF3008006E0B1
:1005D000D4E9012130209047206A401C2062381E57
:1005E000A7F10107F4DC07E0D4E9012118F80500C0
:1005F0009047206A401C2062281EA5F10105F3DC0B
:100600002046AFF300802078000602D50220BDE826
:10061000F0870120FBE770472DE9FF4F0C461E468F
:100620004FF0FF378BB0D2E90001DDF860800A900F
:100630008A46C1F30A5505B93D46002108464FF0E8
:100640000000BAF1000F00F4400005DA00EB800072
:100650004FF4400101EA50004FEA9059B9F1010FFF
:1006600000DDB9460A9850EA4A000ED044F6105010
:10067000A5F2FF3545432F14B8F1000F1ED0754287
:10068000291E1EDDC9F100021CE0B8F1010F4FF078
:10069000000001D0302103E0F24305E02154401C6A
:1006A000B042FBDB30460022002121540B99C1F8F7
:1006B0000880C1E900200FB0BDE8F08FBD1B6D1CA4
:1006C000DEE74A4600DA694206A800F081FA06AB86
:1006D00093E8070003AB83E8070050460A9900F04F
:1006E0005BFB8DE80700A0F500501F3800900398D1
:1006F000002D09DD42F21F014A46084403A9039078
:10070000684600F0BAFD08E0A0F500504A461F38E0
:1007100003A90390684600F0C4FD8DE807000004BB
:10072000000C03D04FF0FF30410800E01046B8F154
:10073000000F03D00022009215461EE0751E05D45E
:1007400000F0C0F9303262556D1EF9D5B346012272
:10075000084302D000227F1C04E02078302801D119
:1007600000227F1E002A099786D01DE0112D07DA8E
:1007700000F0A8F9303262556D1C50EA0102F5D143
:10078000084302D00098C8B10EE00021681E05E0C1
:10079000235C625C63542254401E491C8142F7DB97
:1007A000AB46A81B401E0990002004F80B000B98D4
:1007B000099AC0F80880C0E9002B7CE711264FF0A9
:1007C000000859E72DE9F04F88460446D21D22F073
:1007D000070191B0D1E90001CDE90A0104F070FDF3
:1007E00002460B98C00F01D02D2007E0206881073A
:1007F00001D52B2002E0202101EAC000032A099044
:1008000001D0072A05DB03464146204600F0A0F947
:100810000BE12078800601D5E06900E00620B8F100
:10082000650F814606D0B8F1660F18D0B8F1670F92
:1008300070D131E00020B9F1110F009001DB1123DC
:1008400001E009F101030AAA01A90CA8FFF7E4FEDF
:10085000DDE90C70002609F10105834647E001201F
:100860004B4600904FF000470AAA01A90CA8FFF7D9
:10087000D3FEDDE90DB00C995D46002610B909F1F3
:1008800001000D18B9EB050003D4C0F1FF3609F1E2
:100890000105A5EB09002BE0B9F1010F01DA4FF0DA
:1008A00001090020B9F1110F0090484601DD112324
:1008B00000E003460AAA01A90CA8FFF7ADFEDDE996
:1008C0000C704D4600268346207800070AD4AB45BD
:1008D00000DA5D4601A8012D04DD411911F8011C63
:1008E000302907D04F4502DA17F1040F04DA01204E
:1008F00082460FE06D1EEEE7002F02DCED1B3E444A
:1009000003E0781CA84200DD7D1CB81B00F1010A41
:100910004FF000472078000703D4AA4501DB4FF0D1
:10092000FF3A0021B7F1004F0DF143088DF8431055
:1009300024D002202B23002F01DA7F422D230A210D
:10094000021EA0F1010000DC5FB197FBF1FC97FBF8
:10095000F1F201FB1C7C17460CF1300C08F801CDBC
:10096000EEE7A8F1010003702188090501D54521B2
:1009700000E06521A0F1010800F8011C09980FA909
:10098000A1EB0807FF1D00B10120411901EBEA703E
:10099000A1693844081A401EA0612078C00602D41C
:1009A0002046AFF30080099828B1D4E9012190478F
:1009B000206A401C20622078C00622D52046AFF372
:1009C00000801EE0002E04DBB34502DD01A8805D3F
:1009D00000E03020D4E901219047206A401C2062C9
:1009E000761CAAF101005FEA000A0AD100F066F85D
:1009F000C0680168405CD4E901219047206A401C2E
:100A00002062281EA5F10105DCDC07E0D4E9012104
:100A100018F8010B9047206A401C2062381EA7F18D
:100A20000107F3DC2046AFF30080032011B043E65A
:100A300001694A1C02610878704700B58FB0CDE9A2
:100A400001310021059105497944CDE90310114692
:100A50006846FFF7E7FC0FB000BD0000E5FFFFFFB1
:100A60000A6802F8010B0A60704710B5436913B1B8
:100A7000AFF3008001E0FFF743FC012010BD1278C6
:100A800000F124010A7000224A700122EDE711688A
:100A90004FF0FF32E9E70000074B70B50D467B448D
:100AA000FFF7CBFF0446284600F000F910B14FF0E5
:100AB000FF3070BD204670BD0749000000487047F8
:100AC0008008002030B5B0F10A024FEA900E71F1B3
:100AD00000034EEA817EB0EB0E0061EB91014FEA1C
:100AE000101E4EEA017E10EB0E0041EB11114FEA91
:100AF000102E4EEA016E10EB0E0041EB11214FEA71
:100B0000104E4EEA014E10EB0E0041EB1141401821
:100B100041F100014FEAD00040EA41704FEAD101B3
:100B200010EB80054FEA810444EA907444EB010421
:100B30006D1944EB0404521BA3414FF0000348BF5E
:100B40000A3200D530BD401C41F1000130BD00002B
:100B50002DE9F0411F46044603260168072A01F4E7
:100B6000006004DB08B116A505E016A503E008B196
:100B700015A500E015A521F010002060A069C01E99
:100B8000A0610FB1401EA0612046AFF300804FB1BD
:100B9000D4E9012138469047206A401C2062C01CDD
:100BA000206206E0206AFAE7D4E9012115F8010B7A
:100BB0009047761EF8D22046AFF30080BDE8F08162
:100BC0004E414E006E616E00494E4600696E6600F1
:100BD0002DE9F047814616468AB0334878440DC85F
:100BE0008DE80D0030487844801C03AC0DC884E8C3
:100BF0000D0041F69B300844372190FBF1F290FB49
:100C0000F1F5A5F1800501FB12041B3C02D56442FD
:100C1000012000E00020DFF890A080460027FA4481
:100C2000AAF1BE0A0DE0E00709D03246684607EB9C
:100C300047010AEB810100F034FB8DE807006410E6
:100C40007F1C002CEFD1184F7F44AC3F18E0E80721
:100C500014D007EB04100DF1180A90E80E008AE892
:100C60000E00C068F04201D198190890324606A9DA
:100C700003A800F016FB03AB83E807006D10641CAB
:100C8000002DE4D132466946B8F1000F03A802D026
:100C900000F0F3FA01E000F004FBC9E90001C9F833
:100CA00008200AB0BDE8F087E0960000007B00F065
:100CB0008000704700487047600800207546FFF7C5
:100CC000F9FFAE4605006946534620F00700854609
:100CD00018B020B5FFF7E2FABDE820404FF000065B
:100CE0004FF000074FF000084FF0000B21F0070114
:100CF000AC46ACE8C009ACE8C009ACE8C009ACE857
:100D0000C0098D46704710B50446AFF300802046F9
:100D1000BDE81040FFF7A9BA4FF0013C50F8042B92
:100D200051F8043B9A4221D1A2EB0C03934313EAFE
:100D3000CC1317D150F8042B51F8043B9A4215D12B
:100D4000A2EB0C03934313EACC130BD150F8042B02
:100D500051F8043B9A4209D1A2EB0C03934313EAE6
:100D6000CC13DBD04FF00000704700BFD01A01BA9F
:100D7000B1FA81F101F0180122FA01F0CB40C1F182
:100D80002001DBB2C0B2C01A2CFA01F3D11A914390
:100D900011EAC311E6D170475FEA400C08BF91F039
:100DA000000F4FEA8C234FEAC12243EA51514FEA28
:100DB0001C5018BF00F5F0404FEA300018BF41F05A
:100DC00000415FEA6C5C00F02980BCF1FF3F08BF86
:100DD00040F080407047130C06BF12044FF0100C17
:100DE0004FF0000C130E04BF12020CF1080C130F8D
:100DF00004BF12010CF1040C930F04BF92000CF11C
:100E0000020CD30F04BF52000CF1010C11464FF03D
:100E10000002A0F11F00A0EB0C00704711F0004F82
:100E200008BF704731F000413FF4D5AF0B0C06BF4F
:100E300009044FF0100C4FF0000C0B0E04BF090218
:100E40000CF1080C0B0F04BF09010CF1040C8B0F03
:100E500004BF89000CF1020CCB0F04BF49000CF158
:100E6000010CCCF12003A0EB0C0022FA03F302FAF0
:100E70000CF241EA030100F10100704720F07F4CC1
:100E800080EA030023F07F47ACEB070303F57C53B4
:100E900000F0004003F1FF032DE980494FEA154BB4
:100EA00009B44FEA144325EA0B4E24EA03480FF233
:100EB000042606EB132749083E785FEA320203FB5B
:100EC0000667C7F5000707FB06F64FEA54374FEAF7
:100ED000D64606F1020607FB066CCCF1005C4FEA31
:100EE0001C472CEA074C07FB06F40CFB06F504EB49
:100EF00015464FEA961634BF00204FF000404FEAE7
:100F0000D13706FB07FC4FEA1C4C0CFB0BF7D21B3E
:100F100003FB0CF761EB07010CFB0EF7B0EB07408E
:100F200072EB17420CFB08F734BFA2EB0742B2EB9F
:100F3000074261EB17414FEA0C444FEA910706FB69
:100F400007FC4FEA1C4C0CFB0BF7B0EBC74072EBF5
:100F5000573203FB0CF734BFA2EBC742B2EBC742D8
:100F600061EB57310CFB0EF7B0EBC70072EB577219
:100F70000CFB08F734BFA2EBC702B2EBC70261EB70
:100F80005771039F4FEA816141EA921104EBCC044F
:100F90004FEAD1374FEA826206FB07FC42EA901221
:100FA0004FEA80604FEA1C4C0CFB0BF7D21B03FB93
:100FB0000CF761EB07010CFB0EF7B0EB074072EB8F
:100FC00017420CFB08F734BFA2EB0742B2EB074213
:100FD00061EB17414FEA8C554FEA910704EB9C24D3
:100FE00006FB07FC4FEA1C4C0CFB0BF7B0EBC740B1
:100FF00072EB573203FB0CF734BFA2EBC742B2EBE4
:10100000C74261EB57310CFB0EF7B0EBC70072EB38
:1010100057720CFB08F734BFA2EBC702B2EBC70252
:1010200061EB577115EB4C254FEA816141EA921152
:101030004FEA82624FEAD13742EA901206FB07FC80
:1010400044F100044FEA80604FEA1C4C0CFB0BF7A4
:10105000D21B03FB0CF761EB07010CFB0EF7B0EBA7
:10106000074072EB17420CFB08F734BFA2EB0742B4
:10107000B2EB074261EB174115EB1C154FEA8131CA
:1010800041EA92414FEA823242EA90424FEA80308E
:101090004FEA0C7644F1000448EA03434EEA0B4859
:1010A0004FF0000EB2EB080C71EB030724BF624651
:1010B00039464EEB0E0E4FF0000B001852414941DD
:1010C0004BEB0B0BB2EB080C71EB03077BF1000B46
:1010D00024BF624639464EEB0E0E4FF0000B00184F
:1010E000524149414BEB0B0BB2EB080C71EB030780
:1010F0007BF1000B24BF624639464EEB0E0E51EADF
:10110000020718BF46F0010616EB0E7655F10002F5
:1011100054F1000103D5BDE88901BDE80088BDE8B0
:101120008901BDE80048B619524141EB0101A3F124
:101130000103704780807F7E7D7C7B7A797877762B
:1011400076757473727171706F6E6E6D6C6C6B6AA4
:101150006A69686867666665646463636261616042
:10116000605F5F5E5E5D5D5C5C5B5B5A5A595958BF
:101170005857575656555555545453535252525129
:10118000515050504F4F4F4E4E4D4D4D4C4C4C4B7F
:101190004B4B4A4A4A4949494848484747474746C6
:1011A0004646454545444444444343434342424202
:1011B00042414141002B26D4770021D01CB54FEA93
:1011C000370703B44FF010004FF010014FF000004C
:1011D0000FBCBDE810400BF1010BBBF1010F08BFC4
:1011E0005FEA170722BF12F1010211F101014FF06E
:1011F000004143F1000300F0004043EA0000704763
:10120000F9D35708DAE746EA064613F1400F4FEAEA
:1012100016461FDD13F1200FDFBF16430A460021DB
:1012200020335B42C8D0C3F1200746EA064602FAE3
:1012300007F74FEA164646EA0706C3F1200722FAE7
:1012400003F201FA07F721FA03F14FF0000342EA33
:101250000702B1E746EA020646EA06464FEA1646A4
:1012600046EA0106BCBF46EA0646360C4FF00003CC
:101270004FF000024FF000019EE72DE9C048934671
:1012800030B491E8380007C831EA400C48BF34EA6E
:10129000430C03D5FFF7F2FDFFF78CFFF0BCBDE870
:1012A00000882DE9C048934630B491E8380007C85B
:1012B00010F0804F08BF13F0804F03D100F005F805
:1012C000FFF778FFF0BCBDE8008820F07F4780EA98
:1012D000030023F07F4C07EB0C03A3F57C5300F0D5
:1012E0000040A3F1FE0392F0000F00F0B38095F0F0
:1012F000000F00F077802DE901494FEA11404FEAD5
:10130000144621EA004800FB06FC24EA064708FBD5
:1013100006F607FB08F800FB07F718EB06484CEB4E
:10132000164C4FEA124B18EB07484FEA15464CEBA8
:10133000174022EA0B4E0BFB06FC25EA06470EFB84
:1013400006F607FB0EFE0BFB07F71EEB064E4CEBFB
:10135000164C4FF000061EEB074E4CEB174B18EBEC
:101360000B0840F1000018EB0E0B58EB000840F1A1
:1013700000008F1A4FF000013CBFC943661B14BF29
:10138000B5EB040C00213CBFC943F61B4FEA1744E0
:101390004EEA8E0E27EA04454FEA1C4704FB07621B
:1013A0002CEA074C05FB07F70CFB05F604FB0CFCCD
:1013B00016EB074642EB174216EB0C4642EB1C427B
:1013C0001BEB060658EB0202414146EA9E0601D598
:1013D000BDE80189B619524141EB0101A3F10103B6
:1013E000BDE801894FEA14454FEA114724EA054652
:1013F00021EA074C05FB07F406FB07F70CFB06F197
:1014000005FB0CFC11EB074144EB17444FEA124774
:1014100011EB0C4144EB1C4422EA074C05FB07F29C
:1014200006FB07F70CFB06F605FB0CFC16EB074664
:1014300042EB174216EB0C4642EB1C456A1854F17E
:10144000000148BF7047B619524141EB0101A3F1B9
:101450000103704795F0000F37D04FEA11424FEA71
:10146000144721EA024624EA074C02FB07F106FB77
:1014700007F70CFB06F402FB0CFC14EB074441EBF2
:1014800017414FEA154714EB0C4441EB1C4125EA88
:10149000074C02FB07F506FB07F70CFB06F602FB01
:1014A0000CFC16EB074645EB174516EB0C4645EBD7
:1014B0001C42121951F1000148BF7047B619524140
:1014C00041EB0101A3F1010370474FEA14454FEAD4
:1014D000114724EA054621EA074C05FB07F106FB04
:1014E00007F70CFB06F24FF0000605FB0CFC12EBB5
:1014F000074241EB174112EB0C4251EB1C4148BF34
:101500007047921841EB0101A3F101037047CB082A
:1015100010B500EB8300036A4907C90E0F248C4005
:10152000A3430362036A8A401343036210BD2DE99B
:10153000F04F9946DDE909AC00234FF0010B4FF065
:10154000030E0BFA03F501EA0504AC422AD1076841
:101550005C000EFA04F6B7430760076802FA04F865
:1015600047EA08070760012A01D0022A12D18768DA
:10157000B7438760D0F808800AFA04F748EA0708FA
:10158000C0F808804768AF434760476809FA03F529
:101590002F434760C568B543C560C5680CFA04F4BD
:1015A0002543C5605B1C102BCBD3BDE8F08F00003A
:1015B0002DE9FF4F394D99462DED028B81B09246B2
:1015C00083469DED108A0024354E364F05F5807810
:1015D0005CE000214AE0A4EB090000EE100AB8EE3E
:1015E000481AA1EB0A00B8EEC00AF8EE481AB0EEAD
:1015F000002ADFED2E3AC0EE010A00EE100A0020AC
:10160000DFED2B2AB8EEC01A4FF0814381EE210A9C
:101610009FED251A15E020EEA01A20EE823A60EE2A
:10162000001AF0EE400AB0EE630A401C03EE200AF6
:1016300071EE610A31EE211AC0B27F2870EEA20A63
:1016400003D211EE102A9A42E5DB326842B135F836
:1016500010203888431A08EB430020F8022C03E0DE
:10166000144A35F810001080491C89B25945B2D38C
:10167000306848B1CDF8008038882346401E82B2D9
:101680001946002002F0A6FF641CA4B2049884420C
:101690009FD301B0BDEC028BBDE8FF8F2800002076
:1016A0004008002030080020000000000AD7233C3A
:1016B00085EB913E0000086030B500214FF6FF75C4
:1016C000CA02D30901EB41025202C2F3C714DB087C
:1016D000A4088A0205EAC32305EA4414C2F3C71228
:1016E000234403EBD20220F81120491C8029E7D3C0
:1016F00030BD00007CB51448016841F00101016073
:10170000016841F004010160016841F0800101605D
:1017100000240220CDE900402346224601210B4847
:10172000FFF705FF012500231A4669030848CDE9A4
:101730000045FFF7FCFE00231A460C210548CDE9C1
:101740000045FFF7F4FE7CBD303802400000024047
:1017500000080240001C02402DE9F041224C234EBB
:10176000234F244D012108B1217001E0207860B1A0
:10177000D5F80C0270B1D5F8080258B1D6F8340289
:1017800040B1D7F80002012804D0D5F80C02012896
:101790001CD027E00A2003F0C5FD00202070D5F8FA
:1017A0000C0250B1D5F8080250B1D6F8340248B155
:1017B000D7F80002012807D014E00120BDE8F0812D
:1017C0000220FBE70320F9E70420F7E7D5F8080239
:1017D000012807D1D6F83402012803D1D7F8000236
:1017E00000B921700020E9E70C0000200000414210
:1017F000000040420080434270B50E490E4A064642
:1018000008881268002422B13046BDE8704002F01A
:1018100095BE4D8800214543084602F07BFC02F04E
:101820005FFEB1B2054801E00180641CAC42FBD30D
:1018300070BD000030080020400800200000086053
:101840002DE9F05F394C3A4DA071296839B102F0A9
:1018500019FFE88A2080288B6080BDE8F09F33491B
:101860002C232A2589884FF0F00949F2413A2B268A
:1018700045F2105B4FF4305E4FF448774FF4A07898
:1018800045F2103C4FF4F07258B1A4F80080A4F86F
:101890000290514501D0614529D123816581A681FE
:1018A00039E0A4F80090A4F80280514501D06145C8
:1018B00008D123816581A681614531D1A4F80080DA
:1018C00062802DE0594508D1A4F808E04FF4285073
:1018D00060814FF42C50A08106E0A1F5C850633818
:1018E0001ED123816681A5812280678018E0594539
:1018F00008D1A4F808E04FF4285060814FF42C5030
:10190000A08106E0A1F5C850633804D12381658128
:10191000A68127806280614502D12280A4F80280DE
:10192000BDE8F05F002002F019BB00003008002085
:10193000400800202DE9F04104463A480D46006871
:1019400020B12046BDE8F04102F0B0BE364E270A75
:101950003146B0884989A0F513434FEA1528413B29
:101960000CD0A0F5A643103B08D0A0F5AA43103B2D
:1019700011D0A0F5C853633B27D04BE0084602F0D6
:10198000A3FD384602F094FDE0B202F091FDB0896B
:1019900002F09AFD38E0084602F096FD384602F063
:1019A00087FD7089401C80B202F08EFDE0B202F02B
:1019B0007FFDB08902F088FD404602F079FDB089D4
:1019C000401C80B202F080FD21E0B07918B9308867
:1019D000001B401E84B2084602F076FD270A3846F6
:1019E00002F066FDE0B202F063FD384602F060FDF1
:1019F000E0B202F05DFDB08902F066FD404602F003
:101A000057FDE8B202F054FD404602F051FDE8B245
:101A100002F04EFD054930890880881C0280BDE82F
:101A2000F08100004008002030080020FEFF076021
:101A30002DE9FC5F03F00CF9FE4D4FF0010B4FF068
:101A40002049A88045F2103645F2105441F663183B
:101A500018B102F09FFE02F01DBAF748016841F08C
:101A600002010160016841F018010160F24808308C
:101A7000016841F0010101600220CDE9000B5F46E1
:101A8000002301222021ED48FFF751FD4FF0030A0A
:101A9000CDE900A7002302224EF2B371E848FFF718
:101AA00046FDCDE900A7E74F002302224FF68071E3
:101AB0003846FFF73CFD0C220021E148FFF727FDE7
:101AC0000C220121DE48FFF722FD0C220421DC4814
:101AD000FFF71DFD0C220521D948FFF718FD0C2248
:101AE0000721D748FFF713FD0C220821D448FFF740
:101AF0000EFD0C220921D248FFF709FD0C220A2114
:101B0000CF48FFF704FD0C220D21CD48FFF7FFFC65
:101B10000C220E21CA48FFF7FAFC0C220F21C848FC
:101B2000FFF7F5FC0C2207213846FFF7F0FC0C22EA
:101B300008213846FFF7EBFC0C2209213846FFF755
:101B4000E6FC0C220A213846FFF7E1FC0C220B21AF
:101B50003846FFF7DCFC0C2211463846FFF7D7FC6D
:101B60000C220D213846FFF7D2FC0C220E213846FC
:101B7000FFF7CDFC0C220F213846FFF7C8FC0021EF
:101B80004846C9F80010C9F80410C9F80411D9F87A
:101B9000001041F48051C9F80010D9F8001041F448
:101BA0008041C9F80010D9F8001041F01001C9F8BF
:101BB0000010D9F80410C9F80410D9F8041041F045
:101BC0000F014160416841F48C414160D0F804113B
:101BD000C0F80411D0F8041141F00F01C0F804114D
:101BE000D0F8041141F47061C0F80411016841F0AB
:101BF00001010160322003F095FBD32002F064FC68
:101C000002F07AF9A88002F077F9A88002F074F95E
:101C10004FF6FF7202EA0020A88002F06DF9A98851
:101C200049F241370843A880B84248D0D42002F096
:101C30004BFC02F061F9A88002F05EF9A88002F086
:101C40005BF902EA0020A88002F056F9A98808434F
:101C5000A880B04233D04FF45A4002F035FC02F075
:101C60004BF9A8804FF45B4002F02EFC02F044F9DF
:101C700002EA0020A8804FF45C4002F025FC02F04C
:101C80003BF9A9880843A880B0F5004F7DD0A04259
:101C900015D0A12002F018FC02F02EF9A88002F065
:101CA0002BF902EA0020A88002F026F9A98808434F
:101CB000A0F5AE41A880613901D1A5F80480A988BA
:101CC00061A0FEF7FDFAA888B8427DD1CF2002F0CE
:101CD000FBFB002002F0ECFBC12002F0E9FB30200E
:101CE00002F0E6FBED2002F0EFFB642002F0E0FBE7
:101CF000032002F0DDFB122002F0DAFB812002F06B
:101D0000D7FBE82002F0E0FB852002F0D1FB102099
:101D100002F0CEFB7A2002F0CBFBCB2002F0D4FB0A
:101D2000392002F0C5FB2C2002F0C2FB002002F09B
:101D3000BFFB342002F0BCFB022002F0B9FBF7200D
:101D400002F0C2FB202002F0B3FBEA2002F0BCFB51
:101D5000002002F0ADFB002002F0AAFBC02002F040
:101D6000B3FB1B2002F0A4FBC12002F0ADFB01205D
:101D700002F09EFBC52002F0A7FB302002F098FB8A
:101D8000302002F095FBC72000E0CAE002F09CFB87
:101D9000B72002F08DFB362002F096FB482002F0BF
:101DA00087FB3A2002F090FB552002F081FBB12026
:101DB00002F08AFB002002F07BFB1A2002F078FB85
:101DC000B62002F081FB00E0ADE00A2002F070FBDB
:101DD000A22002F06DFBF22002F076FB002002F060
:101DE00067FB262002F070FB012002F061FBE0207F
:101DF00002F06AFB0F2002F05BFB2A2002F058FB86
:101E0000282002F055FB082002F052FB0E2002F0C1
:101E10004FFB082002F04CFB542002F049FBA920A4
:101E200002F046FB432002F043FB0A2002F040FB95
:101E30000F2011E03008002030380240000402403A
:101E4000000C024000100240204C43442049443A18
:101E500025780D0A0000000002F02AFB002002F0A5
:101E600027FB002002F024FB002002F021FB0020D1
:101E700002F01EFBE12002F027FB002002F018FB1D
:101E8000152002F015FB172002F012FB072002F0CC
:101E90000FFB112002F00CFB062002F009FB2B20A7
:101EA00002F006FB562002F003FB3C2002F000FB90
:101EB000052002F0FDFA102002F0FAFA0F2002F0DD
:101EC000F7FA3F2002F0F4FA3F2002F0F1FA0F2077
:101ED00002F0EEFA2B2002F0F7FA002002F0E8FA06
:101EE000002002F0E5FA012002F0E2FA3F2002F0C1
:101EF000DFFA2A2002F0E8FA002002F0D9FA0020E6
:101F000002F0D6FA002002F0D3FAEF2002F0D0FA65
:101F1000112002F0D9FA782003F004FA292001F008
:101F2000FCBEAC80CBE6B0427ED1ED2002F0CCFA14
:101F3000012002F0BDFAFE2002F0BAFAEE2002F013
:101F4000C3FADE2002F0B4FA212002F0B1FAF12047
:101F500002F0BAFA012002F0ABFADF2002F0B4FA84
:101F6000102002F0A5FAC42002F0AEFA8F2002F091
:101F70009FFAC62002F0A8FA002002F099FAE220A7
:101F800002F096FAE22002F093FAE22002F090FAD0
:101F9000BF2002F099FAAA2002F08AFAB02002F0DB
:101FA00093FA0D2002F084FA002002F081FA0D204D
:101FB00002F07EFA002002F07BFA112002F078FA9B
:101FC000002002F075FA192002F072FA002002F0E7
:101FD0006FFA212002F06CFA002002F069FA2D203D
:101FE00002F066FA002002F063FA3D2002F060FA87
:101FF000002002F05DFA5D2002F05AFA002002F0A3
:1020000057FA5D2002F054FA002002F051FAB12094
:1020100002F05AFA802002F04BFA002002F048FA4F
:102020008B2002F045FA00E0FDE3002002F040FAC8
:10203000962002F03DFA002002F03AFAB22002F0B7
:1020400043FA002002F034FA002002F031FA0220B4
:1020500002F02EFA002002F02BFA032002F028FAF8
:10206000002002F025FAB32002F02EFA002002F040
:102070001FFA002002F01CFA002002F019FA0020DA
:1020800002F016FA002002F013FA002002F010FA13
:10209000002002F00DFA002002F00AFA002002F0FF
:1020A00007FA002002F004FA002002F001FA0020F2
:1020B00002F0FEF9002002F0FBF9002002F0F8F92E
:1020C000002002F0F5F9002002F0F2F9002002F001
:1020D000EFF9002002F0ECF9002002F0E9F900200D
:1020E00002F0E6F9002002F0E3F9002002F0E0F946
:1020F000002002F0DDF9002002F0DAF9B42002F04D
:10210000E3F98B2002F0D4F9002002F0D1F99620F7
:1021100002F0CEF9002002F0CBF9A12002F0C8F9BC
:10212000002002F0C5F9B52002F0CEF9022002F03D
:10213000BFF9002002F0BCF9032002F0B9F9002039
:1021400002F0B6F9042002F0B3F9002002F0B0F971
:10215000B62002F0B9F9002002F0AAF9002002F03E
:10216000A7F9B72002F0B0F9002002F0A1F9002091
:1021700002F09EF93F2002F09BF9002002F098F94E
:102180005E2002F095F9002002F092F9642002F03E
:102190008FF9002002F08CF98C2002F089F90020E0
:1021A00002F086F9AC2002F083F9002002F080F9F9
:1021B000DC2002F07DF9002002F07AF9702002F0B4
:1021C00077F9002002F074F9902002F071F90020F4
:1021D00002F06EF9EB2002F06BF9002002F068F9D2
:1021E000DC2002F065F9002002F062F9B82002F06C
:1021F0006BF9002002F05CF9002002F059F9002090
:1022000002F056F9002002F053F9002002F050F9D4
:10221000002002F04DF9002002F04AF9002002F0FF
:1022200047F9BA2002F050F9242002F041F90020C9
:1022300002F03EF9002002F03BF9002002F038F9EC
:10224000C12002F041F9202002F032F9002002F012
:102250002FF9542002F02CF9002002F029F9FF2078
:1022600002F026F9002002F023F9C22002F02CF936
:102270000A2002F01DF9002002F01AF9042002F0F1
:1022800017F9002002F014F9C32002F01DF93C20D8
:1022900002F00EF9002002F00BF93A2002F008F9E2
:1022A000002002F005F9392002F002F9002002F0C6
:1022B000FFF8372002F0FCF8002002F0F9F83C208B
:1022C00002F0F6F8002002F0F3F8362002F0F0F801
:1022D000002002F0EDF8322002F0EAF8002002F0CF
:1022E000E7F82F2002F0E4F8002002F0E1F82C20BB
:1022F00002F0DEF8002002F0DBF8292002F0D8F826
:10230000002002F0D5F8262002F0D2F8002002F0DA
:10231000CFF8242002F0CCF8002002F0C9F82420E5
:1023200002F0C6F8002002F0C3F8232002F0C0F843
:10233000002002F0BDF83C2002F0BAF8002002F0C4
:10234000B7F8362002F0B4F8002002F0B1F83220DD
:1023500002F0AEF8002002F0ABF82F2002F0A8F84F
:10236000002002F0A5F82C2002F0A2F8002002F0D4
:102370009FF8292002F09CF8002002F099F826200E
:1023800002F096F8002002F093F8242002F090F872
:10239000002002F08DF8242002F08AF8002002F0DC
:1023A00087F8232002F084F8002002F081F8C4208E
:1023B00002F08AF8622002F07BF8002002F078F840
:1023C000052002F075F8002002F072F8842002F077
:1023D0006FF8002002F06CF8F02002F069F800209D
:1023E00002F066F8182002F063F8002002F060F8AE
:1023F000A42002F05DF8002002F05AF8182002F044
:1024000057F8002002F054F8502002F051F8002054
:1024100002F04EF80C2002F04BF8002002F048F8D1
:10242000172002F045F8002002F042F8952002F053
:102430003FF8002002F03CF8F32002F039F80020C9
:1024400002F036F8E62002F033F8002002F030F80F
:10245000C52002F039F8322002F02AF8002002F0FC
:1024600027F8442002F024F8002002F021F865202B
:1024700002F01EF8002002F01BF8762002F018F897
:10248000002002F015F8882002F012F8002002F077
:102490000FF8C62002F018F8202002F009F80020FA
:1024A00002F006F8172002F003F8002002F000F80E
:1024B000012001F0FDFF002001F0FAFFC72002F02B
:1024C00003F8002001F0F4FF002001F0F1FF0020EC
:1024D00001F0EEFF002001F0EBFFC82001F0F4FF57
:1024E000002001F0E5FF002001F0E2FF002001F0F4
:1024F000DFFF002001F0DCFFC92001F0E5FF002034
:1025000001F0D6FF002001F0D3FF002001F0D0FF42
:10251000002001F0CDFF002001F0CAFF002001F0F3
:10252000C7FF002001F0C4FF002001F0C1FF002020
:1025300001F0BEFF002001F0BBFF002001F0B8FF5A
:10254000002001F0B5FF002001F0B2FF002001F0F3
:10255000AFFF002001F0ACFF002001F0A9FFE02058
:1025600001F0B2FF162001F0A3FF002001F0A0FF50
:102570001C2001F09DFF002001F09AFF212001F0B6
:1025800097FF002001F094FF362001F091FF00201A
:1025900001F08EFF462001F08BFF002001F088FF44
:1025A000522001F085FF002001F082FF642001F03D
:1025B0007FFF002001F07CFF7A2001F079FF0020EE
:1025C00001F076FF8B2001F073FF002001F070FF17
:1025D000992001F06DFF002001F06AFFA82001F0B2
:1025E00067FF002001F064FFB92001F061FF0020C7
:1025F00001F05EFFC42001F05BFF002001F058FFF6
:10260000CA2001F055FF002001F052FFD22001F056
:102610004FFF002001F04CFFD92001F049FF0020BE
:1026200001F046FFE02001F043FF002001F040FFF1
:10263000F32001F03DFF002001F03AFFE12001F01E
:1026400043FF162001F034FF002001F031FF1C2071
:1026500001F02EFF002001F02BFF222001F028FFC7
:10266000002001F025FF362001F022FF002001F0BC
:102670001FFF452001F01CFF002001F019FF522030
:1026800001F016FF002001F013FF642001F010FF9D
:10269000002001F00DFF7A2001F00AFF002001F078
:1026A00007FF8B2001F004FF002001F001FF9920BB
:1026B00001F0FEFE002001F0FBFEA82001F0F8FE74
:1026C000002001F0F5FEB92001F0F2FE002001F03B
:1026D000EFFEC42001F0ECFE002001F0E9FECA206C
:1026E00001F0E6FE002001F0E3FED22001F0E0FE62
:1026F000002001F0DDFED82001F0DAFE002001F01C
:10270000D7FEE02001F0D4FE002001F0D1FEF3203E
:1027100001F0CEFE002001F0CBFEE22001F0D4FE5D
:10272000052001F0C5FE002001F0C2FE0B2001F0E3
:10273000BFFE002001F0BCFE1B2001F0B9FE00200E
:1027400001F0B6FE342001F0B3FE002001F0B0FE2F
:10275000442001F0ADFE002001F0AAFE4F2001F060
:10276000A7FE002001F0A4FE612001F0A1FE0020E0
:1027700001F09EFE792001F09BFE002001F098FE02
:10278000882001F095FE002001F092FE972001F0D4
:102790008FFE002001F08CFEA62001F089FE0020B3
:1027A00001F086FEB72001F083FE002001F080FEDC
:1027B000C22001F07DFE002001F07AFEC72001F06A
:1027C00077FE002001F074FED12001F071FE0020A0
:1027D00001F06EFED62001F06BFE002001F068FED5
:1027E000DD2001F065FE002001F062FEF32001F023
:1027F0005FFE002001F05CFEE32001F065FE052095
:1028000001F056FE002001F053FE0A2001F050FEB8
:10281000002001F04DFE1C2001F04AFE002001F0D6
:1028200047FE332000E0FAE201F042FE002001F012
:102830003FFE442001F03CFE002001F039FE502014
:1028400001F036FE002001F033FE622001F030FE80
:10285000002001F02DFE782001F02AFE002001F07A
:1028600027FE882001F024FE002001F021FE9720A1
:1028700001F01EFE002001F01BFEA62001F018FE54
:10288000002001F015FEB72001F012FE002001F03B
:102890000FFEC22001F00CFE002001F009FEC7204F
:1028A00001F006FE002001F003FED12001F000FE41
:1028B000002001F0FDFDD52001F0FAFD002001F01F
:1028C000F7FDDD2001F0F4FD002001F0F1FDF32023
:1028D00001F0EEFD002001F0EBFDE42001F0F4FD3D
:1028E000012001F0E5FD002001F0E2FD012001F0F2
:1028F000DFFD002001F0DCFD022001F0D9FD002009
:1029000001F0D6FD2A2001F0D3FD002001F0D0FD1A
:102910003C2001F0CDFD002001F0CAFD4B2001F06C
:10292000C7FD002001F0C4FD5D2001F0C1FD0020C5
:1029300001F0BEFD742001F0BBFD002001F0B8FDE8
:10294000842001F0B5FD002001F0B2FD932001F0DC
:10295000AFFD002001F0ACFDA22001F0A9FD002098
:1029600001F0A6FDB32001F0A3FD002001F0A0FDC1
:10297000BE2001F09DFD002001F09AFDC42001F071
:1029800097FD002001F094FDCD2001F091FD002085
:1029900001F08EFDD32001F08BFD002001F088FDB9
:1029A000DD2001F085FD002001F082FDF32001F023
:1029B0007FFD002001F07CFDE52001F085FD002079
:1029C00001F076FD002001F073FD002001F070FDA4
:1029D000002001F06DFD022001F06AFD002001F0F1
:1029E00067FD292001F064FD002001F061FD3C201D
:1029F00001F05EFD002001F05BFD4B2001F058FD71
:102A0000002001F055FD5D2001F052FD002001F095
:102A10004FFD742001F04CFD002001F049FD8420A1
:102A200001F046FD002001F043FD932001F040FD40
:102A3000002001F03DFDA22001F03AFD002001F050
:102A400037FDB32001F034FD002001F031FDBE2040
:102A500001F02EFD002001F02BFDC42001F028FD27
:102A6000002001F025FDCD2001F022FD002001F025
:102A70001FFDD32001F01CFD002001F019FDDC201A
:102A800001F016FD002001F013FDF32001F010FD10
:102A9000002001F00DFDE62001F016FD112001F0EF
:102AA00007FD002001F004FD342001F001FD0020AD
:102AB00001F0FEFC562001F0FBFC002001F0F8FCC8
:102AC000762001F0F5FC002001F0F2FC772001F007
:102AD000EFFC002001F0ECFC662001F0E9FC002096
:102AE00001F0E6FC882001F0E3FC002001F0E0FCAE
:102AF000992001F0DDFC002001F0DAFCBB2001F0A0
:102B0000D7FC002001F0D4FC992001F0D1FC00207A
:102B100001F0CEFC662001F0CBFC002001F0C8FCE7
:102B2000552001F0C5FC002001F0C2FC552001F049
:102B3000BFFC002001F0BCFC452001F0B9FC0020E6
:102B400001F0B6FC432001F0B3FC002001F0B0FC22
:102B5000442001F0ADFC002001F0AAFCE72001F0C8
:102B6000B3FC322001F0A4FC002001F0A1FC5520B0
:102B700001F09EFC002001F09BFC762001F098FC07
:102B8000002001F095FC662001F092FC002001F08D
:102B90008FFC672001F08CFC002001F089FC67208D
:102BA00001F086FC002001F083FC872001F080FC0E
:102BB000002001F07DFC992001F07AFC002001F05A
:102BC00077FCBB2001F074FC002001F071FC99201F
:102BD00001F06EFC002001F06BFC772001F068FC36
:102BE000002001F065FC442001F062FC002001F0AF
:102BF0005FFC562001F05CFC002001F059FC232012
:102C000001F056FC002001F053FC332001F050FC91
:102C1000002001F04DFC452001F04AFC002001F0AD
:102C200047FCE82001F050FC002001F041FC0020AE
:102C300001F03EFC992001F03BFC002001F038FC43
:102C4000872001F035FC002001F032FC882001F0E3
:102C50002FFC002001F02CFC772001F029FC002043
:102C600001F026FC662001F023FC002001F020FC8E
:102C7000882001F01DFC002001F01AFCAA2001F0C0
:102C800017FC002001F014FCBB2001F011FC002017
:102C900001F00EFC992001F00BFC002001F008FC73
:102CA000662001F005FC002001F002FC552001F037
:102CB000FFFB002001F0FCFB552001F0F9FB002098
:102CC00001F0F6FB442001F0F3FB002001F0F0FBE3
:102CD000442001F0EDFB002001F0EAFB552001F05B
:102CE000E7FB002001F0E4FBE92001F0EDFBAA2066
:102CF00001F0DEFB002001F0DBFB002001F0D8FB3F
:102D0000002001F0D5FB002001F0DEFBAA2001F03D
:102D1000CFFBCF2001F0D8FB002001F0C9FB002041
:102D200001F0C6FB002001F0C3FB002001F0C0FB56
:102D3000002001F0BDFB002001F0BAFB002001F0F3
:102D4000B7FB002001F0B4FB002001F0B1FB002034
:102D500001F0AEFB002001F0ABFB002001F0A8FB6E
:102D6000002001F0A5FB002001F0A2FB002001F0F3
:102D70009FFB002001F09CFB002001F099FBF0205C
:102D800001F0A2FB002001F093FB502001F090FB2A
:102D9000002001F08DFB002001F08AFB002001F0F3
:102DA00087FBF32001F090FB002001F081FBF9206C
:102DB00001F08AFB062001F07BFB102001F078FB7C
:102DC000292001F075FB002001F072FB3A2001F090
:102DD0007BFB552001F06CFB112001F075FB64209A
:102DE00002F0A0FA292001F06FFB352001F06CFB06
:102DF000002001F05DFB512001F066FBFF2001F097
:102E000057FB532001F060FB2C2001F051FB5520B3
:102E100001F05AFB822001F04BFB2C20FDE3A04285
:102E20007ED14FF470435521184601F063FB4FF2F9
:102E30000107AA21384601F05DFB4FF2020A522138
:102E4000504601F057FB0821B81C01F053FB01214B
:102E5000F81C01F04FFB0D214FF4304001F04AFB0C
:102E60000D214BF2010001F045FB0D214BF2020058
:102E700001F040FB34214FF4364001F03BFB34219C
:102E80004BF2016001F036FB34214BF2026001F09D
:102E900031FB0D214FF4314001F02CFB0D214BF2A1
:102EA000011001F027FB0D214BF2021001F022FB73
:102EB00034214FF4374001F01DFB34214BF20170F7
:102EC00001F018FB34214BF2027001F013FB0021DA
:102ED0004FF4324001F00EFB00214BF2012001F0D3
:102EE00009FB00214BF2022001F004FB24214FF4E6
:102EF000384001F0FFFA24214BF6010001F0FAFA04
:102F000024214BF6020001F0F5FA01214FF43F4075
:102F100001F0F0FA0F214FF4334001F0EBFA00E03A
:102F2000FEE30F214BF2013001F0E4FA0F214BF2E6
:102F3000023001F0DFFA34214FF4394001F0DAFABF
:102F400034214BF6011001F0D5FA34214BF6021072
:102F500001F0D0FA08214FF4354001F0CBFA0821F6
:102F60004BF2015001F0C6FA08214BF2025001F079
:102F7000C1FA03214FF4424001F0BCFA24214FF47E
:102F80003A4001F0B7FA24214BF6012001F0B2FAE1
:102F900024214BF6022001F0ADFA00214FF43C4011
:102FA00001F0A8FA78214BF6014001F0A3FA0021C4
:102FB0004BF6024001F09EFA00214FF43D4001F033
:102FC00099FA78214BF6015001F094FA00214BF662
:102FD000025001F08FFA00214FF43E4001F08AFACE
:102FE00064214BF6016001F085FA00214FF4514055
:102FF00001F080FA33214DF2011001F07BFA00213B
:103000004DF2021001F076FA34214DF2031001F076
:1030100071FA00214DF2041001F06CFA3A214DF2E0
:10302000051001F067FA00214DF2061001F062FA76
:103030004A214DF2071001F05DFA00214DF208100F
:1030400001F058FA5C214DF2091001F053FA002109
:103050004DF20A1001F04EFA81214DF20B1001F0F1
:1030600049FA00214DF20C1001F044FAA6214DF26C
:103070000D1001F03FFA00214DF20E1001F03AFA66
:10308000E5214DF20F1001F035FA01214DF210103B
:1030900001F030FA13214DF2111001F02BFA012149
:1030A0004DF2121001F026FA54214DF2131001F0E6
:1030B00021FA01214DF2141001F01CFA82214DF287
:1030C000151001F017FA01214DF2161001F012FA55
:1030D000CA214DF2171001F00DFA02214DF218101D
:1030E00001F008FA00214DF2191001F003FA022153
:1030F0004DF21A1001F0FEF901214DF21B1001F002
:10310000F9F902214DF21C1001F0F4F934214DF2CD
:103110001D1001F0EFF902214DF21E1001F0EAF945
:1031200067214DF21F1001F0E5F902214DF2201048
:1031300001F0E0F984214DF2211001F0DBF90221C8
:103140004DF2221001F0D6F9A4214DF2231001F026
:10315000D1F902214DF2241001F0CCF9B7214DF242
:10316000251001F0C7F902214DF2261001F0C2F935
:10317000CF214DF2271001F0BDF902214DF22810A8
:1031800001F0B8F9DE214DF2291001F0B3F9022166
:103190004DF22A1001F0AEF9F2214DF22B1001F0A0
:1031A000A9F902214DF22C1001F0A4F9FE214DF2F3
:1031B0002D1001F09FF903214DF22E1001F09AF924
:1031C00010214DF22F1001F095F903214DF230102E
:1031D00001F090F933214DF2311001F08BF9032108
:1031E0004DF2321001F086F96D214DF2331001F0ED
:1031F00081F900214FF4524001F07CF933214DF266
:10320000012001F077F900214DF2022001F072F95E
:1032100034214DF2032001F06DF900214DF204201C
:1032200001F068F93A214DF2052001F063F900211F
:103230004DF2062001F05EF94A214DF2072001F01F
:1032400059F900214DF2082001F054F95C214DF2AA
:10325000092001F04FF900214DF20A2001F04AF94E
:1032600081214DF20B2001F045F900214DF20C2097
:1032700001F040F9A6214DF20D2001F03BF90021AB
:103280004DF20E2001F036F9E5214DF20F2001F04C
:1032900031F901214DF2102001F02CF913214DF2EA
:1032A000112001F027F901214DF2122001F022F93D
:1032B00054214DF2132001F01DF901214DF214208B
:1032C00001F018F982214DF2152001F013F90121C6
:1032D0004DF2162001F00EF9CA214DF2172001F02F
:1032E00009F902214DF2182001F004F900214DF2F4
:1032F000192001F0FFF802214DF21A2001F0FAF82E
:1033000001214DF21B2001F0F5F802214DF21C20A5
:1033100001F0F0F834214DF21D2001F0EBF802210C
:103320004DF21E2001F0E6F867214DF21F2001F05A
:10333000E1F802214DF2202001F0DCF884214DF269
:10334000212001F0D7F802214DF2222001F0D2F81D
:10335000A4214DF2232001F0CDF802214DF22420CA
:1033600001F0C8F8B7214DF2252001F0C3F8022181
:103370004DF2262001F0BEF8CF214DF2272001F0BA
:10338000B9F802214DF2282001F0B4F8DE214DF207
:10339000292001F0AFF802214DF22A2001F0AAF80D
:1033A000F2214DF22B2001F0A5F802214DF22C2044
:1033B00001F0A0F8FE214DF22D2001F09BF8032131
:1033C0004DF22E2001F096F810214DF22F2001F041
:1033D00091F803214DF2302001F08CF833214DF2A9
:1033E000312001F087F803214DF2322001F082F8FC
:1033F0006D214DF2332001F07DF800214FF4534050
:1034000001F078F833214DF2013001F073F800211A
:103410004DF2023001F06EF834214DF2033001F02C
:1034200069F800214DF2043001F064F83A214DF2C0
:10343000053001F05FF800214DF2063001F05AF836
:103440004A214DF2073001F055F800214DF20830C5
:1034500001F050F85C214DF2093001F04BF80021E9
:103460004DF20A3001F046F881214DF20B3001F0A7
:1034700041F800214DF20C3001F03CF8A6214DF24C
:103480000D3001F037F800214DF20E3001F032F826
:10349000E5214DF20F3001F02DF801214DF21030F1
:1034A00001F028F813214DF2113001F023F8012129
:1034B0004DF2123001F01EF854214DF2133001F09C
:1034C00019F801214DF2143001F014F882214DF267
:1034D000153001F00FF801214DF2163001F00AF815
:1034E000CA214DF2173001F005F802214DF21830D3
:1034F00001F000F800214DF2193000F0FBFF02212D
:103500004DF21A3000F0F6FF01214DF21B3000F0B1
:10351000F1FF02214DF21C3000F0ECFF34214DF29E
:103520001D3000F0E7FF02214DF21E3000F0E2FFF7
:1035300067214DF21F3000F0DDFF02214DF22030F7
:1035400000F0D8FF84214DF2213000F0D3FF02219A
:103550004DF2223000F0CEFFA4214DF2233000F0D6
:10356000C9FF02214DF2243000F0C4FFB7214DF213
:10357000253000F0BFFF02214DF2263000F0BAFFE7
:10358000CF214DF2273000F0B5FF02214DF2283057
:1035900000F0B0FFDE214DF2293000F0ABFF022138
:1035A0004DF22A3000F0A6FFF2214DF22B3000F050
:1035B000A1FF02214DF22C3000F09CFFFE214DF2C4
:1035C0002D3000F097FF03214DF22E3000F092FFD6
:1035D00010214DF22F3000F08DFF03214DF23030DD
:1035E00000F088FF33214DF2313000F083FF0321DA
:1035F0004DF2323000F07EFF6D214DF2333000F09D
:1036000079FF00214FF4544000F074FF33214DF254
:10361000014000F06FFF002100E07EE34DF2024028
:1036200000F068FF34214DF2034000F063FF0021F9
:103630004DF2044000F05EFF3A214DF2054000F0EB
:1036400059FF00214DF2064000F054FF4A214DF28F
:10365000074000F04FFF00214DF2084000F04AFF04
:103660005C214DF2094000F045FF00214DF20A4077
:1036700000F040FF81214DF20B4000F03BFF0021A4
:103680004DF20C4000F036FFA6214DF20D4000F047
:1036900031FF00214DF20E4000F02CFFE5214DF2EC
:1036A0000F4000F027FF01214DF2104000F022FFF3
:1036B00013214DF2114000F01DFF01214DF2124087
:1036C00000F018FF54214DF2134000F013FF0121C8
:1036D0004DF2144000F00EFF82214DF2154000F033
:1036E00009FF01214DF2164000F004FFCA214DF2FE
:1036F000174000F0FFFE02214DF2184000F0FAFEE4
:1037000000214DF2194000F0F5FE02214DF21A4061
:1037100000F0F0FE01214DF21B4000F0EBFE00E056
:10372000FEE202214DF21C4000F0E4FE34214DF295
:103730001D4000F0DFFE02214DF21E4000F0DAFED7
:1037400067214DF21F4000F0D5FE02214DF22040CE
:1037500000F0D0FE84214DF2214000F0CBFE02218A
:103760004DF2224000F0C6FEA4214DF2234000F0AD
:10377000C1FE02214DF2244000F0BCFEB7214DF203
:10378000254000F0B7FE02214DF2264000F0B2FEC7
:10379000CF214DF2274000F0ADFE02214DF228402E
:1037A00000F0A8FEDE214DF2294000F0A3FE022128
:1037B0004DF22A4000F09EFEF2214DF22B4000F027
:1037C00099FE02214DF22C4000F094FEFE214DF2B4
:1037D0002D4000F08FFE03214DF22E4000F08AFEB6
:1037E00010214DF22F4000F085FE03214DF23040B4
:1037F00000F080FE33214DF2314000F07BFE0321CA
:103800004DF2324000F076FE6D214DF2334000F073
:1038100071FE00214FF4554000F06CFE33214DF253
:10382000015000F067FE00214DF2025000F062FEF0
:1038300034214DF2035000F05DFE00214DF20450A2
:1038400000F058FE3A214DF2055000F053FE0021E1
:103850004DF2065000F04EFE4A214DF2075000F0A6
:1038600049FE00214DF2085000F044FE5C214DF26B
:10387000095000F03FFE00214DF20A5000F03AFEE0
:1038800081214DF20B5000F035FE00214DF20C501D
:1038900000F030FEA6214DF20D5000F02BFE00216D
:1038A0004DF20E5000F026FEE5214DF20F5000F0D3
:1038B00021FE01214DF2105000F01CFE13214DF2AB
:1038C000115000F017FE01214DF2125000F012FECF
:1038D00054214DF2135000F00DFE01214DF2145011
:1038E00000F008FE82214DF2155000F003FE012188
:1038F0004DF2165000F0FEFDCA214DF2175000F0B7
:10390000F9FD02214DF2185000F0F4FD00214DF2B6
:10391000195000F0EFFD02214DF21A5000F0EAFDBF
:1039200001214DF21B5000F0E5FD02214DF21C502B
:1039300000F0E0FD34214DF21D5000F0DBFD0221CE
:103940004DF21E5000F0D6FD67214DF21F5000F0E1
:10395000D1FD02214DF2205000F0CCFD84214DF22A
:10396000215000F0C7FD02214DF2225000F0C2FDAF
:10397000A4214DF2235000F0BDFD02214DF2245050
:1039800000F0B8FDB7214DF2255000F0B3FD022143
:103990004DF2265000F0AEFDCF214DF2275000F041
:1039A000A9FD02214DF2285000F0A4FDDE214DF2C8
:1039B000295000F09FFD02214DF22A5000F09AFD9F
:1039C000F2214DF22B5000F095FD02214DF22C50CA
:1039D00000F090FDFE214DF22D5000F08BFD0321F3
:1039E0004DF22E5000F086FD10214DF22F5000F0C8
:1039F00081FD03214DF2305000F07CFD33214DF26A
:103A0000315000F077FD03214DF2325000F072FD8D
:103A10006D214DF2335000F06DFD00214FF4564002
:103A200000F068FD33214DF2016000F063FD0021DC
:103A30004DF2026000F05EFD34214DF2036000F0B3
:103A400059FD00214DF2046000F054FD3A214DF281
:103A5000056000F04FFD00214DF2066000F04AFDC8
:103A60004A214DF2076000F045FD00214DF208604B
:103A700000F040FD5C214DF2096000F03BFD0021AB
:103A80004DF20A6000F036FD81214DF20B6000F02E
:103A900031FD00214DF20C6000F02CFDA6214DF20D
:103AA0000D6000F027FD00214DF20E6000F022FDB8
:103AB000E5214DF20F6000F01DFD01214DF2106077
:103AC00000F018FD13214DF2116000F013FD0121EB
:103AD0004DF2126000F00EFD54214DF2136000F023
:103AE00009FD01214DF2146000F004FD82214DF228
:103AF000156000F0FFFC01214DF2166000F0FAFCA9
:103B0000CA214DF2176000F0F5FC02214DF2186059
:103B100000F0F0FC00214DF2196000F0EBFC0221F6
:103B20004DF21A6000F0E6FC01214DF21B6000F03E
:103B3000E1FC02214DF21C6000F0DCFC34214DF26E
:103B40001D6000F0D7FC02214DF21E6000F0D2FC97
:103B500067214DF21F6000F0CDFC02214DF2206084
:103B600000F0C8FC84214DF2216000F0C3FC02216A
:103B70004DF2226000F0BEFCA4214DF2236000F063
:103B8000B9FC02214DF2246000F0B4FCB7214DF2E3
:103B9000256000F0AFFC02214DF2266000F0AAFC87
:103BA000CF214DF2276000F0A5FC02214DF22860E4
:103BB00000F0A0FCDE214DF2296000F09BFC022108
:103BC0004DF22A6000F096FCF2214DF22B6000F0DD
:103BD00091FC02214DF22C6000F08CFCFE214DF294
:103BE0002D6000F087FC03214DF22E6000F082FC76
:103BF00010214DF22F6000F07DFC03214DF230606A
:103C000000F078FC33214DF2316000F073FC0321A9
:103C10004DF2326000F06EFC6D214DF2336000F029
:103C200069FC5521184600F065FCAA21384600F0D1
:103C300061FC5221504600F05DFC0821B81C00F0E8
:103C400059FC0021F81C00F055FCCC214FF4314008
:103C500000F050FC00214BF2011000F04BFC05215C
:103C60004FF4364000F046FC70214FF4374000F02E
:103C700041FC70214BF2017000F03CFC01214FF43B
:103C8000384000F037FC03214BF6010000F032FC15
:103C900003214BF6020000F02DFC03214BF603003C
:103CA00000F028FC02214FF43C4000F023FC0021EE
:103CB0004BF6014000F01EFC00214BF6024000F0E4
:103CC00019FCD0214FF4494000F014FC02214CF6BD
:103CD000011000F00FFC50214CF6021000F00AFC1D
:103CE00050214CF6031000F005FC50214CF6041056
:103CF00000F000FC00214FF4545000F0FBFB552174
:103D00004FF4685000F0F6FB4FF4885000F0DCFBF5
:103D1000782001F021FB4FF4245000F0D5FBB9E0EE
:103D20004045FCD1E22000F0CFFB1D2000F0C0FB9D
:103D3000022000F0BDFB042000F0BAFB642001F07B
:103D40000BFBE02000F0C0FB012000F0B1FB0A20DB
:103D500001F0E8FAE02000F0B7FB032000F0A8FB38
:103D60000C2001F0DFFA012000F0AEFB0A2001F088
:103D7000D9FAE62000F0A8FB2F2000F099FBFF20E5
:103D800000F096FBFF2000F093FBB02000F09CFBBE
:103D9000202000F08DFB002000F08AFB032000F0C3
:103DA00087FB40F21F3000F083FB012000F080FB16
:103DB00040F2DF1000F07CFB002000F079FBB42023
:103DC00000F082FB042000F073FB40F21F4000F083
:103DD0006FFB002000F06CFB2E2000F069FB002040
:103DE00000F066FB002000F063FB002000F060FBA9
:103DF000002000F05DFBB62000F066FB022000F022
:103E000057FB4FF4037000F053FB002000F050FB11
:103E1000172000F04DFB152000F04AFB002000F0B9
:103E200047FB002000F044FBF02000F04DFB032096
:103E300000F03EFB292000F047FBD02000F044FBBF
:103E4000002000F035FBBE2000F03EFB052000F016
:103E50002FFBFE2000F02CFB012000F029FB0020AE
:103E600000F026FB002000F023FB002000F020FBE8
:103E7000B82000F029FB032000F01AFB012000F01D
:103E800017FBBA2000F020FB012000F011FB64209A
:103E900000F03CF8A888A0F51341413905D0B042A4
:103EA00003D0A04201D0404517D1D9F8041121F028
:103EB0000F01C9F80411D9F8041121F47061C9F88F
:103EC0000411D9F8041141F00401C9F80411D9F81A
:103ED000041141F48061C9F804110020FDF7B0FC21
:103EE0000449C1F894B2BDE8FC5F4FF6FF70FDF7DE
:103EF00083BC000000804042034808B50088ADF84C
:103F00000000BDF8000008BD0000086010B50246C2
:103F1000BE2000F0D9FA052000F0CAFA104601F0E0
:103F200030FC9FED0C1B53EC112B01F03DFC01F01C
:103F3000FBFB80B200F0BCFA012000F0B9FAFF20D0
:103F400000F0B6FA002000F0B3FABDE810400020FF
:103F500000F0AEBA6666666666660440F0B56C4D03
:103F600000232946AA79898841F66314012A01D0E1
:103F70001AB11BE0A14202D118E0A14216D10828D3
:103F800014D2DFE800F00406080A0C0E1012062016
:103F90000CE007200AE0042008E0052006E00120EC
:103FA00004E0002002E0032000E00220A1F5134716
:103FB00045F2103245F21056413F05D0914203D0F0
:103FC000B14201D0A14277D1082812D2DFE800F037
:103FD000110406080A0C0E1080230AE0402308E0B2
:103FE000C02306E0202304E0602302E0A02300E0D9
:103FF000E023B14202D14FF4585000E03620914204
:1040000005D0B14203D0A14201D043F008031946C4
:1040100000F070FAAA88A2420AD098062888698817
:1040200002D5884202D303E0884201D92980688002
:104030006889B24241D100F047FA002000F038FA16
:104040006889401C80B200F03FFA002000F030FA8E
:104050006889801C80B200F037FA2888401EC0F3BF
:104060000F2000F025FA6889C01C80B200F02CFAFD
:104070002878401EC0B200F01BFAA88900F024FA8C
:10408000002000F015FAA889401C80B200F01CFA4C
:10409000002000F00DFAA889801C80B200F014FA0C
:1040A0006888401EC0F30F2000F002FAA889C01CE7
:1040B00080B200F009FA22E028E000F005FA0020C2
:1040C00000F0F6F9002000F0F3F92888401EC0F354
:1040D0000F2000F0EDF92878401EC0B200F0E8F99A
:1040E000A88900F0F1F9002000F0E2F9002000F0CA
:1040F000DFF96888401EC0F30F2000F0D9F9A878D6
:10410000BDE8F040401EC0B200F0D2B9F0BD0000E2
:1041100030080020F0B53F4D0C460246060AA9883B
:104120002846270A4089A1F51343413B28D0A1F531
:10413000A643103B24D0A1F5C853633B2FD0A1F573
:10414000AA43103B64D100F0BFF9304600F0B0F94B
:104150006889401C80B200F0B7F9D0B200F0A8F92D
:10416000A88900F0B1F9384600F0A2F9A889401CEE
:1041700080B200F0A9F9E0B2BDE8F04000F098B9D3
:1041800000F0A2F9304600F093F9D0B200F090F9B7
:10419000A88900F099F9384600F08AF9EBE7A97987
:1041A00029B300F091F9304600F082F9D0B200F066
:1041B0007FF92888401EC0F30F2000F079F9287895
:1041C000401EC0B200F074F9A88900F07DF93846AD
:1041D00000F06EF9E0B200F06BF96888401EC0F3A1
:1041E0000F2000F065F9A878401EC0B2C4E7298806
:1041F000891A491E8AB200F067F9002000F058F9C8
:10420000002000F055F9100A00F052F9D0B2D9E7B9
:10421000F0BD0000300800202DE9FC4F0D4604469B
:1042200019441044DFF85491401E1FFA80F8491ECB
:10423000B9F80430C1F307200190280A0090A018B3
:10424000401EC0F3072B4846A3F5134640898FB2A2
:104250004FEA142A413E0BD0A3F5A646103E07D0E4
:1042600099F8066041F6631C012E1CD163451AD1F2
:104270004A4600F029F9504600F01AF9E0B200F081
:1042800017F9584600F014F908F0FF0000F010F993
:10429000908900F019F9009800F00AF9E8B200F0EE
:1042A00007F9019822E04E46634522D133888FB248
:1042B0009B1A1B1B9CB200F007F9200A00F0F8F8CB
:1042C000E0B200F0F5F82244521EC2F30F2000F0D5
:1042D000EFF8D0B200F0ECF8B08900F0F5F80098F3
:1042E00000F0E6F8E8B200F0E3F8380A00F0E0F891
:1042F0003CE0A3F5AA4110393DD100F0E5F8504665
:1043000000F0D6F87089401C80B200F0DDF8E0B211
:1043100000F0CEF87089801C80B200F0D5F85846C5
:1043200000F0C6F87089C01C80B200F0CDF808F02B
:10433000FF0000F0BDF8B08900F0C6F8009800F06A
:10434000B7F8B089401C80B200F0BEF8E8B200F0C7
:10435000AFF8B089801C80B200F0B6F8019800F088
:10436000A7F8B089C01C80B200F0AEF8F8B2BDE882
:10437000FC4F00F09DB8BDE8FC8F00003008002025
:104380002DE9F84F82461F460E468B46580700D04F
:10439000012000EBD700790810FB01F0203AC0B2F1
:1043A00002F0FF090025009047E00C2F10D0102FDD
:1043B00012D0182F14D0202F42D1224901EBC9105E
:1043C0004FF00008445D200610D51F48026811E038
:1043D00009EB49001D4906E01D4901EB0910EFE713
:1043E0001C4909EBC90001EB8000E9E70A9828B9EC
:1043F0001548426831465046FDF79CFA6006040EA7
:104400001548761CB6B24088B04219D9A6EB0B000D
:10441000B84209D10AF101001FFA80FA0E485E463F
:10442000018851450CD906E008F1010000F0FF08B1
:10443000B8F1080FC7D36D1CEDB200988542B4D314
:10444000BDE8F88F8872000810000020C85A0008E4
:104450003C5F00082C650008300800202DE9F84F6B
:10446000044600F0FF0810190D46DDE90A761FFA30
:1044700080FA58191FFA80F94FF0000B11E05445EB
:1044800002D3E819444685B24D450FD23B46294632
:104490002046CDF800B0FFF773FF04EB570084B25D
:1044A000761C3278A2F120005E28E8D9BDE8F88FAA
:1044B00001B5BDF80000ADF80000BDF800000149ED
:1044C000088008BD0000086001B5BDF80000ADF827
:1044D0000000BDF800000149088008BDFEFF07602C
:1044E0000248034900890880704700003008002016
:1044F000FEFF0760024A1080901C01807047000098
:10450000FEFF07601CB50A48016841F00201016026
:1045100001240320CDE9000401460023224605487A
:10452000FDF705F80448C0F88442C0F880421CBD7D
:1045300030380240000402400080404208B500903C
:104540000548018BC08A491E8BB2401E82B20021F1
:10455000084600F0C9F808BD40080020F0B51C4C22
:1045600000230746256818461E4625F0805525601D
:1045700041F6FF7501E05B1C9BB2D4F800C05FEA16
:104580008C0C01D5AB42F6D3AB4201D10120F0BD7A
:1045900046EA871646EA01710D4E88363160311DB4
:1045A0000E6826F440360E600E6846EA02420A6043
:1045B000216841F08051216001E05B1C9BB22168C1
:1045C000890001D4AB42F8D3AB42E0D10220F0BD68
:1045D000003802402DE9F043264EDDF81C900024FF
:1045E000757D0DB1054606E077680D46B91A1A4685
:1045F0003B1A491E5B1E306896F814C0DFF87880BD
:10460000521B871A58F82CC0F66900FB015006FBB4
:1046100000C51A487F1EBFB2066846F40006066051
:104620001748066826F001060660002606604FF06F
:10463000020CC0F81CC006610764C0F80C90C5638A
:10464000591A4FF4803303EB0242491C1143416471
:10465000016841F0010101605A0102E0641C9442CA
:1046600002D241688907F9D5816841F00201816071
:10467000BDE8F083400800201800002030380240D8
:1046800000B0024010B5084B1C465875A1888AB28C
:10469000218889B220B1012801D1D9821A8310BDA5
:1046A000DA82198310BD000040080020F0B50C4FDD
:1046B00094B23D46DFF82CC02B68EA692D7D7E7DE3
:1046C0005CF8255026B103FB01004243AC52F0BD1B
:1046D0007E68301A401E03FB001050432C52F0BD80
:1046E00040080020180000202DE9F043254EDDF899
:1046F0001C900024757D0DB1054606E077680D46D7
:10470000B91A1A463B1A491E5B1E306896F814C047
:10471000DFF87480521B871A58F82CC0F66900FB2A
:10472000015006FB00C519487F1EBFB2066846F45B
:10473000000606601648066826F0010606604FF47B
:1047400040360660022646630764C563591AF303C0
:1047500003EB0242491C11434164C0F838900168E0
:1047600041F0010101605A0102E0641C944202D24E
:1047700041688907F9D5816841F002018160BDE88F
:10478000F08300004008002018000020303802406C
:1047900000B002402DE9FF5F002600F059FA0546FF
:1047A000C048016841F080610160BE48143801686A
:1047B00041F002010160016841F4F07101600127DC
:1047C0000220CDE9000700233A462021B648FCF735
:1047D000AEFE4FF00309CDE900974FF4806A4C46D6
:1047E000002302225146B148FCF7A1FEDFF8C0B217
:1047F000CDE90047002302224FF40C615846FCF734
:1048000096FEDFF8B082CDE90047002302224FF484
:104810007E414046FCF78BFECDE90047A64C0023C5
:10482000022240F2F7612046FCF781FE0E220A21A7
:104830009E48FCF76CFE0E2206215846FCF767FEE8
:104840000E2207215846FCF762FE0E220B21584625
:10485000FCF75DFE0E2209214046FCF758FE0E22B1
:104860000A214046FCF753FE0E220B214046FCF77E
:104870004EFE0E220C214046FCF749FE0E220D2171
:104880004046FCF744FE0E2211464046FCF73FFE30
:104890000E220F214046FCF73AFE0E220021204650
:1048A000FCF735FE0E2201212046FCF730FE0E22D9
:1048B00002212046FCF72BFE0E2204212046FCF7A5
:1048C00026FE0E2205212046FCF721FE0E2206219F
:1048D0002046FCF71CFE0E2207212046FCF717FE9F
:1048E0000E2209212046FCF712FE0E220A21204644
:1048F000FCF70DFE714CA5F586404FF4F07141F2C6
:10490000180B42387ED0A5F5E0424FF44870843A47
:1049100079D08C22A5F5E0414FF4167C4FF4B473A6
:10492000163971D0A5F5E0484FF4A061B8F1180828
:104930006BD0A5F50048B8F1160867D05D450ED1DB
:10494000C4E90010A2810A2020822081E0816082D7
:10495000A4F80A90012202211846FFF7FFFD5D45E9
:1049600001D14FF080565648066060892289554D26
:10497000034605EB0241401E0143514810380160D7
:10498000E0891918A0894B1E104405EB00421A4318
:104990004B4B0C3B1A606268531ECE18238800EB09
:1049A000030C05EB0C4C4CEA060C454E083EC6F8D1
:1049B00000C0668A32441144228A491E1A441044B7
:1049C00005EB004008433E49091F08603C480025AC
:1049D00014300560012000F085F93C483A49062270
:1049E00001600220E0610720CDE90052CDE9020517
:1049F000FF230222002000F06FF8A08880B2009010
:104A0000208804E018E029E039E045E047E0002292
:104A100083B21146104600F0A7F82D482188018086
:104A2000A18841802B482575C0F8947204B0681E97
:104A3000BDE8F05FFFF782BD4FF48870C4E9001055
:104A4000278167812820A0810820E081052121821B
:104A50006082022204214FF490707EE7C4E90001D5
:104A6000278167812E20A0811720E081D22020821B
:104A700016206082012203214FF4C6706DE7C4E95D
:104A800000AC14202081A4F80A90A281E081A0202B
:104A900020820C2060825DE7C4E900105FE7C4E972
:104AA00000AC5CE7443802400004024000140240BD
:104AB00000180240001C0240002002404008002074
:104AC000186801400000FFFF000000C0180000202F
:104AD0003008002000804042F0B5DDE90554DDE9F2
:104AE000077646EA056547EA042458B10B48016099
:104AF0000A4818380260001D0360001D0560001D93
:104B00000460F0BD054880380160044898380260B0
:104B1000001D0360001D0560001DF1E72C690140C8
:104B2000104B104A8033012901D049B10DE018B172
:104B3000186840F0010007E0106840F001000EE046
:104B400050B1186820F0010018600648603801680C
:104B500041F0010101607047106820F00100106011
:104B6000F3E7000084680140F0B4374F049CCE188E
:104B7000D7F800C01519CCF30B4C6644D7F800C029
:104B8000CCF30B4C614401F1010141EA064140B311
:104B90002D4EFC3631603968C1F30A0129443D6865
:104BA000C5F30A052A44521C42EA0142311D0A603B
:104BB0002649096811F007013FD001293FD0052996
:104BC0003FD006293DD002214B43204AD91C1C323C
:104BD00041EA03411160111D0C60F0BC0121FFF797
:104BE0009FBF194E7C3631603968C1F30A012944F0
:104BF0003D68C5F30A052A44521C42EA0142311DB0
:104C00000A6012498039096811F007010FD00129A3
:104C10000FD005290FD006290DD002214B430B4A96
:104C2000D91C643A41EA03411160111DD4E7042103
:104C3000F4E70321F2E70121F0E70421C4E70321AF
:104C4000C2E70121C0E700000C680140146901407F
:104C50007CB51F48016841F4A07101600024012562
:104C60002346224640211B48CDE90045FCF75FFC66
:104C700000231A4684211848CDE90045FCF757FC6B
:104C80001648D0F818021649D1F80822D1F81C129B
:104C900040EA420040EA8100C0B2062816D2DFE8AE
:104CA00000F00306090C0F1244F242307CBD47F2BB
:104CB00084007CBD47F216007CBD47F218007CBD25
:104CC00048F216007CBD41F218007CBD00207CBD7E
:104CD00030380240001802400020024000004342E9
:104CE000000044420649012806D0002803D1086884
:104CF00020F0010008607047086840F00100F9E703
:104D000018680140F0B5064614460F461D46184681
:104D100000F01EF8C5F1040086400F21E94039403B
:104D200031436009800000F1E020D0F8002104F058
:104D30001F050123AB401A43C0F8002104F1E02411
:104D400094F8000440EA011084F80004F0BD00006B
:104D5000064A0721814310684FF6FF031840044BB1
:104D6000184340EA01201060704700000CED00E09D
:104D70000000FA056FF30801014301480160704724
:104D800008ED00E02DE9FC419A480068994940F09F
:104D900001000860974808380068964940F07C0098
:104DA0000839086001200324CDE90040DFF848827B
:104DB000002302220D214046FCF7B9FB0120CDE97A
:104DC00000408E4D002302224CF203712846FCF76E
:104DD000AEFB0120CDE90040894E002302224FF6B0
:104DE00083713046FCF7A3FB0120CDE90040854FDD
:104DF000002302224FF63F013846FCF798FB0120C2
:104E0000CDE90040804C0023022248F237112046B1
:104E1000FCF78DFB0C2200214046FCF778FB0C22AE
:104E200002214046FCF773FB0C2203214046FCF7AD
:104E30006EFB0C2200212846FCF769FB0C220121A5
:104E40002846FCF764FB0C2208212846FCF75FFB90
:104E50000C2209212846FCF75AFB0C220A2128467D
:104E6000FCF755FB0C220E212846FCF750FB0C22C8
:104E70000F212846FCF74BFB0C2200213046FCF7A3
:104E800046FB0C2201213046FCF741FB0C22072196
:104E90003046FCF73CFB0C2208213046FCF737FB80
:104EA0000C2209213046FCF732FB0C220A21304645
:104EB000FCF72DFB0C220B213046FCF728FB0C22C3
:104EC00011463046FCF723FB0C220D213046FCF73F
:104ED0001EFB0C220E213046FCF719FB0C220F2181
:104EE0003046FCF714FB0C2200213846FCF70FFB80
:104EF0000C2201213846FCF70AFB0C22022138461D
:104F0000FCF705FB0C2203213846FCF700FB0C22C2
:104F100004213846FCF7FBFA0C2205213846FCF741
:104F2000F6FA0C220B213846FCF7F1FA0C22114656
:104F30003846FCF7ECFA0C220D213846FCF7E7FA6C
:104F40000C220E213846FCF7E2FA0C220F213846DB
:104F5000FCF7DDFA0C2200212046FCF7D8FA0C22DF
:104F600001212046FCF7D3FA0C2202212046FCF74F
:104F7000CEFA0C2204212046FCF7C9FA0C220521A6
:104F80002046FCF7C4FA0C2208212046FCF7BFFAA1
:104F90000C220F212046FCF7BAFAFC0441F6D91086
:104FA000C4F840011948C4F8480100231A460121F9
:104FB000184604F5A07400F02BF84FF4FA7000F0D6
:104FC000CBF900231A460221184600F021F80023ED
:104FD00008220321184600F01BF8002240F2332378
:104FE0000421104600F014F840F2B4506061BDE8AE
:104FF000FC8100003838024000080240000C0240EA
:1050000000100240001402400018024061551101D6
:1050100030B5C0F1040501200024A840084340EA4F
:10502000421040EA43214FF02040C0F850114FF4A5
:10503000001204E0641C944201D3012030BDD0F87A
:1050400058118906F6D4002030BD0000F0B50F4C91
:10505000256845F0010525600C4E002508363560B1
:1050600026680B4F3E402660271D0A4E3E6026688C
:1050700026F480262660054C0C34256000F00CF8E0
:10508000BDE8F04000210846FFF774BE003802403A
:10509000FFFFF6FE10300024F0B5304D0646002428
:1050A0002F68204647F480372F6041F6FF7701E0F4
:1050B000641CA4B2D5F800C05FEA8C3C01D4BC42A9
:1050C000F6D3BC4201D10120F0BD244C4034276806
:1050D00047F080572760224C276847F440472760F5
:1050E0001E4C0834276847F4144727602F6827F0C0
:1050F00080772F6041EA86111A4E520806EB024271
:10510000114341EA0361221F41F4800111602968C3
:1051100041F08071296029688901FCD512490A682B
:1051200042F480720A600A6842F400720A600A68F7
:1051300042F480620A600A6842F005020A6021684F
:1051400021F003012160216841F002012160216802
:10515000C1F381010229FAD1F0BD000000380240FC
:10516000007000400000FFFF003C02400849086852
:10517000C00706D0074AD2F8800238B10020C2F832
:105180008002086820F00100086070470120F6E7FF
:1051900010040040008040420D4A136843F00203AF
:1051A00013600C4A1060101F01600A482038016823
:1051B00041F00101016007482C38016841F001010C
:1051C000016002231D2203210120FFF79BBD000087
:1051D000403802402C04004030B5204B1868204A6B
:1051E00081B24FF000041078050635D4CD0706D003
:1051F000450604D5C543AD0613D0401C1070880782
:105200002AD510781749450612D540F08000107055
:105210001448143000685060086820F002000860EC
:105220001AE040F0800010704FF0FF305060E6E769
:1052300040205460107009481038026822F00102C2
:105240000260084A121D14600A6842F002020A60F5
:10525000016841F0010101601C6030BD100C00408C
:1052600020000020200C004030B51248016889065B
:105270000CD54068104AC1B21088030406D4440417
:105280004FF0000306D50A2901D0138030BD40F449
:1052900000400DE00D2909D0C0F30D04074D401C5E
:1052A00080B229551080C728EFD830BD40F4804027
:1052B000108030BD0010014006000020680700206B
:1052C00003B401984100009850EAC12018BF04209F
:1052D0004A0D18BF40F0010040F2FF72B2EB515F7F
:1052E00008BF40F00200012808BF052002B0704747
:1052F00030380A2801D201207047002070477047DB
:105300004FF0E0210A6922F004020A610449C20850
:105310000A704FF47A7210FB02F0C00848807047A0
:105320000200002070B54FF40776B0FBF6F1CCB266
:10533000B0FBF6F106FB110504E0304600F020F862
:10534000641EE4B2002CF8D1002D04D02846BDE83C
:10535000704000F015B870BD0849097848434FF017
:10536000E021486100238B61012008610869C207C0
:1053700001D0C003FAD50B618B6170470200002099
:105380000849498848434FF0E021486100238B6178
:10539000012008610869C20701D0C003FAD50B617A
:1053A0008B6170470200002003490A685206FCD551
:1053B000C2B24A6070470000001001402DED028B20
:1053C000002490B026460823022219214FF4B4701D
:1053D000FFF73CFEB420FFF793FF4FF4E1315A2072
:1053E00000F01EF9FFF78EF8FCF784F9FFF7CAFC0E
:1053F000FCF71EFB42F227314FF6FF70FFF7CCFEA1
:105400005C4F4FF47840102538605BA0CDE9005028
:105410002B46C82232211E20FFF720F85BA0CDE9E1
:1054200000501023C82246211E20FFF717F85AA06B
:10543000CDE900501023C8225A211E20FFF70EF894
:1054400059A0CDE900501023C8226E211E20FFF77D
:1054500005F858A0CDE900501023C82282211E2053
:10546000FEF7FCFF58A0CDE900501023C82296217A
:105470001E20FEF7F3FF4FF49660FFF753FF1F2047
:1054800038605648FCF718F9554D564FDFF85881EB
:10549000DFF85891DFF858B1A246B2EE048A002036
:1054A000FCF75AF9012804D0032808D004280ED1AB
:1054B0000BE0641CE4B2192C09D9002407E014B1F4
:1054C000641EE4B203E0192401E01EB10026012E9F
:1054D00002D006E00126FAE7641CE4B2192C00D9D8
:1054E000002400216B882A880846FEF795FEFEF707
:1054F000F7FFC7F800A088F800A039F81400009062
:10550000698828884B084208FCF752F8396898F8EF
:10551000000001EB004000EE100AF8EE400A80EEB9
:10552000880A10EE100A00F03DFACDE9000139F8C2
:10553000143030A231A102A8FAF7CEFE02A90C2045
:10554000CDE9000128880C23401F82B268881138F9
:1055500081B20520FEF782FF02A930A0FAF7B0FE63
:10556000DBF88402594618B10020C1F8840296E79E
:105570000120FAE71000002041706F6C6C6F20531F
:10558000544D333246342F463700000046505520E4
:10559000544553540000000041544F4D40414C4984
:1055A000454E54454B000000323031362F312F31FB
:1055B000320000004B4559303A2B202020204B452B
:1055C00059323A2D000000004B45595F55503A4181
:1055D00055544F2F4D414E554C00000028000020DF
:1055E000300800202404004000000020945A0008E5
:1055F00000804042465055204F6E000025733A20EF
:105600007A6F6F6D3A2564202072756E74696D65CE
:105610003A25302E31666D730D0A000025730000A7
:105620007CB5324A504300EE100A08014FF6FF7273
:10563000F8EE400A00EE100AB8EE401A80EE810A39
:10564000FCEEC00A10EE900A80B200EE900A02EA68
:105650000010F8EE600A30EE600AF3EE000A20EE69
:10566000200ABCEEC00A10EE101A084485B2204889
:10567000016841F0010101601D481430016841F0EA
:105680001001016002200121CDE90001194C024600
:1056900000234FF4C0612046FBF749FF0722092190
:1056A0002046FBF734FF07220A212046FBF72FFF95
:1056B000114CA560E06820F40040E060E06840F034
:1056C0000800E060E06840F00400E060E06840F05E
:1056D0002000E0600321022325220846FFF712FB89
:1056E000E06840F40050E0607CBD000040420F00E4
:1056F00030380240000002400010014010B500297F
:105700000AD00878002807D005487844FBF704FB46
:10571000002801D0002010BD0248784410BD0000D0
:10572000EE4B0000E64B00004FEA1153A3F58063F7
:10573000D3F11E03A8BFD3F1200C08DB4FF00042C9
:1057400042EAC12252EA505232FA03F0704709424B
:105750000BD4102BC4BF0020704703F5787CBCF13C
:10576000FF3F05D04FF0FF3070474FF0000070470B
:1057700070B500F0C3F800BF499224800020704744
:10578000F0E7B0FA80F310FA03F10AD0C3F11D0379
:1057900003F580634FEA41504FEA035202EBD121F7
:1057A00070474FF000007047DFF848C170B51CEA41
:1057B000111E1EBF1CEA13159EEA0C0F95EA0C0F72
:1057C00000F06F8081EA030423EA4C134EEAD47E92
:1057D00021EA4C1141F4801143F48013AE44A1FB43
:1057E000024CA0FB0365AEF17F7E361955EB0C052C
:1057F000A1FB034C4CF10003A0FB021C16EB0C06B2
:10580000654153F10003094218BF46F0010613F445
:10581000007F0BD14FEA03314FEA0530340341EAF0
:10582000155140EA16506FF003020AE04FEAC32117
:105830004FEAC520F40241EA555140EA56506FF054
:10584000020202EB2E4201EB025585EACE710AD02C
:105850005FEA440C18BF24F0004450F1000041F10D
:10586000000120EAD47040F2FE7C624500D270BD97
:10587000A84214BF4FF080444FF04044002E08BFB0
:105880000024BEF1806FA8BFA1F1C041BDE8704007
:1058900080F282804FF0000001F1C04101F0004130
:1058A00070479EEA0C0F0CEA131518BF95EA0C0F0F
:1058B00006D04FF0000081EA030E0EF0004170BDEB
:1058C00000F01CF88900013E00F007B800F009B8AC
:1058D0004FEA430C5FEA5C5C08D081EA030100F008
:1058E0005BB84FEA410C5FEA5C5CF6D14FF0000018
:1058F000014970470000FF070000F87F0EF1020E1B
:105900002EF0030E5EF8046B364205D4012A43EBF9
:10591000030515F5001F12D8012841EB010C1CF5F9
:10592000001F0CD80ED14FEAD17C15F5001F0CEBEF
:105930004C0C0CF1020C08BF4CEBD37C04E04FF094
:10594000080C01E04FEAD37C0CEB4C0526FA05F677
:1059500006F00706B6F1040C06D20EEB860CBDE885
:1059600070404CF0010C6047DFE80CF0090B0202BC
:105970004FF000414FF00000A1F5002170BD194625
:105980001046012851EB010418BFD4F5001484BF60
:10599000002001F0004170BD0808A0F500114FEA99
:1059A0003101704743004FEAD30C4FEA3C0C4340AF
:1059B0001FBF40070CF1605113F0FE4F70471CF001
:1059C000006F03D100200CF0004170470CF0004341
:1059D00043EA507010B540EACC0000F00EF800BF6A
:1059E000000000924FEA0001FFF7D6BF4FF00041E0
:1059F0004FF00000A1F5002170470EF1020E2EF0CD
:105A0000030E5EF8044B244204D44FEA4102B2F183
:105A10007F4F11D84FEA4003B3F17F4F0CD80ED11E
:105A20004FEAD07CB2F17F4F0CEB4C0C0CF1020C26
:105A300008BF4CEBD17C04E04FF0080C01E04FEACA
:105A4000D17C0CEB4C0324FA03F404F00704B4F10A
:105A5000040C06D20EEB840CBDE810404CF0010C97
:105A60006047DFE80CF0070802024FF00040A0F5A5
:105A7000800010BD0846420018BFD2F1807288BF76
:105A800000F0004010BD4FF04070E1EE100A70478A
:105A9000FAF798BE78006E0064009600C800130103
:105AA0005E01C20158022003E803B004DC05D00700
:105AB000DC05B004E80320035802C2015E011301B3
:105AC000C800960064006E000000000000000000A6
:105AD00000000000000000003F4000000000000047
